{
  "abi": [
    {
      "inputs": [
        {
          "internalType": "address",
          "name": "_owner",
          "type": "address"
        },
        {
          "internalType": "address",
          "name": "_oracle",
          "type": "address"
        },
        {
          "internalType": "address",
          "name": "_resolver",
          "type": "address"
        },
        {
          "internalType": "bytes32[]",
          "name": "_currencyKeys",
          "type": "bytes32[]"
        },
        {
          "internalType": "uint256[]",
          "name": "_newRates",
          "type": "uint256[]"
        }
      ],
      "payable": false,
      "stateMutability": "nonpayable",
      "type": "constructor"
    },
    {
      "anonymous": false,
      "inputs": [
        {
          "indexed": false,
          "internalType": "bytes32",
          "name": "currencyKey",
          "type": "bytes32"
        },
        {
          "indexed": false,
          "internalType": "address",
          "name": "aggregator",
          "type": "address"
        }
      ],
      "name": "AggregatorAdded",
      "type": "event"
    },
    {
      "anonymous": false,
      "inputs": [
        {
          "indexed": false,
          "internalType": "bytes32",
          "name": "currencyKey",
          "type": "bytes32"
        },
        {
          "indexed": false,
          "internalType": "address",
          "name": "aggregator",
          "type": "address"
        }
      ],
      "name": "AggregatorRemoved",
      "type": "event"
    },
    {
      "anonymous": false,
      "inputs": [
        {
          "indexed": false,
          "internalType": "bytes32",
          "name": "name",
          "type": "bytes32"
        },
        {
          "indexed": false,
          "internalType": "address",
          "name": "destination",
          "type": "address"
        }
      ],
      "name": "CacheUpdated",
      "type": "event"
    },
    {
      "anonymous": false,
      "inputs": [
        {
          "indexed": false,
          "internalType": "address",
          "name": "newDexPriceAggregator",
          "type": "address"
        }
      ],
      "name": "DexPriceAggregatorUpdated",
      "type": "event"
    },
    {
      "anonymous": false,
      "inputs": [
        {
          "indexed": false,
          "internalType": "bytes32",
          "name": "currencyKey",
          "type": "bytes32"
        },
        {
          "indexed": false,
          "internalType": "uint256",
          "name": "entryPoint",
          "type": "uint256"
        },
        {
          "indexed": false,
          "internalType": "uint256",
          "name": "upperLimit",
          "type": "uint256"
        },
        {
          "indexed": false,
          "internalType": "uint256",
          "name": "lowerLimit",
          "type": "uint256"
        }
      ],
      "name": "InversePriceConfigured",
      "type": "event"
    },
    {
      "anonymous": false,
      "inputs": [
        {
          "indexed": false,
          "internalType": "bytes32",
          "name": "currencyKey",
          "type": "bytes32"
        },
        {
          "indexed": false,
          "internalType": "uint256",
          "name": "rate",
          "type": "uint256"
        },
        {
          "indexed": false,
          "internalType": "uint256",
          "name": "roundId",
          "type": "uint256"
        },
        {
          "indexed": false,
          "internalType": "address",
          "name": "initiator",
          "type": "address"
        }
      ],
      "name": "InversePriceFrozen",
      "type": "event"
    },
    {
      "anonymous": false,
      "inputs": [
        {
          "indexed": false,
          "internalType": "address",
          "name": "newOracle",
          "type": "address"
        }
      ],
      "name": "OracleUpdated",
      "type": "event"
    },
    {
      "anonymous": false,
      "inputs": [
        {
          "indexed": false,
          "internalType": "address",
          "name": "oldOwner",
          "type": "address"
        },
        {
          "indexed": false,
          "internalType": "address",
          "name": "newOwner",
          "type": "address"
        }
      ],
      "name": "OwnerChanged",
      "type": "event"
    },
    {
      "anonymous": false,
      "inputs": [
        {
          "indexed": false,
          "internalType": "address",
          "name": "newOwner",
          "type": "address"
        }
      ],
      "name": "OwnerNominated",
      "type": "event"
    },
    {
      "anonymous": false,
      "inputs": [
        {
          "indexed": false,
          "internalType": "bytes32",
          "name": "currencyKey",
          "type": "bytes32"
        }
      ],
      "name": "RateDeleted",
      "type": "event"
    },
    {
      "anonymous": false,
      "inputs": [
        {
          "indexed": false,
          "internalType": "bytes32[]",
          "name": "currencyKeys",
          "type": "bytes32[]"
        },
        {
          "indexed": false,
          "internalType": "uint256[]",
          "name": "newRates",
          "type": "uint256[]"
        }
      ],
      "name": "RatesUpdated",
      "type": "event"
    },
    {
      "constant": true,
      "inputs": [],
      "name": "CONTRACT_NAME",
      "outputs": [
        {
          "internalType": "bytes32",
          "name": "",
          "type": "bytes32"
        }
      ],
      "payable": false,
      "stateMutability": "view",
      "type": "function"
    },
    {
      "constant": false,
      "inputs": [],
      "name": "acceptOwnership",
      "outputs": [],
      "payable": false,
      "stateMutability": "nonpayable",
      "type": "function"
    },
    {
      "constant": false,
      "inputs": [
        {
          "internalType": "bytes32",
          "name": "currencyKey",
          "type": "bytes32"
        },
        {
          "internalType": "address",
          "name": "aggregatorAddress",
          "type": "address"
        }
      ],
      "name": "addAggregator",
      "outputs": [],
      "payable": false,
      "stateMutability": "nonpayable",
      "type": "function"
    },
    {
      "constant": true,
      "inputs": [
        {
          "internalType": "uint256",
          "name": "",
          "type": "uint256"
        }
      ],
      "name": "aggregatorKeys",
      "outputs": [
        {
          "internalType": "bytes32",
          "name": "",
          "type": "bytes32"
        }
      ],
      "payable": false,
      "stateMutability": "view",
      "type": "function"
    },
    {
      "constant": true,
      "inputs": [],
      "name": "aggregatorWarningFlags",
      "outputs": [
        {
          "internalType": "address",
          "name": "",
          "type": "address"
        }
      ],
      "payable": false,
      "stateMutability": "view",
      "type": "function"
    },
    {
      "constant": true,
      "inputs": [
        {
          "internalType": "bytes32",
          "name": "",
          "type": "bytes32"
        }
      ],
      "name": "aggregators",
      "outputs": [
        {
          "internalType": "contract AggregatorV2V3Interface",
          "name": "",
          "type": "address"
        }
      ],
      "payable": false,
      "stateMutability": "view",
      "type": "function"
    },
    {
      "constant": true,
      "inputs": [
        {
          "internalType": "bytes32[]",
          "name": "currencyKeys",
          "type": "bytes32[]"
        }
      ],
      "name": "anyRateIsInvalid",
      "outputs": [
        {
          "internalType": "bool",
          "name": "",
          "type": "bool"
        }
      ],
      "payable": false,
      "stateMutability": "view",
      "type": "function"
    },
    {
      "constant": true,
      "inputs": [
        {
          "internalType": "bytes32",
          "name": "currencyKey",
          "type": "bytes32"
        }
      ],
      "name": "atomicEquivalentForDexPricing",
      "outputs": [
        {
          "internalType": "address",
          "name": "",
          "type": "address"
        }
      ],
      "payable": false,
      "stateMutability": "view",
      "type": "function"
    },
    {
      "constant": true,
      "inputs": [
        {
          "internalType": "bytes32",
          "name": "currencyKey",
          "type": "bytes32"
        }
      ],
      "name": "atomicPriceBuffer",
      "outputs": [
        {
          "internalType": "uint256",
          "name": "",
          "type": "uint256"
        }
      ],
      "payable": false,
      "stateMutability": "view",
      "type": "function"
    },
    {
      "constant": true,
      "inputs": [],
      "name": "atomicTwapWindow",
      "outputs": [
        {
          "internalType": "uint256",
          "name": "",
          "type": "uint256"
        }
      ],
      "payable": false,
      "stateMutability": "view",
      "type": "function"
    },
    {
      "constant": true,
      "inputs": [
        {
          "internalType": "bytes32",
          "name": "currencyKey",
          "type": "bytes32"
        }
      ],
      "name": "atomicVolatilityConsiderationWindow",
      "outputs": [
        {
          "internalType": "uint256",
          "name": "",
          "type": "uint256"
        }
      ],
      "payable": false,
      "stateMutability": "view",
      "type": "function"
    },
    {
      "constant": true,
      "inputs": [
        {
          "internalType": "bytes32",
          "name": "currencyKey",
          "type": "bytes32"
        }
      ],
      "name": "atomicVolatilityUpdateThreshold",
      "outputs": [
        {
          "internalType": "uint256",
          "name": "",
          "type": "uint256"
        }
      ],
      "payable": false,
      "stateMutability": "view",
      "type": "function"
    },
    {
      "constant": true,
      "inputs": [
        {
          "internalType": "bytes32",
          "name": "currencyKey",
          "type": "bytes32"
        }
      ],
      "name": "canFreezeRate",
      "outputs": [
        {
          "internalType": "bool",
          "name": "",
          "type": "bool"
        }
      ],
      "payable": false,
      "stateMutability": "view",
      "type": "function"
    },
    {
      "constant": true,
      "inputs": [
        {
          "internalType": "address",
          "name": "aggregator",
          "type": "address"
        }
      ],
      "name": "currenciesUsingAggregator",
      "outputs": [
        {
          "internalType": "bytes32[]",
          "name": "currencies",
          "type": "bytes32[]"
        }
      ],
      "payable": false,
      "stateMutability": "view",
      "type": "function"
    },
    {
      "constant": true,
      "inputs": [
        {
          "internalType": "bytes32",
          "name": "",
          "type": "bytes32"
        }
      ],
      "name": "currencyKeyDecimals",
      "outputs": [
        {
          "internalType": "uint8",
          "name": "",
          "type": "uint8"
        }
      ],
      "payable": false,
      "stateMutability": "view",
      "type": "function"
    },
    {
      "constant": true,
      "inputs": [
        {
          "internalType": "bytes32",
          "name": "",
          "type": "bytes32"
        }
      ],
      "name": "currentRoundForRate",
      "outputs": [
        {
          "internalType": "uint256",
          "name": "",
          "type": "uint256"
        }
      ],
      "payable": false,
      "stateMutability": "view",
      "type": "function"
    },
    {
      "constant": false,
      "inputs": [
        {
          "internalType": "bytes32",
          "name": "currencyKey",
          "type": "bytes32"
        }
      ],
      "name": "deleteRate",
      "outputs": [],
      "payable": false,
      "stateMutability": "nonpayable",
      "type": "function"
    },
    {
      "constant": true,
      "inputs": [],
      "name": "dexPriceAggregator",
      "outputs": [
        {
          "internalType": "contract IDexPriceAggregator",
          "name": "",
          "type": "address"
        }
      ],
      "payable": false,
      "stateMutability": "view",
      "type": "function"
    },
    {
      "constant": true,
      "inputs": [
        {
          "internalType": "bytes32",
          "name": "sourceCurrencyKey",
          "type": "bytes32"
        },
        {
          "internalType": "uint256",
          "name": "sourceAmount",
          "type": "uint256"
        },
        {
          "internalType": "bytes32",
          "name": "destinationCurrencyKey",
          "type": "bytes32"
        }
      ],
      "name": "effectiveAtomicValueAndRates",
      "outputs": [
        {
          "internalType": "uint256",
          "name": "value",
          "type": "uint256"
        },
        {
          "internalType": "uint256",
          "name": "systemValue",
          "type": "uint256"
        },
        {
          "internalType": "uint256",
          "name": "systemSourceRate",
          "type": "uint256"
        },
        {
          "internalType": "uint256",
          "name": "systemDestinationRate",
          "type": "uint256"
        }
      ],
      "payable": false,
      "stateMutability": "view",
      "type": "function"
    },
    {
      "constant": true,
      "inputs": [
        {
          "internalType": "bytes32",
          "name": "sourceCurrencyKey",
          "type": "bytes32"
        },
        {
          "internalType": "uint256",
          "name": "sourceAmount",
          "type": "uint256"
        },
        {
          "internalType": "bytes32",
          "name": "destinationCurrencyKey",
          "type": "bytes32"
        }
      ],
      "name": "effectiveValue",
      "outputs": [
        {
          "internalType": "uint256",
          "name": "value",
          "type": "uint256"
        }
      ],
      "payable": false,
      "stateMutability": "view",
      "type": "function"
    },
    {
      "constant": true,
      "inputs": [
        {
          "internalType": "bytes32",
          "name": "sourceCurrencyKey",
          "type": "bytes32"
        },
        {
          "internalType": "uint256",
          "name": "sourceAmount",
          "type": "uint256"
        },
        {
          "internalType": "bytes32",
          "name": "destinationCurrencyKey",
          "type": "bytes32"
        }
      ],
      "name": "effectiveValueAndRates",
      "outputs": [
        {
          "internalType": "uint256",
          "name": "value",
          "type": "uint256"
        },
        {
          "internalType": "uint256",
          "name": "sourceRate",
          "type": "uint256"
        },
        {
          "internalType": "uint256",
          "name": "destinationRate",
          "type": "uint256"
        }
      ],
      "payable": false,
      "stateMutability": "view",
      "type": "function"
    },
    {
      "constant": true,
      "inputs": [
        {
          "internalType": "bytes32",
          "name": "sourceCurrencyKey",
          "type": "bytes32"
        },
        {
          "internalType": "uint256",
          "name": "sourceAmount",
          "type": "uint256"
        },
        {
          "internalType": "bytes32",
          "name": "destinationCurrencyKey",
          "type": "bytes32"
        },
        {
          "internalType": "uint256",
          "name": "roundIdForSrc",
          "type": "uint256"
        },
        {
          "internalType": "uint256",
          "name": "roundIdForDest",
          "type": "uint256"
        }
      ],
      "name": "effectiveValueAtRound",
      "outputs": [
        {
          "internalType": "uint256",
          "name": "value",
          "type": "uint256"
        }
      ],
      "payable": false,
      "stateMutability": "view",
      "type": "function"
    },
    {
      "constant": false,
      "inputs": [
        {
          "internalType": "bytes32",
          "name": "currencyKey",
          "type": "bytes32"
        }
      ],
      "name": "freezeRate",
      "outputs": [],
      "payable": false,
      "stateMutability": "nonpayable",
      "type": "function"
    },
    {
      "constant": true,
      "inputs": [
        {
          "internalType": "bytes32",
          "name": "currencyKey",
          "type": "bytes32"
        }
      ],
      "name": "getCurrentRoundId",
      "outputs": [
        {
          "internalType": "uint256",
          "name": "",
          "type": "uint256"
        }
      ],
      "payable": false,
      "stateMutability": "view",
      "type": "function"
    },
    {
      "constant": true,
      "inputs": [
        {
          "internalType": "bytes32",
          "name": "currencyKey",
          "type": "bytes32"
        },
        {
          "internalType": "uint256",
          "name": "startingRoundId",
          "type": "uint256"
        },
        {
          "internalType": "uint256",
          "name": "startingTimestamp",
          "type": "uint256"
        },
        {
          "internalType": "uint256",
          "name": "timediff",
          "type": "uint256"
        }
      ],
      "name": "getLastRoundIdBeforeElapsedSecs",
      "outputs": [
        {
          "internalType": "uint256",
          "name": "",
          "type": "uint256"
        }
      ],
      "payable": false,
      "stateMutability": "view",
      "type": "function"
    },
    {
      "constant": true,
      "inputs": [
        {
          "internalType": "bytes32",
          "name": "",
          "type": "bytes32"
        }
      ],
      "name": "inversePricing",
      "outputs": [
        {
          "internalType": "uint256",
          "name": "entryPoint",
          "type": "uint256"
        },
        {
          "internalType": "uint256",
          "name": "upperLimit",
          "type": "uint256"
        },
        {
          "internalType": "uint256",
          "name": "lowerLimit",
          "type": "uint256"
        },
        {
          "internalType": "bool",
          "name": "frozenAtUpperLimit",
          "type": "bool"
        },
        {
          "internalType": "bool",
          "name": "frozenAtLowerLimit",
          "type": "bool"
        }
      ],
      "payable": false,
      "stateMutability": "view",
      "type": "function"
    },
    {
      "constant": true,
      "inputs": [
        {
          "internalType": "uint256",
          "name": "",
          "type": "uint256"
        }
      ],
      "name": "invertedKeys",
      "outputs": [
        {
          "internalType": "bytes32",
          "name": "",
          "type": "bytes32"
        }
      ],
      "payable": false,
      "stateMutability": "view",
      "type": "function"
    },
    {
      "constant": true,
      "inputs": [],
      "name": "isResolverCached",
      "outputs": [
        {
          "internalType": "bool",
          "name": "",
          "type": "bool"
        }
      ],
      "payable": false,
      "stateMutability": "view",
      "type": "function"
    },
    {
      "constant": true,
      "inputs": [
        {
          "internalType": "bytes32",
          "name": "currencyKey",
          "type": "bytes32"
        }
      ],
      "name": "lastRateUpdateTimes",
      "outputs": [
        {
          "internalType": "uint256",
          "name": "",
          "type": "uint256"
        }
      ],
      "payable": false,
      "stateMutability": "view",
      "type": "function"
    },
    {
      "constant": true,
      "inputs": [
        {
          "internalType": "bytes32[]",
          "name": "currencyKeys",
          "type": "bytes32[]"
        }
      ],
      "name": "lastRateUpdateTimesForCurrencies",
      "outputs": [
        {
          "internalType": "uint256[]",
          "name": "",
          "type": "uint256[]"
        }
      ],
      "payable": false,
      "stateMutability": "view",
      "type": "function"
    },
    {
      "constant": false,
      "inputs": [
        {
          "internalType": "address",
          "name": "_owner",
          "type": "address"
        }
      ],
      "name": "nominateNewOwner",
      "outputs": [],
      "payable": false,
      "stateMutability": "nonpayable",
      "type": "function"
    },
    {
      "constant": true,
      "inputs": [],
      "name": "nominatedOwner",
      "outputs": [
        {
          "internalType": "address",
          "name": "",
          "type": "address"
        }
      ],
      "payable": false,
      "stateMutability": "view",
      "type": "function"
    },
    {
      "constant": true,
      "inputs": [],
      "name": "oracle",
      "outputs": [
        {
          "internalType": "address",
          "name": "",
          "type": "address"
        }
      ],
      "payable": false,
      "stateMutability": "view",
      "type": "function"
    },
    {
      "constant": true,
      "inputs": [],
      "name": "owner",
      "outputs": [
        {
          "internalType": "address",
          "name": "",
          "type": "address"
        }
      ],
      "payable": false,
      "stateMutability": "view",
      "type": "function"
    },
    {
      "constant": true,
      "inputs": [
        {
          "internalType": "bytes32",
          "name": "currencyKey",
          "type": "bytes32"
        }
      ],
      "name": "rateAndInvalid",
      "outputs": [
        {
          "internalType": "uint256",
          "name": "rate",
          "type": "uint256"
        },
        {
          "internalType": "bool",
          "name": "isInvalid",
          "type": "bool"
        }
      ],
      "payable": false,
      "stateMutability": "view",
      "type": "function"
    },
    {
      "constant": true,
      "inputs": [
        {
          "internalType": "bytes32",
          "name": "currencyKey",
          "type": "bytes32"
        },
        {
          "internalType": "uint256",
          "name": "roundId",
          "type": "uint256"
        }
      ],
      "name": "rateAndTimestampAtRound",
      "outputs": [
        {
          "internalType": "uint256",
          "name": "rate",
          "type": "uint256"
        },
        {
          "internalType": "uint256",
          "name": "time",
          "type": "uint256"
        }
      ],
      "payable": false,
      "stateMutability": "view",
      "type": "function"
    },
    {
      "constant": true,
      "inputs": [
        {
          "internalType": "bytes32",
          "name": "currencyKey",
          "type": "bytes32"
        }
      ],
      "name": "rateAndUpdatedTime",
      "outputs": [
        {
          "internalType": "uint256",
          "name": "rate",
          "type": "uint256"
        },
        {
          "internalType": "uint256",
          "name": "time",
          "type": "uint256"
        }
      ],
      "payable": false,
      "stateMutability": "view",
      "type": "function"
    },
    {
      "constant": true,
      "inputs": [
        {
          "internalType": "bytes32",
          "name": "currencyKey",
          "type": "bytes32"
        }
      ],
      "name": "rateForCurrency",
      "outputs": [
        {
          "internalType": "uint256",
          "name": "",
          "type": "uint256"
        }
      ],
      "payable": false,
      "stateMutability": "view",
      "type": "function"
    },
    {
      "constant": true,
      "inputs": [
        {
          "internalType": "bytes32",
          "name": "currencyKey",
          "type": "bytes32"
        }
      ],
      "name": "rateIsFlagged",
      "outputs": [
        {
          "internalType": "bool",
          "name": "",
          "type": "bool"
        }
      ],
      "payable": false,
      "stateMutability": "view",
      "type": "function"
    },
    {
      "constant": true,
      "inputs": [
        {
          "internalType": "bytes32",
          "name": "currencyKey",
          "type": "bytes32"
        }
      ],
      "name": "rateIsFrozen",
      "outputs": [
        {
          "internalType": "bool",
          "name": "",
          "type": "bool"
        }
      ],
      "payable": false,
      "stateMutability": "view",
      "type": "function"
    },
    {
      "constant": true,
      "inputs": [
        {
          "internalType": "bytes32",
          "name": "currencyKey",
          "type": "bytes32"
        }
      ],
      "name": "rateIsInvalid",
      "outputs": [
        {
          "internalType": "bool",
          "name": "",
          "type": "bool"
        }
      ],
      "payable": false,
      "stateMutability": "view",
      "type": "function"
    },
    {
      "constant": true,
      "inputs": [
        {
          "internalType": "bytes32",
          "name": "currencyKey",
          "type": "bytes32"
        }
      ],
      "name": "rateIsStale",
      "outputs": [
        {
          "internalType": "bool",
          "name": "",
          "type": "bool"
        }
      ],
      "payable": false,
      "stateMutability": "view",
      "type": "function"
    },
    {
      "constant": true,
      "inputs": [],
      "name": "rateStalePeriod",
      "outputs": [
        {
          "internalType": "uint256",
          "name": "",
          "type": "uint256"
        }
      ],
      "payable": false,
      "stateMutability": "view",
      "type": "function"
    },
    {
      "constant": true,
      "inputs": [
        {
          "internalType": "bytes32[]",
          "name": "currencyKeys",
          "type": "bytes32[]"
        }
      ],
      "name": "ratesAndInvalidForCurrencies",
      "outputs": [
        {
          "internalType": "uint256[]",
          "name": "rates",
          "type": "uint256[]"
        },
        {
          "internalType": "bool",
          "name": "anyRateInvalid",
          "type": "bool"
        }
      ],
      "payable": false,
      "stateMutability": "view",
      "type": "function"
    },
    {
      "constant": true,
      "inputs": [
        {
          "internalType": "bytes32",
          "name": "currencyKey",
          "type": "bytes32"
        },
        {
          "internalType": "uint256",
          "name": "numRounds",
          "type": "uint256"
        }
      ],
      "name": "ratesAndUpdatedTimeForCurrencyLastNRounds",
      "outputs": [
        {
          "internalType": "uint256[]",
          "name": "rates",
          "type": "uint256[]"
        },
        {
          "internalType": "uint256[]",
          "name": "times",
          "type": "uint256[]"
        }
      ],
      "payable": false,
      "stateMutability": "view",
      "type": "function"
    },
    {
      "constant": true,
      "inputs": [
        {
          "internalType": "bytes32[]",
          "name": "currencyKeys",
          "type": "bytes32[]"
        }
      ],
      "name": "ratesForCurrencies",
      "outputs": [
        {
          "internalType": "uint256[]",
          "name": "",
          "type": "uint256[]"
        }
      ],
      "payable": false,
      "stateMutability": "view",
      "type": "function"
    },
    {
      "constant": false,
      "inputs": [],
      "name": "rebuildCache",
      "outputs": [],
      "payable": false,
      "stateMutability": "nonpayable",
      "type": "function"
    },
    {
      "constant": false,
      "inputs": [
        {
          "internalType": "bytes32",
          "name": "currencyKey",
          "type": "bytes32"
        }
      ],
      "name": "removeAggregator",
      "outputs": [],
      "payable": false,
      "stateMutability": "nonpayable",
      "type": "function"
    },
    {
      "constant": false,
      "inputs": [
        {
          "internalType": "bytes32",
          "name": "currencyKey",
          "type": "bytes32"
        }
      ],
      "name": "removeInversePricing",
      "outputs": [],
      "payable": false,
      "stateMutability": "nonpayable",
      "type": "function"
    },
    {
      "constant": true,
      "inputs": [],
      "name": "resolver",
      "outputs": [
        {
          "internalType": "contract AddressResolver",
          "name": "",
          "type": "address"
        }
      ],
      "payable": false,
      "stateMutability": "view",
      "type": "function"
    },
    {
      "constant": true,
      "inputs": [],
      "name": "resolverAddressesRequired",
      "outputs": [
        {
          "internalType": "bytes32[]",
          "name": "addresses",
          "type": "bytes32[]"
        }
      ],
      "payable": false,
      "stateMutability": "view",
      "type": "function"
    },
    {
      "constant": true,
      "inputs": [
        {
          "internalType": "bytes32",
          "name": "",
          "type": "bytes32"
        }
      ],
      "name": "roundFrozen",
      "outputs": [
        {
          "internalType": "uint256",
          "name": "",
          "type": "uint256"
        }
      ],
      "payable": false,
      "stateMutability": "view",
      "type": "function"
    },
    {
      "constant": false,
      "inputs": [
        {
          "internalType": "contract IDexPriceAggregator",
          "name": "_dexPriceAggregator",
          "type": "address"
        }
      ],
      "name": "setDexPriceAggregator",
      "outputs": [],
      "payable": false,
      "stateMutability": "nonpayable",
      "type": "function"
    },
    {
      "constant": false,
      "inputs": [
        {
          "internalType": "bytes32",
          "name": "currencyKey",
          "type": "bytes32"
        },
        {
          "internalType": "uint256",
          "name": "entryPoint",
          "type": "uint256"
        },
        {
          "internalType": "uint256",
          "name": "upperLimit",
          "type": "uint256"
        },
        {
          "internalType": "uint256",
          "name": "lowerLimit",
          "type": "uint256"
        },
        {
          "internalType": "bool",
          "name": "freezeAtUpperLimit",
          "type": "bool"
        },
        {
          "internalType": "bool",
          "name": "freezeAtLowerLimit",
          "type": "bool"
        }
      ],
      "name": "setInversePricing",
      "outputs": [],
      "payable": false,
      "stateMutability": "nonpayable",
      "type": "function"
    },
    {
      "constant": false,
      "inputs": [
        {
          "internalType": "address",
          "name": "_oracle",
          "type": "address"
        }
      ],
      "name": "setOracle",
      "outputs": [],
      "payable": false,
      "stateMutability": "nonpayable",
      "type": "function"
    },
    {
      "constant": true,
      "inputs": [
        {
          "internalType": "bytes32",
          "name": "currencyKey",
          "type": "bytes32"
        }
      ],
      "name": "synthTooVolatileForAtomicExchange",
      "outputs": [
        {
          "internalType": "bool",
          "name": "",
          "type": "bool"
        }
      ],
      "payable": false,
      "stateMutability": "view",
      "type": "function"
    },
    {
      "constant": false,
      "inputs": [
        {
          "internalType": "bytes32[]",
          "name": "currencyKeys",
          "type": "bytes32[]"
        },
        {
          "internalType": "uint256[]",
          "name": "newRates",
          "type": "uint256[]"
        },
        {
          "internalType": "uint256",
          "name": "timeSent",
          "type": "uint256"
        }
      ],
      "name": "updateRates",
      "outputs": [
        {
          "internalType": "bool",
          "name": "",
          "type": "bool"
        }
      ],
      "payable": false,
      "stateMutability": "nonpayable",
      "type": "function"
    }
  ],
  "evm": {
    "bytecode": {
      "linkReferences": {
        "ExchangeRatesWithDexPricing.sol": {
          "SafeDecimalMath": [
            {
              "length": 20,
              "start": 714
            },
            {
              "length": 20,
              "start": 6958
            },
            {
              "length": 20,
              "start": 7099
            },
            {
              "length": 20,
              "start": 7721
            }
          ]
        }
      },
      "object": "60806040523480156200001157600080fd5b50604051620054c7380380620054c7833981810160405260a08110156200003757600080fd5b8151602083015160408085015160608601805192519496939591949391820192846401000000008211156200006b57600080fd5b9083019060208201858111156200008157600080fd5b82518660208202830111640100000000821117156200009f57600080fd5b82525081516020918201928201910280838360005b83811015620000ce578181015183820152602001620000b4565b5050505090500160405260200180516040519392919084640100000000821115620000f857600080fd5b9083019060208201858111156200010e57600080fd5b82518660208202830111640100000000821117156200012c57600080fd5b82525081516020918201928201910280838360005b838110156200015b57818101518382015260200162000141565b50505050905001604052505050848484848482808660006001600160a01b0316816001600160a01b03161415620001d9576040805162461bcd60e51b815260206004820152601960248201527f4f776e657220616464726573732063616e6e6f74206265203000000000000000604482015290519081900360640190fd5b600080546001600160a01b0319166001600160a01b038316908117825560408051928352602083019190915280517fb532073b38c83145e3e5135377a08bf9aab55bc0fd7c1179cd4fb995d2a5159c9281900390910190a150600280546001600160a01b0319166001600160a01b0392909216919091179055508051825114620002955760405162461bcd60e51b815260040180806020018281038252602f815260200180620053d5602f913960400191505060405180910390fd5b83600560006101000a8154816001600160a01b0302191690836001600160a01b031602179055506200034b631cd554d160e21b73__$e9b11e9f4c77d4fa45acd0743461a141a9$__63907af6c06040518163ffffffff1660e01b815260040160206040518083038186803b1580156200030d57600080fd5b505af415801562000322573d6000803e3d6000fd5b505050506040513d60208110156200033957600080fd5b5051426001600160e01b036200037216565b620003618282426001600160e01b03620003eb16565b505050505050505050505062000c1d565b6000838152600b60209081526040808320805460010190819055815180830183526001600160d81b03968716815264ffffffffff958616818501908152978552600484528285209185529252909120905181549451909216600160d81b029183166001600160d81b031990941693909317909116179055565b600082518451146200042f5760405162461bcd60e51b8152600401808060200182810382526038815260200180620054566038913960400191505060405180910390fd5b6102584201821062000488576040805162461bcd60e51b815260206004820152601f60248201527f54696d6520697320746f6f2066617220696e746f207468652066757475726500604482015290519081900360640190fd5b60005b8451811015620005a1576000858281518110620004a457fe5b60200260200101519050848281518110620004bb57fe5b602002602001015160001415620005045760405162461bcd60e51b81526004018080602001828103825260398152602001806200548e6039913960400191505060405180910390fd5b80631cd554d160e21b14156200054c5760405162461bcd60e51b8152600401808060200182810382526031815260200180620054046031913960400191505060405180910390fd5b62000560816001600160e01b036200066c16565b8410156200056f575062000598565b62000596818684815181106200058157fe5b6020026020010151866200037260201b60201c565b505b6001016200048b565b507f1bc0fc8997efa076f59b5ef02c315bc5390f7a6d24d661ce12128c01a3b0ba578484604051808060200180602001838103835285818151815260200191508051906020019060200280838360005b838110156200060b578181015183820152602001620005f1565b50505050905001838103825284818151815260200191508051906020019060200280838360005b838110156200064c57818101518382015260200162000632565b5050505090500194505050505060405180910390a15060015b9392505050565b600062000682826001600160e01b036200069516565b6020015164ffffffffff1690505b919050565b6200069f62000bd3565b6000828152600660205260409020546001600160a01b031680156200083b5760408051600481526024810182526020810180516001600160e01b0316633fabe5a360e21b1781529151815191926000926060926001600160a01b0387169286928291908083835b60208310620007275780518252601f19909201916020918201910162000706565b6001836020036101000a038019825116818451168082178552505050505050905001915050600060405180830381855afa9150503d806000811462000789576040519150601f19603f3d011682016040523d82523d6000602084013e6200078e565b606091505b50915091508115620008325760008060008380602001905160a0811015620007b557600080fd5b508051602082015160609092015160408051808201909152919550919350909150806200080a8b620007f181876001600160e01b03620008e716565b6001600160501b0388166001600160e01b03620009b416565b6001600160d81b031681526020018264ffffffffff1681525097505050505050505062000690565b505050620008e1565b6000838152600b60205260409020546200085462000bd3565b5060008481526004602090815260408083208484528252918290208251808401845290546001600160d81b038082168352600160d81b90910464ffffffffff1692820192909252825180840190935280519092918291620008b99189911686620009b4565b6001600160d81b03168152602001826020015164ffffffffff16815250935050505062000690565b50919050565b6000808212156200093f576040805162461bcd60e51b815260206004820152601b60248201527f4e656761746976652072617465206e6f7420737570706f727465640000000000604482015290519081900360640190fd5b60008381526007602052604090205460ff1615620009ab576000838152600760209081526040822054620009839160129160ff169062002fc962000b17821b17901c565b600a0a9050620009a2818462000b7560201b62003db51790919060201c565b915050620009ae565b50805b92915050565b6000620009c062000bea565b50600084815260096020908152604091829020825160a08101845281548082526001830154938201939093526002820154938101939093526003015460ff808216151560608501526101009091041615156080830152158062000a21575083155b1562000a31578391505062000665565b6000858152600c602052604090205484925080841080159062000a55575081606001515b1562000a68578160200151925062000b0e565b80841015801562000a7a575081608001515b1562000a8d578160400151925062000b0e565b600062000aae6002846000015162000b7560201b62003db51790919060201c565b905085811162000ac2576000935062000adf565b62000adc868262000b1760201b62002fc91790919060201c565b93505b8260200151841062000af8578260200151935062000b0c565b8260400151841162000b0c57826040015193505b505b50509392505050565b60008282111562000b6f576040805162461bcd60e51b815260206004820152601e60248201527f536166654d6174683a207375627472616374696f6e206f766572666c6f770000604482015290519081900360640190fd5b50900390565b60008262000b8657506000620009ae565b8282028284828162000b9457fe5b0414620006655760405162461bcd60e51b8152600401808060200182810382526021815260200180620054356021913960400191505060405180910390fd5b604080518082019091526000808252602082015290565b6040518060a001604052806000815260200160008152602001600081526020016000151581526020016000151581525090565b6147a88062000c2d6000396000f3fe608060405234801561001057600080fd5b50600436106103825760003560e01c8063728dec29116101de5780639eab4a371161010f578063bfa005ce116100ad578063ce8480ea1161007c578063ce8480ea14610d4c578063de02795e14610d69578063f216310714610d86578063fdadbc7e14610da357610382565b8063bfa005ce14610b36578063c2c8a67614610bf4578063c8e5bbd514610c62578063c8e6f39514610d2f57610382565b8063af3aea86116100e9578063af3aea8614610a8a578063b199c76414610aa7578063b295ad3414610ae6578063b7ab13f214610b1957610382565b80639eab4a3714610a48578063a777155614610a50578063ac82f60814610a6d57610382565b80637f6e9d151161017c578063899ffef411610156578063899ffef4146109fe5780638da5cb5b14610a06578063935f4abd14610a0e57806397a4aca014610a2b57610382565b80637f6e9d151461097d5780638295016a1461099a5780638661cc7b146109e157610382565b806379ba5097116101b857806379ba50971461092a5780637a018a1e146109325780637adbf9731461094f5780637dc0d1d01461097557610382565b8063728dec29146108b057806374185360146108fc57806374eded391461090457610382565b80632d7371e1116102b85780634c36b83711610256578063614d08f811610230578063614d08f81461085a578063654a60ac146108625780636a2b91511461088b5780637103353e1461089357610382565b80634c36b8371461082d5780634f72def61461083557806353a47bb71461085257610382565b806338aa1b991161029257806338aa1b99146107915780633f0e084f146107ae5780634308a94f146107da578063459388491461081057610382565b80632d7371e11461069b5780632ea913d4146107575780633375fcd11461077457610382565b8063109e46a211610325578063266da16b116102ff578063266da16b1461061b5780632678df96146106505780632af64bd3146106765780632bed9e0c1461067e57610382565b8063109e46a2146105a75780631627540c146105d65780632528f0fe146105fe57610382565b806305a046e51161036157806305a046e51461042b5780630a7d36d1146104e95780630c71cd23146105575780630ee4951b1461058d57610382565b80629919c01461038757806304f3bcec146103b8578063055286e0146103dc575b600080fd5b6103a46004803603602081101561039d57600080fd5b5035610dc6565b604080519115158252519081900360200190f35b6103c0610de1565b604080516001600160a01b039092168252519081900360200190f35b610405600480360360608110156103f257600080fd5b5080359060208101359060400135610df0565b604080519485526020850193909352838301919091526060830152519081900360800190f35b6104996004803603602081101561044157600080fd5b810190602081018135600160201b81111561045b57600080fd5b82018360208201111561046d57600080fd5b803590602001918460208302840111600160201b8311171561048e57600080fd5b50909250905061128a565b60408051602080825283518183015283519192839290830191858101910280838360005b838110156104d55781810151838201526020016104bd565b505050509050019250505060405180910390f35b6103a4600480360360208110156104ff57600080fd5b810190602081018135600160201b81111561051957600080fd5b82018360208201111561052b57600080fd5b803590602001918460208302840111600160201b8311171561054c57600080fd5b50909250905061130c565b6105746004803603602081101561056d57600080fd5b50356113bf565b6040805192835290151560208301528051918290030190f35b610595611444565b60408051918252519081900360200190f35b610595600480360360808110156105bd57600080fd5b5080359060208101359060408101359060600135611454565b6105fc600480360360208110156105ec57600080fd5b50356001600160a01b0316611497565b005b6103a46004803603602081101561061457600080fd5b50356114f3565b610595600480360360a081101561063157600080fd5b5080359060208101359060408101359060608101359060800135611513565b6104996004803603602081101561066657600080fd5b50356001600160a01b0316611580565b6103a4611634565b6105fc6004803603602081101561069457600080fd5b503561173e565b6106be600480360360408110156106b157600080fd5b508035906020013561183a565b604051808060200180602001838103835285818151815260200191508051906020019060200280838360005b838110156107025781810151838201526020016106ea565b50505050905001838103825284818151815260200191508051906020019060200280838360005b83811015610741578181015183820152602001610729565b5050505090500194505050505060405180910390f35b6105956004803603602081101561076d57600080fd5b503561190d565b6103a46004803603602081101561078a57600080fd5b503561192b565b6103a4600480360360208110156107a757600080fd5b50356119f1565b6105fc600480360360408110156107c457600080fd5b50803590602001356001600160a01b03166119ff565b6107f7600480360360208110156107f057600080fd5b5035611c45565b6040805192835260208301919091528051918290030190f35b6105fc6004803603602081101561082657600080fd5b5035611c7d565b6103c0611d3b565b6105956004803603602081101561084b57600080fd5b5035611d45565b6103c0611d52565b610595611d61565b6105956004803603606081101561087857600080fd5b5080359060208101359060400135611d75565b610595611d8d565b6103c0600480360360208110156108a957600080fd5b5035611d97565b6108cd600480360360208110156108c657600080fd5b5035611db2565b604080519586526020860194909452848401929092521515606084015215156080830152519081900360a00190f35b6105fc611de5565b6105fc6004803603602081101561091a57600080fd5b50356001600160a01b0316611fad565b6105fc612092565b6105956004803603602081101561094857600080fd5b503561214e565b6105fc6004803603602081101561096557600080fd5b50356001600160a01b0316612159565b6103c06121bb565b6105956004803603602081101561099357600080fd5b50356121ca565b6109c3600480360360608110156109b057600080fd5b50803590602081013590604001356121dc565b60408051938452602084019290925282820152519081900360600190f35b6103a4600480360360208110156109f757600080fd5b50356121fc565b6104996122e5565b6103c061234d565b61059560048036036020811015610a2457600080fd5b503561235c565b61059560048036036020811015610a4157600080fd5b503561236e565b6103c0612379565b61059560048036036020811015610a6657600080fd5b5035612424565b61059560048036036020811015610a8357600080fd5b503561242f565b6103a460048036036020811015610aa057600080fd5b503561244a565b6105fc600480360360c0811015610abd57600080fd5b50803590602081013590604081013590606081013590608081013515159060a001351515612455565b610b0360048036036020811015610afc57600080fd5b50356127c5565b6040805160ff9092168252519081900360200190f35b61059560048036036020811015610b2f57600080fd5b50356127da565b6103a460048036036060811015610b4c57600080fd5b810190602081018135600160201b811115610b6657600080fd5b820183602082011115610b7857600080fd5b803590602001918460208302840111600160201b83111715610b9957600080fd5b919390929091602081019035600160201b811115610bb657600080fd5b820183602082011115610bc857600080fd5b803590602001918460208302840111600160201b83111715610be957600080fd5b9193509150356127e5565b61049960048036036020811015610c0a57600080fd5b810190602081018135600160201b811115610c2457600080fd5b820183602082011115610c3657600080fd5b803590602001918460208302840111600160201b83111715610c5757600080fd5b509092509050612868565b610cd060048036036020811015610c7857600080fd5b810190602081018135600160201b811115610c9257600080fd5b820183602082011115610ca457600080fd5b803590602001918460208302840111600160201b83111715610cc557600080fd5b5090925090506128e0565b604051808060200183151515158152602001828103825284818151815260200191508051906020019060200280838360005b83811015610d1a578181015183820152602001610d02565b50505050905001935050505060405180910390f35b6105fc60048036036020811015610d4557600080fd5b5035612a27565b61059560048036036020811015610d6257600080fd5b5035612b18565b6105fc60048036036020811015610d7f57600080fd5b5035612b23565b6103c060048036036020811015610d9c57600080fd5b5035612d05565b6107f760048036036040811015610db957600080fd5b5080359060200135612d10565b6000610dd982610dd4612d28565b612da0565b90505b919050565b6002546001600160a01b031681565b6000806000806000610e0188612dd2565b90506001600160a01b038116610e5e576040805162461bcd60e51b815260206004820152601c60248201527f4e6f2061746f6d6963206571756976616c656e7420666f722073726300000000604482015290519081900360640190fd5b6000610e6987612dd2565b90506001600160a01b038116610ec6576040805162461bcd60e51b815260206004820152601d60248201527f4e6f2061746f6d6963206571756976616c656e7420666f722064657374000000604482015290519081900360640190fd5b610ed1898989612eb8565b919650945092506000610ef4610ee68b612f0a565b610eef8a612f0a565b612fb2565b90506000610f88610f7b8373__$e9b11e9f4c77d4fa45acd0743461a141a9$__63907af6c06040518163ffffffff1660e01b815260040160206040518083038186803b158015610f4357600080fd5b505af4158015610f57573d6000803e3d6000fd5b505050506040513d6020811015610f6d57600080fd5b50519063ffffffff612fc916565b889063ffffffff61302616565b9050600073__$e9b11e9f4c77d4fa45acd0743461a141a9$__63907af6c06040518163ffffffff1660e01b815260040160206040518083038186803b158015610fd057600080fd5b505af4158015610fe4573d6000803e3d6000fd5b505050506040513d6020811015610ffa57600080fd5b50516040805163313ce56760e01b815290516001600160a01b0388169163313ce567916004808301926020929190829003018186803b15801561103c57600080fd5b505afa158015611050573d6000803e3d6000fd5b505050506040513d602081101561106657600080fd5b505160ff16600a0a8c028161107757fe5b0490506000611084613050565b9050806110d8576040805162461bcd60e51b815260206004820181905260248201527f556e696e697469616c697a65642061746f6d696320747761702077696e646f77604482015290519081900360640190fd5b60006110e2612379565b60408051637c66194960e01b81526001600160a01b038a811660048301526024820187905289811660448301526064820186905291519290911691637c66194991608480820192602092909190829003018186803b15801561114357600080fd5b505afa158015611157573d6000803e3d6000fd5b505050506040513d602081101561116d57600080fd5b50516040805163313ce56760e01b815290519192506000916001600160a01b0389169163313ce567916004808301926020929190829003018186803b1580156111b557600080fd5b505afa1580156111c9573d6000803e3d6000fd5b505050506040513d60208110156111df57600080fd5b505160408051630241ebdb60e61b8152905160ff909216600a0a9173__$e9b11e9f4c77d4fa45acd0743461a141a9$__9163907af6c0916004808301926020929190829003018186803b15801561123557600080fd5b505af4158015611249573d6000803e3d6000fd5b505050506040513d602081101561125f57600080fd5b505183028161126a57fe5b04905061127785826130c9565b9b50505050505050505093509350935093565b606080838390506040519080825280602002602001820160405280156112ba578160200160208202803883390190505b50905060005b83811015611302576112e38585838181106112d757fe5b905060200201356130d8565b8282815181106112ef57fe5b60209081029190910101526001016112c0565b5090505b92915050565b600080611317612d28565b905060606113578585808060200260200160405190810160405280939291908181526020018383602002808284376000920191909152506130f492505050565b905060005b848110156113b35781818151811061137057fe5b60200260200101518061139a575061139a86868381811061138d57fe5b9050602002013584612da0565b156113ab5760019350505050611306565b60010161135c565b50600095945050505050565b6000806113ca6144f0565b6113d384613335565b905083631cd554d160e21b14156113f957516001600160d81b031691506000905061143f565b8051611417611406612d28565b836020015164ffffffffff1661355e565b8061142e575061142e85611429613579565b6135f8565b6001600160d81b0390911693509150505b915091565b600061144e612d28565b90505b90565b600083815b61146687836001016136d6565b915050801580611477575083850181115b156114845750905061148f565b600190910190611459565b949350505050565b61149f6138ac565b600180546001600160a01b0383166001600160a01b0319909116811790915560408051918252517f906a1c6bd7e3091ea86693dd029a831c19049ce77f1dce2ce0bab1cacbabce229181900360200190a150565b600061150182610dd4612d28565b80610dd95750610dd982611429613579565b600083861415611524575083611577565b600061153087856136d6565b509050600061153f86856136d6565b5090508061155257600092505050611577565b61157281611566898563ffffffff6138f716565b9063ffffffff61390c16565b925050505b95945050505050565b6008546040805182815260208084028201019091526060916000919080156115b2578160200160208202803883390190505b50915060005b60085481101561162d576000600882815481106115d157fe5b600091825260208083209091015480835260069091526040909120549091506001600160a01b039081169086161415611624578084848060010195508151811061161757fe5b6020026020010181815250505b506001016115b8565b5050919050565b600060606116406122e5565b905060005b815181101561173557600082828151811061165c57fe5b6020908102919091018101516000818152600383526040908190205460025482516321f8a72160e01b81526004810185905292519395506001600160a01b03918216949116926321f8a721926024808201939291829003018186803b1580156116c457600080fd5b505afa1580156116d8573d6000803e3d6000fd5b505050506040513d60208110156116ee57600080fd5b50516001600160a01b031614158061171b57506000818152600360205260409020546001600160a01b0316155b1561172c5760009350505050611451565b50600101611645565b50600191505090565b6117466138ac565b6000818152600660205260409020546001600160a01b0316806117b0576040805162461bcd60e51b815260206004820152601c60248201527f4e6f2061676772656761746f722065786973747320666f72206b657900000000604482015290519081900360640190fd5b600082815260066020908152604080832080546001600160a01b031916905560079091528120805460ff191690556117e9836008613921565b9050801561183557604080518481526001600160a01b038416602082015281517fec70e890fc7db7de4059b114c9093a1f41283d18ffcfbcac45566feea4d4f777929181900390910190a15b505050565b60608082604051908082528060200260200182016040528015611867578160200160208202803883390190505b50915082604051908082528060200260200182016040528015611894578160200160208202803883390190505b50905060006118a2856139c5565b905060005b84811015611903576118b986836136d6565b8583815181106118c557fe5b602002602001018584815181106118d857fe5b602090810291909101019190915252816118f457506119069050565b600019909101906001016118a7565b50505b9250929050565b600a818154811061191a57fe5b600091825260209091200154905081565b6000611935614507565b50600082815260096020908152604091829020825160a08101845281548082526001830154938201939093526002820154938101939093526003015460ff8082161515606085015261010090910416151560808301521580611998575080606001515b806119a4575080608001515b156119b3576000915050610ddc565b60006119be8461242f565b90506000811180156119e257508160200151811015806119e2575081604001518111155b92505050610ddc565b50919050565b6000610dd982611429613579565b611a076138ac565b60008190506000816001600160a01b031663668a0f026040518163ffffffff1660e01b815260040160206040518083038186803b158015611a4757600080fd5b505afa158015611a5b573d6000803e3d6000fd5b505050506040513d6020811015611a7157600080fd5b50511015611ac6576040805162461bcd60e51b815260206004820152601b60248201527f476976656e2041676772656761746f7220697320696e76616c69640000000000604482015290519081900360640190fd5b6000816001600160a01b031663313ce5676040518163ffffffff1660e01b815260040160206040518083038186803b158015611b0157600080fd5b505afa158015611b15573d6000803e3d6000fd5b505050506040513d6020811015611b2b57600080fd5b50519050601260ff82161115611b725760405162461bcd60e51b81526004018080602001828103825260328152602001806146e26032913960400191505060405180910390fd5b6000848152600660205260409020546001600160a01b0316611bc457600880546001810182556000919091527ff3f7a9fe364faab93b216da50a3214154f22a0a2b415b23a84c8169e8b636ee3018490555b600084815260066020908152604080832080546001600160a01b0319166001600160a01b0387169081179091556007835292819020805460ff191660ff861617905580518781529182019290925281517f0bcae573430f69c5361e5d76534d3f61d2d803958778680cd74be9dc6299bc63929181900390910190a150505050565b600080611c506144f0565b611c5984613335565b80516020909101516001600160d81b03909116935064ffffffffff16915050915091565b611c85613a67565b6000611c908261242f565b11611cd1576040805162461bcd60e51b815260206004820152600c60248201526b52617465206973207a65726f60a01b604482015290519081900360640190fd5b6000818152600460209081526040808320600b8084528285208054865291845282852085905593859052928252825460001901909255815183815291517fe69d655565c7ff1353d8eaeea62fb7904fa9696987431ec351be288c865f1ae19281900390910190a150565b600061144e613579565b6008818154811061191a57fe5b6001546001600160a01b031681565b6c45786368616e6765526174657360981b81565b6000611d82848484612eb8565b509095945050505050565b600061144e613050565b6006602052600090815260409020546001600160a01b031681565b60096020526000908152604090208054600182015460028301546003909301549192909160ff8082169161010090041685565b6060611def6122e5565b905060005b8151811015611fa9576000828281518110611e0b57fe5b602090810291909101810151600254604080517f5265736f6c766572206d697373696e67207461726765743a2000000000000000818601526039808201859052825180830390910181526059820180845263dacb2d0160e01b9052605d8201858152607d83019384528151609d84015281519597506000966001600160a01b039095169563dacb2d01958995939492939260bd0191908501908083838c5b83811015611ec1578181015183820152602001611ea9565b50505050905090810190601f168015611eee5780820380516001836020036101000a031916815260200191505b50935050505060206040518083038186803b158015611f0c57600080fd5b505afa158015611f20573d6000803e3d6000fd5b505050506040513d6020811015611f3657600080fd5b505160008381526003602090815260409182902080546001600160a01b0319166001600160a01b03851690811790915582518681529182015281519293507f88a93678a3692f6789d9546fc621bf7234b101ddb7d4fe479455112831b8aa68929081900390910190a15050600101611df4565b5050565b611fb56138ac565b611fbd613ab0565b604080516309b9412f60e31b81526c45786368616e6765526174657360981b6004820152713232bc283934b1b2a0b3b3b932b3b0ba37b960711b60248201526001600160a01b03848116604483015291519290911691634dca09789160648082019260009290919082900301818387803b15801561203a57600080fd5b505af115801561204e573d6000803e3d6000fd5b5050604080516001600160a01b038516815290517f8a51d16f378c74938a4b9290afe425bbfba62f05aa9d27bff5e892f62696f7609350908190036020019150a150565b6001546001600160a01b031633146120db5760405162461bcd60e51b81526004018080602001828103825260358152602001806145786035913960400191505060405180910390fd5b600054600154604080516001600160a01b03938416815292909116602083015280517fb532073b38c83145e3e5135377a08bf9aab55bc0fd7c1179cd4fb995d2a5159c9281900390910190a160018054600080546001600160a01b03199081166001600160a01b03841617909155169055565b6000610dd9826139c5565b6121616138ac565b600580546001600160a01b0319166001600160a01b03838116919091179182905560408051929091168252517f3df77beb5db05fcdd70a30fc8adf3f83f9501b68579455adbd100b8180940394916020908290030190a150565b6005546001600160a01b031681565b600c6020526000908152604090205481565b60008060006121ec868686612eb8565b9250925092505b93509350939050565b600081631cd554d160e21b141561221557506000610ddc565b600061222083613acd565b9050600061222d84613b81565b905081158061223a575080155b1561224a57600092505050610ddc565b600061225c428463ffffffff612fc916565b90506000612269866139c5565b90505b82156122d95760008061227f88846136d6565b915091508060001415801561229357508381105b156122a75760009650505050505050610ddc565b8115806122b2575080155b156122be5750506122d9565b826122ca5750506122d9565b5050600019928301920161226c565b50600195945050505050565b6060806122f0613c35565b60408051600180825281830190925291925060609190602080830190803883390190505090506822bc31b430b733b2b960b91b8160008151811061233057fe5b6020026020010181815250506123468282613c86565b9250505090565b6000546001600160a01b031681565b600b6020526000908152604090205481565b6000610dd982613b81565b6000612383613ab0565b6001600160a01b0316639ee5955a6c45786368616e6765526174657360981b713232bc283934b1b2a0b3b3b932b3b0ba37b960711b6040518363ffffffff1660e01b8152600401808381526020018281526020019250505060206040518083038186803b1580156123f357600080fd5b505afa158015612407573d6000803e3d6000fd5b505050506040513d602081101561241d57600080fd5b5051905090565b6000610dd982613acd565b600061243a82613335565b516001600160d81b031692915050565b6000610dd982613d42565b61245d6138ac565b600083116124b2576040805162461bcd60e51b815260206004820152601a60248201527f6c6f7765724c696d6974206d7573742062652061626f76652030000000000000604482015290519081900360640190fd5b8484116124f05760405162461bcd60e51b815260040180806020018281038252602781526020018061474d6027913960400191505060405180910390fd5b61250185600263ffffffff613db516565b841061253e5760405162461bcd60e51b815260040180806020018281038252602e8152602001806146b4602e913960400191505060405180910390fd5b84831061257c5760405162461bcd60e51b815260040180806020018281038252602781526020018061468d6027913960400191505060405180910390fd5b8180156125865750805b156125d8576040805162461bcd60e51b815260206004820152601c60248201527f43616e6e6f7420667265657a6520617420626f7468206c696d69747300000000604482015290519081900360640190fd5b6000868152600960205260409020805461262257600a80546001810182556000919091527fc65a7bb8d6351c1cf70c95a316cc6a92839c986682d98bc35f958f4883f9d2a8018790555b8581556001810185905560028101849055828061263c5750815b156126d65760038101805460ff19168415151761ff001916610100841515021790556000612669886139c5565b6000898152600c6020526040902081905590507ff72828471e37526c68fd812a1fa6eeff993c3f81bd96c0242dc5b3e144145df088856126a957866126ab565b875b604080519283526020830191909152818101849052336060830152519081900360800190a1506126f3565b60038101805461ffff191690556000878152600c60205260408120555b60006126fe8861242f565b905080156127745761270e613e0e565b6001600160a01b031663ce09694089836040518363ffffffff1660e01b81526004018083815260200182815260200192505050600060405180830381600087803b15801561275b57600080fd5b505af115801561276f573d6000803e3d6000fd5b505050505b60408051898152602081018990528082018890526060810187905290517f37efb38e92b0f94698f6df0c9070e2f00946862a042ac09e34ae8c547684240a9181900360800190a15050505050505050565b60076020526000908152604090205460ff1681565b6000610dd982612f0a565b60006127ef613a67565b61285e86868080602002602001604051908101604052809392919081815260200183836020028082843760009201919091525050604080516020808a02828101820190935289825290935089925088918291850190849080828437600092019190915250879250613e25915050565b9695505050505050565b60608083839050604051908082528060200260200182016040528015612898578160200160208202803883390190505b50905060005b83811015611302576128c18585838181106128b557fe5b9050602002013561242f565b8282815181106128cd57fe5b602090810291909101015260010161289e565b6060600083839050604051908082528060200260200182016040528015612911578160200160208202803883390190505b509150600061291e612d28565b9050606061295e8686808060200260200160405190810160405280939291908181526020018383602002808284376000920191909152506130f492505050565b905060005b85811015612a1d576129736144f0565b61298e88888481811061298257fe5b90506020020135613335565b905080600001516001600160d81b03168683815181106129aa57fe5b602002602001018181525050841580156129dd57508787838181106129cb57fe5b90506020020135631cd554d160e21b14155b15612a14578282815181106129ee57fe5b602002602001015180612a115750612a1184826020015164ffffffffff1661355e565b94505b50600101612963565b5050509250929050565b612a2f6138ac565b600081815260096020526040902054612a8f576040805162461bcd60e51b815260206004820152601860248201527f4e6f20696e766572746564207072696365206578697374730000000000000000604482015290519081900360640190fd5b60008181526009602052604081208181556001810182905560028101829055600301805461ffff19169055612ac582600a613921565b90508015611fa95760408051838152600060208201819052818301819052606082015290517f37efb38e92b0f94698f6df0c9070e2f00946862a042ac09e34ae8c547684240a9181900360800190a15050565b6000610dd9826130d8565b60008181526009602052604090208054612b84576040805162461bcd60e51b815260206004820152601e60248201527f43616e6e6f7420667265657a65206e6f6e2d696e766572736520726174650000604482015290519081900360640190fd5b600381015460ff16158015612ba357506003810154610100900460ff16155b612bf4576040805162461bcd60e51b815260206004820152601a60248201527f546865207261746520697320616c72656164792066726f7a656e000000000000604482015290519081900360640190fd5b6000612bff8361242f565b9050600081118015612c235750816001015481101580612c23575081600201548111155b15612cc3576001820154600383018054600285015484146101000261ff001960ff1990921693851493909317169190911790556000612c61846139c5565b6000858152600c6020908152604091829020839055815187815290810185905280820183905233606082015290519192507ff72828471e37526c68fd812a1fa6eeff993c3f81bd96c0242dc5b3e144145df0919081900360800190a150611835565b6040805162461bcd60e51b8152602060048201526012602482015271526174652077697468696e20626f756e647360701b604482015290519081900360640190fd5b6000610dd982612dd2565b600080612d1d84846136d6565b915091509250929050565b6000612d32613ab0565b6001600160a01b03166323257c2b6d53797374656d53657474696e677360901b6e1c985d1954dd185b1954195c9a5bd9608a1b6040518363ffffffff1660e01b8152600401808381526020018281526020019250505060206040518083038186803b1580156123f357600080fd5b600082631cd554d160e21b1415612db957506000611306565b612dcb82612dc6856130d8565b61355e565b9392505050565b6000612ddc613ab0565b6001600160a01b0316639ee5955a6d53797374656d53657474696e677360901b7f61746f6d69634571756976616c656e74466f7244657850726963696e67000000856040516020018083815260200182815260200192505050604051602081830303815290604052805190602001206040518363ffffffff1660e01b8152600401808381526020018281526020019250505060206040518083038186803b158015612e8657600080fd5b505afa158015612e9a573d6000803e3d6000fd5b505050506040513d6020811015612eb057600080fd5b505192915050565b6000806000612ec68661242f565b915083861415612eda5750839150806121f3565b612ee38461242f565b905080156121f357612eff81611566878563ffffffff6138f716565b925093509350939050565b6000612f14613ab0565b6001600160a01b03166323257c2b6d53797374656d53657474696e677360901b7030ba37b6b4b1a83934b1b2a13ab33332b960791b856040516020018083815260200182815260200192505050604051602081830303815290604052805190602001206040518363ffffffff1660e01b8152600401808381526020018281526020019250505060206040518083038186803b158015612e8657600080fd5b600081831015612fc25781612dcb565b5090919050565b600082821115613020576040805162461bcd60e51b815260206004820152601e60248201527f536166654d6174683a207375627472616374696f6e206f766572666c6f770000604482015290519081900360640190fd5b50900390565b6000670de0b6b3a7640000613041848463ffffffff613db516565b8161304857fe5b049392505050565b600061305a613ab0565b6001600160a01b03166323257c2b6d53797374656d53657474696e677360901b6f61746f6d69635477617057696e646f7760801b6040518363ffffffff1660e01b8152600401808381526020018281526020019250505060206040518083038186803b1580156123f357600080fd5b6000818310612fc25781612dcb565b60006130e382613335565b6020015164ffffffffff1692915050565b60606000613100613579565b90506001600160a01b03811615613302576060835160405190808252806020026020018201604052801561313e578160200160208202803883390190505b50905060005b84518110156131b3576006600086838151811061315d57fe5b6020026020010151815260200190815260200160002060009054906101000a90046001600160a01b031682828151811061319357fe5b6001600160a01b0390921660209283029190910190910152600101613144565b50604051631f5c8f2b60e21b81526020600482018181528351602484015283516001600160a01b03861693637d723cac93869392839260440191808601910280838360005b838110156132105781810151838201526020016131f8565b505050509050019250505060006040518083038186803b15801561323357600080fd5b505afa158015613247573d6000803e3d6000fd5b505050506040513d6000823e601f3d908101601f19168201604052602081101561327057600080fd5b8101908080516040519392919084600160201b82111561328f57600080fd5b9083019060208201858111156132a457600080fd5b82518660208202830111600160201b821117156132c057600080fd5b82525081516020918201928201910280838360005b838110156132ed5781810151838201526020016132d5565b505050509050016040525050509250506119eb565b825160405190808252806020026020018201604052801561332d578160200160208202803883390190505b509392505050565b61333d6144f0565b6000828152600660205260409020546001600160a01b031680156134bd5760408051600481526024810182526020810180516001600160e01b0316633fabe5a360e21b1781529151815191926000926060926001600160a01b0387169286928291908083835b602083106133c25780518252601f1990920191602091820191016133a3565b6001836020036101000a038019825116818451168082178552505050505050905001915050600060405180830381855afa9150503d8060008114613422576040519150601f19603f3d011682016040523d82523d6000602084013e613427565b606091505b509150915081156134b55760008060008380602001905160a081101561344c57600080fd5b5080516020820151606090920151604080518082019091529195509193509091508061348e8b61347c8187614080565b8769ffffffffffffffffffff16614129565b6001600160d81b031681526020018264ffffffffff16815250975050505050505050610ddc565b5050506119eb565b6000838152600b60205260409020546134d46144f0565b5060008481526004602090815260408083208484528252918290208251808401845290546001600160d81b038082168352600160d81b90910464ffffffffff16928201929092528251808401909352805190929182916135379189911686614129565b6001600160d81b03168152602001826020015164ffffffffff168152509350505050610ddc565b600042613571838563ffffffff61426716565b109392505050565b6000613583613ab0565b6001600160a01b0316639ee5955a6d53797374656d53657474696e677360901b7561676772656761746f725761726e696e67466c61677360501b6040518363ffffffff1660e01b8152600401808381526020018281526020019250505060206040518083038186803b1580156123f357600080fd5b600082631cd554d160e21b141561361157506000611306565b6000838152600660205260409020546001600160a01b031680158061363d57506001600160a01b038316155b1561364c576000915050611306565b826001600160a01b031663357e47fe826040518263ffffffff1660e01b815260040180826001600160a01b03166001600160a01b0316815260200191505060206040518083038186803b1580156136a257600080fd5b505afa1580156136b6573d6000803e3d6000fd5b505050506040513d60208110156136cc57600080fd5b5051949350505050565b60008281526006602052604081205481906001600160a01b031680156138305760408051602480820187905282518083039091018152604490910182526020810180516001600160e01b0316639a6fc8f560e01b1781529151815191926000926060926001600160a01b0387169286928291908083835b6020831061376c5780518252601f19909201916020918201910161374d565b6001836020036101000a038019825116818451168082178552505050505050905001915050600060405180830381855afa9150503d80600081146137cc576040519150601f19603f3d011682016040523d82523d6000602084013e6137d1565b606091505b50915091508115613828576000808280602001905160a08110156137f457600080fd5b50602081015160609091015190925090506138198a6138138185614080565b8b614129565b97509550611906945050505050565b5050506138a4565b6138386144f0565b5060008581526004602090815260408083208784528252918290208251808401909352546001600160d81b038116808452600160d81b90910464ffffffffff169183019190915261388b90879087614129565b60209091015190935064ffffffffff1691506119069050565b509250929050565b6000546001600160a01b031633146138f55760405162461bcd60e51b815260040180806020018281038252602f815260200180614605602f913960400191505060405180910390fd5b565b6000612dcb8383670de0b6b3a76400006142c1565b6000612dcb8383670de0b6b3a76400006142fe565b6000805b82548110156139bb578383828154811061393b57fe5b906000526020600020015414156139b35782818154811061395857fe5b600091825260208220015582548390600019810190811061397557fe5b906000526020600020015483828154811061398c57fe5b60009182526020909120015582546139a884600019830161453a565b506001915050611306565b600101613925565b5060009392505050565b6000818152600660205260408120546001600160a01b03168015613a5157806001600160a01b031663668a0f026040518163ffffffff1660e01b815260040160206040518083038186803b158015613a1c57600080fd5b505afa158015613a30573d6000803e3d6000fd5b505050506040513d6020811015613a4657600080fd5b50519150610ddc9050565b50506000818152600b6020526040902054610ddc565b6005546001600160a01b031633146138f55760405162461bcd60e51b81526004018080602001828103825260278152602001806145de6027913960400191505060405180910390fd5b600061144e6e466c657869626c6553746f7261676560881b614330565b6000613ad7613ab0565b6001600160a01b03166323257c2b6d53797374656d53657474696e677360901b7f61746f6d6963566f6c436f6e73696465726174696f6e57696e646f7700000000856040516020018083815260200182815260200192505050604051602081830303815290604052805190602001206040518363ffffffff1660e01b8152600401808381526020018281526020019250505060206040518083038186803b158015612e8657600080fd5b6000613b8b613ab0565b6001600160a01b03166323257c2b6d53797374656d53657474696e677360901b7f61746f6d6963566f6c5570646174655468726573686f6c640000000000000000856040516020018083815260200182815260200192505050604051602081830303815290604052805190602001206040518363ffffffff1660e01b8152600401808381526020018281526020019250505060206040518083038186803b158015612e8657600080fd5b604080516001808252818301909252606091602080830190803883390190505090506e466c657869626c6553746f7261676560881b81600081518110613c7757fe5b60200260200101818152505090565b60608151835101604051908082528060200260200182016040528015613cb6578160200160208202803883390190505b50905060005b8351811015613cf857838181518110613cd157fe5b6020026020010151828281518110613ce557fe5b6020908102919091010152600101613cbc565b5060005b8251811015613d3b57828181518110613d1157fe5b6020026020010151828286510181518110613d2857fe5b6020908102919091010152600101613cfc565b5092915050565b6000613d4c614507565b50600082815260096020908152604091829020825160a0810184528154815260018201549281019290925260028101549282019290925260039091015460ff808216151560608401819052610100909204161515608083015280612dcb57506080015192915050565b600082613dc457506000611306565b82820282848281613dd157fe5b0414612dcb5760405162461bcd60e51b81526004018080602001828103825260218152602001806146346021913960400191505060405180910390fd5b600061144e6822bc31b430b733b2b960b91b614330565b60008251845114613e675760405162461bcd60e51b81526004018080602001828103825260388152602001806146556038913960400191505060405180910390fd5b61025842018210613ebf576040805162461bcd60e51b815260206004820152601f60248201527f54696d6520697320746f6f2066617220696e746f207468652066757475726500604482015290519081900360640190fd5b60005b8451811015613fba576000858281518110613ed957fe5b60200260200101519050848281518110613eef57fe5b602002602001015160001415613f365760405162461bcd60e51b81526004018080602001828103825260398152602001806147146039913960400191505060405180910390fd5b80631cd554d160e21b1415613f7c5760405162461bcd60e51b81526004018080602001828103825260318152602001806145ad6031913960400191505060405180910390fd5b613f85816130d8565b841015613f925750613fb2565b613fb081868481518110613fa257fe5b60200260200101518661440d565b505b600101613ec2565b507f1bc0fc8997efa076f59b5ef02c315bc5390f7a6d24d661ce12128c01a3b0ba578484604051808060200180602001838103835285818151815260200191508051906020019060200280838360005b8381101561402257818101518382015260200161400a565b50505050905001838103825284818151815260200191508051906020019060200280838360005b83811015614061578181015183820152602001614049565b5050505090500194505050505060405180910390a15060019392505050565b6000808212156140d7576040805162461bcd60e51b815260206004820152601b60248201527f4e656761746976652072617465206e6f7420737570706f727465640000000000604482015290519081900360640190fd5b60008381526007602052604090205460ff16156119eb5760008381526007602052604081205461410c9060129060ff16612fc9565b600a0a9050614121838263ffffffff613db516565b915050611306565b6000614133614507565b50600084815260096020908152604091829020825160a08101845281548082526001830154938201939093526002820154938101939093526003015460ff8082161515606085015261010090910416151560808301521580614193575083155b156141a15783915050612dcb565b6000858152600c60205260409020548492508084108015906141c4575081606001515b156141d5578160200151925061425e565b8084101580156141e6575081608001515b156141f7578160400151925061425e565b815160009061420d90600263ffffffff613db516565b905085811161421f5760009350614232565b61422f818763ffffffff612fc916565b93505b82602001518410614249578260200151935061425c565b8260400151841161425c57826040015193505b505b50509392505050565b600082820183811015612dcb576040805162461bcd60e51b815260206004820152601b60248201527f536166654d6174683a206164646974696f6e206f766572666c6f770000000000604482015290519081900360640190fd5b600080600a83046142d8868663ffffffff613db516565b816142df57fe5b0490506005600a825b06106142f257600a015b600a9004949350505050565b6000806143248461431887600a870263ffffffff613db516565b9063ffffffff61448616565b90506005600a826142e8565b600081815260036020908152604080832054815170026b4b9b9b4b7339030b2323932b9b99d1607d1b9381019390935260318084018690528251808503909101815260519093019091526001600160a01b03169081613d3b5760405162461bcd60e51b81526004018080602001828103825283818151815260200191508051906020019080838360005b838110156143d25781810151838201526020016143ba565b50505050905090810190601f1680156143ff5780820380516001836020036101000a031916815260200191505b509250505060405180910390fd5b6000838152600b60209081526040808320805460010190819055815180830183526001600160d81b03968716815264ffffffffff958616818501908152978552600484528285209185529252909120905181549451909216600160d81b029183166001600160d81b031990941693909317909116179055565b60008082116144dc576040805162461bcd60e51b815260206004820152601a60248201527f536166654d6174683a206469766973696f6e206279207a65726f000000000000604482015290519081900360640190fd5b60008284816144e757fe5b04949350505050565b604080518082019091526000808252602082015290565b6040518060a001604052806000815260200160008152602001600081526020016000151581526020016000151581525090565b8154818355818111156118355760008381526020902061183591810190830161145191905b80821115614573576000815560010161455f565b509056fe596f75206d757374206265206e6f6d696e61746564206265666f726520796f752063616e20616363657074206f776e65727368697052617465206f6620735553442063616e6e6f7420626520757064617465642c206974277320616c7761797320554e49542e4f6e6c7920746865206f7261636c652063616e20706572666f726d207468697320616374696f6e4f6e6c792074686520636f6e7472616374206f776e6572206d617920706572666f726d207468697320616374696f6e536166654d6174683a206d756c7469706c69636174696f6e206f766572666c6f7743757272656e6379206b6579206172726179206c656e677468206d757374206d61746368207261746573206172726179206c656e6774682e6c6f7765724c696d6974206d7573742062652062656c6f772074686520656e747279506f696e7475707065724c696d6974206d757374206265206c657373207468616e20646f75626c6520656e747279506f696e7441676772656761746f7220646563696d616c732073686f756c64206265206c6f776572206f7220657175616c20746f2031385a65726f206973206e6f7420612076616c696420726174652c20706c656173652063616c6c2064656c6574655261746520696e73746561642e75707065724c696d6974206d7573742062652061626f76652074686520656e747279506f696e74a265627a7a72315820ac718a22411bd100cdaab10f3e8b4fc3cf799acaed4fddaa0f6a6686aa45ca5764736f6c6343000510003243757272656e6379206b6579206c656e67746820616e642072617465206c656e677468206d757374206d617463682e52617465206f6620735553442063616e6e6f7420626520757064617465642c206974277320616c7761797320554e49542e536166654d6174683a206d756c7469706c69636174696f6e206f766572666c6f7743757272656e6379206b6579206172726179206c656e677468206d757374206d61746368207261746573206172726179206c656e6774682e5a65726f206973206e6f7420612076616c696420726174652c20706c656173652063616c6c2064656c6574655261746520696e73746561642e",
      "opcodes": "PUSH1 0x80 PUSH1 0x40 MSTORE CALLVALUE DUP1 ISZERO PUSH3 0x11 JUMPI PUSH1 0x0 DUP1 REVERT JUMPDEST POP PUSH1 0x40 MLOAD PUSH3 0x54C7 CODESIZE SUB DUP1 PUSH3 0x54C7 DUP4 CODECOPY DUP2 DUP2 ADD PUSH1 0x40 MSTORE PUSH1 0xA0 DUP2 LT ISZERO PUSH3 0x37 JUMPI PUSH1 0x0 DUP1 REVERT JUMPDEST DUP2 MLOAD PUSH1 0x20 DUP4 ADD MLOAD PUSH1 0x40 DUP1 DUP6 ADD MLOAD PUSH1 0x60 DUP7 ADD DUP1 MLOAD SWAP3 MLOAD SWAP5 SWAP7 SWAP4 SWAP6 SWAP2 SWAP5 SWAP4 SWAP2 DUP3 ADD SWAP3 DUP5 PUSH5 0x100000000 DUP3 GT ISZERO PUSH3 0x6B JUMPI PUSH1 0x0 DUP1 REVERT JUMPDEST SWAP1 DUP4 ADD SWAP1 PUSH1 0x20 DUP3 ADD DUP6 DUP2 GT ISZERO PUSH3 0x81 JUMPI PUSH1 0x0 DUP1 REVERT JUMPDEST DUP3 MLOAD DUP7 PUSH1 0x20 DUP3 MUL DUP4 ADD GT PUSH5 0x100000000 DUP3 GT OR ISZERO PUSH3 0x9F JUMPI PUSH1 0x0 DUP1 REVERT JUMPDEST DUP3 MSTORE POP DUP2 MLOAD PUSH1 0x20 SWAP2 DUP3 ADD SWAP3 DUP3 ADD SWAP2 MUL DUP1 DUP4 DUP4 PUSH1 0x0 JUMPDEST DUP4 DUP2 LT ISZERO PUSH3 0xCE JUMPI DUP2 DUP2 ADD MLOAD DUP4 DUP3 ADD MSTORE PUSH1 0x20 ADD PUSH3 0xB4 JUMP JUMPDEST POP POP POP POP SWAP1 POP ADD PUSH1 0x40 MSTORE PUSH1 0x20 ADD DUP1 MLOAD PUSH1 0x40 MLOAD SWAP4 SWAP3 SWAP2 SWAP1 DUP5 PUSH5 0x100000000 DUP3 GT ISZERO PUSH3 0xF8 JUMPI PUSH1 0x0 DUP1 REVERT JUMPDEST SWAP1 DUP4 ADD SWAP1 PUSH1 0x20 DUP3 ADD DUP6 DUP2 GT ISZERO PUSH3 0x10E JUMPI PUSH1 0x0 DUP1 REVERT JUMPDEST DUP3 MLOAD DUP7 PUSH1 0x20 DUP3 MUL DUP4 ADD GT PUSH5 0x100000000 DUP3 GT OR ISZERO PUSH3 0x12C JUMPI PUSH1 0x0 DUP1 REVERT JUMPDEST DUP3 MSTORE POP DUP2 MLOAD PUSH1 0x20 SWAP2 DUP3 ADD SWAP3 DUP3 ADD SWAP2 MUL DUP1 DUP4 DUP4 PUSH1 0x0 JUMPDEST DUP4 DUP2 LT ISZERO PUSH3 0x15B JUMPI DUP2 DUP2 ADD MLOAD DUP4 DUP3 ADD MSTORE PUSH1 0x20 ADD PUSH3 0x141 JUMP JUMPDEST POP POP POP POP SWAP1 POP ADD PUSH1 0x40 MSTORE POP POP POP DUP5 DUP5 DUP5 DUP5 DUP5 DUP3 DUP1 DUP7 PUSH1 0x0 PUSH1 0x1 PUSH1 0x1 PUSH1 0xA0 SHL SUB AND DUP2 PUSH1 0x1 PUSH1 0x1 PUSH1 0xA0 SHL SUB AND EQ ISZERO PUSH3 0x1D9 JUMPI PUSH1 0x40 DUP1 MLOAD PUSH3 0x461BCD PUSH1 0xE5 SHL DUP2 MSTORE PUSH1 0x20 PUSH1 0x4 DUP3 ADD MSTORE PUSH1 0x19 PUSH1 0x24 DUP3 ADD MSTORE PUSH32 0x4F776E657220616464726573732063616E6E6F74206265203000000000000000 PUSH1 0x44 DUP3 ADD MSTORE SWAP1 MLOAD SWAP1 DUP2 SWAP1 SUB PUSH1 0x64 ADD SWAP1 REVERT JUMPDEST PUSH1 0x0 DUP1 SLOAD PUSH1 0x1 PUSH1 0x1 PUSH1 0xA0 SHL SUB NOT AND PUSH1 0x1 PUSH1 0x1 PUSH1 0xA0 SHL SUB DUP4 AND SWAP1 DUP2 OR DUP3 SSTORE PUSH1 0x40 DUP1 MLOAD SWAP3 DUP4 MSTORE PUSH1 0x20 DUP4 ADD SWAP2 SWAP1 SWAP2 MSTORE DUP1 MLOAD PUSH32 0xB532073B38C83145E3E5135377A08BF9AAB55BC0FD7C1179CD4FB995D2A5159C SWAP3 DUP2 SWAP1 SUB SWAP1 SWAP2 ADD SWAP1 LOG1 POP PUSH1 0x2 DUP1 SLOAD PUSH1 0x1 PUSH1 0x1 PUSH1 0xA0 SHL SUB NOT AND PUSH1 0x1 PUSH1 0x1 PUSH1 0xA0 SHL SUB SWAP3 SWAP1 SWAP3 AND SWAP2 SWAP1 SWAP2 OR SWAP1 SSTORE POP DUP1 MLOAD DUP3 MLOAD EQ PUSH3 0x295 JUMPI PUSH1 0x40 MLOAD PUSH3 0x461BCD PUSH1 0xE5 SHL DUP2 MSTORE PUSH1 0x4 ADD DUP1 DUP1 PUSH1 0x20 ADD DUP3 DUP2 SUB DUP3 MSTORE PUSH1 0x2F DUP2 MSTORE PUSH1 0x20 ADD DUP1 PUSH3 0x53D5 PUSH1 0x2F SWAP2 CODECOPY PUSH1 0x40 ADD SWAP2 POP POP PUSH1 0x40 MLOAD DUP1 SWAP2 SUB SWAP1 REVERT JUMPDEST DUP4 PUSH1 0x5 PUSH1 0x0 PUSH2 0x100 EXP DUP2 SLOAD DUP2 PUSH1 0x1 PUSH1 0x1 PUSH1 0xA0 SHL SUB MUL NOT AND SWAP1 DUP4 PUSH1 0x1 PUSH1 0x1 PUSH1 0xA0 SHL SUB AND MUL OR SWAP1 SSTORE POP PUSH3 0x34B PUSH4 0x1CD554D1 PUSH1 0xE2 SHL PUSH20 0x0 PUSH4 0x907AF6C0 PUSH1 0x40 MLOAD DUP2 PUSH4 0xFFFFFFFF AND PUSH1 0xE0 SHL DUP2 MSTORE PUSH1 0x4 ADD PUSH1 0x20 PUSH1 0x40 MLOAD DUP1 DUP4 SUB DUP2 DUP7 DUP1 EXTCODESIZE ISZERO DUP1 ISZERO PUSH3 0x30D JUMPI PUSH1 0x0 DUP1 REVERT JUMPDEST POP GAS DELEGATECALL ISZERO DUP1 ISZERO PUSH3 0x322 JUMPI RETURNDATASIZE PUSH1 0x0 DUP1 RETURNDATACOPY RETURNDATASIZE PUSH1 0x0 REVERT JUMPDEST POP POP POP POP PUSH1 0x40 MLOAD RETURNDATASIZE PUSH1 0x20 DUP2 LT ISZERO PUSH3 0x339 JUMPI PUSH1 0x0 DUP1 REVERT JUMPDEST POP MLOAD TIMESTAMP PUSH1 0x1 PUSH1 0x1 PUSH1 0xE0 SHL SUB PUSH3 0x372 AND JUMP JUMPDEST PUSH3 0x361 DUP3 DUP3 TIMESTAMP PUSH1 0x1 PUSH1 0x1 PUSH1 0xE0 SHL SUB PUSH3 0x3EB AND JUMP JUMPDEST POP POP POP POP POP POP POP POP POP POP POP PUSH3 0xC1D JUMP JUMPDEST PUSH1 0x0 DUP4 DUP2 MSTORE PUSH1 0xB PUSH1 0x20 SWAP1 DUP2 MSTORE PUSH1 0x40 DUP1 DUP4 KECCAK256 DUP1 SLOAD PUSH1 0x1 ADD SWAP1 DUP2 SWAP1 SSTORE DUP2 MLOAD DUP1 DUP4 ADD DUP4 MSTORE PUSH1 0x1 PUSH1 0x1 PUSH1 0xD8 SHL SUB SWAP7 DUP8 AND DUP2 MSTORE PUSH5 0xFFFFFFFFFF SWAP6 DUP7 AND DUP2 DUP6 ADD SWAP1 DUP2 MSTORE SWAP8 DUP6 MSTORE PUSH1 0x4 DUP5 MSTORE DUP3 DUP6 KECCAK256 SWAP2 DUP6 MSTORE SWAP3 MSTORE SWAP1 SWAP2 KECCAK256 SWAP1 MLOAD DUP2 SLOAD SWAP5 MLOAD SWAP1 SWAP3 AND PUSH1 0x1 PUSH1 0xD8 SHL MUL SWAP2 DUP4 AND PUSH1 0x1 PUSH1 0x1 PUSH1 0xD8 SHL SUB NOT SWAP1 SWAP5 AND SWAP4 SWAP1 SWAP4 OR SWAP1 SWAP2 AND OR SWAP1 SSTORE JUMP JUMPDEST PUSH1 0x0 DUP3 MLOAD DUP5 MLOAD EQ PUSH3 0x42F JUMPI PUSH1 0x40 MLOAD PUSH3 0x461BCD PUSH1 0xE5 SHL DUP2 MSTORE PUSH1 0x4 ADD DUP1 DUP1 PUSH1 0x20 ADD DUP3 DUP2 SUB DUP3 MSTORE PUSH1 0x38 DUP2 MSTORE PUSH1 0x20 ADD DUP1 PUSH3 0x5456 PUSH1 0x38 SWAP2 CODECOPY PUSH1 0x40 ADD SWAP2 POP POP PUSH1 0x40 MLOAD DUP1 SWAP2 SUB SWAP1 REVERT JUMPDEST PUSH2 0x258 TIMESTAMP ADD DUP3 LT PUSH3 0x488 JUMPI PUSH1 0x40 DUP1 MLOAD PUSH3 0x461BCD PUSH1 0xE5 SHL DUP2 MSTORE PUSH1 0x20 PUSH1 0x4 DUP3 ADD MSTORE PUSH1 0x1F PUSH1 0x24 DUP3 ADD MSTORE PUSH32 0x54696D6520697320746F6F2066617220696E746F207468652066757475726500 PUSH1 0x44 DUP3 ADD MSTORE SWAP1 MLOAD SWAP1 DUP2 SWAP1 SUB PUSH1 0x64 ADD SWAP1 REVERT JUMPDEST PUSH1 0x0 JUMPDEST DUP5 MLOAD DUP2 LT ISZERO PUSH3 0x5A1 JUMPI PUSH1 0x0 DUP6 DUP3 DUP2 MLOAD DUP2 LT PUSH3 0x4A4 JUMPI INVALID JUMPDEST PUSH1 0x20 MUL PUSH1 0x20 ADD ADD MLOAD SWAP1 POP DUP5 DUP3 DUP2 MLOAD DUP2 LT PUSH3 0x4BB JUMPI INVALID JUMPDEST PUSH1 0x20 MUL PUSH1 0x20 ADD ADD MLOAD PUSH1 0x0 EQ ISZERO PUSH3 0x504 JUMPI PUSH1 0x40 MLOAD PUSH3 0x461BCD PUSH1 0xE5 SHL DUP2 MSTORE PUSH1 0x4 ADD DUP1 DUP1 PUSH1 0x20 ADD DUP3 DUP2 SUB DUP3 MSTORE PUSH1 0x39 DUP2 MSTORE PUSH1 0x20 ADD DUP1 PUSH3 0x548E PUSH1 0x39 SWAP2 CODECOPY PUSH1 0x40 ADD SWAP2 POP POP PUSH1 0x40 MLOAD DUP1 SWAP2 SUB SWAP1 REVERT JUMPDEST DUP1 PUSH4 0x1CD554D1 PUSH1 0xE2 SHL EQ ISZERO PUSH3 0x54C JUMPI PUSH1 0x40 MLOAD PUSH3 0x461BCD PUSH1 0xE5 SHL DUP2 MSTORE PUSH1 0x4 ADD DUP1 DUP1 PUSH1 0x20 ADD DUP3 DUP2 SUB DUP3 MSTORE PUSH1 0x31 DUP2 MSTORE PUSH1 0x20 ADD DUP1 PUSH3 0x5404 PUSH1 0x31 SWAP2 CODECOPY PUSH1 0x40 ADD SWAP2 POP POP PUSH1 0x40 MLOAD DUP1 SWAP2 SUB SWAP1 REVERT JUMPDEST PUSH3 0x560 DUP2 PUSH1 0x1 PUSH1 0x1 PUSH1 0xE0 SHL SUB PUSH3 0x66C AND JUMP JUMPDEST DUP5 LT ISZERO PUSH3 0x56F JUMPI POP PUSH3 0x598 JUMP JUMPDEST PUSH3 0x596 DUP2 DUP7 DUP5 DUP2 MLOAD DUP2 LT PUSH3 0x581 JUMPI INVALID JUMPDEST PUSH1 0x20 MUL PUSH1 0x20 ADD ADD MLOAD DUP7 PUSH3 0x372 PUSH1 0x20 SHL PUSH1 0x20 SHR JUMP JUMPDEST POP JUMPDEST PUSH1 0x1 ADD PUSH3 0x48B JUMP JUMPDEST POP PUSH32 0x1BC0FC8997EFA076F59B5EF02C315BC5390F7A6D24D661CE12128C01A3B0BA57 DUP5 DUP5 PUSH1 0x40 MLOAD DUP1 DUP1 PUSH1 0x20 ADD DUP1 PUSH1 0x20 ADD DUP4 DUP2 SUB DUP4 MSTORE DUP6 DUP2 DUP2 MLOAD DUP2 MSTORE PUSH1 0x20 ADD SWAP2 POP DUP1 MLOAD SWAP1 PUSH1 0x20 ADD SWAP1 PUSH1 0x20 MUL DUP1 DUP4 DUP4 PUSH1 0x0 JUMPDEST DUP4 DUP2 LT ISZERO PUSH3 0x60B JUMPI DUP2 DUP2 ADD MLOAD DUP4 DUP3 ADD MSTORE PUSH1 0x20 ADD PUSH3 0x5F1 JUMP JUMPDEST POP POP POP POP SWAP1 POP ADD DUP4 DUP2 SUB DUP3 MSTORE DUP5 DUP2 DUP2 MLOAD DUP2 MSTORE PUSH1 0x20 ADD SWAP2 POP DUP1 MLOAD SWAP1 PUSH1 0x20 ADD SWAP1 PUSH1 0x20 MUL DUP1 DUP4 DUP4 PUSH1 0x0 JUMPDEST DUP4 DUP2 LT ISZERO PUSH3 0x64C JUMPI DUP2 DUP2 ADD MLOAD DUP4 DUP3 ADD MSTORE PUSH1 0x20 ADD PUSH3 0x632 JUMP JUMPDEST POP POP POP POP SWAP1 POP ADD SWAP5 POP POP POP POP POP PUSH1 0x40 MLOAD DUP1 SWAP2 SUB SWAP1 LOG1 POP PUSH1 0x1 JUMPDEST SWAP4 SWAP3 POP POP POP JUMP JUMPDEST PUSH1 0x0 PUSH3 0x682 DUP3 PUSH1 0x1 PUSH1 0x1 PUSH1 0xE0 SHL SUB PUSH3 0x695 AND JUMP JUMPDEST PUSH1 0x20 ADD MLOAD PUSH5 0xFFFFFFFFFF AND SWAP1 POP JUMPDEST SWAP2 SWAP1 POP JUMP JUMPDEST PUSH3 0x69F PUSH3 0xBD3 JUMP JUMPDEST PUSH1 0x0 DUP3 DUP2 MSTORE PUSH1 0x6 PUSH1 0x20 MSTORE PUSH1 0x40 SWAP1 KECCAK256 SLOAD PUSH1 0x1 PUSH1 0x1 PUSH1 0xA0 SHL SUB AND DUP1 ISZERO PUSH3 0x83B JUMPI PUSH1 0x40 DUP1 MLOAD PUSH1 0x4 DUP2 MSTORE PUSH1 0x24 DUP2 ADD DUP3 MSTORE PUSH1 0x20 DUP2 ADD DUP1 MLOAD PUSH1 0x1 PUSH1 0x1 PUSH1 0xE0 SHL SUB AND PUSH4 0x3FABE5A3 PUSH1 0xE2 SHL OR DUP2 MSTORE SWAP2 MLOAD DUP2 MLOAD SWAP2 SWAP3 PUSH1 0x0 SWAP3 PUSH1 0x60 SWAP3 PUSH1 0x1 PUSH1 0x1 PUSH1 0xA0 SHL SUB DUP8 AND SWAP3 DUP7 SWAP3 DUP3 SWAP2 SWAP1 DUP1 DUP4 DUP4 JUMPDEST PUSH1 0x20 DUP4 LT PUSH3 0x727 JUMPI DUP1 MLOAD DUP3 MSTORE PUSH1 0x1F NOT SWAP1 SWAP3 ADD SWAP2 PUSH1 0x20 SWAP2 DUP3 ADD SWAP2 ADD PUSH3 0x706 JUMP JUMPDEST PUSH1 0x1 DUP4 PUSH1 0x20 SUB PUSH2 0x100 EXP SUB DUP1 NOT DUP3 MLOAD AND DUP2 DUP5 MLOAD AND DUP1 DUP3 OR DUP6 MSTORE POP POP POP POP POP POP SWAP1 POP ADD SWAP2 POP POP PUSH1 0x0 PUSH1 0x40 MLOAD DUP1 DUP4 SUB DUP2 DUP6 GAS STATICCALL SWAP2 POP POP RETURNDATASIZE DUP1 PUSH1 0x0 DUP2 EQ PUSH3 0x789 JUMPI PUSH1 0x40 MLOAD SWAP2 POP PUSH1 0x1F NOT PUSH1 0x3F RETURNDATASIZE ADD AND DUP3 ADD PUSH1 0x40 MSTORE RETURNDATASIZE DUP3 MSTORE RETURNDATASIZE PUSH1 0x0 PUSH1 0x20 DUP5 ADD RETURNDATACOPY PUSH3 0x78E JUMP JUMPDEST PUSH1 0x60 SWAP2 POP JUMPDEST POP SWAP2 POP SWAP2 POP DUP2 ISZERO PUSH3 0x832 JUMPI PUSH1 0x0 DUP1 PUSH1 0x0 DUP4 DUP1 PUSH1 0x20 ADD SWAP1 MLOAD PUSH1 0xA0 DUP2 LT ISZERO PUSH3 0x7B5 JUMPI PUSH1 0x0 DUP1 REVERT JUMPDEST POP DUP1 MLOAD PUSH1 0x20 DUP3 ADD MLOAD PUSH1 0x60 SWAP1 SWAP3 ADD MLOAD PUSH1 0x40 DUP1 MLOAD DUP1 DUP3 ADD SWAP1 SWAP2 MSTORE SWAP2 SWAP6 POP SWAP2 SWAP4 POP SWAP1 SWAP2 POP DUP1 PUSH3 0x80A DUP12 PUSH3 0x7F1 DUP2 DUP8 PUSH1 0x1 PUSH1 0x1 PUSH1 0xE0 SHL SUB PUSH3 0x8E7 AND JUMP JUMPDEST PUSH1 0x1 PUSH1 0x1 PUSH1 0x50 SHL SUB DUP9 AND PUSH1 0x1 PUSH1 0x1 PUSH1 0xE0 SHL SUB PUSH3 0x9B4 AND JUMP JUMPDEST PUSH1 0x1 PUSH1 0x1 PUSH1 0xD8 SHL SUB AND DUP2 MSTORE PUSH1 0x20 ADD DUP3 PUSH5 0xFFFFFFFFFF AND DUP2 MSTORE POP SWAP8 POP POP POP POP POP POP POP POP PUSH3 0x690 JUMP JUMPDEST POP POP POP PUSH3 0x8E1 JUMP JUMPDEST PUSH1 0x0 DUP4 DUP2 MSTORE PUSH1 0xB PUSH1 0x20 MSTORE PUSH1 0x40 SWAP1 KECCAK256 SLOAD PUSH3 0x854 PUSH3 0xBD3 JUMP JUMPDEST POP PUSH1 0x0 DUP5 DUP2 MSTORE PUSH1 0x4 PUSH1 0x20 SWAP1 DUP2 MSTORE PUSH1 0x40 DUP1 DUP4 KECCAK256 DUP5 DUP5 MSTORE DUP3 MSTORE SWAP2 DUP3 SWAP1 KECCAK256 DUP3 MLOAD DUP1 DUP5 ADD DUP5 MSTORE SWAP1 SLOAD PUSH1 0x1 PUSH1 0x1 PUSH1 0xD8 SHL SUB DUP1 DUP3 AND DUP4 MSTORE PUSH1 0x1 PUSH1 0xD8 SHL SWAP1 SWAP2 DIV PUSH5 0xFFFFFFFFFF AND SWAP3 DUP3 ADD SWAP3 SWAP1 SWAP3 MSTORE DUP3 MLOAD DUP1 DUP5 ADD SWAP1 SWAP4 MSTORE DUP1 MLOAD SWAP1 SWAP3 SWAP2 DUP3 SWAP2 PUSH3 0x8B9 SWAP2 DUP10 SWAP2 AND DUP7 PUSH3 0x9B4 JUMP JUMPDEST PUSH1 0x1 PUSH1 0x1 PUSH1 0xD8 SHL SUB AND DUP2 MSTORE PUSH1 0x20 ADD DUP3 PUSH1 0x20 ADD MLOAD PUSH5 0xFFFFFFFFFF AND DUP2 MSTORE POP SWAP4 POP POP POP POP PUSH3 0x690 JUMP JUMPDEST POP SWAP2 SWAP1 POP JUMP JUMPDEST PUSH1 0x0 DUP1 DUP3 SLT ISZERO PUSH3 0x93F JUMPI PUSH1 0x40 DUP1 MLOAD PUSH3 0x461BCD PUSH1 0xE5 SHL DUP2 MSTORE PUSH1 0x20 PUSH1 0x4 DUP3 ADD MSTORE PUSH1 0x1B PUSH1 0x24 DUP3 ADD MSTORE PUSH32 0x4E656761746976652072617465206E6F7420737570706F727465640000000000 PUSH1 0x44 DUP3 ADD MSTORE SWAP1 MLOAD SWAP1 DUP2 SWAP1 SUB PUSH1 0x64 ADD SWAP1 REVERT JUMPDEST PUSH1 0x0 DUP4 DUP2 MSTORE PUSH1 0x7 PUSH1 0x20 MSTORE PUSH1 0x40 SWAP1 KECCAK256 SLOAD PUSH1 0xFF AND ISZERO PUSH3 0x9AB JUMPI PUSH1 0x0 DUP4 DUP2 MSTORE PUSH1 0x7 PUSH1 0x20 SWAP1 DUP2 MSTORE PUSH1 0x40 DUP3 KECCAK256 SLOAD PUSH3 0x983 SWAP2 PUSH1 0x12 SWAP2 PUSH1 0xFF AND SWAP1 PUSH3 0x2FC9 PUSH3 0xB17 DUP3 SHL OR SWAP1 SHR JUMP JUMPDEST PUSH1 0xA EXP SWAP1 POP PUSH3 0x9A2 DUP2 DUP5 PUSH3 0xB75 PUSH1 0x20 SHL PUSH3 0x3DB5 OR SWAP1 SWAP2 SWAP1 PUSH1 0x20 SHR JUMP JUMPDEST SWAP2 POP POP PUSH3 0x9AE JUMP JUMPDEST POP DUP1 JUMPDEST SWAP3 SWAP2 POP POP JUMP JUMPDEST PUSH1 0x0 PUSH3 0x9C0 PUSH3 0xBEA JUMP JUMPDEST POP PUSH1 0x0 DUP5 DUP2 MSTORE PUSH1 0x9 PUSH1 0x20 SWAP1 DUP2 MSTORE PUSH1 0x40 SWAP2 DUP3 SWAP1 KECCAK256 DUP3 MLOAD PUSH1 0xA0 DUP2 ADD DUP5 MSTORE DUP2 SLOAD DUP1 DUP3 MSTORE PUSH1 0x1 DUP4 ADD SLOAD SWAP4 DUP3 ADD SWAP4 SWAP1 SWAP4 MSTORE PUSH1 0x2 DUP3 ADD SLOAD SWAP4 DUP2 ADD SWAP4 SWAP1 SWAP4 MSTORE PUSH1 0x3 ADD SLOAD PUSH1 0xFF DUP1 DUP3 AND ISZERO ISZERO PUSH1 0x60 DUP6 ADD MSTORE PUSH2 0x100 SWAP1 SWAP2 DIV AND ISZERO ISZERO PUSH1 0x80 DUP4 ADD MSTORE ISZERO DUP1 PUSH3 0xA21 JUMPI POP DUP4 ISZERO JUMPDEST ISZERO PUSH3 0xA31 JUMPI DUP4 SWAP2 POP POP PUSH3 0x665 JUMP JUMPDEST PUSH1 0x0 DUP6 DUP2 MSTORE PUSH1 0xC PUSH1 0x20 MSTORE PUSH1 0x40 SWAP1 KECCAK256 SLOAD DUP5 SWAP3 POP DUP1 DUP5 LT DUP1 ISZERO SWAP1 PUSH3 0xA55 JUMPI POP DUP2 PUSH1 0x60 ADD MLOAD JUMPDEST ISZERO PUSH3 0xA68 JUMPI DUP2 PUSH1 0x20 ADD MLOAD SWAP3 POP PUSH3 0xB0E JUMP JUMPDEST DUP1 DUP5 LT ISZERO DUP1 ISZERO PUSH3 0xA7A JUMPI POP DUP2 PUSH1 0x80 ADD MLOAD JUMPDEST ISZERO PUSH3 0xA8D JUMPI DUP2 PUSH1 0x40 ADD MLOAD SWAP3 POP PUSH3 0xB0E JUMP JUMPDEST PUSH1 0x0 PUSH3 0xAAE PUSH1 0x2 DUP5 PUSH1 0x0 ADD MLOAD PUSH3 0xB75 PUSH1 0x20 SHL PUSH3 0x3DB5 OR SWAP1 SWAP2 SWAP1 PUSH1 0x20 SHR JUMP JUMPDEST SWAP1 POP DUP6 DUP2 GT PUSH3 0xAC2 JUMPI PUSH1 0x0 SWAP4 POP PUSH3 0xADF JUMP JUMPDEST PUSH3 0xADC DUP7 DUP3 PUSH3 0xB17 PUSH1 0x20 SHL PUSH3 0x2FC9 OR SWAP1 SWAP2 SWAP1 PUSH1 0x20 SHR JUMP JUMPDEST SWAP4 POP JUMPDEST DUP3 PUSH1 0x20 ADD MLOAD DUP5 LT PUSH3 0xAF8 JUMPI DUP3 PUSH1 0x20 ADD MLOAD SWAP4 POP PUSH3 0xB0C JUMP JUMPDEST DUP3 PUSH1 0x40 ADD MLOAD DUP5 GT PUSH3 0xB0C JUMPI DUP3 PUSH1 0x40 ADD MLOAD SWAP4 POP JUMPDEST POP JUMPDEST POP POP SWAP4 SWAP3 POP POP POP JUMP JUMPDEST PUSH1 0x0 DUP3 DUP3 GT ISZERO PUSH3 0xB6F JUMPI PUSH1 0x40 DUP1 MLOAD PUSH3 0x461BCD PUSH1 0xE5 SHL DUP2 MSTORE PUSH1 0x20 PUSH1 0x4 DUP3 ADD MSTORE PUSH1 0x1E PUSH1 0x24 DUP3 ADD MSTORE PUSH32 0x536166654D6174683A207375627472616374696F6E206F766572666C6F770000 PUSH1 0x44 DUP3 ADD MSTORE SWAP1 MLOAD SWAP1 DUP2 SWAP1 SUB PUSH1 0x64 ADD SWAP1 REVERT JUMPDEST POP SWAP1 SUB SWAP1 JUMP JUMPDEST PUSH1 0x0 DUP3 PUSH3 0xB86 JUMPI POP PUSH1 0x0 PUSH3 0x9AE JUMP JUMPDEST DUP3 DUP3 MUL DUP3 DUP5 DUP3 DUP2 PUSH3 0xB94 JUMPI INVALID JUMPDEST DIV EQ PUSH3 0x665 JUMPI PUSH1 0x40 MLOAD PUSH3 0x461BCD PUSH1 0xE5 SHL DUP2 MSTORE PUSH1 0x4 ADD DUP1 DUP1 PUSH1 0x20 ADD DUP3 DUP2 SUB DUP3 MSTORE PUSH1 0x21 DUP2 MSTORE PUSH1 0x20 ADD DUP1 PUSH3 0x5435 PUSH1 0x21 SWAP2 CODECOPY PUSH1 0x40 ADD SWAP2 POP POP PUSH1 0x40 MLOAD DUP1 SWAP2 SUB SWAP1 REVERT JUMPDEST PUSH1 0x40 DUP1 MLOAD DUP1 DUP3 ADD SWAP1 SWAP2 MSTORE PUSH1 0x0 DUP1 DUP3 MSTORE PUSH1 0x20 DUP3 ADD MSTORE SWAP1 JUMP JUMPDEST PUSH1 0x40 MLOAD DUP1 PUSH1 0xA0 ADD PUSH1 0x40 MSTORE DUP1 PUSH1 0x0 DUP2 MSTORE PUSH1 0x20 ADD PUSH1 0x0 DUP2 MSTORE PUSH1 0x20 ADD PUSH1 0x0 DUP2 MSTORE PUSH1 0x20 ADD PUSH1 0x0 ISZERO ISZERO DUP2 MSTORE PUSH1 0x20 ADD PUSH1 0x0 ISZERO ISZERO DUP2 MSTORE POP SWAP1 JUMP JUMPDEST PUSH2 0x47A8 DUP1 PUSH3 0xC2D PUSH1 0x0 CODECOPY PUSH1 0x0 RETURN INVALID PUSH1 0x80 PUSH1 0x40 MSTORE CALLVALUE DUP1 ISZERO PUSH2 0x10 JUMPI PUSH1 0x0 DUP1 REVERT JUMPDEST POP PUSH1 0x4 CALLDATASIZE LT PUSH2 0x382 JUMPI PUSH1 0x0 CALLDATALOAD PUSH1 0xE0 SHR DUP1 PUSH4 0x728DEC29 GT PUSH2 0x1DE JUMPI DUP1 PUSH4 0x9EAB4A37 GT PUSH2 0x10F JUMPI DUP1 PUSH4 0xBFA005CE GT PUSH2 0xAD JUMPI DUP1 PUSH4 0xCE8480EA GT PUSH2 0x7C JUMPI DUP1 PUSH4 0xCE8480EA EQ PUSH2 0xD4C JUMPI DUP1 PUSH4 0xDE02795E EQ PUSH2 0xD69 JUMPI DUP1 PUSH4 0xF2163107 EQ PUSH2 0xD86 JUMPI DUP1 PUSH4 0xFDADBC7E EQ PUSH2 0xDA3 JUMPI PUSH2 0x382 JUMP JUMPDEST DUP1 PUSH4 0xBFA005CE EQ PUSH2 0xB36 JUMPI DUP1 PUSH4 0xC2C8A676 EQ PUSH2 0xBF4 JUMPI DUP1 PUSH4 0xC8E5BBD5 EQ PUSH2 0xC62 JUMPI DUP1 PUSH4 0xC8E6F395 EQ PUSH2 0xD2F JUMPI PUSH2 0x382 JUMP JUMPDEST DUP1 PUSH4 0xAF3AEA86 GT PUSH2 0xE9 JUMPI DUP1 PUSH4 0xAF3AEA86 EQ PUSH2 0xA8A JUMPI DUP1 PUSH4 0xB199C764 EQ PUSH2 0xAA7 JUMPI DUP1 PUSH4 0xB295AD34 EQ PUSH2 0xAE6 JUMPI DUP1 PUSH4 0xB7AB13F2 EQ PUSH2 0xB19 JUMPI PUSH2 0x382 JUMP JUMPDEST DUP1 PUSH4 0x9EAB4A37 EQ PUSH2 0xA48 JUMPI DUP1 PUSH4 0xA7771556 EQ PUSH2 0xA50 JUMPI DUP1 PUSH4 0xAC82F608 EQ PUSH2 0xA6D JUMPI PUSH2 0x382 JUMP JUMPDEST DUP1 PUSH4 0x7F6E9D15 GT PUSH2 0x17C JUMPI DUP1 PUSH4 0x899FFEF4 GT PUSH2 0x156 JUMPI DUP1 PUSH4 0x899FFEF4 EQ PUSH2 0x9FE JUMPI DUP1 PUSH4 0x8DA5CB5B EQ PUSH2 0xA06 JUMPI DUP1 PUSH4 0x935F4ABD EQ PUSH2 0xA0E JUMPI DUP1 PUSH4 0x97A4ACA0 EQ PUSH2 0xA2B JUMPI PUSH2 0x382 JUMP JUMPDEST DUP1 PUSH4 0x7F6E9D15 EQ PUSH2 0x97D JUMPI DUP1 PUSH4 0x8295016A EQ PUSH2 0x99A JUMPI DUP1 PUSH4 0x8661CC7B EQ PUSH2 0x9E1 JUMPI PUSH2 0x382 JUMP JUMPDEST DUP1 PUSH4 0x79BA5097 GT PUSH2 0x1B8 JUMPI DUP1 PUSH4 0x79BA5097 EQ PUSH2 0x92A JUMPI DUP1 PUSH4 0x7A018A1E EQ PUSH2 0x932 JUMPI DUP1 PUSH4 0x7ADBF973 EQ PUSH2 0x94F JUMPI DUP1 PUSH4 0x7DC0D1D0 EQ PUSH2 0x975 JUMPI PUSH2 0x382 JUMP JUMPDEST DUP1 PUSH4 0x728DEC29 EQ PUSH2 0x8B0 JUMPI DUP1 PUSH4 0x74185360 EQ PUSH2 0x8FC JUMPI DUP1 PUSH4 0x74EDED39 EQ PUSH2 0x904 JUMPI PUSH2 0x382 JUMP JUMPDEST DUP1 PUSH4 0x2D7371E1 GT PUSH2 0x2B8 JUMPI DUP1 PUSH4 0x4C36B837 GT PUSH2 0x256 JUMPI DUP1 PUSH4 0x614D08F8 GT PUSH2 0x230 JUMPI DUP1 PUSH4 0x614D08F8 EQ PUSH2 0x85A JUMPI DUP1 PUSH4 0x654A60AC EQ PUSH2 0x862 JUMPI DUP1 PUSH4 0x6A2B9151 EQ PUSH2 0x88B JUMPI DUP1 PUSH4 0x7103353E EQ PUSH2 0x893 JUMPI PUSH2 0x382 JUMP JUMPDEST DUP1 PUSH4 0x4C36B837 EQ PUSH2 0x82D JUMPI DUP1 PUSH4 0x4F72DEF6 EQ PUSH2 0x835 JUMPI DUP1 PUSH4 0x53A47BB7 EQ PUSH2 0x852 JUMPI PUSH2 0x382 JUMP JUMPDEST DUP1 PUSH4 0x38AA1B99 GT PUSH2 0x292 JUMPI DUP1 PUSH4 0x38AA1B99 EQ PUSH2 0x791 JUMPI DUP1 PUSH4 0x3F0E084F EQ PUSH2 0x7AE JUMPI DUP1 PUSH4 0x4308A94F EQ PUSH2 0x7DA JUMPI DUP1 PUSH4 0x45938849 EQ PUSH2 0x810 JUMPI PUSH2 0x382 JUMP JUMPDEST DUP1 PUSH4 0x2D7371E1 EQ PUSH2 0x69B JUMPI DUP1 PUSH4 0x2EA913D4 EQ PUSH2 0x757 JUMPI DUP1 PUSH4 0x3375FCD1 EQ PUSH2 0x774 JUMPI PUSH2 0x382 JUMP JUMPDEST DUP1 PUSH4 0x109E46A2 GT PUSH2 0x325 JUMPI DUP1 PUSH4 0x266DA16B GT PUSH2 0x2FF JUMPI DUP1 PUSH4 0x266DA16B EQ PUSH2 0x61B JUMPI DUP1 PUSH4 0x2678DF96 EQ PUSH2 0x650 JUMPI DUP1 PUSH4 0x2AF64BD3 EQ PUSH2 0x676 JUMPI DUP1 PUSH4 0x2BED9E0C EQ PUSH2 0x67E JUMPI PUSH2 0x382 JUMP JUMPDEST DUP1 PUSH4 0x109E46A2 EQ PUSH2 0x5A7 JUMPI DUP1 PUSH4 0x1627540C EQ PUSH2 0x5D6 JUMPI DUP1 PUSH4 0x2528F0FE EQ PUSH2 0x5FE JUMPI PUSH2 0x382 JUMP JUMPDEST DUP1 PUSH4 0x5A046E5 GT PUSH2 0x361 JUMPI DUP1 PUSH4 0x5A046E5 EQ PUSH2 0x42B JUMPI DUP1 PUSH4 0xA7D36D1 EQ PUSH2 0x4E9 JUMPI DUP1 PUSH4 0xC71CD23 EQ PUSH2 0x557 JUMPI DUP1 PUSH4 0xEE4951B EQ PUSH2 0x58D JUMPI PUSH2 0x382 JUMP JUMPDEST DUP1 PUSH3 0x9919C0 EQ PUSH2 0x387 JUMPI DUP1 PUSH4 0x4F3BCEC EQ PUSH2 0x3B8 JUMPI DUP1 PUSH4 0x55286E0 EQ PUSH2 0x3DC JUMPI JUMPDEST PUSH1 0x0 DUP1 REVERT JUMPDEST PUSH2 0x3A4 PUSH1 0x4 DUP1 CALLDATASIZE SUB PUSH1 0x20 DUP2 LT ISZERO PUSH2 0x39D JUMPI PUSH1 0x0 DUP1 REVERT JUMPDEST POP CALLDATALOAD PUSH2 0xDC6 JUMP JUMPDEST PUSH1 0x40 DUP1 MLOAD SWAP2 ISZERO ISZERO DUP3 MSTORE MLOAD SWAP1 DUP2 SWAP1 SUB PUSH1 0x20 ADD SWAP1 RETURN JUMPDEST PUSH2 0x3C0 PUSH2 0xDE1 JUMP JUMPDEST PUSH1 0x40 DUP1 MLOAD PUSH1 0x1 PUSH1 0x1 PUSH1 0xA0 SHL SUB SWAP1 SWAP3 AND DUP3 MSTORE MLOAD SWAP1 DUP2 SWAP1 SUB PUSH1 0x20 ADD SWAP1 RETURN JUMPDEST PUSH2 0x405 PUSH1 0x4 DUP1 CALLDATASIZE SUB PUSH1 0x60 DUP2 LT ISZERO PUSH2 0x3F2 JUMPI PUSH1 0x0 DUP1 REVERT JUMPDEST POP DUP1 CALLDATALOAD SWAP1 PUSH1 0x20 DUP2 ADD CALLDATALOAD SWAP1 PUSH1 0x40 ADD CALLDATALOAD PUSH2 0xDF0 JUMP JUMPDEST PUSH1 0x40 DUP1 MLOAD SWAP5 DUP6 MSTORE PUSH1 0x20 DUP6 ADD SWAP4 SWAP1 SWAP4 MSTORE DUP4 DUP4 ADD SWAP2 SWAP1 SWAP2 MSTORE PUSH1 0x60 DUP4 ADD MSTORE MLOAD SWAP1 DUP2 SWAP1 SUB PUSH1 0x80 ADD SWAP1 RETURN JUMPDEST PUSH2 0x499 PUSH1 0x4 DUP1 CALLDATASIZE SUB PUSH1 0x20 DUP2 LT ISZERO PUSH2 0x441 JUMPI PUSH1 0x0 DUP1 REVERT JUMPDEST DUP2 ADD SWAP1 PUSH1 0x20 DUP2 ADD DUP2 CALLDATALOAD PUSH1 0x1 PUSH1 0x20 SHL DUP2 GT ISZERO PUSH2 0x45B JUMPI PUSH1 0x0 DUP1 REVERT JUMPDEST DUP3 ADD DUP4 PUSH1 0x20 DUP3 ADD GT ISZERO PUSH2 0x46D JUMPI PUSH1 0x0 DUP1 REVERT JUMPDEST DUP1 CALLDATALOAD SWAP1 PUSH1 0x20 ADD SWAP2 DUP5 PUSH1 0x20 DUP4 MUL DUP5 ADD GT PUSH1 0x1 PUSH1 0x20 SHL DUP4 GT OR ISZERO PUSH2 0x48E JUMPI PUSH1 0x0 DUP1 REVERT JUMPDEST POP SWAP1 SWAP3 POP SWAP1 POP PUSH2 0x128A JUMP JUMPDEST PUSH1 0x40 DUP1 MLOAD PUSH1 0x20 DUP1 DUP3 MSTORE DUP4 MLOAD DUP2 DUP4 ADD MSTORE DUP4 MLOAD SWAP2 SWAP3 DUP4 SWAP3 SWAP1 DUP4 ADD SWAP2 DUP6 DUP2 ADD SWAP2 MUL DUP1 DUP4 DUP4 PUSH1 0x0 JUMPDEST DUP4 DUP2 LT ISZERO PUSH2 0x4D5 JUMPI DUP2 DUP2 ADD MLOAD DUP4 DUP3 ADD MSTORE PUSH1 0x20 ADD PUSH2 0x4BD JUMP JUMPDEST POP POP POP POP SWAP1 POP ADD SWAP3 POP POP POP PUSH1 0x40 MLOAD DUP1 SWAP2 SUB SWAP1 RETURN JUMPDEST PUSH2 0x3A4 PUSH1 0x4 DUP1 CALLDATASIZE SUB PUSH1 0x20 DUP2 LT ISZERO PUSH2 0x4FF JUMPI PUSH1 0x0 DUP1 REVERT JUMPDEST DUP2 ADD SWAP1 PUSH1 0x20 DUP2 ADD DUP2 CALLDATALOAD PUSH1 0x1 PUSH1 0x20 SHL DUP2 GT ISZERO PUSH2 0x519 JUMPI PUSH1 0x0 DUP1 REVERT JUMPDEST DUP3 ADD DUP4 PUSH1 0x20 DUP3 ADD GT ISZERO PUSH2 0x52B JUMPI PUSH1 0x0 DUP1 REVERT JUMPDEST DUP1 CALLDATALOAD SWAP1 PUSH1 0x20 ADD SWAP2 DUP5 PUSH1 0x20 DUP4 MUL DUP5 ADD GT PUSH1 0x1 PUSH1 0x20 SHL DUP4 GT OR ISZERO PUSH2 0x54C JUMPI PUSH1 0x0 DUP1 REVERT JUMPDEST POP SWAP1 SWAP3 POP SWAP1 POP PUSH2 0x130C JUMP JUMPDEST PUSH2 0x574 PUSH1 0x4 DUP1 CALLDATASIZE SUB PUSH1 0x20 DUP2 LT ISZERO PUSH2 0x56D JUMPI PUSH1 0x0 DUP1 REVERT JUMPDEST POP CALLDATALOAD PUSH2 0x13BF JUMP JUMPDEST PUSH1 0x40 DUP1 MLOAD SWAP3 DUP4 MSTORE SWAP1 ISZERO ISZERO PUSH1 0x20 DUP4 ADD MSTORE DUP1 MLOAD SWAP2 DUP3 SWAP1 SUB ADD SWAP1 RETURN JUMPDEST PUSH2 0x595 PUSH2 0x1444 JUMP JUMPDEST PUSH1 0x40 DUP1 MLOAD SWAP2 DUP3 MSTORE MLOAD SWAP1 DUP2 SWAP1 SUB PUSH1 0x20 ADD SWAP1 RETURN JUMPDEST PUSH2 0x595 PUSH1 0x4 DUP1 CALLDATASIZE SUB PUSH1 0x80 DUP2 LT ISZERO PUSH2 0x5BD JUMPI PUSH1 0x0 DUP1 REVERT JUMPDEST POP DUP1 CALLDATALOAD SWAP1 PUSH1 0x20 DUP2 ADD CALLDATALOAD SWAP1 PUSH1 0x40 DUP2 ADD CALLDATALOAD SWAP1 PUSH1 0x60 ADD CALLDATALOAD PUSH2 0x1454 JUMP JUMPDEST PUSH2 0x5FC PUSH1 0x4 DUP1 CALLDATASIZE SUB PUSH1 0x20 DUP2 LT ISZERO PUSH2 0x5EC JUMPI PUSH1 0x0 DUP1 REVERT JUMPDEST POP CALLDATALOAD PUSH1 0x1 PUSH1 0x1 PUSH1 0xA0 SHL SUB AND PUSH2 0x1497 JUMP JUMPDEST STOP JUMPDEST PUSH2 0x3A4 PUSH1 0x4 DUP1 CALLDATASIZE SUB PUSH1 0x20 DUP2 LT ISZERO PUSH2 0x614 JUMPI PUSH1 0x0 DUP1 REVERT JUMPDEST POP CALLDATALOAD PUSH2 0x14F3 JUMP JUMPDEST PUSH2 0x595 PUSH1 0x4 DUP1 CALLDATASIZE SUB PUSH1 0xA0 DUP2 LT ISZERO PUSH2 0x631 JUMPI PUSH1 0x0 DUP1 REVERT JUMPDEST POP DUP1 CALLDATALOAD SWAP1 PUSH1 0x20 DUP2 ADD CALLDATALOAD SWAP1 PUSH1 0x40 DUP2 ADD CALLDATALOAD SWAP1 PUSH1 0x60 DUP2 ADD CALLDATALOAD SWAP1 PUSH1 0x80 ADD CALLDATALOAD PUSH2 0x1513 JUMP JUMPDEST PUSH2 0x499 PUSH1 0x4 DUP1 CALLDATASIZE SUB PUSH1 0x20 DUP2 LT ISZERO PUSH2 0x666 JUMPI PUSH1 0x0 DUP1 REVERT JUMPDEST POP CALLDATALOAD PUSH1 0x1 PUSH1 0x1 PUSH1 0xA0 SHL SUB AND PUSH2 0x1580 JUMP JUMPDEST PUSH2 0x3A4 PUSH2 0x1634 JUMP JUMPDEST PUSH2 0x5FC PUSH1 0x4 DUP1 CALLDATASIZE SUB PUSH1 0x20 DUP2 LT ISZERO PUSH2 0x694 JUMPI PUSH1 0x0 DUP1 REVERT JUMPDEST POP CALLDATALOAD PUSH2 0x173E JUMP JUMPDEST PUSH2 0x6BE PUSH1 0x4 DUP1 CALLDATASIZE SUB PUSH1 0x40 DUP2 LT ISZERO PUSH2 0x6B1 JUMPI PUSH1 0x0 DUP1 REVERT JUMPDEST POP DUP1 CALLDATALOAD SWAP1 PUSH1 0x20 ADD CALLDATALOAD PUSH2 0x183A JUMP JUMPDEST PUSH1 0x40 MLOAD DUP1 DUP1 PUSH1 0x20 ADD DUP1 PUSH1 0x20 ADD DUP4 DUP2 SUB DUP4 MSTORE DUP6 DUP2 DUP2 MLOAD DUP2 MSTORE PUSH1 0x20 ADD SWAP2 POP DUP1 MLOAD SWAP1 PUSH1 0x20 ADD SWAP1 PUSH1 0x20 MUL DUP1 DUP4 DUP4 PUSH1 0x0 JUMPDEST DUP4 DUP2 LT ISZERO PUSH2 0x702 JUMPI DUP2 DUP2 ADD MLOAD DUP4 DUP3 ADD MSTORE PUSH1 0x20 ADD PUSH2 0x6EA JUMP JUMPDEST POP POP POP POP SWAP1 POP ADD DUP4 DUP2 SUB DUP3 MSTORE DUP5 DUP2 DUP2 MLOAD DUP2 MSTORE PUSH1 0x20 ADD SWAP2 POP DUP1 MLOAD SWAP1 PUSH1 0x20 ADD SWAP1 PUSH1 0x20 MUL DUP1 DUP4 DUP4 PUSH1 0x0 JUMPDEST DUP4 DUP2 LT ISZERO PUSH2 0x741 JUMPI DUP2 DUP2 ADD MLOAD DUP4 DUP3 ADD MSTORE PUSH1 0x20 ADD PUSH2 0x729 JUMP JUMPDEST POP POP POP POP SWAP1 POP ADD SWAP5 POP POP POP POP POP PUSH1 0x40 MLOAD DUP1 SWAP2 SUB SWAP1 RETURN JUMPDEST PUSH2 0x595 PUSH1 0x4 DUP1 CALLDATASIZE SUB PUSH1 0x20 DUP2 LT ISZERO PUSH2 0x76D JUMPI PUSH1 0x0 DUP1 REVERT JUMPDEST POP CALLDATALOAD PUSH2 0x190D JUMP JUMPDEST PUSH2 0x3A4 PUSH1 0x4 DUP1 CALLDATASIZE SUB PUSH1 0x20 DUP2 LT ISZERO PUSH2 0x78A JUMPI PUSH1 0x0 DUP1 REVERT JUMPDEST POP CALLDATALOAD PUSH2 0x192B JUMP JUMPDEST PUSH2 0x3A4 PUSH1 0x4 DUP1 CALLDATASIZE SUB PUSH1 0x20 DUP2 LT ISZERO PUSH2 0x7A7 JUMPI PUSH1 0x0 DUP1 REVERT JUMPDEST POP CALLDATALOAD PUSH2 0x19F1 JUMP JUMPDEST PUSH2 0x5FC PUSH1 0x4 DUP1 CALLDATASIZE SUB PUSH1 0x40 DUP2 LT ISZERO PUSH2 0x7C4 JUMPI PUSH1 0x0 DUP1 REVERT JUMPDEST POP DUP1 CALLDATALOAD SWAP1 PUSH1 0x20 ADD CALLDATALOAD PUSH1 0x1 PUSH1 0x1 PUSH1 0xA0 SHL SUB AND PUSH2 0x19FF JUMP JUMPDEST PUSH2 0x7F7 PUSH1 0x4 DUP1 CALLDATASIZE SUB PUSH1 0x20 DUP2 LT ISZERO PUSH2 0x7F0 JUMPI PUSH1 0x0 DUP1 REVERT JUMPDEST POP CALLDATALOAD PUSH2 0x1C45 JUMP JUMPDEST PUSH1 0x40 DUP1 MLOAD SWAP3 DUP4 MSTORE PUSH1 0x20 DUP4 ADD SWAP2 SWAP1 SWAP2 MSTORE DUP1 MLOAD SWAP2 DUP3 SWAP1 SUB ADD SWAP1 RETURN JUMPDEST PUSH2 0x5FC PUSH1 0x4 DUP1 CALLDATASIZE SUB PUSH1 0x20 DUP2 LT ISZERO PUSH2 0x826 JUMPI PUSH1 0x0 DUP1 REVERT JUMPDEST POP CALLDATALOAD PUSH2 0x1C7D JUMP JUMPDEST PUSH2 0x3C0 PUSH2 0x1D3B JUMP JUMPDEST PUSH2 0x595 PUSH1 0x4 DUP1 CALLDATASIZE SUB PUSH1 0x20 DUP2 LT ISZERO PUSH2 0x84B JUMPI PUSH1 0x0 DUP1 REVERT JUMPDEST POP CALLDATALOAD PUSH2 0x1D45 JUMP JUMPDEST PUSH2 0x3C0 PUSH2 0x1D52 JUMP JUMPDEST PUSH2 0x595 PUSH2 0x1D61 JUMP JUMPDEST PUSH2 0x595 PUSH1 0x4 DUP1 CALLDATASIZE SUB PUSH1 0x60 DUP2 LT ISZERO PUSH2 0x878 JUMPI PUSH1 0x0 DUP1 REVERT JUMPDEST POP DUP1 CALLDATALOAD SWAP1 PUSH1 0x20 DUP2 ADD CALLDATALOAD SWAP1 PUSH1 0x40 ADD CALLDATALOAD PUSH2 0x1D75 JUMP JUMPDEST PUSH2 0x595 PUSH2 0x1D8D JUMP JUMPDEST PUSH2 0x3C0 PUSH1 0x4 DUP1 CALLDATASIZE SUB PUSH1 0x20 DUP2 LT ISZERO PUSH2 0x8A9 JUMPI PUSH1 0x0 DUP1 REVERT JUMPDEST POP CALLDATALOAD PUSH2 0x1D97 JUMP JUMPDEST PUSH2 0x8CD PUSH1 0x4 DUP1 CALLDATASIZE SUB PUSH1 0x20 DUP2 LT ISZERO PUSH2 0x8C6 JUMPI PUSH1 0x0 DUP1 REVERT JUMPDEST POP CALLDATALOAD PUSH2 0x1DB2 JUMP JUMPDEST PUSH1 0x40 DUP1 MLOAD SWAP6 DUP7 MSTORE PUSH1 0x20 DUP7 ADD SWAP5 SWAP1 SWAP5 MSTORE DUP5 DUP5 ADD SWAP3 SWAP1 SWAP3 MSTORE ISZERO ISZERO PUSH1 0x60 DUP5 ADD MSTORE ISZERO ISZERO PUSH1 0x80 DUP4 ADD MSTORE MLOAD SWAP1 DUP2 SWAP1 SUB PUSH1 0xA0 ADD SWAP1 RETURN JUMPDEST PUSH2 0x5FC PUSH2 0x1DE5 JUMP JUMPDEST PUSH2 0x5FC PUSH1 0x4 DUP1 CALLDATASIZE SUB PUSH1 0x20 DUP2 LT ISZERO PUSH2 0x91A JUMPI PUSH1 0x0 DUP1 REVERT JUMPDEST POP CALLDATALOAD PUSH1 0x1 PUSH1 0x1 PUSH1 0xA0 SHL SUB AND PUSH2 0x1FAD JUMP JUMPDEST PUSH2 0x5FC PUSH2 0x2092 JUMP JUMPDEST PUSH2 0x595 PUSH1 0x4 DUP1 CALLDATASIZE SUB PUSH1 0x20 DUP2 LT ISZERO PUSH2 0x948 JUMPI PUSH1 0x0 DUP1 REVERT JUMPDEST POP CALLDATALOAD PUSH2 0x214E JUMP JUMPDEST PUSH2 0x5FC PUSH1 0x4 DUP1 CALLDATASIZE SUB PUSH1 0x20 DUP2 LT ISZERO PUSH2 0x965 JUMPI PUSH1 0x0 DUP1 REVERT JUMPDEST POP CALLDATALOAD PUSH1 0x1 PUSH1 0x1 PUSH1 0xA0 SHL SUB AND PUSH2 0x2159 JUMP JUMPDEST PUSH2 0x3C0 PUSH2 0x21BB JUMP JUMPDEST PUSH2 0x595 PUSH1 0x4 DUP1 CALLDATASIZE SUB PUSH1 0x20 DUP2 LT ISZERO PUSH2 0x993 JUMPI PUSH1 0x0 DUP1 REVERT JUMPDEST POP CALLDATALOAD PUSH2 0x21CA JUMP JUMPDEST PUSH2 0x9C3 PUSH1 0x4 DUP1 CALLDATASIZE SUB PUSH1 0x60 DUP2 LT ISZERO PUSH2 0x9B0 JUMPI PUSH1 0x0 DUP1 REVERT JUMPDEST POP DUP1 CALLDATALOAD SWAP1 PUSH1 0x20 DUP2 ADD CALLDATALOAD SWAP1 PUSH1 0x40 ADD CALLDATALOAD PUSH2 0x21DC JUMP JUMPDEST PUSH1 0x40 DUP1 MLOAD SWAP4 DUP5 MSTORE PUSH1 0x20 DUP5 ADD SWAP3 SWAP1 SWAP3 MSTORE DUP3 DUP3 ADD MSTORE MLOAD SWAP1 DUP2 SWAP1 SUB PUSH1 0x60 ADD SWAP1 RETURN JUMPDEST PUSH2 0x3A4 PUSH1 0x4 DUP1 CALLDATASIZE SUB PUSH1 0x20 DUP2 LT ISZERO PUSH2 0x9F7 JUMPI PUSH1 0x0 DUP1 REVERT JUMPDEST POP CALLDATALOAD PUSH2 0x21FC JUMP JUMPDEST PUSH2 0x499 PUSH2 0x22E5 JUMP JUMPDEST PUSH2 0x3C0 PUSH2 0x234D JUMP JUMPDEST PUSH2 0x595 PUSH1 0x4 DUP1 CALLDATASIZE SUB PUSH1 0x20 DUP2 LT ISZERO PUSH2 0xA24 JUMPI PUSH1 0x0 DUP1 REVERT JUMPDEST POP CALLDATALOAD PUSH2 0x235C JUMP JUMPDEST PUSH2 0x595 PUSH1 0x4 DUP1 CALLDATASIZE SUB PUSH1 0x20 DUP2 LT ISZERO PUSH2 0xA41 JUMPI PUSH1 0x0 DUP1 REVERT JUMPDEST POP CALLDATALOAD PUSH2 0x236E JUMP JUMPDEST PUSH2 0x3C0 PUSH2 0x2379 JUMP JUMPDEST PUSH2 0x595 PUSH1 0x4 DUP1 CALLDATASIZE SUB PUSH1 0x20 DUP2 LT ISZERO PUSH2 0xA66 JUMPI PUSH1 0x0 DUP1 REVERT JUMPDEST POP CALLDATALOAD PUSH2 0x2424 JUMP JUMPDEST PUSH2 0x595 PUSH1 0x4 DUP1 CALLDATASIZE SUB PUSH1 0x20 DUP2 LT ISZERO PUSH2 0xA83 JUMPI PUSH1 0x0 DUP1 REVERT JUMPDEST POP CALLDATALOAD PUSH2 0x242F JUMP JUMPDEST PUSH2 0x3A4 PUSH1 0x4 DUP1 CALLDATASIZE SUB PUSH1 0x20 DUP2 LT ISZERO PUSH2 0xAA0 JUMPI PUSH1 0x0 DUP1 REVERT JUMPDEST POP CALLDATALOAD PUSH2 0x244A JUMP JUMPDEST PUSH2 0x5FC PUSH1 0x4 DUP1 CALLDATASIZE SUB PUSH1 0xC0 DUP2 LT ISZERO PUSH2 0xABD JUMPI PUSH1 0x0 DUP1 REVERT JUMPDEST POP DUP1 CALLDATALOAD SWAP1 PUSH1 0x20 DUP2 ADD CALLDATALOAD SWAP1 PUSH1 0x40 DUP2 ADD CALLDATALOAD SWAP1 PUSH1 0x60 DUP2 ADD CALLDATALOAD SWAP1 PUSH1 0x80 DUP2 ADD CALLDATALOAD ISZERO ISZERO SWAP1 PUSH1 0xA0 ADD CALLDATALOAD ISZERO ISZERO PUSH2 0x2455 JUMP JUMPDEST PUSH2 0xB03 PUSH1 0x4 DUP1 CALLDATASIZE SUB PUSH1 0x20 DUP2 LT ISZERO PUSH2 0xAFC JUMPI PUSH1 0x0 DUP1 REVERT JUMPDEST POP CALLDATALOAD PUSH2 0x27C5 JUMP JUMPDEST PUSH1 0x40 DUP1 MLOAD PUSH1 0xFF SWAP1 SWAP3 AND DUP3 MSTORE MLOAD SWAP1 DUP2 SWAP1 SUB PUSH1 0x20 ADD SWAP1 RETURN JUMPDEST PUSH2 0x595 PUSH1 0x4 DUP1 CALLDATASIZE SUB PUSH1 0x20 DUP2 LT ISZERO PUSH2 0xB2F JUMPI PUSH1 0x0 DUP1 REVERT JUMPDEST POP CALLDATALOAD PUSH2 0x27DA JUMP JUMPDEST PUSH2 0x3A4 PUSH1 0x4 DUP1 CALLDATASIZE SUB PUSH1 0x60 DUP2 LT ISZERO PUSH2 0xB4C JUMPI PUSH1 0x0 DUP1 REVERT JUMPDEST DUP2 ADD SWAP1 PUSH1 0x20 DUP2 ADD DUP2 CALLDATALOAD PUSH1 0x1 PUSH1 0x20 SHL DUP2 GT ISZERO PUSH2 0xB66 JUMPI PUSH1 0x0 DUP1 REVERT JUMPDEST DUP3 ADD DUP4 PUSH1 0x20 DUP3 ADD GT ISZERO PUSH2 0xB78 JUMPI PUSH1 0x0 DUP1 REVERT JUMPDEST DUP1 CALLDATALOAD SWAP1 PUSH1 0x20 ADD SWAP2 DUP5 PUSH1 0x20 DUP4 MUL DUP5 ADD GT PUSH1 0x1 PUSH1 0x20 SHL DUP4 GT OR ISZERO PUSH2 0xB99 JUMPI PUSH1 0x0 DUP1 REVERT JUMPDEST SWAP2 SWAP4 SWAP1 SWAP3 SWAP1 SWAP2 PUSH1 0x20 DUP2 ADD SWAP1 CALLDATALOAD PUSH1 0x1 PUSH1 0x20 SHL DUP2 GT ISZERO PUSH2 0xBB6 JUMPI PUSH1 0x0 DUP1 REVERT JUMPDEST DUP3 ADD DUP4 PUSH1 0x20 DUP3 ADD GT ISZERO PUSH2 0xBC8 JUMPI PUSH1 0x0 DUP1 REVERT JUMPDEST DUP1 CALLDATALOAD SWAP1 PUSH1 0x20 ADD SWAP2 DUP5 PUSH1 0x20 DUP4 MUL DUP5 ADD GT PUSH1 0x1 PUSH1 0x20 SHL DUP4 GT OR ISZERO PUSH2 0xBE9 JUMPI PUSH1 0x0 DUP1 REVERT JUMPDEST SWAP2 SWAP4 POP SWAP2 POP CALLDATALOAD PUSH2 0x27E5 JUMP JUMPDEST PUSH2 0x499 PUSH1 0x4 DUP1 CALLDATASIZE SUB PUSH1 0x20 DUP2 LT ISZERO PUSH2 0xC0A JUMPI PUSH1 0x0 DUP1 REVERT JUMPDEST DUP2 ADD SWAP1 PUSH1 0x20 DUP2 ADD DUP2 CALLDATALOAD PUSH1 0x1 PUSH1 0x20 SHL DUP2 GT ISZERO PUSH2 0xC24 JUMPI PUSH1 0x0 DUP1 REVERT JUMPDEST DUP3 ADD DUP4 PUSH1 0x20 DUP3 ADD GT ISZERO PUSH2 0xC36 JUMPI PUSH1 0x0 DUP1 REVERT JUMPDEST DUP1 CALLDATALOAD SWAP1 PUSH1 0x20 ADD SWAP2 DUP5 PUSH1 0x20 DUP4 MUL DUP5 ADD GT PUSH1 0x1 PUSH1 0x20 SHL DUP4 GT OR ISZERO PUSH2 0xC57 JUMPI PUSH1 0x0 DUP1 REVERT JUMPDEST POP SWAP1 SWAP3 POP SWAP1 POP PUSH2 0x2868 JUMP JUMPDEST PUSH2 0xCD0 PUSH1 0x4 DUP1 CALLDATASIZE SUB PUSH1 0x20 DUP2 LT ISZERO PUSH2 0xC78 JUMPI PUSH1 0x0 DUP1 REVERT JUMPDEST DUP2 ADD SWAP1 PUSH1 0x20 DUP2 ADD DUP2 CALLDATALOAD PUSH1 0x1 PUSH1 0x20 SHL DUP2 GT ISZERO PUSH2 0xC92 JUMPI PUSH1 0x0 DUP1 REVERT JUMPDEST DUP3 ADD DUP4 PUSH1 0x20 DUP3 ADD GT ISZERO PUSH2 0xCA4 JUMPI PUSH1 0x0 DUP1 REVERT JUMPDEST DUP1 CALLDATALOAD SWAP1 PUSH1 0x20 ADD SWAP2 DUP5 PUSH1 0x20 DUP4 MUL DUP5 ADD GT PUSH1 0x1 PUSH1 0x20 SHL DUP4 GT OR ISZERO PUSH2 0xCC5 JUMPI PUSH1 0x0 DUP1 REVERT JUMPDEST POP SWAP1 SWAP3 POP SWAP1 POP PUSH2 0x28E0 JUMP JUMPDEST PUSH1 0x40 MLOAD DUP1 DUP1 PUSH1 0x20 ADD DUP4 ISZERO ISZERO ISZERO ISZERO DUP2 MSTORE PUSH1 0x20 ADD DUP3 DUP2 SUB DUP3 MSTORE DUP5 DUP2 DUP2 MLOAD DUP2 MSTORE PUSH1 0x20 ADD SWAP2 POP DUP1 MLOAD SWAP1 PUSH1 0x20 ADD SWAP1 PUSH1 0x20 MUL DUP1 DUP4 DUP4 PUSH1 0x0 JUMPDEST DUP4 DUP2 LT ISZERO PUSH2 0xD1A JUMPI DUP2 DUP2 ADD MLOAD DUP4 DUP3 ADD MSTORE PUSH1 0x20 ADD PUSH2 0xD02 JUMP JUMPDEST POP POP POP POP SWAP1 POP ADD SWAP4 POP POP POP POP PUSH1 0x40 MLOAD DUP1 SWAP2 SUB SWAP1 RETURN JUMPDEST PUSH2 0x5FC PUSH1 0x4 DUP1 CALLDATASIZE SUB PUSH1 0x20 DUP2 LT ISZERO PUSH2 0xD45 JUMPI PUSH1 0x0 DUP1 REVERT JUMPDEST POP CALLDATALOAD PUSH2 0x2A27 JUMP JUMPDEST PUSH2 0x595 PUSH1 0x4 DUP1 CALLDATASIZE SUB PUSH1 0x20 DUP2 LT ISZERO PUSH2 0xD62 JUMPI PUSH1 0x0 DUP1 REVERT JUMPDEST POP CALLDATALOAD PUSH2 0x2B18 JUMP JUMPDEST PUSH2 0x5FC PUSH1 0x4 DUP1 CALLDATASIZE SUB PUSH1 0x20 DUP2 LT ISZERO PUSH2 0xD7F JUMPI PUSH1 0x0 DUP1 REVERT JUMPDEST POP CALLDATALOAD PUSH2 0x2B23 JUMP JUMPDEST PUSH2 0x3C0 PUSH1 0x4 DUP1 CALLDATASIZE SUB PUSH1 0x20 DUP2 LT ISZERO PUSH2 0xD9C JUMPI PUSH1 0x0 DUP1 REVERT JUMPDEST POP CALLDATALOAD PUSH2 0x2D05 JUMP JUMPDEST PUSH2 0x7F7 PUSH1 0x4 DUP1 CALLDATASIZE SUB PUSH1 0x40 DUP2 LT ISZERO PUSH2 0xDB9 JUMPI PUSH1 0x0 DUP1 REVERT JUMPDEST POP DUP1 CALLDATALOAD SWAP1 PUSH1 0x20 ADD CALLDATALOAD PUSH2 0x2D10 JUMP JUMPDEST PUSH1 0x0 PUSH2 0xDD9 DUP3 PUSH2 0xDD4 PUSH2 0x2D28 JUMP JUMPDEST PUSH2 0x2DA0 JUMP JUMPDEST SWAP1 POP JUMPDEST SWAP2 SWAP1 POP JUMP JUMPDEST PUSH1 0x2 SLOAD PUSH1 0x1 PUSH1 0x1 PUSH1 0xA0 SHL SUB AND DUP2 JUMP JUMPDEST PUSH1 0x0 DUP1 PUSH1 0x0 DUP1 PUSH1 0x0 PUSH2 0xE01 DUP9 PUSH2 0x2DD2 JUMP JUMPDEST SWAP1 POP PUSH1 0x1 PUSH1 0x1 PUSH1 0xA0 SHL SUB DUP2 AND PUSH2 0xE5E JUMPI PUSH1 0x40 DUP1 MLOAD PUSH3 0x461BCD PUSH1 0xE5 SHL DUP2 MSTORE PUSH1 0x20 PUSH1 0x4 DUP3 ADD MSTORE PUSH1 0x1C PUSH1 0x24 DUP3 ADD MSTORE PUSH32 0x4E6F2061746F6D6963206571756976616C656E7420666F722073726300000000 PUSH1 0x44 DUP3 ADD MSTORE SWAP1 MLOAD SWAP1 DUP2 SWAP1 SUB PUSH1 0x64 ADD SWAP1 REVERT JUMPDEST PUSH1 0x0 PUSH2 0xE69 DUP8 PUSH2 0x2DD2 JUMP JUMPDEST SWAP1 POP PUSH1 0x1 PUSH1 0x1 PUSH1 0xA0 SHL SUB DUP2 AND PUSH2 0xEC6 JUMPI PUSH1 0x40 DUP1 MLOAD PUSH3 0x461BCD PUSH1 0xE5 SHL DUP2 MSTORE PUSH1 0x20 PUSH1 0x4 DUP3 ADD MSTORE PUSH1 0x1D PUSH1 0x24 DUP3 ADD MSTORE PUSH32 0x4E6F2061746F6D6963206571756976616C656E7420666F722064657374000000 PUSH1 0x44 DUP3 ADD MSTORE SWAP1 MLOAD SWAP1 DUP2 SWAP1 SUB PUSH1 0x64 ADD SWAP1 REVERT JUMPDEST PUSH2 0xED1 DUP10 DUP10 DUP10 PUSH2 0x2EB8 JUMP JUMPDEST SWAP2 SWAP7 POP SWAP5 POP SWAP3 POP PUSH1 0x0 PUSH2 0xEF4 PUSH2 0xEE6 DUP12 PUSH2 0x2F0A JUMP JUMPDEST PUSH2 0xEEF DUP11 PUSH2 0x2F0A JUMP JUMPDEST PUSH2 0x2FB2 JUMP JUMPDEST SWAP1 POP PUSH1 0x0 PUSH2 0xF88 PUSH2 0xF7B DUP4 PUSH20 0x0 PUSH4 0x907AF6C0 PUSH1 0x40 MLOAD DUP2 PUSH4 0xFFFFFFFF AND PUSH1 0xE0 SHL DUP2 MSTORE PUSH1 0x4 ADD PUSH1 0x20 PUSH1 0x40 MLOAD DUP1 DUP4 SUB DUP2 DUP7 DUP1 EXTCODESIZE ISZERO DUP1 ISZERO PUSH2 0xF43 JUMPI PUSH1 0x0 DUP1 REVERT JUMPDEST POP GAS DELEGATECALL ISZERO DUP1 ISZERO PUSH2 0xF57 JUMPI RETURNDATASIZE PUSH1 0x0 DUP1 RETURNDATACOPY RETURNDATASIZE PUSH1 0x0 REVERT JUMPDEST POP POP POP POP PUSH1 0x40 MLOAD RETURNDATASIZE PUSH1 0x20 DUP2 LT ISZERO PUSH2 0xF6D JUMPI PUSH1 0x0 DUP1 REVERT JUMPDEST POP MLOAD SWAP1 PUSH4 0xFFFFFFFF PUSH2 0x2FC9 AND JUMP JUMPDEST DUP9 SWAP1 PUSH4 0xFFFFFFFF PUSH2 0x3026 AND JUMP JUMPDEST SWAP1 POP PUSH1 0x0 PUSH20 0x0 PUSH4 0x907AF6C0 PUSH1 0x40 MLOAD DUP2 PUSH4 0xFFFFFFFF AND PUSH1 0xE0 SHL DUP2 MSTORE PUSH1 0x4 ADD PUSH1 0x20 PUSH1 0x40 MLOAD DUP1 DUP4 SUB DUP2 DUP7 DUP1 EXTCODESIZE ISZERO DUP1 ISZERO PUSH2 0xFD0 JUMPI PUSH1 0x0 DUP1 REVERT JUMPDEST POP GAS DELEGATECALL ISZERO DUP1 ISZERO PUSH2 0xFE4 JUMPI RETURNDATASIZE PUSH1 0x0 DUP1 RETURNDATACOPY RETURNDATASIZE PUSH1 0x0 REVERT JUMPDEST POP POP POP POP PUSH1 0x40 MLOAD RETURNDATASIZE PUSH1 0x20 DUP2 LT ISZERO PUSH2 0xFFA JUMPI PUSH1 0x0 DUP1 REVERT JUMPDEST POP MLOAD PUSH1 0x40 DUP1 MLOAD PUSH4 0x313CE567 PUSH1 0xE0 SHL DUP2 MSTORE SWAP1 MLOAD PUSH1 0x1 PUSH1 0x1 PUSH1 0xA0 SHL SUB DUP9 AND SWAP2 PUSH4 0x313CE567 SWAP2 PUSH1 0x4 DUP1 DUP4 ADD SWAP3 PUSH1 0x20 SWAP3 SWAP2 SWAP1 DUP3 SWAP1 SUB ADD DUP2 DUP7 DUP1 EXTCODESIZE ISZERO DUP1 ISZERO PUSH2 0x103C JUMPI PUSH1 0x0 DUP1 REVERT JUMPDEST POP GAS STATICCALL ISZERO DUP1 ISZERO PUSH2 0x1050 JUMPI RETURNDATASIZE PUSH1 0x0 DUP1 RETURNDATACOPY RETURNDATASIZE PUSH1 0x0 REVERT JUMPDEST POP POP POP POP PUSH1 0x40 MLOAD RETURNDATASIZE PUSH1 0x20 DUP2 LT ISZERO PUSH2 0x1066 JUMPI PUSH1 0x0 DUP1 REVERT JUMPDEST POP MLOAD PUSH1 0xFF AND PUSH1 0xA EXP DUP13 MUL DUP2 PUSH2 0x1077 JUMPI INVALID JUMPDEST DIV SWAP1 POP PUSH1 0x0 PUSH2 0x1084 PUSH2 0x3050 JUMP JUMPDEST SWAP1 POP DUP1 PUSH2 0x10D8 JUMPI PUSH1 0x40 DUP1 MLOAD PUSH3 0x461BCD PUSH1 0xE5 SHL DUP2 MSTORE PUSH1 0x20 PUSH1 0x4 DUP3 ADD DUP2 SWAP1 MSTORE PUSH1 0x24 DUP3 ADD MSTORE PUSH32 0x556E696E697469616C697A65642061746F6D696320747761702077696E646F77 PUSH1 0x44 DUP3 ADD MSTORE SWAP1 MLOAD SWAP1 DUP2 SWAP1 SUB PUSH1 0x64 ADD SWAP1 REVERT JUMPDEST PUSH1 0x0 PUSH2 0x10E2 PUSH2 0x2379 JUMP JUMPDEST PUSH1 0x40 DUP1 MLOAD PUSH4 0x7C661949 PUSH1 0xE0 SHL DUP2 MSTORE PUSH1 0x1 PUSH1 0x1 PUSH1 0xA0 SHL SUB DUP11 DUP2 AND PUSH1 0x4 DUP4 ADD MSTORE PUSH1 0x24 DUP3 ADD DUP8 SWAP1 MSTORE DUP10 DUP2 AND PUSH1 0x44 DUP4 ADD MSTORE PUSH1 0x64 DUP3 ADD DUP7 SWAP1 MSTORE SWAP2 MLOAD SWAP3 SWAP1 SWAP2 AND SWAP2 PUSH4 0x7C661949 SWAP2 PUSH1 0x84 DUP1 DUP3 ADD SWAP3 PUSH1 0x20 SWAP3 SWAP1 SWAP2 SWAP1 DUP3 SWAP1 SUB ADD DUP2 DUP7 DUP1 EXTCODESIZE ISZERO DUP1 ISZERO PUSH2 0x1143 JUMPI PUSH1 0x0 DUP1 REVERT JUMPDEST POP GAS STATICCALL ISZERO DUP1 ISZERO PUSH2 0x1157 JUMPI RETURNDATASIZE PUSH1 0x0 DUP1 RETURNDATACOPY RETURNDATASIZE PUSH1 0x0 REVERT JUMPDEST POP POP POP POP PUSH1 0x40 MLOAD RETURNDATASIZE PUSH1 0x20 DUP2 LT ISZERO PUSH2 0x116D JUMPI PUSH1 0x0 DUP1 REVERT JUMPDEST POP MLOAD PUSH1 0x40 DUP1 MLOAD PUSH4 0x313CE567 PUSH1 0xE0 SHL DUP2 MSTORE SWAP1 MLOAD SWAP2 SWAP3 POP PUSH1 0x0 SWAP2 PUSH1 0x1 PUSH1 0x1 PUSH1 0xA0 SHL SUB DUP10 AND SWAP2 PUSH4 0x313CE567 SWAP2 PUSH1 0x4 DUP1 DUP4 ADD SWAP3 PUSH1 0x20 SWAP3 SWAP2 SWAP1 DUP3 SWAP1 SUB ADD DUP2 DUP7 DUP1 EXTCODESIZE ISZERO DUP1 ISZERO PUSH2 0x11B5 JUMPI PUSH1 0x0 DUP1 REVERT JUMPDEST POP GAS STATICCALL ISZERO DUP1 ISZERO PUSH2 0x11C9 JUMPI RETURNDATASIZE PUSH1 0x0 DUP1 RETURNDATACOPY RETURNDATASIZE PUSH1 0x0 REVERT JUMPDEST POP POP POP POP PUSH1 0x40 MLOAD RETURNDATASIZE PUSH1 0x20 DUP2 LT ISZERO PUSH2 0x11DF JUMPI PUSH1 0x0 DUP1 REVERT JUMPDEST POP MLOAD PUSH1 0x40 DUP1 MLOAD PUSH4 0x241EBDB PUSH1 0xE6 SHL DUP2 MSTORE SWAP1 MLOAD PUSH1 0xFF SWAP1 SWAP3 AND PUSH1 0xA EXP SWAP2 PUSH20 0x0 SWAP2 PUSH4 0x907AF6C0 SWAP2 PUSH1 0x4 DUP1 DUP4 ADD SWAP3 PUSH1 0x20 SWAP3 SWAP2 SWAP1 DUP3 SWAP1 SUB ADD DUP2 DUP7 DUP1 EXTCODESIZE ISZERO DUP1 ISZERO PUSH2 0x1235 JUMPI PUSH1 0x0 DUP1 REVERT JUMPDEST POP GAS DELEGATECALL ISZERO DUP1 ISZERO PUSH2 0x1249 JUMPI RETURNDATASIZE PUSH1 0x0 DUP1 RETURNDATACOPY RETURNDATASIZE PUSH1 0x0 REVERT JUMPDEST POP POP POP POP PUSH1 0x40 MLOAD RETURNDATASIZE PUSH1 0x20 DUP2 LT ISZERO PUSH2 0x125F JUMPI PUSH1 0x0 DUP1 REVERT JUMPDEST POP MLOAD DUP4 MUL DUP2 PUSH2 0x126A JUMPI INVALID JUMPDEST DIV SWAP1 POP PUSH2 0x1277 DUP6 DUP3 PUSH2 0x30C9 JUMP JUMPDEST SWAP12 POP POP POP POP POP POP POP POP POP SWAP4 POP SWAP4 POP SWAP4 POP SWAP4 JUMP JUMPDEST PUSH1 0x60 DUP1 DUP4 DUP4 SWAP1 POP PUSH1 0x40 MLOAD SWAP1 DUP1 DUP3 MSTORE DUP1 PUSH1 0x20 MUL PUSH1 0x20 ADD DUP3 ADD PUSH1 0x40 MSTORE DUP1 ISZERO PUSH2 0x12BA JUMPI DUP2 PUSH1 0x20 ADD PUSH1 0x20 DUP3 MUL DUP1 CODESIZE DUP4 CODECOPY ADD SWAP1 POP JUMPDEST POP SWAP1 POP PUSH1 0x0 JUMPDEST DUP4 DUP2 LT ISZERO PUSH2 0x1302 JUMPI PUSH2 0x12E3 DUP6 DUP6 DUP4 DUP2 DUP2 LT PUSH2 0x12D7 JUMPI INVALID JUMPDEST SWAP1 POP PUSH1 0x20 MUL ADD CALLDATALOAD PUSH2 0x30D8 JUMP JUMPDEST DUP3 DUP3 DUP2 MLOAD DUP2 LT PUSH2 0x12EF JUMPI INVALID JUMPDEST PUSH1 0x20 SWAP1 DUP2 MUL SWAP2 SWAP1 SWAP2 ADD ADD MSTORE PUSH1 0x1 ADD PUSH2 0x12C0 JUMP JUMPDEST POP SWAP1 POP JUMPDEST SWAP3 SWAP2 POP POP JUMP JUMPDEST PUSH1 0x0 DUP1 PUSH2 0x1317 PUSH2 0x2D28 JUMP JUMPDEST SWAP1 POP PUSH1 0x60 PUSH2 0x1357 DUP6 DUP6 DUP1 DUP1 PUSH1 0x20 MUL PUSH1 0x20 ADD PUSH1 0x40 MLOAD SWAP1 DUP2 ADD PUSH1 0x40 MSTORE DUP1 SWAP4 SWAP3 SWAP2 SWAP1 DUP2 DUP2 MSTORE PUSH1 0x20 ADD DUP4 DUP4 PUSH1 0x20 MUL DUP1 DUP3 DUP5 CALLDATACOPY PUSH1 0x0 SWAP3 ADD SWAP2 SWAP1 SWAP2 MSTORE POP PUSH2 0x30F4 SWAP3 POP POP POP JUMP JUMPDEST SWAP1 POP PUSH1 0x0 JUMPDEST DUP5 DUP2 LT ISZERO PUSH2 0x13B3 JUMPI DUP2 DUP2 DUP2 MLOAD DUP2 LT PUSH2 0x1370 JUMPI INVALID JUMPDEST PUSH1 0x20 MUL PUSH1 0x20 ADD ADD MLOAD DUP1 PUSH2 0x139A JUMPI POP PUSH2 0x139A DUP7 DUP7 DUP4 DUP2 DUP2 LT PUSH2 0x138D JUMPI INVALID JUMPDEST SWAP1 POP PUSH1 0x20 MUL ADD CALLDATALOAD DUP5 PUSH2 0x2DA0 JUMP JUMPDEST ISZERO PUSH2 0x13AB JUMPI PUSH1 0x1 SWAP4 POP POP POP POP PUSH2 0x1306 JUMP JUMPDEST PUSH1 0x1 ADD PUSH2 0x135C JUMP JUMPDEST POP PUSH1 0x0 SWAP6 SWAP5 POP POP POP POP POP JUMP JUMPDEST PUSH1 0x0 DUP1 PUSH2 0x13CA PUSH2 0x44F0 JUMP JUMPDEST PUSH2 0x13D3 DUP5 PUSH2 0x3335 JUMP JUMPDEST SWAP1 POP DUP4 PUSH4 0x1CD554D1 PUSH1 0xE2 SHL EQ ISZERO PUSH2 0x13F9 JUMPI MLOAD PUSH1 0x1 PUSH1 0x1 PUSH1 0xD8 SHL SUB AND SWAP2 POP PUSH1 0x0 SWAP1 POP PUSH2 0x143F JUMP JUMPDEST DUP1 MLOAD PUSH2 0x1417 PUSH2 0x1406 PUSH2 0x2D28 JUMP JUMPDEST DUP4 PUSH1 0x20 ADD MLOAD PUSH5 0xFFFFFFFFFF AND PUSH2 0x355E JUMP JUMPDEST DUP1 PUSH2 0x142E JUMPI POP PUSH2 0x142E DUP6 PUSH2 0x1429 PUSH2 0x3579 JUMP JUMPDEST PUSH2 0x35F8 JUMP JUMPDEST PUSH1 0x1 PUSH1 0x1 PUSH1 0xD8 SHL SUB SWAP1 SWAP2 AND SWAP4 POP SWAP2 POP POP JUMPDEST SWAP2 POP SWAP2 JUMP JUMPDEST PUSH1 0x0 PUSH2 0x144E PUSH2 0x2D28 JUMP JUMPDEST SWAP1 POP JUMPDEST SWAP1 JUMP JUMPDEST PUSH1 0x0 DUP4 DUP2 JUMPDEST PUSH2 0x1466 DUP8 DUP4 PUSH1 0x1 ADD PUSH2 0x36D6 JUMP JUMPDEST SWAP2 POP POP DUP1 ISZERO DUP1 PUSH2 0x1477 JUMPI POP DUP4 DUP6 ADD DUP2 GT JUMPDEST ISZERO PUSH2 0x1484 JUMPI POP SWAP1 POP PUSH2 0x148F JUMP JUMPDEST PUSH1 0x1 SWAP1 SWAP2 ADD SWAP1 PUSH2 0x1459 JUMP JUMPDEST SWAP5 SWAP4 POP POP POP POP JUMP JUMPDEST PUSH2 0x149F PUSH2 0x38AC JUMP JUMPDEST PUSH1 0x1 DUP1 SLOAD PUSH1 0x1 PUSH1 0x1 PUSH1 0xA0 SHL SUB DUP4 AND PUSH1 0x1 PUSH1 0x1 PUSH1 0xA0 SHL SUB NOT SWAP1 SWAP2 AND DUP2 OR SWAP1 SWAP2 SSTORE PUSH1 0x40 DUP1 MLOAD SWAP2 DUP3 MSTORE MLOAD PUSH32 0x906A1C6BD7E3091EA86693DD029A831C19049CE77F1DCE2CE0BAB1CACBABCE22 SWAP2 DUP2 SWAP1 SUB PUSH1 0x20 ADD SWAP1 LOG1 POP JUMP JUMPDEST PUSH1 0x0 PUSH2 0x1501 DUP3 PUSH2 0xDD4 PUSH2 0x2D28 JUMP JUMPDEST DUP1 PUSH2 0xDD9 JUMPI POP PUSH2 0xDD9 DUP3 PUSH2 0x1429 PUSH2 0x3579 JUMP JUMPDEST PUSH1 0x0 DUP4 DUP7 EQ ISZERO PUSH2 0x1524 JUMPI POP DUP4 PUSH2 0x1577 JUMP JUMPDEST PUSH1 0x0 PUSH2 0x1530 DUP8 DUP6 PUSH2 0x36D6 JUMP JUMPDEST POP SWAP1 POP PUSH1 0x0 PUSH2 0x153F DUP7 DUP6 PUSH2 0x36D6 JUMP JUMPDEST POP SWAP1 POP DUP1 PUSH2 0x1552 JUMPI PUSH1 0x0 SWAP3 POP POP POP PUSH2 0x1577 JUMP JUMPDEST PUSH2 0x1572 DUP2 PUSH2 0x1566 DUP10 DUP6 PUSH4 0xFFFFFFFF PUSH2 0x38F7 AND JUMP JUMPDEST SWAP1 PUSH4 0xFFFFFFFF PUSH2 0x390C AND JUMP JUMPDEST SWAP3 POP POP POP JUMPDEST SWAP6 SWAP5 POP POP POP POP POP JUMP JUMPDEST PUSH1 0x8 SLOAD PUSH1 0x40 DUP1 MLOAD DUP3 DUP2 MSTORE PUSH1 0x20 DUP1 DUP5 MUL DUP3 ADD ADD SWAP1 SWAP2 MSTORE PUSH1 0x60 SWAP2 PUSH1 0x0 SWAP2 SWAP1 DUP1 ISZERO PUSH2 0x15B2 JUMPI DUP2 PUSH1 0x20 ADD PUSH1 0x20 DUP3 MUL DUP1 CODESIZE DUP4 CODECOPY ADD SWAP1 POP JUMPDEST POP SWAP2 POP PUSH1 0x0 JUMPDEST PUSH1 0x8 SLOAD DUP2 LT ISZERO PUSH2 0x162D JUMPI PUSH1 0x0 PUSH1 0x8 DUP3 DUP2 SLOAD DUP2 LT PUSH2 0x15D1 JUMPI INVALID JUMPDEST PUSH1 0x0 SWAP2 DUP3 MSTORE PUSH1 0x20 DUP1 DUP4 KECCAK256 SWAP1 SWAP2 ADD SLOAD DUP1 DUP4 MSTORE PUSH1 0x6 SWAP1 SWAP2 MSTORE PUSH1 0x40 SWAP1 SWAP2 KECCAK256 SLOAD SWAP1 SWAP2 POP PUSH1 0x1 PUSH1 0x1 PUSH1 0xA0 SHL SUB SWAP1 DUP2 AND SWAP1 DUP7 AND EQ ISZERO PUSH2 0x1624 JUMPI DUP1 DUP5 DUP5 DUP1 PUSH1 0x1 ADD SWAP6 POP DUP2 MLOAD DUP2 LT PUSH2 0x1617 JUMPI INVALID JUMPDEST PUSH1 0x20 MUL PUSH1 0x20 ADD ADD DUP2 DUP2 MSTORE POP POP JUMPDEST POP PUSH1 0x1 ADD PUSH2 0x15B8 JUMP JUMPDEST POP POP SWAP2 SWAP1 POP JUMP JUMPDEST PUSH1 0x0 PUSH1 0x60 PUSH2 0x1640 PUSH2 0x22E5 JUMP JUMPDEST SWAP1 POP PUSH1 0x0 JUMPDEST DUP2 MLOAD DUP2 LT ISZERO PUSH2 0x1735 JUMPI PUSH1 0x0 DUP3 DUP3 DUP2 MLOAD DUP2 LT PUSH2 0x165C JUMPI INVALID JUMPDEST PUSH1 0x20 SWAP1 DUP2 MUL SWAP2 SWAP1 SWAP2 ADD DUP2 ADD MLOAD PUSH1 0x0 DUP2 DUP2 MSTORE PUSH1 0x3 DUP4 MSTORE PUSH1 0x40 SWAP1 DUP2 SWAP1 KECCAK256 SLOAD PUSH1 0x2 SLOAD DUP3 MLOAD PUSH4 0x21F8A721 PUSH1 0xE0 SHL DUP2 MSTORE PUSH1 0x4 DUP2 ADD DUP6 SWAP1 MSTORE SWAP3 MLOAD SWAP4 SWAP6 POP PUSH1 0x1 PUSH1 0x1 PUSH1 0xA0 SHL SUB SWAP2 DUP3 AND SWAP5 SWAP2 AND SWAP3 PUSH4 0x21F8A721 SWAP3 PUSH1 0x24 DUP1 DUP3 ADD SWAP4 SWAP3 SWAP2 DUP3 SWAP1 SUB ADD DUP2 DUP7 DUP1 EXTCODESIZE ISZERO DUP1 ISZERO PUSH2 0x16C4 JUMPI PUSH1 0x0 DUP1 REVERT JUMPDEST POP GAS STATICCALL ISZERO DUP1 ISZERO PUSH2 0x16D8 JUMPI RETURNDATASIZE PUSH1 0x0 DUP1 RETURNDATACOPY RETURNDATASIZE PUSH1 0x0 REVERT JUMPDEST POP POP POP POP PUSH1 0x40 MLOAD RETURNDATASIZE PUSH1 0x20 DUP2 LT ISZERO PUSH2 0x16EE JUMPI PUSH1 0x0 DUP1 REVERT JUMPDEST POP MLOAD PUSH1 0x1 PUSH1 0x1 PUSH1 0xA0 SHL SUB AND EQ ISZERO DUP1 PUSH2 0x171B JUMPI POP PUSH1 0x0 DUP2 DUP2 MSTORE PUSH1 0x3 PUSH1 0x20 MSTORE PUSH1 0x40 SWAP1 KECCAK256 SLOAD PUSH1 0x1 PUSH1 0x1 PUSH1 0xA0 SHL SUB AND ISZERO JUMPDEST ISZERO PUSH2 0x172C JUMPI PUSH1 0x0 SWAP4 POP POP POP POP PUSH2 0x1451 JUMP JUMPDEST POP PUSH1 0x1 ADD PUSH2 0x1645 JUMP JUMPDEST POP PUSH1 0x1 SWAP2 POP POP SWAP1 JUMP JUMPDEST PUSH2 0x1746 PUSH2 0x38AC JUMP JUMPDEST PUSH1 0x0 DUP2 DUP2 MSTORE PUSH1 0x6 PUSH1 0x20 MSTORE PUSH1 0x40 SWAP1 KECCAK256 SLOAD PUSH1 0x1 PUSH1 0x1 PUSH1 0xA0 SHL SUB AND DUP1 PUSH2 0x17B0 JUMPI PUSH1 0x40 DUP1 MLOAD PUSH3 0x461BCD PUSH1 0xE5 SHL DUP2 MSTORE PUSH1 0x20 PUSH1 0x4 DUP3 ADD MSTORE PUSH1 0x1C PUSH1 0x24 DUP3 ADD MSTORE PUSH32 0x4E6F2061676772656761746F722065786973747320666F72206B657900000000 PUSH1 0x44 DUP3 ADD MSTORE SWAP1 MLOAD SWAP1 DUP2 SWAP1 SUB PUSH1 0x64 ADD SWAP1 REVERT JUMPDEST PUSH1 0x0 DUP3 DUP2 MSTORE PUSH1 0x6 PUSH1 0x20 SWAP1 DUP2 MSTORE PUSH1 0x40 DUP1 DUP4 KECCAK256 DUP1 SLOAD PUSH1 0x1 PUSH1 0x1 PUSH1 0xA0 SHL SUB NOT AND SWAP1 SSTORE PUSH1 0x7 SWAP1 SWAP2 MSTORE DUP2 KECCAK256 DUP1 SLOAD PUSH1 0xFF NOT AND SWAP1 SSTORE PUSH2 0x17E9 DUP4 PUSH1 0x8 PUSH2 0x3921 JUMP JUMPDEST SWAP1 POP DUP1 ISZERO PUSH2 0x1835 JUMPI PUSH1 0x40 DUP1 MLOAD DUP5 DUP2 MSTORE PUSH1 0x1 PUSH1 0x1 PUSH1 0xA0 SHL SUB DUP5 AND PUSH1 0x20 DUP3 ADD MSTORE DUP2 MLOAD PUSH32 0xEC70E890FC7DB7DE4059B114C9093A1F41283D18FFCFBCAC45566FEEA4D4F777 SWAP3 SWAP2 DUP2 SWAP1 SUB SWAP1 SWAP2 ADD SWAP1 LOG1 JUMPDEST POP POP POP JUMP JUMPDEST PUSH1 0x60 DUP1 DUP3 PUSH1 0x40 MLOAD SWAP1 DUP1 DUP3 MSTORE DUP1 PUSH1 0x20 MUL PUSH1 0x20 ADD DUP3 ADD PUSH1 0x40 MSTORE DUP1 ISZERO PUSH2 0x1867 JUMPI DUP2 PUSH1 0x20 ADD PUSH1 0x20 DUP3 MUL DUP1 CODESIZE DUP4 CODECOPY ADD SWAP1 POP JUMPDEST POP SWAP2 POP DUP3 PUSH1 0x40 MLOAD SWAP1 DUP1 DUP3 MSTORE DUP1 PUSH1 0x20 MUL PUSH1 0x20 ADD DUP3 ADD PUSH1 0x40 MSTORE DUP1 ISZERO PUSH2 0x1894 JUMPI DUP2 PUSH1 0x20 ADD PUSH1 0x20 DUP3 MUL DUP1 CODESIZE DUP4 CODECOPY ADD SWAP1 POP JUMPDEST POP SWAP1 POP PUSH1 0x0 PUSH2 0x18A2 DUP6 PUSH2 0x39C5 JUMP JUMPDEST SWAP1 POP PUSH1 0x0 JUMPDEST DUP5 DUP2 LT ISZERO PUSH2 0x1903 JUMPI PUSH2 0x18B9 DUP7 DUP4 PUSH2 0x36D6 JUMP JUMPDEST DUP6 DUP4 DUP2 MLOAD DUP2 LT PUSH2 0x18C5 JUMPI INVALID JUMPDEST PUSH1 0x20 MUL PUSH1 0x20 ADD ADD DUP6 DUP5 DUP2 MLOAD DUP2 LT PUSH2 0x18D8 JUMPI INVALID JUMPDEST PUSH1 0x20 SWAP1 DUP2 MUL SWAP2 SWAP1 SWAP2 ADD ADD SWAP2 SWAP1 SWAP2 MSTORE MSTORE DUP2 PUSH2 0x18F4 JUMPI POP PUSH2 0x1906 SWAP1 POP JUMP JUMPDEST PUSH1 0x0 NOT SWAP1 SWAP2 ADD SWAP1 PUSH1 0x1 ADD PUSH2 0x18A7 JUMP JUMPDEST POP POP JUMPDEST SWAP3 POP SWAP3 SWAP1 POP JUMP JUMPDEST PUSH1 0xA DUP2 DUP2 SLOAD DUP2 LT PUSH2 0x191A JUMPI INVALID JUMPDEST PUSH1 0x0 SWAP2 DUP3 MSTORE PUSH1 0x20 SWAP1 SWAP2 KECCAK256 ADD SLOAD SWAP1 POP DUP2 JUMP JUMPDEST PUSH1 0x0 PUSH2 0x1935 PUSH2 0x4507 JUMP JUMPDEST POP PUSH1 0x0 DUP3 DUP2 MSTORE PUSH1 0x9 PUSH1 0x20 SWAP1 DUP2 MSTORE PUSH1 0x40 SWAP2 DUP3 SWAP1 KECCAK256 DUP3 MLOAD PUSH1 0xA0 DUP2 ADD DUP5 MSTORE DUP2 SLOAD DUP1 DUP3 MSTORE PUSH1 0x1 DUP4 ADD SLOAD SWAP4 DUP3 ADD SWAP4 SWAP1 SWAP4 MSTORE PUSH1 0x2 DUP3 ADD SLOAD SWAP4 DUP2 ADD SWAP4 SWAP1 SWAP4 MSTORE PUSH1 0x3 ADD SLOAD PUSH1 0xFF DUP1 DUP3 AND ISZERO ISZERO PUSH1 0x60 DUP6 ADD MSTORE PUSH2 0x100 SWAP1 SWAP2 DIV AND ISZERO ISZERO PUSH1 0x80 DUP4 ADD MSTORE ISZERO DUP1 PUSH2 0x1998 JUMPI POP DUP1 PUSH1 0x60 ADD MLOAD JUMPDEST DUP1 PUSH2 0x19A4 JUMPI POP DUP1 PUSH1 0x80 ADD MLOAD JUMPDEST ISZERO PUSH2 0x19B3 JUMPI PUSH1 0x0 SWAP2 POP POP PUSH2 0xDDC JUMP JUMPDEST PUSH1 0x0 PUSH2 0x19BE DUP5 PUSH2 0x242F JUMP JUMPDEST SWAP1 POP PUSH1 0x0 DUP2 GT DUP1 ISZERO PUSH2 0x19E2 JUMPI POP DUP2 PUSH1 0x20 ADD MLOAD DUP2 LT ISZERO DUP1 PUSH2 0x19E2 JUMPI POP DUP2 PUSH1 0x40 ADD MLOAD DUP2 GT ISZERO JUMPDEST SWAP3 POP POP POP PUSH2 0xDDC JUMP JUMPDEST POP SWAP2 SWAP1 POP JUMP JUMPDEST PUSH1 0x0 PUSH2 0xDD9 DUP3 PUSH2 0x1429 PUSH2 0x3579 JUMP JUMPDEST PUSH2 0x1A07 PUSH2 0x38AC JUMP JUMPDEST PUSH1 0x0 DUP2 SWAP1 POP PUSH1 0x0 DUP2 PUSH1 0x1 PUSH1 0x1 PUSH1 0xA0 SHL SUB AND PUSH4 0x668A0F02 PUSH1 0x40 MLOAD DUP2 PUSH4 0xFFFFFFFF AND PUSH1 0xE0 SHL DUP2 MSTORE PUSH1 0x4 ADD PUSH1 0x20 PUSH1 0x40 MLOAD DUP1 DUP4 SUB DUP2 DUP7 DUP1 EXTCODESIZE ISZERO DUP1 ISZERO PUSH2 0x1A47 JUMPI PUSH1 0x0 DUP1 REVERT JUMPDEST POP GAS STATICCALL ISZERO DUP1 ISZERO PUSH2 0x1A5B JUMPI RETURNDATASIZE PUSH1 0x0 DUP1 RETURNDATACOPY RETURNDATASIZE PUSH1 0x0 REVERT JUMPDEST POP POP POP POP PUSH1 0x40 MLOAD RETURNDATASIZE PUSH1 0x20 DUP2 LT ISZERO PUSH2 0x1A71 JUMPI PUSH1 0x0 DUP1 REVERT JUMPDEST POP MLOAD LT ISZERO PUSH2 0x1AC6 JUMPI PUSH1 0x40 DUP1 MLOAD PUSH3 0x461BCD PUSH1 0xE5 SHL DUP2 MSTORE PUSH1 0x20 PUSH1 0x4 DUP3 ADD MSTORE PUSH1 0x1B PUSH1 0x24 DUP3 ADD MSTORE PUSH32 0x476976656E2041676772656761746F7220697320696E76616C69640000000000 PUSH1 0x44 DUP3 ADD MSTORE SWAP1 MLOAD SWAP1 DUP2 SWAP1 SUB PUSH1 0x64 ADD SWAP1 REVERT JUMPDEST PUSH1 0x0 DUP2 PUSH1 0x1 PUSH1 0x1 PUSH1 0xA0 SHL SUB AND PUSH4 0x313CE567 PUSH1 0x40 MLOAD DUP2 PUSH4 0xFFFFFFFF AND PUSH1 0xE0 SHL DUP2 MSTORE PUSH1 0x4 ADD PUSH1 0x20 PUSH1 0x40 MLOAD DUP1 DUP4 SUB DUP2 DUP7 DUP1 EXTCODESIZE ISZERO DUP1 ISZERO PUSH2 0x1B01 JUMPI PUSH1 0x0 DUP1 REVERT JUMPDEST POP GAS STATICCALL ISZERO DUP1 ISZERO PUSH2 0x1B15 JUMPI RETURNDATASIZE PUSH1 0x0 DUP1 RETURNDATACOPY RETURNDATASIZE PUSH1 0x0 REVERT JUMPDEST POP POP POP POP PUSH1 0x40 MLOAD RETURNDATASIZE PUSH1 0x20 DUP2 LT ISZERO PUSH2 0x1B2B JUMPI PUSH1 0x0 DUP1 REVERT JUMPDEST POP MLOAD SWAP1 POP PUSH1 0x12 PUSH1 0xFF DUP3 AND GT ISZERO PUSH2 0x1B72 JUMPI PUSH1 0x40 MLOAD PUSH3 0x461BCD PUSH1 0xE5 SHL DUP2 MSTORE PUSH1 0x4 ADD DUP1 DUP1 PUSH1 0x20 ADD DUP3 DUP2 SUB DUP3 MSTORE PUSH1 0x32 DUP2 MSTORE PUSH1 0x20 ADD DUP1 PUSH2 0x46E2 PUSH1 0x32 SWAP2 CODECOPY PUSH1 0x40 ADD SWAP2 POP POP PUSH1 0x40 MLOAD DUP1 SWAP2 SUB SWAP1 REVERT JUMPDEST PUSH1 0x0 DUP5 DUP2 MSTORE PUSH1 0x6 PUSH1 0x20 MSTORE PUSH1 0x40 SWAP1 KECCAK256 SLOAD PUSH1 0x1 PUSH1 0x1 PUSH1 0xA0 SHL SUB AND PUSH2 0x1BC4 JUMPI PUSH1 0x8 DUP1 SLOAD PUSH1 0x1 DUP2 ADD DUP3 SSTORE PUSH1 0x0 SWAP2 SWAP1 SWAP2 MSTORE PUSH32 0xF3F7A9FE364FAAB93B216DA50A3214154F22A0A2B415B23A84C8169E8B636EE3 ADD DUP5 SWAP1 SSTORE JUMPDEST PUSH1 0x0 DUP5 DUP2 MSTORE PUSH1 0x6 PUSH1 0x20 SWAP1 DUP2 MSTORE PUSH1 0x40 DUP1 DUP4 KECCAK256 DUP1 SLOAD PUSH1 0x1 PUSH1 0x1 PUSH1 0xA0 SHL SUB NOT AND PUSH1 0x1 PUSH1 0x1 PUSH1 0xA0 SHL SUB DUP8 AND SWAP1 DUP2 OR SWAP1 SWAP2 SSTORE PUSH1 0x7 DUP4 MSTORE SWAP3 DUP2 SWAP1 KECCAK256 DUP1 SLOAD PUSH1 0xFF NOT AND PUSH1 0xFF DUP7 AND OR SWAP1 SSTORE DUP1 MLOAD DUP8 DUP2 MSTORE SWAP2 DUP3 ADD SWAP3 SWAP1 SWAP3 MSTORE DUP2 MLOAD PUSH32 0xBCAE573430F69C5361E5D76534D3F61D2D803958778680CD74BE9DC6299BC63 SWAP3 SWAP2 DUP2 SWAP1 SUB SWAP1 SWAP2 ADD SWAP1 LOG1 POP POP POP POP JUMP JUMPDEST PUSH1 0x0 DUP1 PUSH2 0x1C50 PUSH2 0x44F0 JUMP JUMPDEST PUSH2 0x1C59 DUP5 PUSH2 0x3335 JUMP JUMPDEST DUP1 MLOAD PUSH1 0x20 SWAP1 SWAP2 ADD MLOAD PUSH1 0x1 PUSH1 0x1 PUSH1 0xD8 SHL SUB SWAP1 SWAP2 AND SWAP4 POP PUSH5 0xFFFFFFFFFF AND SWAP2 POP POP SWAP2 POP SWAP2 JUMP JUMPDEST PUSH2 0x1C85 PUSH2 0x3A67 JUMP JUMPDEST PUSH1 0x0 PUSH2 0x1C90 DUP3 PUSH2 0x242F JUMP JUMPDEST GT PUSH2 0x1CD1 JUMPI PUSH1 0x40 DUP1 MLOAD PUSH3 0x461BCD PUSH1 0xE5 SHL DUP2 MSTORE PUSH1 0x20 PUSH1 0x4 DUP3 ADD MSTORE PUSH1 0xC PUSH1 0x24 DUP3 ADD MSTORE PUSH12 0x52617465206973207A65726F PUSH1 0xA0 SHL PUSH1 0x44 DUP3 ADD MSTORE SWAP1 MLOAD SWAP1 DUP2 SWAP1 SUB PUSH1 0x64 ADD SWAP1 REVERT JUMPDEST PUSH1 0x0 DUP2 DUP2 MSTORE PUSH1 0x4 PUSH1 0x20 SWAP1 DUP2 MSTORE PUSH1 0x40 DUP1 DUP4 KECCAK256 PUSH1 0xB DUP1 DUP5 MSTORE DUP3 DUP6 KECCAK256 DUP1 SLOAD DUP7 MSTORE SWAP2 DUP5 MSTORE DUP3 DUP6 KECCAK256 DUP6 SWAP1 SSTORE SWAP4 DUP6 SWAP1 MSTORE SWAP3 DUP3 MSTORE DUP3 SLOAD PUSH1 0x0 NOT ADD SWAP1 SWAP3 SSTORE DUP2 MLOAD DUP4 DUP2 MSTORE SWAP2 MLOAD PUSH32 0xE69D655565C7FF1353D8EAEEA62FB7904FA9696987431EC351BE288C865F1AE1 SWAP3 DUP2 SWAP1 SUB SWAP1 SWAP2 ADD SWAP1 LOG1 POP JUMP JUMPDEST PUSH1 0x0 PUSH2 0x144E PUSH2 0x3579 JUMP JUMPDEST PUSH1 0x8 DUP2 DUP2 SLOAD DUP2 LT PUSH2 0x191A JUMPI INVALID JUMPDEST PUSH1 0x1 SLOAD PUSH1 0x1 PUSH1 0x1 PUSH1 0xA0 SHL SUB AND DUP2 JUMP JUMPDEST PUSH13 0x45786368616E67655261746573 PUSH1 0x98 SHL DUP2 JUMP JUMPDEST PUSH1 0x0 PUSH2 0x1D82 DUP5 DUP5 DUP5 PUSH2 0x2EB8 JUMP JUMPDEST POP SWAP1 SWAP6 SWAP5 POP POP POP POP POP JUMP JUMPDEST PUSH1 0x0 PUSH2 0x144E PUSH2 0x3050 JUMP JUMPDEST PUSH1 0x6 PUSH1 0x20 MSTORE PUSH1 0x0 SWAP1 DUP2 MSTORE PUSH1 0x40 SWAP1 KECCAK256 SLOAD PUSH1 0x1 PUSH1 0x1 PUSH1 0xA0 SHL SUB AND DUP2 JUMP JUMPDEST PUSH1 0x9 PUSH1 0x20 MSTORE PUSH1 0x0 SWAP1 DUP2 MSTORE PUSH1 0x40 SWAP1 KECCAK256 DUP1 SLOAD PUSH1 0x1 DUP3 ADD SLOAD PUSH1 0x2 DUP4 ADD SLOAD PUSH1 0x3 SWAP1 SWAP4 ADD SLOAD SWAP2 SWAP3 SWAP1 SWAP2 PUSH1 0xFF DUP1 DUP3 AND SWAP2 PUSH2 0x100 SWAP1 DIV AND DUP6 JUMP JUMPDEST PUSH1 0x60 PUSH2 0x1DEF PUSH2 0x22E5 JUMP JUMPDEST SWAP1 POP PUSH1 0x0 JUMPDEST DUP2 MLOAD DUP2 LT ISZERO PUSH2 0x1FA9 JUMPI PUSH1 0x0 DUP3 DUP3 DUP2 MLOAD DUP2 LT PUSH2 0x1E0B JUMPI INVALID JUMPDEST PUSH1 0x20 SWAP1 DUP2 MUL SWAP2 SWAP1 SWAP2 ADD DUP2 ADD MLOAD PUSH1 0x2 SLOAD PUSH1 0x40 DUP1 MLOAD PUSH32 0x5265736F6C766572206D697373696E67207461726765743A2000000000000000 DUP2 DUP7 ADD MSTORE PUSH1 0x39 DUP1 DUP3 ADD DUP6 SWAP1 MSTORE DUP3 MLOAD DUP1 DUP4 SUB SWAP1 SWAP2 ADD DUP2 MSTORE PUSH1 0x59 DUP3 ADD DUP1 DUP5 MSTORE PUSH4 0xDACB2D01 PUSH1 0xE0 SHL SWAP1 MSTORE PUSH1 0x5D DUP3 ADD DUP6 DUP2 MSTORE PUSH1 0x7D DUP4 ADD SWAP4 DUP5 MSTORE DUP2 MLOAD PUSH1 0x9D DUP5 ADD MSTORE DUP2 MLOAD SWAP6 SWAP8 POP PUSH1 0x0 SWAP7 PUSH1 0x1 PUSH1 0x1 PUSH1 0xA0 SHL SUB SWAP1 SWAP6 AND SWAP6 PUSH4 0xDACB2D01 SWAP6 DUP10 SWAP6 SWAP4 SWAP5 SWAP3 SWAP4 SWAP3 PUSH1 0xBD ADD SWAP2 SWAP1 DUP6 ADD SWAP1 DUP1 DUP4 DUP4 DUP13 JUMPDEST DUP4 DUP2 LT ISZERO PUSH2 0x1EC1 JUMPI DUP2 DUP2 ADD MLOAD DUP4 DUP3 ADD MSTORE PUSH1 0x20 ADD PUSH2 0x1EA9 JUMP JUMPDEST POP POP POP POP SWAP1 POP SWAP1 DUP2 ADD SWAP1 PUSH1 0x1F AND DUP1 ISZERO PUSH2 0x1EEE JUMPI DUP1 DUP3 SUB DUP1 MLOAD PUSH1 0x1 DUP4 PUSH1 0x20 SUB PUSH2 0x100 EXP SUB NOT AND DUP2 MSTORE PUSH1 0x20 ADD SWAP2 POP JUMPDEST POP SWAP4 POP POP POP POP PUSH1 0x20 PUSH1 0x40 MLOAD DUP1 DUP4 SUB DUP2 DUP7 DUP1 EXTCODESIZE ISZERO DUP1 ISZERO PUSH2 0x1F0C JUMPI PUSH1 0x0 DUP1 REVERT JUMPDEST POP GAS STATICCALL ISZERO DUP1 ISZERO PUSH2 0x1F20 JUMPI RETURNDATASIZE PUSH1 0x0 DUP1 RETURNDATACOPY RETURNDATASIZE PUSH1 0x0 REVERT JUMPDEST POP POP POP POP PUSH1 0x40 MLOAD RETURNDATASIZE PUSH1 0x20 DUP2 LT ISZERO PUSH2 0x1F36 JUMPI PUSH1 0x0 DUP1 REVERT JUMPDEST POP MLOAD PUSH1 0x0 DUP4 DUP2 MSTORE PUSH1 0x3 PUSH1 0x20 SWAP1 DUP2 MSTORE PUSH1 0x40 SWAP2 DUP3 SWAP1 KECCAK256 DUP1 SLOAD PUSH1 0x1 PUSH1 0x1 PUSH1 0xA0 SHL SUB NOT AND PUSH1 0x1 PUSH1 0x1 PUSH1 0xA0 SHL SUB DUP6 AND SWAP1 DUP2 OR SWAP1 SWAP2 SSTORE DUP3 MLOAD DUP7 DUP2 MSTORE SWAP2 DUP3 ADD MSTORE DUP2 MLOAD SWAP3 SWAP4 POP PUSH32 0x88A93678A3692F6789D9546FC621BF7234B101DDB7D4FE479455112831B8AA68 SWAP3 SWAP1 DUP2 SWAP1 SUB SWAP1 SWAP2 ADD SWAP1 LOG1 POP POP PUSH1 0x1 ADD PUSH2 0x1DF4 JUMP JUMPDEST POP POP JUMP JUMPDEST PUSH2 0x1FB5 PUSH2 0x38AC JUMP JUMPDEST PUSH2 0x1FBD PUSH2 0x3AB0 JUMP JUMPDEST PUSH1 0x40 DUP1 MLOAD PUSH4 0x9B9412F PUSH1 0xE3 SHL DUP2 MSTORE PUSH13 0x45786368616E67655261746573 PUSH1 0x98 SHL PUSH1 0x4 DUP3 ADD MSTORE PUSH18 0x3232BC283934B1B2A0B3B3B932B3B0BA37B9 PUSH1 0x71 SHL PUSH1 0x24 DUP3 ADD MSTORE PUSH1 0x1 PUSH1 0x1 PUSH1 0xA0 SHL SUB DUP5 DUP2 AND PUSH1 0x44 DUP4 ADD MSTORE SWAP2 MLOAD SWAP3 SWAP1 SWAP2 AND SWAP2 PUSH4 0x4DCA0978 SWAP2 PUSH1 0x64 DUP1 DUP3 ADD SWAP3 PUSH1 0x0 SWAP3 SWAP1 SWAP2 SWAP1 DUP3 SWAP1 SUB ADD DUP2 DUP4 DUP8 DUP1 EXTCODESIZE ISZERO DUP1 ISZERO PUSH2 0x203A JUMPI PUSH1 0x0 DUP1 REVERT JUMPDEST POP GAS CALL ISZERO DUP1 ISZERO PUSH2 0x204E JUMPI RETURNDATASIZE PUSH1 0x0 DUP1 RETURNDATACOPY RETURNDATASIZE PUSH1 0x0 REVERT JUMPDEST POP POP PUSH1 0x40 DUP1 MLOAD PUSH1 0x1 PUSH1 0x1 PUSH1 0xA0 SHL SUB DUP6 AND DUP2 MSTORE SWAP1 MLOAD PUSH32 0x8A51D16F378C74938A4B9290AFE425BBFBA62F05AA9D27BFF5E892F62696F760 SWAP4 POP SWAP1 DUP2 SWAP1 SUB PUSH1 0x20 ADD SWAP2 POP LOG1 POP JUMP JUMPDEST PUSH1 0x1 SLOAD PUSH1 0x1 PUSH1 0x1 PUSH1 0xA0 SHL SUB AND CALLER EQ PUSH2 0x20DB JUMPI PUSH1 0x40 MLOAD PUSH3 0x461BCD PUSH1 0xE5 SHL DUP2 MSTORE PUSH1 0x4 ADD DUP1 DUP1 PUSH1 0x20 ADD DUP3 DUP2 SUB DUP3 MSTORE PUSH1 0x35 DUP2 MSTORE PUSH1 0x20 ADD DUP1 PUSH2 0x4578 PUSH1 0x35 SWAP2 CODECOPY PUSH1 0x40 ADD SWAP2 POP POP PUSH1 0x40 MLOAD DUP1 SWAP2 SUB SWAP1 REVERT JUMPDEST PUSH1 0x0 SLOAD PUSH1 0x1 SLOAD PUSH1 0x40 DUP1 MLOAD PUSH1 0x1 PUSH1 0x1 PUSH1 0xA0 SHL SUB SWAP4 DUP5 AND DUP2 MSTORE SWAP3 SWAP1 SWAP2 AND PUSH1 0x20 DUP4 ADD MSTORE DUP1 MLOAD PUSH32 0xB532073B38C83145E3E5135377A08BF9AAB55BC0FD7C1179CD4FB995D2A5159C SWAP3 DUP2 SWAP1 SUB SWAP1 SWAP2 ADD SWAP1 LOG1 PUSH1 0x1 DUP1 SLOAD PUSH1 0x0 DUP1 SLOAD PUSH1 0x1 PUSH1 0x1 PUSH1 0xA0 SHL SUB NOT SWAP1 DUP2 AND PUSH1 0x1 PUSH1 0x1 PUSH1 0xA0 SHL SUB DUP5 AND OR SWAP1 SWAP2 SSTORE AND SWAP1 SSTORE JUMP JUMPDEST PUSH1 0x0 PUSH2 0xDD9 DUP3 PUSH2 0x39C5 JUMP JUMPDEST PUSH2 0x2161 PUSH2 0x38AC JUMP JUMPDEST PUSH1 0x5 DUP1 SLOAD PUSH1 0x1 PUSH1 0x1 PUSH1 0xA0 SHL SUB NOT AND PUSH1 0x1 PUSH1 0x1 PUSH1 0xA0 SHL SUB DUP4 DUP2 AND SWAP2 SWAP1 SWAP2 OR SWAP2 DUP3 SWAP1 SSTORE PUSH1 0x40 DUP1 MLOAD SWAP3 SWAP1 SWAP2 AND DUP3 MSTORE MLOAD PUSH32 0x3DF77BEB5DB05FCDD70A30FC8ADF3F83F9501B68579455ADBD100B8180940394 SWAP2 PUSH1 0x20 SWAP1 DUP3 SWAP1 SUB ADD SWAP1 LOG1 POP JUMP JUMPDEST PUSH1 0x5 SLOAD PUSH1 0x1 PUSH1 0x1 PUSH1 0xA0 SHL SUB AND DUP2 JUMP JUMPDEST PUSH1 0xC PUSH1 0x20 MSTORE PUSH1 0x0 SWAP1 DUP2 MSTORE PUSH1 0x40 SWAP1 KECCAK256 SLOAD DUP2 JUMP JUMPDEST PUSH1 0x0 DUP1 PUSH1 0x0 PUSH2 0x21EC DUP7 DUP7 DUP7 PUSH2 0x2EB8 JUMP JUMPDEST SWAP3 POP SWAP3 POP SWAP3 POP JUMPDEST SWAP4 POP SWAP4 POP SWAP4 SWAP1 POP JUMP JUMPDEST PUSH1 0x0 DUP2 PUSH4 0x1CD554D1 PUSH1 0xE2 SHL EQ ISZERO PUSH2 0x2215 JUMPI POP PUSH1 0x0 PUSH2 0xDDC JUMP JUMPDEST PUSH1 0x0 PUSH2 0x2220 DUP4 PUSH2 0x3ACD JUMP JUMPDEST SWAP1 POP PUSH1 0x0 PUSH2 0x222D DUP5 PUSH2 0x3B81 JUMP JUMPDEST SWAP1 POP DUP2 ISZERO DUP1 PUSH2 0x223A JUMPI POP DUP1 ISZERO JUMPDEST ISZERO PUSH2 0x224A JUMPI PUSH1 0x0 SWAP3 POP POP POP PUSH2 0xDDC JUMP JUMPDEST PUSH1 0x0 PUSH2 0x225C TIMESTAMP DUP5 PUSH4 0xFFFFFFFF PUSH2 0x2FC9 AND JUMP JUMPDEST SWAP1 POP PUSH1 0x0 PUSH2 0x2269 DUP7 PUSH2 0x39C5 JUMP JUMPDEST SWAP1 POP JUMPDEST DUP3 ISZERO PUSH2 0x22D9 JUMPI PUSH1 0x0 DUP1 PUSH2 0x227F DUP9 DUP5 PUSH2 0x36D6 JUMP JUMPDEST SWAP2 POP SWAP2 POP DUP1 PUSH1 0x0 EQ ISZERO DUP1 ISZERO PUSH2 0x2293 JUMPI POP DUP4 DUP2 LT JUMPDEST ISZERO PUSH2 0x22A7 JUMPI PUSH1 0x0 SWAP7 POP POP POP POP POP POP POP PUSH2 0xDDC JUMP JUMPDEST DUP2 ISZERO DUP1 PUSH2 0x22B2 JUMPI POP DUP1 ISZERO JUMPDEST ISZERO PUSH2 0x22BE JUMPI POP POP PUSH2 0x22D9 JUMP JUMPDEST DUP3 PUSH2 0x22CA JUMPI POP POP PUSH2 0x22D9 JUMP JUMPDEST POP POP PUSH1 0x0 NOT SWAP3 DUP4 ADD SWAP3 ADD PUSH2 0x226C JUMP JUMPDEST POP PUSH1 0x1 SWAP6 SWAP5 POP POP POP POP POP JUMP JUMPDEST PUSH1 0x60 DUP1 PUSH2 0x22F0 PUSH2 0x3C35 JUMP JUMPDEST PUSH1 0x40 DUP1 MLOAD PUSH1 0x1 DUP1 DUP3 MSTORE DUP2 DUP4 ADD SWAP1 SWAP3 MSTORE SWAP2 SWAP3 POP PUSH1 0x60 SWAP2 SWAP1 PUSH1 0x20 DUP1 DUP4 ADD SWAP1 DUP1 CODESIZE DUP4 CODECOPY ADD SWAP1 POP POP SWAP1 POP PUSH9 0x22BC31B430B733B2B9 PUSH1 0xB9 SHL DUP2 PUSH1 0x0 DUP2 MLOAD DUP2 LT PUSH2 0x2330 JUMPI INVALID JUMPDEST PUSH1 0x20 MUL PUSH1 0x20 ADD ADD DUP2 DUP2 MSTORE POP POP PUSH2 0x2346 DUP3 DUP3 PUSH2 0x3C86 JUMP JUMPDEST SWAP3 POP POP POP SWAP1 JUMP JUMPDEST PUSH1 0x0 SLOAD PUSH1 0x1 PUSH1 0x1 PUSH1 0xA0 SHL SUB AND DUP2 JUMP JUMPDEST PUSH1 0xB PUSH1 0x20 MSTORE PUSH1 0x0 SWAP1 DUP2 MSTORE PUSH1 0x40 SWAP1 KECCAK256 SLOAD DUP2 JUMP JUMPDEST PUSH1 0x0 PUSH2 0xDD9 DUP3 PUSH2 0x3B81 JUMP JUMPDEST PUSH1 0x0 PUSH2 0x2383 PUSH2 0x3AB0 JUMP JUMPDEST PUSH1 0x1 PUSH1 0x1 PUSH1 0xA0 SHL SUB AND PUSH4 0x9EE5955A PUSH13 0x45786368616E67655261746573 PUSH1 0x98 SHL PUSH18 0x3232BC283934B1B2A0B3B3B932B3B0BA37B9 PUSH1 0x71 SHL PUSH1 0x40 MLOAD DUP4 PUSH4 0xFFFFFFFF AND PUSH1 0xE0 SHL DUP2 MSTORE PUSH1 0x4 ADD DUP1 DUP4 DUP2 MSTORE PUSH1 0x20 ADD DUP3 DUP2 MSTORE PUSH1 0x20 ADD SWAP3 POP POP POP PUSH1 0x20 PUSH1 0x40 MLOAD DUP1 DUP4 SUB DUP2 DUP7 DUP1 EXTCODESIZE ISZERO DUP1 ISZERO PUSH2 0x23F3 JUMPI PUSH1 0x0 DUP1 REVERT JUMPDEST POP GAS STATICCALL ISZERO DUP1 ISZERO PUSH2 0x2407 JUMPI RETURNDATASIZE PUSH1 0x0 DUP1 RETURNDATACOPY RETURNDATASIZE PUSH1 0x0 REVERT JUMPDEST POP POP POP POP PUSH1 0x40 MLOAD RETURNDATASIZE PUSH1 0x20 DUP2 LT ISZERO PUSH2 0x241D JUMPI PUSH1 0x0 DUP1 REVERT JUMPDEST POP MLOAD SWAP1 POP SWAP1 JUMP JUMPDEST PUSH1 0x0 PUSH2 0xDD9 DUP3 PUSH2 0x3ACD JUMP JUMPDEST PUSH1 0x0 PUSH2 0x243A DUP3 PUSH2 0x3335 JUMP JUMPDEST MLOAD PUSH1 0x1 PUSH1 0x1 PUSH1 0xD8 SHL SUB AND SWAP3 SWAP2 POP POP JUMP JUMPDEST PUSH1 0x0 PUSH2 0xDD9 DUP3 PUSH2 0x3D42 JUMP JUMPDEST PUSH2 0x245D PUSH2 0x38AC JUMP JUMPDEST PUSH1 0x0 DUP4 GT PUSH2 0x24B2 JUMPI PUSH1 0x40 DUP1 MLOAD PUSH3 0x461BCD PUSH1 0xE5 SHL DUP2 MSTORE PUSH1 0x20 PUSH1 0x4 DUP3 ADD MSTORE PUSH1 0x1A PUSH1 0x24 DUP3 ADD MSTORE PUSH32 0x6C6F7765724C696D6974206D7573742062652061626F76652030000000000000 PUSH1 0x44 DUP3 ADD MSTORE SWAP1 MLOAD SWAP1 DUP2 SWAP1 SUB PUSH1 0x64 ADD SWAP1 REVERT JUMPDEST DUP5 DUP5 GT PUSH2 0x24F0 JUMPI PUSH1 0x40 MLOAD PUSH3 0x461BCD PUSH1 0xE5 SHL DUP2 MSTORE PUSH1 0x4 ADD DUP1 DUP1 PUSH1 0x20 ADD DUP3 DUP2 SUB DUP3 MSTORE PUSH1 0x27 DUP2 MSTORE PUSH1 0x20 ADD DUP1 PUSH2 0x474D PUSH1 0x27 SWAP2 CODECOPY PUSH1 0x40 ADD SWAP2 POP POP PUSH1 0x40 MLOAD DUP1 SWAP2 SUB SWAP1 REVERT JUMPDEST PUSH2 0x2501 DUP6 PUSH1 0x2 PUSH4 0xFFFFFFFF PUSH2 0x3DB5 AND JUMP JUMPDEST DUP5 LT PUSH2 0x253E JUMPI PUSH1 0x40 MLOAD PUSH3 0x461BCD PUSH1 0xE5 SHL DUP2 MSTORE PUSH1 0x4 ADD DUP1 DUP1 PUSH1 0x20 ADD DUP3 DUP2 SUB DUP3 MSTORE PUSH1 0x2E DUP2 MSTORE PUSH1 0x20 ADD DUP1 PUSH2 0x46B4 PUSH1 0x2E SWAP2 CODECOPY PUSH1 0x40 ADD SWAP2 POP POP PUSH1 0x40 MLOAD DUP1 SWAP2 SUB SWAP1 REVERT JUMPDEST DUP5 DUP4 LT PUSH2 0x257C JUMPI PUSH1 0x40 MLOAD PUSH3 0x461BCD PUSH1 0xE5 SHL DUP2 MSTORE PUSH1 0x4 ADD DUP1 DUP1 PUSH1 0x20 ADD DUP3 DUP2 SUB DUP3 MSTORE PUSH1 0x27 DUP2 MSTORE PUSH1 0x20 ADD DUP1 PUSH2 0x468D PUSH1 0x27 SWAP2 CODECOPY PUSH1 0x40 ADD SWAP2 POP POP PUSH1 0x40 MLOAD DUP1 SWAP2 SUB SWAP1 REVERT JUMPDEST DUP2 DUP1 ISZERO PUSH2 0x2586 JUMPI POP DUP1 JUMPDEST ISZERO PUSH2 0x25D8 JUMPI PUSH1 0x40 DUP1 MLOAD PUSH3 0x461BCD PUSH1 0xE5 SHL DUP2 MSTORE PUSH1 0x20 PUSH1 0x4 DUP3 ADD MSTORE PUSH1 0x1C PUSH1 0x24 DUP3 ADD MSTORE PUSH32 0x43616E6E6F7420667265657A6520617420626F7468206C696D69747300000000 PUSH1 0x44 DUP3 ADD MSTORE SWAP1 MLOAD SWAP1 DUP2 SWAP1 SUB PUSH1 0x64 ADD SWAP1 REVERT JUMPDEST PUSH1 0x0 DUP7 DUP2 MSTORE PUSH1 0x9 PUSH1 0x20 MSTORE PUSH1 0x40 SWAP1 KECCAK256 DUP1 SLOAD PUSH2 0x2622 JUMPI PUSH1 0xA DUP1 SLOAD PUSH1 0x1 DUP2 ADD DUP3 SSTORE PUSH1 0x0 SWAP2 SWAP1 SWAP2 MSTORE PUSH32 0xC65A7BB8D6351C1CF70C95A316CC6A92839C986682D98BC35F958F4883F9D2A8 ADD DUP8 SWAP1 SSTORE JUMPDEST DUP6 DUP2 SSTORE PUSH1 0x1 DUP2 ADD DUP6 SWAP1 SSTORE PUSH1 0x2 DUP2 ADD DUP5 SWAP1 SSTORE DUP3 DUP1 PUSH2 0x263C JUMPI POP DUP2 JUMPDEST ISZERO PUSH2 0x26D6 JUMPI PUSH1 0x3 DUP2 ADD DUP1 SLOAD PUSH1 0xFF NOT AND DUP5 ISZERO ISZERO OR PUSH2 0xFF00 NOT AND PUSH2 0x100 DUP5 ISZERO ISZERO MUL OR SWAP1 SSTORE PUSH1 0x0 PUSH2 0x2669 DUP9 PUSH2 0x39C5 JUMP JUMPDEST PUSH1 0x0 DUP10 DUP2 MSTORE PUSH1 0xC PUSH1 0x20 MSTORE PUSH1 0x40 SWAP1 KECCAK256 DUP2 SWAP1 SSTORE SWAP1 POP PUSH32 0xF72828471E37526C68FD812A1FA6EEFF993C3F81BD96C0242DC5B3E144145DF0 DUP9 DUP6 PUSH2 0x26A9 JUMPI DUP7 PUSH2 0x26AB JUMP JUMPDEST DUP8 JUMPDEST PUSH1 0x40 DUP1 MLOAD SWAP3 DUP4 MSTORE PUSH1 0x20 DUP4 ADD SWAP2 SWAP1 SWAP2 MSTORE DUP2 DUP2 ADD DUP5 SWAP1 MSTORE CALLER PUSH1 0x60 DUP4 ADD MSTORE MLOAD SWAP1 DUP2 SWAP1 SUB PUSH1 0x80 ADD SWAP1 LOG1 POP PUSH2 0x26F3 JUMP JUMPDEST PUSH1 0x3 DUP2 ADD DUP1 SLOAD PUSH2 0xFFFF NOT AND SWAP1 SSTORE PUSH1 0x0 DUP8 DUP2 MSTORE PUSH1 0xC PUSH1 0x20 MSTORE PUSH1 0x40 DUP2 KECCAK256 SSTORE JUMPDEST PUSH1 0x0 PUSH2 0x26FE DUP9 PUSH2 0x242F JUMP JUMPDEST SWAP1 POP DUP1 ISZERO PUSH2 0x2774 JUMPI PUSH2 0x270E PUSH2 0x3E0E JUMP JUMPDEST PUSH1 0x1 PUSH1 0x1 PUSH1 0xA0 SHL SUB AND PUSH4 0xCE096940 DUP10 DUP4 PUSH1 0x40 MLOAD DUP4 PUSH4 0xFFFFFFFF AND PUSH1 0xE0 SHL DUP2 MSTORE PUSH1 0x4 ADD DUP1 DUP4 DUP2 MSTORE PUSH1 0x20 ADD DUP3 DUP2 MSTORE PUSH1 0x20 ADD SWAP3 POP POP POP PUSH1 0x0 PUSH1 0x40 MLOAD DUP1 DUP4 SUB DUP2 PUSH1 0x0 DUP8 DUP1 EXTCODESIZE ISZERO DUP1 ISZERO PUSH2 0x275B JUMPI PUSH1 0x0 DUP1 REVERT JUMPDEST POP GAS CALL ISZERO DUP1 ISZERO PUSH2 0x276F JUMPI RETURNDATASIZE PUSH1 0x0 DUP1 RETURNDATACOPY RETURNDATASIZE PUSH1 0x0 REVERT JUMPDEST POP POP POP POP JUMPDEST PUSH1 0x40 DUP1 MLOAD DUP10 DUP2 MSTORE PUSH1 0x20 DUP2 ADD DUP10 SWAP1 MSTORE DUP1 DUP3 ADD DUP9 SWAP1 MSTORE PUSH1 0x60 DUP2 ADD DUP8 SWAP1 MSTORE SWAP1 MLOAD PUSH32 0x37EFB38E92B0F94698F6DF0C9070E2F00946862A042AC09E34AE8C547684240A SWAP2 DUP2 SWAP1 SUB PUSH1 0x80 ADD SWAP1 LOG1 POP POP POP POP POP POP POP POP JUMP JUMPDEST PUSH1 0x7 PUSH1 0x20 MSTORE PUSH1 0x0 SWAP1 DUP2 MSTORE PUSH1 0x40 SWAP1 KECCAK256 SLOAD PUSH1 0xFF AND DUP2 JUMP JUMPDEST PUSH1 0x0 PUSH2 0xDD9 DUP3 PUSH2 0x2F0A JUMP JUMPDEST PUSH1 0x0 PUSH2 0x27EF PUSH2 0x3A67 JUMP JUMPDEST PUSH2 0x285E DUP7 DUP7 DUP1 DUP1 PUSH1 0x20 MUL PUSH1 0x20 ADD PUSH1 0x40 MLOAD SWAP1 DUP2 ADD PUSH1 0x40 MSTORE DUP1 SWAP4 SWAP3 SWAP2 SWAP1 DUP2 DUP2 MSTORE PUSH1 0x20 ADD DUP4 DUP4 PUSH1 0x20 MUL DUP1 DUP3 DUP5 CALLDATACOPY PUSH1 0x0 SWAP3 ADD SWAP2 SWAP1 SWAP2 MSTORE POP POP PUSH1 0x40 DUP1 MLOAD PUSH1 0x20 DUP1 DUP11 MUL DUP3 DUP2 ADD DUP3 ADD SWAP1 SWAP4 MSTORE DUP10 DUP3 MSTORE SWAP1 SWAP4 POP DUP10 SWAP3 POP DUP9 SWAP2 DUP3 SWAP2 DUP6 ADD SWAP1 DUP5 SWAP1 DUP1 DUP3 DUP5 CALLDATACOPY PUSH1 0x0 SWAP3 ADD SWAP2 SWAP1 SWAP2 MSTORE POP DUP8 SWAP3 POP PUSH2 0x3E25 SWAP2 POP POP JUMP JUMPDEST SWAP7 SWAP6 POP POP POP POP POP POP JUMP JUMPDEST PUSH1 0x60 DUP1 DUP4 DUP4 SWAP1 POP PUSH1 0x40 MLOAD SWAP1 DUP1 DUP3 MSTORE DUP1 PUSH1 0x20 MUL PUSH1 0x20 ADD DUP3 ADD PUSH1 0x40 MSTORE DUP1 ISZERO PUSH2 0x2898 JUMPI DUP2 PUSH1 0x20 ADD PUSH1 0x20 DUP3 MUL DUP1 CODESIZE DUP4 CODECOPY ADD SWAP1 POP JUMPDEST POP SWAP1 POP PUSH1 0x0 JUMPDEST DUP4 DUP2 LT ISZERO PUSH2 0x1302 JUMPI PUSH2 0x28C1 DUP6 DUP6 DUP4 DUP2 DUP2 LT PUSH2 0x28B5 JUMPI INVALID JUMPDEST SWAP1 POP PUSH1 0x20 MUL ADD CALLDATALOAD PUSH2 0x242F JUMP JUMPDEST DUP3 DUP3 DUP2 MLOAD DUP2 LT PUSH2 0x28CD JUMPI INVALID JUMPDEST PUSH1 0x20 SWAP1 DUP2 MUL SWAP2 SWAP1 SWAP2 ADD ADD MSTORE PUSH1 0x1 ADD PUSH2 0x289E JUMP JUMPDEST PUSH1 0x60 PUSH1 0x0 DUP4 DUP4 SWAP1 POP PUSH1 0x40 MLOAD SWAP1 DUP1 DUP3 MSTORE DUP1 PUSH1 0x20 MUL PUSH1 0x20 ADD DUP3 ADD PUSH1 0x40 MSTORE DUP1 ISZERO PUSH2 0x2911 JUMPI DUP2 PUSH1 0x20 ADD PUSH1 0x20 DUP3 MUL DUP1 CODESIZE DUP4 CODECOPY ADD SWAP1 POP JUMPDEST POP SWAP2 POP PUSH1 0x0 PUSH2 0x291E PUSH2 0x2D28 JUMP JUMPDEST SWAP1 POP PUSH1 0x60 PUSH2 0x295E DUP7 DUP7 DUP1 DUP1 PUSH1 0x20 MUL PUSH1 0x20 ADD PUSH1 0x40 MLOAD SWAP1 DUP2 ADD PUSH1 0x40 MSTORE DUP1 SWAP4 SWAP3 SWAP2 SWAP1 DUP2 DUP2 MSTORE PUSH1 0x20 ADD DUP4 DUP4 PUSH1 0x20 MUL DUP1 DUP3 DUP5 CALLDATACOPY PUSH1 0x0 SWAP3 ADD SWAP2 SWAP1 SWAP2 MSTORE POP PUSH2 0x30F4 SWAP3 POP POP POP JUMP JUMPDEST SWAP1 POP PUSH1 0x0 JUMPDEST DUP6 DUP2 LT ISZERO PUSH2 0x2A1D JUMPI PUSH2 0x2973 PUSH2 0x44F0 JUMP JUMPDEST PUSH2 0x298E DUP9 DUP9 DUP5 DUP2 DUP2 LT PUSH2 0x2982 JUMPI INVALID JUMPDEST SWAP1 POP PUSH1 0x20 MUL ADD CALLDATALOAD PUSH2 0x3335 JUMP JUMPDEST SWAP1 POP DUP1 PUSH1 0x0 ADD MLOAD PUSH1 0x1 PUSH1 0x1 PUSH1 0xD8 SHL SUB AND DUP7 DUP4 DUP2 MLOAD DUP2 LT PUSH2 0x29AA JUMPI INVALID JUMPDEST PUSH1 0x20 MUL PUSH1 0x20 ADD ADD DUP2 DUP2 MSTORE POP POP DUP5 ISZERO DUP1 ISZERO PUSH2 0x29DD JUMPI POP DUP8 DUP8 DUP4 DUP2 DUP2 LT PUSH2 0x29CB JUMPI INVALID JUMPDEST SWAP1 POP PUSH1 0x20 MUL ADD CALLDATALOAD PUSH4 0x1CD554D1 PUSH1 0xE2 SHL EQ ISZERO JUMPDEST ISZERO PUSH2 0x2A14 JUMPI DUP3 DUP3 DUP2 MLOAD DUP2 LT PUSH2 0x29EE JUMPI INVALID JUMPDEST PUSH1 0x20 MUL PUSH1 0x20 ADD ADD MLOAD DUP1 PUSH2 0x2A11 JUMPI POP PUSH2 0x2A11 DUP5 DUP3 PUSH1 0x20 ADD MLOAD PUSH5 0xFFFFFFFFFF AND PUSH2 0x355E JUMP JUMPDEST SWAP5 POP JUMPDEST POP PUSH1 0x1 ADD PUSH2 0x2963 JUMP JUMPDEST POP POP POP SWAP3 POP SWAP3 SWAP1 POP JUMP JUMPDEST PUSH2 0x2A2F PUSH2 0x38AC JUMP JUMPDEST PUSH1 0x0 DUP2 DUP2 MSTORE PUSH1 0x9 PUSH1 0x20 MSTORE PUSH1 0x40 SWAP1 KECCAK256 SLOAD PUSH2 0x2A8F JUMPI PUSH1 0x40 DUP1 MLOAD PUSH3 0x461BCD PUSH1 0xE5 SHL DUP2 MSTORE PUSH1 0x20 PUSH1 0x4 DUP3 ADD MSTORE PUSH1 0x18 PUSH1 0x24 DUP3 ADD MSTORE PUSH32 0x4E6F20696E766572746564207072696365206578697374730000000000000000 PUSH1 0x44 DUP3 ADD MSTORE SWAP1 MLOAD SWAP1 DUP2 SWAP1 SUB PUSH1 0x64 ADD SWAP1 REVERT JUMPDEST PUSH1 0x0 DUP2 DUP2 MSTORE PUSH1 0x9 PUSH1 0x20 MSTORE PUSH1 0x40 DUP2 KECCAK256 DUP2 DUP2 SSTORE PUSH1 0x1 DUP2 ADD DUP3 SWAP1 SSTORE PUSH1 0x2 DUP2 ADD DUP3 SWAP1 SSTORE PUSH1 0x3 ADD DUP1 SLOAD PUSH2 0xFFFF NOT AND SWAP1 SSTORE PUSH2 0x2AC5 DUP3 PUSH1 0xA PUSH2 0x3921 JUMP JUMPDEST SWAP1 POP DUP1 ISZERO PUSH2 0x1FA9 JUMPI PUSH1 0x40 DUP1 MLOAD DUP4 DUP2 MSTORE PUSH1 0x0 PUSH1 0x20 DUP3 ADD DUP2 SWAP1 MSTORE DUP2 DUP4 ADD DUP2 SWAP1 MSTORE PUSH1 0x60 DUP3 ADD MSTORE SWAP1 MLOAD PUSH32 0x37EFB38E92B0F94698F6DF0C9070E2F00946862A042AC09E34AE8C547684240A SWAP2 DUP2 SWAP1 SUB PUSH1 0x80 ADD SWAP1 LOG1 POP POP JUMP JUMPDEST PUSH1 0x0 PUSH2 0xDD9 DUP3 PUSH2 0x30D8 JUMP JUMPDEST PUSH1 0x0 DUP2 DUP2 MSTORE PUSH1 0x9 PUSH1 0x20 MSTORE PUSH1 0x40 SWAP1 KECCAK256 DUP1 SLOAD PUSH2 0x2B84 JUMPI PUSH1 0x40 DUP1 MLOAD PUSH3 0x461BCD PUSH1 0xE5 SHL DUP2 MSTORE PUSH1 0x20 PUSH1 0x4 DUP3 ADD MSTORE PUSH1 0x1E PUSH1 0x24 DUP3 ADD MSTORE PUSH32 0x43616E6E6F7420667265657A65206E6F6E2D696E766572736520726174650000 PUSH1 0x44 DUP3 ADD MSTORE SWAP1 MLOAD SWAP1 DUP2 SWAP1 SUB PUSH1 0x64 ADD SWAP1 REVERT JUMPDEST PUSH1 0x3 DUP2 ADD SLOAD PUSH1 0xFF AND ISZERO DUP1 ISZERO PUSH2 0x2BA3 JUMPI POP PUSH1 0x3 DUP2 ADD SLOAD PUSH2 0x100 SWAP1 DIV PUSH1 0xFF AND ISZERO JUMPDEST PUSH2 0x2BF4 JUMPI PUSH1 0x40 DUP1 MLOAD PUSH3 0x461BCD PUSH1 0xE5 SHL DUP2 MSTORE PUSH1 0x20 PUSH1 0x4 DUP3 ADD MSTORE PUSH1 0x1A PUSH1 0x24 DUP3 ADD MSTORE PUSH32 0x546865207261746520697320616C72656164792066726F7A656E000000000000 PUSH1 0x44 DUP3 ADD MSTORE SWAP1 MLOAD SWAP1 DUP2 SWAP1 SUB PUSH1 0x64 ADD SWAP1 REVERT JUMPDEST PUSH1 0x0 PUSH2 0x2BFF DUP4 PUSH2 0x242F JUMP JUMPDEST SWAP1 POP PUSH1 0x0 DUP2 GT DUP1 ISZERO PUSH2 0x2C23 JUMPI POP DUP2 PUSH1 0x1 ADD SLOAD DUP2 LT ISZERO DUP1 PUSH2 0x2C23 JUMPI POP DUP2 PUSH1 0x2 ADD SLOAD DUP2 GT ISZERO JUMPDEST ISZERO PUSH2 0x2CC3 JUMPI PUSH1 0x1 DUP3 ADD SLOAD PUSH1 0x3 DUP4 ADD DUP1 SLOAD PUSH1 0x2 DUP6 ADD SLOAD DUP5 EQ PUSH2 0x100 MUL PUSH2 0xFF00 NOT PUSH1 0xFF NOT SWAP1 SWAP3 AND SWAP4 DUP6 EQ SWAP4 SWAP1 SWAP4 OR AND SWAP2 SWAP1 SWAP2 OR SWAP1 SSTORE PUSH1 0x0 PUSH2 0x2C61 DUP5 PUSH2 0x39C5 JUMP JUMPDEST PUSH1 0x0 DUP6 DUP2 MSTORE PUSH1 0xC PUSH1 0x20 SWAP1 DUP2 MSTORE PUSH1 0x40 SWAP2 DUP3 SWAP1 KECCAK256 DUP4 SWAP1 SSTORE DUP2 MLOAD DUP8 DUP2 MSTORE SWAP1 DUP2 ADD DUP6 SWAP1 MSTORE DUP1 DUP3 ADD DUP4 SWAP1 MSTORE CALLER PUSH1 0x60 DUP3 ADD MSTORE SWAP1 MLOAD SWAP2 SWAP3 POP PUSH32 0xF72828471E37526C68FD812A1FA6EEFF993C3F81BD96C0242DC5B3E144145DF0 SWAP2 SWAP1 DUP2 SWAP1 SUB PUSH1 0x80 ADD SWAP1 LOG1 POP PUSH2 0x1835 JUMP JUMPDEST PUSH1 0x40 DUP1 MLOAD PUSH3 0x461BCD PUSH1 0xE5 SHL DUP2 MSTORE PUSH1 0x20 PUSH1 0x4 DUP3 ADD MSTORE PUSH1 0x12 PUSH1 0x24 DUP3 ADD MSTORE PUSH18 0x526174652077697468696E20626F756E6473 PUSH1 0x70 SHL PUSH1 0x44 DUP3 ADD MSTORE SWAP1 MLOAD SWAP1 DUP2 SWAP1 SUB PUSH1 0x64 ADD SWAP1 REVERT JUMPDEST PUSH1 0x0 PUSH2 0xDD9 DUP3 PUSH2 0x2DD2 JUMP JUMPDEST PUSH1 0x0 DUP1 PUSH2 0x2D1D DUP5 DUP5 PUSH2 0x36D6 JUMP JUMPDEST SWAP2 POP SWAP2 POP SWAP3 POP SWAP3 SWAP1 POP JUMP JUMPDEST PUSH1 0x0 PUSH2 0x2D32 PUSH2 0x3AB0 JUMP JUMPDEST PUSH1 0x1 PUSH1 0x1 PUSH1 0xA0 SHL SUB AND PUSH4 0x23257C2B PUSH14 0x53797374656D53657474696E6773 PUSH1 0x90 SHL PUSH15 0x1C985D1954DD185B1954195C9A5BD9 PUSH1 0x8A SHL PUSH1 0x40 MLOAD DUP4 PUSH4 0xFFFFFFFF AND PUSH1 0xE0 SHL DUP2 MSTORE PUSH1 0x4 ADD DUP1 DUP4 DUP2 MSTORE PUSH1 0x20 ADD DUP3 DUP2 MSTORE PUSH1 0x20 ADD SWAP3 POP POP POP PUSH1 0x20 PUSH1 0x40 MLOAD DUP1 DUP4 SUB DUP2 DUP7 DUP1 EXTCODESIZE ISZERO DUP1 ISZERO PUSH2 0x23F3 JUMPI PUSH1 0x0 DUP1 REVERT JUMPDEST PUSH1 0x0 DUP3 PUSH4 0x1CD554D1 PUSH1 0xE2 SHL EQ ISZERO PUSH2 0x2DB9 JUMPI POP PUSH1 0x0 PUSH2 0x1306 JUMP JUMPDEST PUSH2 0x2DCB DUP3 PUSH2 0x2DC6 DUP6 PUSH2 0x30D8 JUMP JUMPDEST PUSH2 0x355E JUMP JUMPDEST SWAP4 SWAP3 POP POP POP JUMP JUMPDEST PUSH1 0x0 PUSH2 0x2DDC PUSH2 0x3AB0 JUMP JUMPDEST PUSH1 0x1 PUSH1 0x1 PUSH1 0xA0 SHL SUB AND PUSH4 0x9EE5955A PUSH14 0x53797374656D53657474696E6773 PUSH1 0x90 SHL PUSH32 0x61746F6D69634571756976616C656E74466F7244657850726963696E67000000 DUP6 PUSH1 0x40 MLOAD PUSH1 0x20 ADD DUP1 DUP4 DUP2 MSTORE PUSH1 0x20 ADD DUP3 DUP2 MSTORE PUSH1 0x20 ADD SWAP3 POP POP POP PUSH1 0x40 MLOAD PUSH1 0x20 DUP2 DUP4 SUB SUB DUP2 MSTORE SWAP1 PUSH1 0x40 MSTORE DUP1 MLOAD SWAP1 PUSH1 0x20 ADD KECCAK256 PUSH1 0x40 MLOAD DUP4 PUSH4 0xFFFFFFFF AND PUSH1 0xE0 SHL DUP2 MSTORE PUSH1 0x4 ADD DUP1 DUP4 DUP2 MSTORE PUSH1 0x20 ADD DUP3 DUP2 MSTORE PUSH1 0x20 ADD SWAP3 POP POP POP PUSH1 0x20 PUSH1 0x40 MLOAD DUP1 DUP4 SUB DUP2 DUP7 DUP1 EXTCODESIZE ISZERO DUP1 ISZERO PUSH2 0x2E86 JUMPI PUSH1 0x0 DUP1 REVERT JUMPDEST POP GAS STATICCALL ISZERO DUP1 ISZERO PUSH2 0x2E9A JUMPI RETURNDATASIZE PUSH1 0x0 DUP1 RETURNDATACOPY RETURNDATASIZE PUSH1 0x0 REVERT JUMPDEST POP POP POP POP PUSH1 0x40 MLOAD RETURNDATASIZE PUSH1 0x20 DUP2 LT ISZERO PUSH2 0x2EB0 JUMPI PUSH1 0x0 DUP1 REVERT JUMPDEST POP MLOAD SWAP3 SWAP2 POP POP JUMP JUMPDEST PUSH1 0x0 DUP1 PUSH1 0x0 PUSH2 0x2EC6 DUP7 PUSH2 0x242F JUMP JUMPDEST SWAP2 POP DUP4 DUP7 EQ ISZERO PUSH2 0x2EDA JUMPI POP DUP4 SWAP2 POP DUP1 PUSH2 0x21F3 JUMP JUMPDEST PUSH2 0x2EE3 DUP5 PUSH2 0x242F JUMP JUMPDEST SWAP1 POP DUP1 ISZERO PUSH2 0x21F3 JUMPI PUSH2 0x2EFF DUP2 PUSH2 0x1566 DUP8 DUP6 PUSH4 0xFFFFFFFF PUSH2 0x38F7 AND JUMP JUMPDEST SWAP3 POP SWAP4 POP SWAP4 POP SWAP4 SWAP1 POP JUMP JUMPDEST PUSH1 0x0 PUSH2 0x2F14 PUSH2 0x3AB0 JUMP JUMPDEST PUSH1 0x1 PUSH1 0x1 PUSH1 0xA0 SHL SUB AND PUSH4 0x23257C2B PUSH14 0x53797374656D53657474696E6773 PUSH1 0x90 SHL PUSH17 0x30BA37B6B4B1A83934B1B2A13AB33332B9 PUSH1 0x79 SHL DUP6 PUSH1 0x40 MLOAD PUSH1 0x20 ADD DUP1 DUP4 DUP2 MSTORE PUSH1 0x20 ADD DUP3 DUP2 MSTORE PUSH1 0x20 ADD SWAP3 POP POP POP PUSH1 0x40 MLOAD PUSH1 0x20 DUP2 DUP4 SUB SUB DUP2 MSTORE SWAP1 PUSH1 0x40 MSTORE DUP1 MLOAD SWAP1 PUSH1 0x20 ADD KECCAK256 PUSH1 0x40 MLOAD DUP4 PUSH4 0xFFFFFFFF AND PUSH1 0xE0 SHL DUP2 MSTORE PUSH1 0x4 ADD DUP1 DUP4 DUP2 MSTORE PUSH1 0x20 ADD DUP3 DUP2 MSTORE PUSH1 0x20 ADD SWAP3 POP POP POP PUSH1 0x20 PUSH1 0x40 MLOAD DUP1 DUP4 SUB DUP2 DUP7 DUP1 EXTCODESIZE ISZERO DUP1 ISZERO PUSH2 0x2E86 JUMPI PUSH1 0x0 DUP1 REVERT JUMPDEST PUSH1 0x0 DUP2 DUP4 LT ISZERO PUSH2 0x2FC2 JUMPI DUP2 PUSH2 0x2DCB JUMP JUMPDEST POP SWAP1 SWAP2 SWAP1 POP JUMP JUMPDEST PUSH1 0x0 DUP3 DUP3 GT ISZERO PUSH2 0x3020 JUMPI PUSH1 0x40 DUP1 MLOAD PUSH3 0x461BCD PUSH1 0xE5 SHL DUP2 MSTORE PUSH1 0x20 PUSH1 0x4 DUP3 ADD MSTORE PUSH1 0x1E PUSH1 0x24 DUP3 ADD MSTORE PUSH32 0x536166654D6174683A207375627472616374696F6E206F766572666C6F770000 PUSH1 0x44 DUP3 ADD MSTORE SWAP1 MLOAD SWAP1 DUP2 SWAP1 SUB PUSH1 0x64 ADD SWAP1 REVERT JUMPDEST POP SWAP1 SUB SWAP1 JUMP JUMPDEST PUSH1 0x0 PUSH8 0xDE0B6B3A7640000 PUSH2 0x3041 DUP5 DUP5 PUSH4 0xFFFFFFFF PUSH2 0x3DB5 AND JUMP JUMPDEST DUP2 PUSH2 0x3048 JUMPI INVALID JUMPDEST DIV SWAP4 SWAP3 POP POP POP JUMP JUMPDEST PUSH1 0x0 PUSH2 0x305A PUSH2 0x3AB0 JUMP JUMPDEST PUSH1 0x1 PUSH1 0x1 PUSH1 0xA0 SHL SUB AND PUSH4 0x23257C2B PUSH14 0x53797374656D53657474696E6773 PUSH1 0x90 SHL PUSH16 0x61746F6D69635477617057696E646F77 PUSH1 0x80 SHL PUSH1 0x40 MLOAD DUP4 PUSH4 0xFFFFFFFF AND PUSH1 0xE0 SHL DUP2 MSTORE PUSH1 0x4 ADD DUP1 DUP4 DUP2 MSTORE PUSH1 0x20 ADD DUP3 DUP2 MSTORE PUSH1 0x20 ADD SWAP3 POP POP POP PUSH1 0x20 PUSH1 0x40 MLOAD DUP1 DUP4 SUB DUP2 DUP7 DUP1 EXTCODESIZE ISZERO DUP1 ISZERO PUSH2 0x23F3 JUMPI PUSH1 0x0 DUP1 REVERT JUMPDEST PUSH1 0x0 DUP2 DUP4 LT PUSH2 0x2FC2 JUMPI DUP2 PUSH2 0x2DCB JUMP JUMPDEST PUSH1 0x0 PUSH2 0x30E3 DUP3 PUSH2 0x3335 JUMP JUMPDEST PUSH1 0x20 ADD MLOAD PUSH5 0xFFFFFFFFFF AND SWAP3 SWAP2 POP POP JUMP JUMPDEST PUSH1 0x60 PUSH1 0x0 PUSH2 0x3100 PUSH2 0x3579 JUMP JUMPDEST SWAP1 POP PUSH1 0x1 PUSH1 0x1 PUSH1 0xA0 SHL SUB DUP2 AND ISZERO PUSH2 0x3302 JUMPI PUSH1 0x60 DUP4 MLOAD PUSH1 0x40 MLOAD SWAP1 DUP1 DUP3 MSTORE DUP1 PUSH1 0x20 MUL PUSH1 0x20 ADD DUP3 ADD PUSH1 0x40 MSTORE DUP1 ISZERO PUSH2 0x313E JUMPI DUP2 PUSH1 0x20 ADD PUSH1 0x20 DUP3 MUL DUP1 CODESIZE DUP4 CODECOPY ADD SWAP1 POP JUMPDEST POP SWAP1 POP PUSH1 0x0 JUMPDEST DUP5 MLOAD DUP2 LT ISZERO PUSH2 0x31B3 JUMPI PUSH1 0x6 PUSH1 0x0 DUP7 DUP4 DUP2 MLOAD DUP2 LT PUSH2 0x315D JUMPI INVALID JUMPDEST PUSH1 0x20 MUL PUSH1 0x20 ADD ADD MLOAD DUP2 MSTORE PUSH1 0x20 ADD SWAP1 DUP2 MSTORE PUSH1 0x20 ADD PUSH1 0x0 KECCAK256 PUSH1 0x0 SWAP1 SLOAD SWAP1 PUSH2 0x100 EXP SWAP1 DIV PUSH1 0x1 PUSH1 0x1 PUSH1 0xA0 SHL SUB AND DUP3 DUP3 DUP2 MLOAD DUP2 LT PUSH2 0x3193 JUMPI INVALID JUMPDEST PUSH1 0x1 PUSH1 0x1 PUSH1 0xA0 SHL SUB SWAP1 SWAP3 AND PUSH1 0x20 SWAP3 DUP4 MUL SWAP2 SWAP1 SWAP2 ADD SWAP1 SWAP2 ADD MSTORE PUSH1 0x1 ADD PUSH2 0x3144 JUMP JUMPDEST POP PUSH1 0x40 MLOAD PUSH4 0x1F5C8F2B PUSH1 0xE2 SHL DUP2 MSTORE PUSH1 0x20 PUSH1 0x4 DUP3 ADD DUP2 DUP2 MSTORE DUP4 MLOAD PUSH1 0x24 DUP5 ADD MSTORE DUP4 MLOAD PUSH1 0x1 PUSH1 0x1 PUSH1 0xA0 SHL SUB DUP7 AND SWAP4 PUSH4 0x7D723CAC SWAP4 DUP7 SWAP4 SWAP3 DUP4 SWAP3 PUSH1 0x44 ADD SWAP2 DUP1 DUP7 ADD SWAP2 MUL DUP1 DUP4 DUP4 PUSH1 0x0 JUMPDEST DUP4 DUP2 LT ISZERO PUSH2 0x3210 JUMPI DUP2 DUP2 ADD MLOAD DUP4 DUP3 ADD MSTORE PUSH1 0x20 ADD PUSH2 0x31F8 JUMP JUMPDEST POP POP POP POP SWAP1 POP ADD SWAP3 POP POP POP PUSH1 0x0 PUSH1 0x40 MLOAD DUP1 DUP4 SUB DUP2 DUP7 DUP1 EXTCODESIZE ISZERO DUP1 ISZERO PUSH2 0x3233 JUMPI PUSH1 0x0 DUP1 REVERT JUMPDEST POP GAS STATICCALL ISZERO DUP1 ISZERO PUSH2 0x3247 JUMPI RETURNDATASIZE PUSH1 0x0 DUP1 RETURNDATACOPY RETURNDATASIZE PUSH1 0x0 REVERT JUMPDEST POP POP POP POP PUSH1 0x40 MLOAD RETURNDATASIZE PUSH1 0x0 DUP3 RETURNDATACOPY PUSH1 0x1F RETURNDATASIZE SWAP1 DUP2 ADD PUSH1 0x1F NOT AND DUP3 ADD PUSH1 0x40 MSTORE PUSH1 0x20 DUP2 LT ISZERO PUSH2 0x3270 JUMPI PUSH1 0x0 DUP1 REVERT JUMPDEST DUP2 ADD SWAP1 DUP1 DUP1 MLOAD PUSH1 0x40 MLOAD SWAP4 SWAP3 SWAP2 SWAP1 DUP5 PUSH1 0x1 PUSH1 0x20 SHL DUP3 GT ISZERO PUSH2 0x328F JUMPI PUSH1 0x0 DUP1 REVERT JUMPDEST SWAP1 DUP4 ADD SWAP1 PUSH1 0x20 DUP3 ADD DUP6 DUP2 GT ISZERO PUSH2 0x32A4 JUMPI PUSH1 0x0 DUP1 REVERT JUMPDEST DUP3 MLOAD DUP7 PUSH1 0x20 DUP3 MUL DUP4 ADD GT PUSH1 0x1 PUSH1 0x20 SHL DUP3 GT OR ISZERO PUSH2 0x32C0 JUMPI PUSH1 0x0 DUP1 REVERT JUMPDEST DUP3 MSTORE POP DUP2 MLOAD PUSH1 0x20 SWAP2 DUP3 ADD SWAP3 DUP3 ADD SWAP2 MUL DUP1 DUP4 DUP4 PUSH1 0x0 JUMPDEST DUP4 DUP2 LT ISZERO PUSH2 0x32ED JUMPI DUP2 DUP2 ADD MLOAD DUP4 DUP3 ADD MSTORE PUSH1 0x20 ADD PUSH2 0x32D5 JUMP JUMPDEST POP POP POP POP SWAP1 POP ADD PUSH1 0x40 MSTORE POP POP POP SWAP3 POP POP PUSH2 0x19EB JUMP JUMPDEST DUP3 MLOAD PUSH1 0x40 MLOAD SWAP1 DUP1 DUP3 MSTORE DUP1 PUSH1 0x20 MUL PUSH1 0x20 ADD DUP3 ADD PUSH1 0x40 MSTORE DUP1 ISZERO PUSH2 0x332D JUMPI DUP2 PUSH1 0x20 ADD PUSH1 0x20 DUP3 MUL DUP1 CODESIZE DUP4 CODECOPY ADD SWAP1 POP JUMPDEST POP SWAP4 SWAP3 POP POP POP JUMP JUMPDEST PUSH2 0x333D PUSH2 0x44F0 JUMP JUMPDEST PUSH1 0x0 DUP3 DUP2 MSTORE PUSH1 0x6 PUSH1 0x20 MSTORE PUSH1 0x40 SWAP1 KECCAK256 SLOAD PUSH1 0x1 PUSH1 0x1 PUSH1 0xA0 SHL SUB AND DUP1 ISZERO PUSH2 0x34BD JUMPI PUSH1 0x40 DUP1 MLOAD PUSH1 0x4 DUP2 MSTORE PUSH1 0x24 DUP2 ADD DUP3 MSTORE PUSH1 0x20 DUP2 ADD DUP1 MLOAD PUSH1 0x1 PUSH1 0x1 PUSH1 0xE0 SHL SUB AND PUSH4 0x3FABE5A3 PUSH1 0xE2 SHL OR DUP2 MSTORE SWAP2 MLOAD DUP2 MLOAD SWAP2 SWAP3 PUSH1 0x0 SWAP3 PUSH1 0x60 SWAP3 PUSH1 0x1 PUSH1 0x1 PUSH1 0xA0 SHL SUB DUP8 AND SWAP3 DUP7 SWAP3 DUP3 SWAP2 SWAP1 DUP1 DUP4 DUP4 JUMPDEST PUSH1 0x20 DUP4 LT PUSH2 0x33C2 JUMPI DUP1 MLOAD DUP3 MSTORE PUSH1 0x1F NOT SWAP1 SWAP3 ADD SWAP2 PUSH1 0x20 SWAP2 DUP3 ADD SWAP2 ADD PUSH2 0x33A3 JUMP JUMPDEST PUSH1 0x1 DUP4 PUSH1 0x20 SUB PUSH2 0x100 EXP SUB DUP1 NOT DUP3 MLOAD AND DUP2 DUP5 MLOAD AND DUP1 DUP3 OR DUP6 MSTORE POP POP POP POP POP POP SWAP1 POP ADD SWAP2 POP POP PUSH1 0x0 PUSH1 0x40 MLOAD DUP1 DUP4 SUB DUP2 DUP6 GAS STATICCALL SWAP2 POP POP RETURNDATASIZE DUP1 PUSH1 0x0 DUP2 EQ PUSH2 0x3422 JUMPI PUSH1 0x40 MLOAD SWAP2 POP PUSH1 0x1F NOT PUSH1 0x3F RETURNDATASIZE ADD AND DUP3 ADD PUSH1 0x40 MSTORE RETURNDATASIZE DUP3 MSTORE RETURNDATASIZE PUSH1 0x0 PUSH1 0x20 DUP5 ADD RETURNDATACOPY PUSH2 0x3427 JUMP JUMPDEST PUSH1 0x60 SWAP2 POP JUMPDEST POP SWAP2 POP SWAP2 POP DUP2 ISZERO PUSH2 0x34B5 JUMPI PUSH1 0x0 DUP1 PUSH1 0x0 DUP4 DUP1 PUSH1 0x20 ADD SWAP1 MLOAD PUSH1 0xA0 DUP2 LT ISZERO PUSH2 0x344C JUMPI PUSH1 0x0 DUP1 REVERT JUMPDEST POP DUP1 MLOAD PUSH1 0x20 DUP3 ADD MLOAD PUSH1 0x60 SWAP1 SWAP3 ADD MLOAD PUSH1 0x40 DUP1 MLOAD DUP1 DUP3 ADD SWAP1 SWAP2 MSTORE SWAP2 SWAP6 POP SWAP2 SWAP4 POP SWAP1 SWAP2 POP DUP1 PUSH2 0x348E DUP12 PUSH2 0x347C DUP2 DUP8 PUSH2 0x4080 JUMP JUMPDEST DUP8 PUSH10 0xFFFFFFFFFFFFFFFFFFFF AND PUSH2 0x4129 JUMP JUMPDEST PUSH1 0x1 PUSH1 0x1 PUSH1 0xD8 SHL SUB AND DUP2 MSTORE PUSH1 0x20 ADD DUP3 PUSH5 0xFFFFFFFFFF AND DUP2 MSTORE POP SWAP8 POP POP POP POP POP POP POP POP PUSH2 0xDDC JUMP JUMPDEST POP POP POP PUSH2 0x19EB JUMP JUMPDEST PUSH1 0x0 DUP4 DUP2 MSTORE PUSH1 0xB PUSH1 0x20 MSTORE PUSH1 0x40 SWAP1 KECCAK256 SLOAD PUSH2 0x34D4 PUSH2 0x44F0 JUMP JUMPDEST POP PUSH1 0x0 DUP5 DUP2 MSTORE PUSH1 0x4 PUSH1 0x20 SWAP1 DUP2 MSTORE PUSH1 0x40 DUP1 DUP4 KECCAK256 DUP5 DUP5 MSTORE DUP3 MSTORE SWAP2 DUP3 SWAP1 KECCAK256 DUP3 MLOAD DUP1 DUP5 ADD DUP5 MSTORE SWAP1 SLOAD PUSH1 0x1 PUSH1 0x1 PUSH1 0xD8 SHL SUB DUP1 DUP3 AND DUP4 MSTORE PUSH1 0x1 PUSH1 0xD8 SHL SWAP1 SWAP2 DIV PUSH5 0xFFFFFFFFFF AND SWAP3 DUP3 ADD SWAP3 SWAP1 SWAP3 MSTORE DUP3 MLOAD DUP1 DUP5 ADD SWAP1 SWAP4 MSTORE DUP1 MLOAD SWAP1 SWAP3 SWAP2 DUP3 SWAP2 PUSH2 0x3537 SWAP2 DUP10 SWAP2 AND DUP7 PUSH2 0x4129 JUMP JUMPDEST PUSH1 0x1 PUSH1 0x1 PUSH1 0xD8 SHL SUB AND DUP2 MSTORE PUSH1 0x20 ADD DUP3 PUSH1 0x20 ADD MLOAD PUSH5 0xFFFFFFFFFF AND DUP2 MSTORE POP SWAP4 POP POP POP POP PUSH2 0xDDC JUMP JUMPDEST PUSH1 0x0 TIMESTAMP PUSH2 0x3571 DUP4 DUP6 PUSH4 0xFFFFFFFF PUSH2 0x4267 AND JUMP JUMPDEST LT SWAP4 SWAP3 POP POP POP JUMP JUMPDEST PUSH1 0x0 PUSH2 0x3583 PUSH2 0x3AB0 JUMP JUMPDEST PUSH1 0x1 PUSH1 0x1 PUSH1 0xA0 SHL SUB AND PUSH4 0x9EE5955A PUSH14 0x53797374656D53657474696E6773 PUSH1 0x90 SHL PUSH22 0x61676772656761746F725761726E696E67466C616773 PUSH1 0x50 SHL PUSH1 0x40 MLOAD DUP4 PUSH4 0xFFFFFFFF AND PUSH1 0xE0 SHL DUP2 MSTORE PUSH1 0x4 ADD DUP1 DUP4 DUP2 MSTORE PUSH1 0x20 ADD DUP3 DUP2 MSTORE PUSH1 0x20 ADD SWAP3 POP POP POP PUSH1 0x20 PUSH1 0x40 MLOAD DUP1 DUP4 SUB DUP2 DUP7 DUP1 EXTCODESIZE ISZERO DUP1 ISZERO PUSH2 0x23F3 JUMPI PUSH1 0x0 DUP1 REVERT JUMPDEST PUSH1 0x0 DUP3 PUSH4 0x1CD554D1 PUSH1 0xE2 SHL EQ ISZERO PUSH2 0x3611 JUMPI POP PUSH1 0x0 PUSH2 0x1306 JUMP JUMPDEST PUSH1 0x0 DUP4 DUP2 MSTORE PUSH1 0x6 PUSH1 0x20 MSTORE PUSH1 0x40 SWAP1 KECCAK256 SLOAD PUSH1 0x1 PUSH1 0x1 PUSH1 0xA0 SHL SUB AND DUP1 ISZERO DUP1 PUSH2 0x363D JUMPI POP PUSH1 0x1 PUSH1 0x1 PUSH1 0xA0 SHL SUB DUP4 AND ISZERO JUMPDEST ISZERO PUSH2 0x364C JUMPI PUSH1 0x0 SWAP2 POP POP PUSH2 0x1306 JUMP JUMPDEST DUP3 PUSH1 0x1 PUSH1 0x1 PUSH1 0xA0 SHL SUB AND PUSH4 0x357E47FE DUP3 PUSH1 0x40 MLOAD DUP3 PUSH4 0xFFFFFFFF AND PUSH1 0xE0 SHL DUP2 MSTORE PUSH1 0x4 ADD DUP1 DUP3 PUSH1 0x1 PUSH1 0x1 PUSH1 0xA0 SHL SUB AND PUSH1 0x1 PUSH1 0x1 PUSH1 0xA0 SHL SUB AND DUP2 MSTORE PUSH1 0x20 ADD SWAP2 POP POP PUSH1 0x20 PUSH1 0x40 MLOAD DUP1 DUP4 SUB DUP2 DUP7 DUP1 EXTCODESIZE ISZERO DUP1 ISZERO PUSH2 0x36A2 JUMPI PUSH1 0x0 DUP1 REVERT JUMPDEST POP GAS STATICCALL ISZERO DUP1 ISZERO PUSH2 0x36B6 JUMPI RETURNDATASIZE PUSH1 0x0 DUP1 RETURNDATACOPY RETURNDATASIZE PUSH1 0x0 REVERT JUMPDEST POP POP POP POP PUSH1 0x40 MLOAD RETURNDATASIZE PUSH1 0x20 DUP2 LT ISZERO PUSH2 0x36CC JUMPI PUSH1 0x0 DUP1 REVERT JUMPDEST POP MLOAD SWAP5 SWAP4 POP POP POP POP JUMP JUMPDEST PUSH1 0x0 DUP3 DUP2 MSTORE PUSH1 0x6 PUSH1 0x20 MSTORE PUSH1 0x40 DUP2 KECCAK256 SLOAD DUP2 SWAP1 PUSH1 0x1 PUSH1 0x1 PUSH1 0xA0 SHL SUB AND DUP1 ISZERO PUSH2 0x3830 JUMPI PUSH1 0x40 DUP1 MLOAD PUSH1 0x24 DUP1 DUP3 ADD DUP8 SWAP1 MSTORE DUP3 MLOAD DUP1 DUP4 SUB SWAP1 SWAP2 ADD DUP2 MSTORE PUSH1 0x44 SWAP1 SWAP2 ADD DUP3 MSTORE PUSH1 0x20 DUP2 ADD DUP1 MLOAD PUSH1 0x1 PUSH1 0x1 PUSH1 0xE0 SHL SUB AND PUSH4 0x9A6FC8F5 PUSH1 0xE0 SHL OR DUP2 MSTORE SWAP2 MLOAD DUP2 MLOAD SWAP2 SWAP3 PUSH1 0x0 SWAP3 PUSH1 0x60 SWAP3 PUSH1 0x1 PUSH1 0x1 PUSH1 0xA0 SHL SUB DUP8 AND SWAP3 DUP7 SWAP3 DUP3 SWAP2 SWAP1 DUP1 DUP4 DUP4 JUMPDEST PUSH1 0x20 DUP4 LT PUSH2 0x376C JUMPI DUP1 MLOAD DUP3 MSTORE PUSH1 0x1F NOT SWAP1 SWAP3 ADD SWAP2 PUSH1 0x20 SWAP2 DUP3 ADD SWAP2 ADD PUSH2 0x374D JUMP JUMPDEST PUSH1 0x1 DUP4 PUSH1 0x20 SUB PUSH2 0x100 EXP SUB DUP1 NOT DUP3 MLOAD AND DUP2 DUP5 MLOAD AND DUP1 DUP3 OR DUP6 MSTORE POP POP POP POP POP POP SWAP1 POP ADD SWAP2 POP POP PUSH1 0x0 PUSH1 0x40 MLOAD DUP1 DUP4 SUB DUP2 DUP6 GAS STATICCALL SWAP2 POP POP RETURNDATASIZE DUP1 PUSH1 0x0 DUP2 EQ PUSH2 0x37CC JUMPI PUSH1 0x40 MLOAD SWAP2 POP PUSH1 0x1F NOT PUSH1 0x3F RETURNDATASIZE ADD AND DUP3 ADD PUSH1 0x40 MSTORE RETURNDATASIZE DUP3 MSTORE RETURNDATASIZE PUSH1 0x0 PUSH1 0x20 DUP5 ADD RETURNDATACOPY PUSH2 0x37D1 JUMP JUMPDEST PUSH1 0x60 SWAP2 POP JUMPDEST POP SWAP2 POP SWAP2 POP DUP2 ISZERO PUSH2 0x3828 JUMPI PUSH1 0x0 DUP1 DUP3 DUP1 PUSH1 0x20 ADD SWAP1 MLOAD PUSH1 0xA0 DUP2 LT ISZERO PUSH2 0x37F4 JUMPI PUSH1 0x0 DUP1 REVERT JUMPDEST POP PUSH1 0x20 DUP2 ADD MLOAD PUSH1 0x60 SWAP1 SWAP2 ADD MLOAD SWAP1 SWAP3 POP SWAP1 POP PUSH2 0x3819 DUP11 PUSH2 0x3813 DUP2 DUP6 PUSH2 0x4080 JUMP JUMPDEST DUP12 PUSH2 0x4129 JUMP JUMPDEST SWAP8 POP SWAP6 POP PUSH2 0x1906 SWAP5 POP POP POP POP POP JUMP JUMPDEST POP POP POP PUSH2 0x38A4 JUMP JUMPDEST PUSH2 0x3838 PUSH2 0x44F0 JUMP JUMPDEST POP PUSH1 0x0 DUP6 DUP2 MSTORE PUSH1 0x4 PUSH1 0x20 SWAP1 DUP2 MSTORE PUSH1 0x40 DUP1 DUP4 KECCAK256 DUP8 DUP5 MSTORE DUP3 MSTORE SWAP2 DUP3 SWAP1 KECCAK256 DUP3 MLOAD DUP1 DUP5 ADD SWAP1 SWAP4 MSTORE SLOAD PUSH1 0x1 PUSH1 0x1 PUSH1 0xD8 SHL SUB DUP2 AND DUP1 DUP5 MSTORE PUSH1 0x1 PUSH1 0xD8 SHL SWAP1 SWAP2 DIV PUSH5 0xFFFFFFFFFF AND SWAP2 DUP4 ADD SWAP2 SWAP1 SWAP2 MSTORE PUSH2 0x388B SWAP1 DUP8 SWAP1 DUP8 PUSH2 0x4129 JUMP JUMPDEST PUSH1 0x20 SWAP1 SWAP2 ADD MLOAD SWAP1 SWAP4 POP PUSH5 0xFFFFFFFFFF AND SWAP2 POP PUSH2 0x1906 SWAP1 POP JUMP JUMPDEST POP SWAP3 POP SWAP3 SWAP1 POP JUMP JUMPDEST PUSH1 0x0 SLOAD PUSH1 0x1 PUSH1 0x1 PUSH1 0xA0 SHL SUB AND CALLER EQ PUSH2 0x38F5 JUMPI PUSH1 0x40 MLOAD PUSH3 0x461BCD PUSH1 0xE5 SHL DUP2 MSTORE PUSH1 0x4 ADD DUP1 DUP1 PUSH1 0x20 ADD DUP3 DUP2 SUB DUP3 MSTORE PUSH1 0x2F DUP2 MSTORE PUSH1 0x20 ADD DUP1 PUSH2 0x4605 PUSH1 0x2F SWAP2 CODECOPY PUSH1 0x40 ADD SWAP2 POP POP PUSH1 0x40 MLOAD DUP1 SWAP2 SUB SWAP1 REVERT JUMPDEST JUMP JUMPDEST PUSH1 0x0 PUSH2 0x2DCB DUP4 DUP4 PUSH8 0xDE0B6B3A7640000 PUSH2 0x42C1 JUMP JUMPDEST PUSH1 0x0 PUSH2 0x2DCB DUP4 DUP4 PUSH8 0xDE0B6B3A7640000 PUSH2 0x42FE JUMP JUMPDEST PUSH1 0x0 DUP1 JUMPDEST DUP3 SLOAD DUP2 LT ISZERO PUSH2 0x39BB JUMPI DUP4 DUP4 DUP3 DUP2 SLOAD DUP2 LT PUSH2 0x393B JUMPI INVALID JUMPDEST SWAP1 PUSH1 0x0 MSTORE PUSH1 0x20 PUSH1 0x0 KECCAK256 ADD SLOAD EQ ISZERO PUSH2 0x39B3 JUMPI DUP3 DUP2 DUP2 SLOAD DUP2 LT PUSH2 0x3958 JUMPI INVALID JUMPDEST PUSH1 0x0 SWAP2 DUP3 MSTORE PUSH1 0x20 DUP3 KECCAK256 ADD SSTORE DUP3 SLOAD DUP4 SWAP1 PUSH1 0x0 NOT DUP2 ADD SWAP1 DUP2 LT PUSH2 0x3975 JUMPI INVALID JUMPDEST SWAP1 PUSH1 0x0 MSTORE PUSH1 0x20 PUSH1 0x0 KECCAK256 ADD SLOAD DUP4 DUP3 DUP2 SLOAD DUP2 LT PUSH2 0x398C JUMPI INVALID JUMPDEST PUSH1 0x0 SWAP2 DUP3 MSTORE PUSH1 0x20 SWAP1 SWAP2 KECCAK256 ADD SSTORE DUP3 SLOAD PUSH2 0x39A8 DUP5 PUSH1 0x0 NOT DUP4 ADD PUSH2 0x453A JUMP JUMPDEST POP PUSH1 0x1 SWAP2 POP POP PUSH2 0x1306 JUMP JUMPDEST PUSH1 0x1 ADD PUSH2 0x3925 JUMP JUMPDEST POP PUSH1 0x0 SWAP4 SWAP3 POP POP POP JUMP JUMPDEST PUSH1 0x0 DUP2 DUP2 MSTORE PUSH1 0x6 PUSH1 0x20 MSTORE PUSH1 0x40 DUP2 KECCAK256 SLOAD PUSH1 0x1 PUSH1 0x1 PUSH1 0xA0 SHL SUB AND DUP1 ISZERO PUSH2 0x3A51 JUMPI DUP1 PUSH1 0x1 PUSH1 0x1 PUSH1 0xA0 SHL SUB AND PUSH4 0x668A0F02 PUSH1 0x40 MLOAD DUP2 PUSH4 0xFFFFFFFF AND PUSH1 0xE0 SHL DUP2 MSTORE PUSH1 0x4 ADD PUSH1 0x20 PUSH1 0x40 MLOAD DUP1 DUP4 SUB DUP2 DUP7 DUP1 EXTCODESIZE ISZERO DUP1 ISZERO PUSH2 0x3A1C JUMPI PUSH1 0x0 DUP1 REVERT JUMPDEST POP GAS STATICCALL ISZERO DUP1 ISZERO PUSH2 0x3A30 JUMPI RETURNDATASIZE PUSH1 0x0 DUP1 RETURNDATACOPY RETURNDATASIZE PUSH1 0x0 REVERT JUMPDEST POP POP POP POP PUSH1 0x40 MLOAD RETURNDATASIZE PUSH1 0x20 DUP2 LT ISZERO PUSH2 0x3A46 JUMPI PUSH1 0x0 DUP1 REVERT JUMPDEST POP MLOAD SWAP2 POP PUSH2 0xDDC SWAP1 POP JUMP JUMPDEST POP POP PUSH1 0x0 DUP2 DUP2 MSTORE PUSH1 0xB PUSH1 0x20 MSTORE PUSH1 0x40 SWAP1 KECCAK256 SLOAD PUSH2 0xDDC JUMP JUMPDEST PUSH1 0x5 SLOAD PUSH1 0x1 PUSH1 0x1 PUSH1 0xA0 SHL SUB AND CALLER EQ PUSH2 0x38F5 JUMPI PUSH1 0x40 MLOAD PUSH3 0x461BCD PUSH1 0xE5 SHL DUP2 MSTORE PUSH1 0x4 ADD DUP1 DUP1 PUSH1 0x20 ADD DUP3 DUP2 SUB DUP3 MSTORE PUSH1 0x27 DUP2 MSTORE PUSH1 0x20 ADD DUP1 PUSH2 0x45DE PUSH1 0x27 SWAP2 CODECOPY PUSH1 0x40 ADD SWAP2 POP POP PUSH1 0x40 MLOAD DUP1 SWAP2 SUB SWAP1 REVERT JUMPDEST PUSH1 0x0 PUSH2 0x144E PUSH15 0x466C657869626C6553746F72616765 PUSH1 0x88 SHL PUSH2 0x4330 JUMP JUMPDEST PUSH1 0x0 PUSH2 0x3AD7 PUSH2 0x3AB0 JUMP JUMPDEST PUSH1 0x1 PUSH1 0x1 PUSH1 0xA0 SHL SUB AND PUSH4 0x23257C2B PUSH14 0x53797374656D53657474696E6773 PUSH1 0x90 SHL PUSH32 0x61746F6D6963566F6C436F6E73696465726174696F6E57696E646F7700000000 DUP6 PUSH1 0x40 MLOAD PUSH1 0x20 ADD DUP1 DUP4 DUP2 MSTORE PUSH1 0x20 ADD DUP3 DUP2 MSTORE PUSH1 0x20 ADD SWAP3 POP POP POP PUSH1 0x40 MLOAD PUSH1 0x20 DUP2 DUP4 SUB SUB DUP2 MSTORE SWAP1 PUSH1 0x40 MSTORE DUP1 MLOAD SWAP1 PUSH1 0x20 ADD KECCAK256 PUSH1 0x40 MLOAD DUP4 PUSH4 0xFFFFFFFF AND PUSH1 0xE0 SHL DUP2 MSTORE PUSH1 0x4 ADD DUP1 DUP4 DUP2 MSTORE PUSH1 0x20 ADD DUP3 DUP2 MSTORE PUSH1 0x20 ADD SWAP3 POP POP POP PUSH1 0x20 PUSH1 0x40 MLOAD DUP1 DUP4 SUB DUP2 DUP7 DUP1 EXTCODESIZE ISZERO DUP1 ISZERO PUSH2 0x2E86 JUMPI PUSH1 0x0 DUP1 REVERT JUMPDEST PUSH1 0x0 PUSH2 0x3B8B PUSH2 0x3AB0 JUMP JUMPDEST PUSH1 0x1 PUSH1 0x1 PUSH1 0xA0 SHL SUB AND PUSH4 0x23257C2B PUSH14 0x53797374656D53657474696E6773 PUSH1 0x90 SHL PUSH32 0x61746F6D6963566F6C5570646174655468726573686F6C640000000000000000 DUP6 PUSH1 0x40 MLOAD PUSH1 0x20 ADD DUP1 DUP4 DUP2 MSTORE PUSH1 0x20 ADD DUP3 DUP2 MSTORE PUSH1 0x20 ADD SWAP3 POP POP POP PUSH1 0x40 MLOAD PUSH1 0x20 DUP2 DUP4 SUB SUB DUP2 MSTORE SWAP1 PUSH1 0x40 MSTORE DUP1 MLOAD SWAP1 PUSH1 0x20 ADD KECCAK256 PUSH1 0x40 MLOAD DUP4 PUSH4 0xFFFFFFFF AND PUSH1 0xE0 SHL DUP2 MSTORE PUSH1 0x4 ADD DUP1 DUP4 DUP2 MSTORE PUSH1 0x20 ADD DUP3 DUP2 MSTORE PUSH1 0x20 ADD SWAP3 POP POP POP PUSH1 0x20 PUSH1 0x40 MLOAD DUP1 DUP4 SUB DUP2 DUP7 DUP1 EXTCODESIZE ISZERO DUP1 ISZERO PUSH2 0x2E86 JUMPI PUSH1 0x0 DUP1 REVERT JUMPDEST PUSH1 0x40 DUP1 MLOAD PUSH1 0x1 DUP1 DUP3 MSTORE DUP2 DUP4 ADD SWAP1 SWAP3 MSTORE PUSH1 0x60 SWAP2 PUSH1 0x20 DUP1 DUP4 ADD SWAP1 DUP1 CODESIZE DUP4 CODECOPY ADD SWAP1 POP POP SWAP1 POP PUSH15 0x466C657869626C6553746F72616765 PUSH1 0x88 SHL DUP2 PUSH1 0x0 DUP2 MLOAD DUP2 LT PUSH2 0x3C77 JUMPI INVALID JUMPDEST PUSH1 0x20 MUL PUSH1 0x20 ADD ADD DUP2 DUP2 MSTORE POP POP SWAP1 JUMP JUMPDEST PUSH1 0x60 DUP2 MLOAD DUP4 MLOAD ADD PUSH1 0x40 MLOAD SWAP1 DUP1 DUP3 MSTORE DUP1 PUSH1 0x20 MUL PUSH1 0x20 ADD DUP3 ADD PUSH1 0x40 MSTORE DUP1 ISZERO PUSH2 0x3CB6 JUMPI DUP2 PUSH1 0x20 ADD PUSH1 0x20 DUP3 MUL DUP1 CODESIZE DUP4 CODECOPY ADD SWAP1 POP JUMPDEST POP SWAP1 POP PUSH1 0x0 JUMPDEST DUP4 MLOAD DUP2 LT ISZERO PUSH2 0x3CF8 JUMPI DUP4 DUP2 DUP2 MLOAD DUP2 LT PUSH2 0x3CD1 JUMPI INVALID JUMPDEST PUSH1 0x20 MUL PUSH1 0x20 ADD ADD MLOAD DUP3 DUP3 DUP2 MLOAD DUP2 LT PUSH2 0x3CE5 JUMPI INVALID JUMPDEST PUSH1 0x20 SWAP1 DUP2 MUL SWAP2 SWAP1 SWAP2 ADD ADD MSTORE PUSH1 0x1 ADD PUSH2 0x3CBC JUMP JUMPDEST POP PUSH1 0x0 JUMPDEST DUP3 MLOAD DUP2 LT ISZERO PUSH2 0x3D3B JUMPI DUP3 DUP2 DUP2 MLOAD DUP2 LT PUSH2 0x3D11 JUMPI INVALID JUMPDEST PUSH1 0x20 MUL PUSH1 0x20 ADD ADD MLOAD DUP3 DUP3 DUP7 MLOAD ADD DUP2 MLOAD DUP2 LT PUSH2 0x3D28 JUMPI INVALID JUMPDEST PUSH1 0x20 SWAP1 DUP2 MUL SWAP2 SWAP1 SWAP2 ADD ADD MSTORE PUSH1 0x1 ADD PUSH2 0x3CFC JUMP JUMPDEST POP SWAP3 SWAP2 POP POP JUMP JUMPDEST PUSH1 0x0 PUSH2 0x3D4C PUSH2 0x4507 JUMP JUMPDEST POP PUSH1 0x0 DUP3 DUP2 MSTORE PUSH1 0x9 PUSH1 0x20 SWAP1 DUP2 MSTORE PUSH1 0x40 SWAP2 DUP3 SWAP1 KECCAK256 DUP3 MLOAD PUSH1 0xA0 DUP2 ADD DUP5 MSTORE DUP2 SLOAD DUP2 MSTORE PUSH1 0x1 DUP3 ADD SLOAD SWAP3 DUP2 ADD SWAP3 SWAP1 SWAP3 MSTORE PUSH1 0x2 DUP2 ADD SLOAD SWAP3 DUP3 ADD SWAP3 SWAP1 SWAP3 MSTORE PUSH1 0x3 SWAP1 SWAP2 ADD SLOAD PUSH1 0xFF DUP1 DUP3 AND ISZERO ISZERO PUSH1 0x60 DUP5 ADD DUP2 SWAP1 MSTORE PUSH2 0x100 SWAP1 SWAP3 DIV AND ISZERO ISZERO PUSH1 0x80 DUP4 ADD MSTORE DUP1 PUSH2 0x2DCB JUMPI POP PUSH1 0x80 ADD MLOAD SWAP3 SWAP2 POP POP JUMP JUMPDEST PUSH1 0x0 DUP3 PUSH2 0x3DC4 JUMPI POP PUSH1 0x0 PUSH2 0x1306 JUMP JUMPDEST DUP3 DUP3 MUL DUP3 DUP5 DUP3 DUP2 PUSH2 0x3DD1 JUMPI INVALID JUMPDEST DIV EQ PUSH2 0x2DCB JUMPI PUSH1 0x40 MLOAD PUSH3 0x461BCD PUSH1 0xE5 SHL DUP2 MSTORE PUSH1 0x4 ADD DUP1 DUP1 PUSH1 0x20 ADD DUP3 DUP2 SUB DUP3 MSTORE PUSH1 0x21 DUP2 MSTORE PUSH1 0x20 ADD DUP1 PUSH2 0x4634 PUSH1 0x21 SWAP2 CODECOPY PUSH1 0x40 ADD SWAP2 POP POP PUSH1 0x40 MLOAD DUP1 SWAP2 SUB SWAP1 REVERT JUMPDEST PUSH1 0x0 PUSH2 0x144E PUSH9 0x22BC31B430B733B2B9 PUSH1 0xB9 SHL PUSH2 0x4330 JUMP JUMPDEST PUSH1 0x0 DUP3 MLOAD DUP5 MLOAD EQ PUSH2 0x3E67 JUMPI PUSH1 0x40 MLOAD PUSH3 0x461BCD PUSH1 0xE5 SHL DUP2 MSTORE PUSH1 0x4 ADD DUP1 DUP1 PUSH1 0x20 ADD DUP3 DUP2 SUB DUP3 MSTORE PUSH1 0x38 DUP2 MSTORE PUSH1 0x20 ADD DUP1 PUSH2 0x4655 PUSH1 0x38 SWAP2 CODECOPY PUSH1 0x40 ADD SWAP2 POP POP PUSH1 0x40 MLOAD DUP1 SWAP2 SUB SWAP1 REVERT JUMPDEST PUSH2 0x258 TIMESTAMP ADD DUP3 LT PUSH2 0x3EBF JUMPI PUSH1 0x40 DUP1 MLOAD PUSH3 0x461BCD PUSH1 0xE5 SHL DUP2 MSTORE PUSH1 0x20 PUSH1 0x4 DUP3 ADD MSTORE PUSH1 0x1F PUSH1 0x24 DUP3 ADD MSTORE PUSH32 0x54696D6520697320746F6F2066617220696E746F207468652066757475726500 PUSH1 0x44 DUP3 ADD MSTORE SWAP1 MLOAD SWAP1 DUP2 SWAP1 SUB PUSH1 0x64 ADD SWAP1 REVERT JUMPDEST PUSH1 0x0 JUMPDEST DUP5 MLOAD DUP2 LT ISZERO PUSH2 0x3FBA JUMPI PUSH1 0x0 DUP6 DUP3 DUP2 MLOAD DUP2 LT PUSH2 0x3ED9 JUMPI INVALID JUMPDEST PUSH1 0x20 MUL PUSH1 0x20 ADD ADD MLOAD SWAP1 POP DUP5 DUP3 DUP2 MLOAD DUP2 LT PUSH2 0x3EEF JUMPI INVALID JUMPDEST PUSH1 0x20 MUL PUSH1 0x20 ADD ADD MLOAD PUSH1 0x0 EQ ISZERO PUSH2 0x3F36 JUMPI PUSH1 0x40 MLOAD PUSH3 0x461BCD PUSH1 0xE5 SHL DUP2 MSTORE PUSH1 0x4 ADD DUP1 DUP1 PUSH1 0x20 ADD DUP3 DUP2 SUB DUP3 MSTORE PUSH1 0x39 DUP2 MSTORE PUSH1 0x20 ADD DUP1 PUSH2 0x4714 PUSH1 0x39 SWAP2 CODECOPY PUSH1 0x40 ADD SWAP2 POP POP PUSH1 0x40 MLOAD DUP1 SWAP2 SUB SWAP1 REVERT JUMPDEST DUP1 PUSH4 0x1CD554D1 PUSH1 0xE2 SHL EQ ISZERO PUSH2 0x3F7C JUMPI PUSH1 0x40 MLOAD PUSH3 0x461BCD PUSH1 0xE5 SHL DUP2 MSTORE PUSH1 0x4 ADD DUP1 DUP1 PUSH1 0x20 ADD DUP3 DUP2 SUB DUP3 MSTORE PUSH1 0x31 DUP2 MSTORE PUSH1 0x20 ADD DUP1 PUSH2 0x45AD PUSH1 0x31 SWAP2 CODECOPY PUSH1 0x40 ADD SWAP2 POP POP PUSH1 0x40 MLOAD DUP1 SWAP2 SUB SWAP1 REVERT JUMPDEST PUSH2 0x3F85 DUP2 PUSH2 0x30D8 JUMP JUMPDEST DUP5 LT ISZERO PUSH2 0x3F92 JUMPI POP PUSH2 0x3FB2 JUMP JUMPDEST PUSH2 0x3FB0 DUP2 DUP7 DUP5 DUP2 MLOAD DUP2 LT PUSH2 0x3FA2 JUMPI INVALID JUMPDEST PUSH1 0x20 MUL PUSH1 0x20 ADD ADD MLOAD DUP7 PUSH2 0x440D JUMP JUMPDEST POP JUMPDEST PUSH1 0x1 ADD PUSH2 0x3EC2 JUMP JUMPDEST POP PUSH32 0x1BC0FC8997EFA076F59B5EF02C315BC5390F7A6D24D661CE12128C01A3B0BA57 DUP5 DUP5 PUSH1 0x40 MLOAD DUP1 DUP1 PUSH1 0x20 ADD DUP1 PUSH1 0x20 ADD DUP4 DUP2 SUB DUP4 MSTORE DUP6 DUP2 DUP2 MLOAD DUP2 MSTORE PUSH1 0x20 ADD SWAP2 POP DUP1 MLOAD SWAP1 PUSH1 0x20 ADD SWAP1 PUSH1 0x20 MUL DUP1 DUP4 DUP4 PUSH1 0x0 JUMPDEST DUP4 DUP2 LT ISZERO PUSH2 0x4022 JUMPI DUP2 DUP2 ADD MLOAD DUP4 DUP3 ADD MSTORE PUSH1 0x20 ADD PUSH2 0x400A JUMP JUMPDEST POP POP POP POP SWAP1 POP ADD DUP4 DUP2 SUB DUP3 MSTORE DUP5 DUP2 DUP2 MLOAD DUP2 MSTORE PUSH1 0x20 ADD SWAP2 POP DUP1 MLOAD SWAP1 PUSH1 0x20 ADD SWAP1 PUSH1 0x20 MUL DUP1 DUP4 DUP4 PUSH1 0x0 JUMPDEST DUP4 DUP2 LT ISZERO PUSH2 0x4061 JUMPI DUP2 DUP2 ADD MLOAD DUP4 DUP3 ADD MSTORE PUSH1 0x20 ADD PUSH2 0x4049 JUMP JUMPDEST POP POP POP POP SWAP1 POP ADD SWAP5 POP POP POP POP POP PUSH1 0x40 MLOAD DUP1 SWAP2 SUB SWAP1 LOG1 POP PUSH1 0x1 SWAP4 SWAP3 POP POP POP JUMP JUMPDEST PUSH1 0x0 DUP1 DUP3 SLT ISZERO PUSH2 0x40D7 JUMPI PUSH1 0x40 DUP1 MLOAD PUSH3 0x461BCD PUSH1 0xE5 SHL DUP2 MSTORE PUSH1 0x20 PUSH1 0x4 DUP3 ADD MSTORE PUSH1 0x1B PUSH1 0x24 DUP3 ADD MSTORE PUSH32 0x4E656761746976652072617465206E6F7420737570706F727465640000000000 PUSH1 0x44 DUP3 ADD MSTORE SWAP1 MLOAD SWAP1 DUP2 SWAP1 SUB PUSH1 0x64 ADD SWAP1 REVERT JUMPDEST PUSH1 0x0 DUP4 DUP2 MSTORE PUSH1 0x7 PUSH1 0x20 MSTORE PUSH1 0x40 SWAP1 KECCAK256 SLOAD PUSH1 0xFF AND ISZERO PUSH2 0x19EB JUMPI PUSH1 0x0 DUP4 DUP2 MSTORE PUSH1 0x7 PUSH1 0x20 MSTORE PUSH1 0x40 DUP2 KECCAK256 SLOAD PUSH2 0x410C SWAP1 PUSH1 0x12 SWAP1 PUSH1 0xFF AND PUSH2 0x2FC9 JUMP JUMPDEST PUSH1 0xA EXP SWAP1 POP PUSH2 0x4121 DUP4 DUP3 PUSH4 0xFFFFFFFF PUSH2 0x3DB5 AND JUMP JUMPDEST SWAP2 POP POP PUSH2 0x1306 JUMP JUMPDEST PUSH1 0x0 PUSH2 0x4133 PUSH2 0x4507 JUMP JUMPDEST POP PUSH1 0x0 DUP5 DUP2 MSTORE PUSH1 0x9 PUSH1 0x20 SWAP1 DUP2 MSTORE PUSH1 0x40 SWAP2 DUP3 SWAP1 KECCAK256 DUP3 MLOAD PUSH1 0xA0 DUP2 ADD DUP5 MSTORE DUP2 SLOAD DUP1 DUP3 MSTORE PUSH1 0x1 DUP4 ADD SLOAD SWAP4 DUP3 ADD SWAP4 SWAP1 SWAP4 MSTORE PUSH1 0x2 DUP3 ADD SLOAD SWAP4 DUP2 ADD SWAP4 SWAP1 SWAP4 MSTORE PUSH1 0x3 ADD SLOAD PUSH1 0xFF DUP1 DUP3 AND ISZERO ISZERO PUSH1 0x60 DUP6 ADD MSTORE PUSH2 0x100 SWAP1 SWAP2 DIV AND ISZERO ISZERO PUSH1 0x80 DUP4 ADD MSTORE ISZERO DUP1 PUSH2 0x4193 JUMPI POP DUP4 ISZERO JUMPDEST ISZERO PUSH2 0x41A1 JUMPI DUP4 SWAP2 POP POP PUSH2 0x2DCB JUMP JUMPDEST PUSH1 0x0 DUP6 DUP2 MSTORE PUSH1 0xC PUSH1 0x20 MSTORE PUSH1 0x40 SWAP1 KECCAK256 SLOAD DUP5 SWAP3 POP DUP1 DUP5 LT DUP1 ISZERO SWAP1 PUSH2 0x41C4 JUMPI POP DUP2 PUSH1 0x60 ADD MLOAD JUMPDEST ISZERO PUSH2 0x41D5 JUMPI DUP2 PUSH1 0x20 ADD MLOAD SWAP3 POP PUSH2 0x425E JUMP JUMPDEST DUP1 DUP5 LT ISZERO DUP1 ISZERO PUSH2 0x41E6 JUMPI POP DUP2 PUSH1 0x80 ADD MLOAD JUMPDEST ISZERO PUSH2 0x41F7 JUMPI DUP2 PUSH1 0x40 ADD MLOAD SWAP3 POP PUSH2 0x425E JUMP JUMPDEST DUP2 MLOAD PUSH1 0x0 SWAP1 PUSH2 0x420D SWAP1 PUSH1 0x2 PUSH4 0xFFFFFFFF PUSH2 0x3DB5 AND JUMP JUMPDEST SWAP1 POP DUP6 DUP2 GT PUSH2 0x421F JUMPI PUSH1 0x0 SWAP4 POP PUSH2 0x4232 JUMP JUMPDEST PUSH2 0x422F DUP2 DUP8 PUSH4 0xFFFFFFFF PUSH2 0x2FC9 AND JUMP JUMPDEST SWAP4 POP JUMPDEST DUP3 PUSH1 0x20 ADD MLOAD DUP5 LT PUSH2 0x4249 JUMPI DUP3 PUSH1 0x20 ADD MLOAD SWAP4 POP PUSH2 0x425C JUMP JUMPDEST DUP3 PUSH1 0x40 ADD MLOAD DUP5 GT PUSH2 0x425C JUMPI DUP3 PUSH1 0x40 ADD MLOAD SWAP4 POP JUMPDEST POP JUMPDEST POP POP SWAP4 SWAP3 POP POP POP JUMP JUMPDEST PUSH1 0x0 DUP3 DUP3 ADD DUP4 DUP2 LT ISZERO PUSH2 0x2DCB JUMPI PUSH1 0x40 DUP1 MLOAD PUSH3 0x461BCD PUSH1 0xE5 SHL DUP2 MSTORE PUSH1 0x20 PUSH1 0x4 DUP3 ADD MSTORE PUSH1 0x1B PUSH1 0x24 DUP3 ADD MSTORE PUSH32 0x536166654D6174683A206164646974696F6E206F766572666C6F770000000000 PUSH1 0x44 DUP3 ADD MSTORE SWAP1 MLOAD SWAP1 DUP2 SWAP1 SUB PUSH1 0x64 ADD SWAP1 REVERT JUMPDEST PUSH1 0x0 DUP1 PUSH1 0xA DUP4 DIV PUSH2 0x42D8 DUP7 DUP7 PUSH4 0xFFFFFFFF PUSH2 0x3DB5 AND JUMP JUMPDEST DUP2 PUSH2 0x42DF JUMPI INVALID JUMPDEST DIV SWAP1 POP PUSH1 0x5 PUSH1 0xA DUP3 JUMPDEST MOD LT PUSH2 0x42F2 JUMPI PUSH1 0xA ADD JUMPDEST PUSH1 0xA SWAP1 DIV SWAP5 SWAP4 POP POP POP POP JUMP JUMPDEST PUSH1 0x0 DUP1 PUSH2 0x4324 DUP5 PUSH2 0x4318 DUP8 PUSH1 0xA DUP8 MUL PUSH4 0xFFFFFFFF PUSH2 0x3DB5 AND JUMP JUMPDEST SWAP1 PUSH4 0xFFFFFFFF PUSH2 0x4486 AND JUMP JUMPDEST SWAP1 POP PUSH1 0x5 PUSH1 0xA DUP3 PUSH2 0x42E8 JUMP JUMPDEST PUSH1 0x0 DUP2 DUP2 MSTORE PUSH1 0x3 PUSH1 0x20 SWAP1 DUP2 MSTORE PUSH1 0x40 DUP1 DUP4 KECCAK256 SLOAD DUP2 MLOAD PUSH17 0x26B4B9B9B4B7339030B2323932B9B99D1 PUSH1 0x7D SHL SWAP4 DUP2 ADD SWAP4 SWAP1 SWAP4 MSTORE PUSH1 0x31 DUP1 DUP5 ADD DUP7 SWAP1 MSTORE DUP3 MLOAD DUP1 DUP6 SUB SWAP1 SWAP2 ADD DUP2 MSTORE PUSH1 0x51 SWAP1 SWAP4 ADD SWAP1 SWAP2 MSTORE PUSH1 0x1 PUSH1 0x1 PUSH1 0xA0 SHL SUB AND SWAP1 DUP2 PUSH2 0x3D3B JUMPI PUSH1 0x40 MLOAD PUSH3 0x461BCD PUSH1 0xE5 SHL DUP2 MSTORE PUSH1 0x4 ADD DUP1 DUP1 PUSH1 0x20 ADD DUP3 DUP2 SUB DUP3 MSTORE DUP4 DUP2 DUP2 MLOAD DUP2 MSTORE PUSH1 0x20 ADD SWAP2 POP DUP1 MLOAD SWAP1 PUSH1 0x20 ADD SWAP1 DUP1 DUP4 DUP4 PUSH1 0x0 JUMPDEST DUP4 DUP2 LT ISZERO PUSH2 0x43D2 JUMPI DUP2 DUP2 ADD MLOAD DUP4 DUP3 ADD MSTORE PUSH1 0x20 ADD PUSH2 0x43BA JUMP JUMPDEST POP POP POP POP SWAP1 POP SWAP1 DUP2 ADD SWAP1 PUSH1 0x1F AND DUP1 ISZERO PUSH2 0x43FF JUMPI DUP1 DUP3 SUB DUP1 MLOAD PUSH1 0x1 DUP4 PUSH1 0x20 SUB PUSH2 0x100 EXP SUB NOT AND DUP2 MSTORE PUSH1 0x20 ADD SWAP2 POP JUMPDEST POP SWAP3 POP POP POP PUSH1 0x40 MLOAD DUP1 SWAP2 SUB SWAP1 REVERT JUMPDEST PUSH1 0x0 DUP4 DUP2 MSTORE PUSH1 0xB PUSH1 0x20 SWAP1 DUP2 MSTORE PUSH1 0x40 DUP1 DUP4 KECCAK256 DUP1 SLOAD PUSH1 0x1 ADD SWAP1 DUP2 SWAP1 SSTORE DUP2 MLOAD DUP1 DUP4 ADD DUP4 MSTORE PUSH1 0x1 PUSH1 0x1 PUSH1 0xD8 SHL SUB SWAP7 DUP8 AND DUP2 MSTORE PUSH5 0xFFFFFFFFFF SWAP6 DUP7 AND DUP2 DUP6 ADD SWAP1 DUP2 MSTORE SWAP8 DUP6 MSTORE PUSH1 0x4 DUP5 MSTORE DUP3 DUP6 KECCAK256 SWAP2 DUP6 MSTORE SWAP3 MSTORE SWAP1 SWAP2 KECCAK256 SWAP1 MLOAD DUP2 SLOAD SWAP5 MLOAD SWAP1 SWAP3 AND PUSH1 0x1 PUSH1 0xD8 SHL MUL SWAP2 DUP4 AND PUSH1 0x1 PUSH1 0x1 PUSH1 0xD8 SHL SUB NOT SWAP1 SWAP5 AND SWAP4 SWAP1 SWAP4 OR SWAP1 SWAP2 AND OR SWAP1 SSTORE JUMP JUMPDEST PUSH1 0x0 DUP1 DUP3 GT PUSH2 0x44DC JUMPI PUSH1 0x40 DUP1 MLOAD PUSH3 0x461BCD PUSH1 0xE5 SHL DUP2 MSTORE PUSH1 0x20 PUSH1 0x4 DUP3 ADD MSTORE PUSH1 0x1A PUSH1 0x24 DUP3 ADD MSTORE PUSH32 0x536166654D6174683A206469766973696F6E206279207A65726F000000000000 PUSH1 0x44 DUP3 ADD MSTORE SWAP1 MLOAD SWAP1 DUP2 SWAP1 SUB PUSH1 0x64 ADD SWAP1 REVERT JUMPDEST PUSH1 0x0 DUP3 DUP5 DUP2 PUSH2 0x44E7 JUMPI INVALID JUMPDEST DIV SWAP5 SWAP4 POP POP POP POP JUMP JUMPDEST PUSH1 0x40 DUP1 MLOAD DUP1 DUP3 ADD SWAP1 SWAP2 MSTORE PUSH1 0x0 DUP1 DUP3 MSTORE PUSH1 0x20 DUP3 ADD MSTORE SWAP1 JUMP JUMPDEST PUSH1 0x40 MLOAD DUP1 PUSH1 0xA0 ADD PUSH1 0x40 MSTORE DUP1 PUSH1 0x0 DUP2 MSTORE PUSH1 0x20 ADD PUSH1 0x0 DUP2 MSTORE PUSH1 0x20 ADD PUSH1 0x0 DUP2 MSTORE PUSH1 0x20 ADD PUSH1 0x0 ISZERO ISZERO DUP2 MSTORE PUSH1 0x20 ADD PUSH1 0x0 ISZERO ISZERO DUP2 MSTORE POP SWAP1 JUMP JUMPDEST DUP2 SLOAD DUP2 DUP4 SSTORE DUP2 DUP2 GT ISZERO PUSH2 0x1835 JUMPI PUSH1 0x0 DUP4 DUP2 MSTORE PUSH1 0x20 SWAP1 KECCAK256 PUSH2 0x1835 SWAP2 DUP2 ADD SWAP1 DUP4 ADD PUSH2 0x1451 SWAP2 SWAP1 JUMPDEST DUP1 DUP3 GT ISZERO PUSH2 0x4573 JUMPI PUSH1 0x0 DUP2 SSTORE PUSH1 0x1 ADD PUSH2 0x455F JUMP JUMPDEST POP SWAP1 JUMP INVALID MSIZE PUSH16 0x75206D757374206265206E6F6D696E61 PUSH21 0x6564206265666F726520796F752063616E20616363 PUSH6 0x7074206F776E PUSH6 0x727368697052 PUSH2 0x7465 KECCAK256 PUSH16 0x6620735553442063616E6E6F74206265 KECCAK256 PUSH22 0x7064617465642C206974277320616C7761797320554E 0x49 SLOAD 0x2E 0x4F PUSH15 0x6C7920746865206F7261636C652063 PUSH2 0x6E20 PUSH17 0x6572666F726D207468697320616374696F PUSH15 0x4F6E6C792074686520636F6E747261 PUSH4 0x74206F77 PUSH15 0x6572206D617920706572666F726D20 PUSH21 0x68697320616374696F6E536166654D6174683A206D PUSH22 0x6C7469706C69636174696F6E206F766572666C6F7743 PUSH22 0x7272656E6379206B6579206172726179206C656E6774 PUSH9 0x206D757374206D6174 PUSH4 0x68207261 PUSH21 0x6573206172726179206C656E6774682E6C6F776572 0x4C PUSH10 0x6D6974206D7573742062 PUSH6 0x2062656C6F77 KECCAK256 PUSH21 0x686520656E747279506F696E7475707065724C696D PUSH10 0x74206D75737420626520 PUSH13 0x657373207468616E20646F7562 PUSH13 0x6520656E747279506F696E7441 PUSH8 0x6772656761746F72 KECCAK256 PUSH5 0x6563696D61 PUSH13 0x732073686F756C64206265206C PUSH16 0x776572206F7220657175616C20746F20 BALANCE CODESIZE GAS PUSH6 0x726F20697320 PUSH15 0x6F7420612076616C69642072617465 0x2C KECCAK256 PUSH17 0x6C656173652063616C6C2064656C657465 MSTORE PUSH2 0x7465 KECCAK256 PUSH10 0x6E73746561642E757070 PUSH6 0x724C696D6974 KECCAK256 PUSH14 0x7573742062652061626F76652074 PUSH9 0x6520656E747279506F PUSH10 0x6E74A265627A7A723158 KECCAK256 0xAC PUSH18 0x8A22411BD100CDAAB10F3E8B4FC3CF799ACA 0xED 0x4F 0xDD 0xAA 0xF PUSH11 0x6686AA45CA5764736F6C63 NUMBER STOP SDIV LT STOP ORIGIN NUMBER PUSH22 0x7272656E6379206B6579206C656E67746820616E6420 PUSH19 0x617465206C656E677468206D757374206D6174 PUSH4 0x682E5261 PUSH21 0x65206F6620735553442063616E6E6F742062652075 PUSH17 0x64617465642C206974277320616C776179 PUSH20 0x20554E49542E536166654D6174683A206D756C74 PUSH10 0x706C69636174696F6E20 PUSH16 0x766572666C6F7743757272656E637920 PUSH12 0x6579206172726179206C656E PUSH8 0x7468206D75737420 PUSH14 0x6174636820726174657320617272 PUSH2 0x7920 PUSH13 0x656E6774682E5A65726F206973 KECCAK256 PUSH15 0x6F7420612076616C69642072617465 0x2C KECCAK256 PUSH17 0x6C656173652063616C6C2064656C657465 MSTORE PUSH2 0x7465 KECCAK256 PUSH10 0x6E73746561642E000000 "
    }
  }
}