{
  "abi": [
    {
      "inputs": [
        {
          "internalType": "address",
          "name": "_owner",
          "type": "address"
        },
        {
          "internalType": "address",
          "name": "_resolver",
          "type": "address"
        }
      ],
      "payable": false,
      "stateMutability": "nonpayable",
      "type": "constructor"
    },
    {
      "anonymous": false,
      "inputs": [
        {
          "indexed": false,
          "internalType": "address",
          "name": "flags",
          "type": "address"
        }
      ],
      "name": "AggregatorWarningFlagsUpdated",
      "type": "event"
    },
    {
      "anonymous": false,
      "inputs": [
        {
          "indexed": false,
          "internalType": "bytes32",
          "name": "synthKey",
          "type": "bytes32"
        },
        {
          "indexed": false,
          "internalType": "address",
          "name": "equivalent",
          "type": "address"
        }
      ],
      "name": "AtomicEquivalentForDexPricingUpdated",
      "type": "event"
    },
    {
      "anonymous": false,
      "inputs": [
        {
          "indexed": false,
          "internalType": "bytes32",
          "name": "synthKey",
          "type": "bytes32"
        },
        {
          "indexed": false,
          "internalType": "uint256",
          "name": "newExchangeFeeRate",
          "type": "uint256"
        }
      ],
      "name": "AtomicExchangeFeeUpdated",
      "type": "event"
    },
    {
      "anonymous": false,
      "inputs": [
        {
          "indexed": false,
          "internalType": "uint256",
          "name": "newMaxVolume",
          "type": "uint256"
        }
      ],
      "name": "AtomicMaxVolumePerBlockUpdated",
      "type": "event"
    },
    {
      "anonymous": false,
      "inputs": [
        {
          "indexed": false,
          "internalType": "bytes32",
          "name": "synthKey",
          "type": "bytes32"
        },
        {
          "indexed": false,
          "internalType": "uint256",
          "name": "newBuffer",
          "type": "uint256"
        }
      ],
      "name": "AtomicPriceBufferUpdated",
      "type": "event"
    },
    {
      "anonymous": false,
      "inputs": [
        {
          "indexed": false,
          "internalType": "uint256",
          "name": "newWindow",
          "type": "uint256"
        }
      ],
      "name": "AtomicTwapWindowUpdated",
      "type": "event"
    },
    {
      "anonymous": false,
      "inputs": [
        {
          "indexed": false,
          "internalType": "bytes32",
          "name": "synthKey",
          "type": "bytes32"
        },
        {
          "indexed": false,
          "internalType": "uint256",
          "name": "newVolatilityConsiderationWindow",
          "type": "uint256"
        }
      ],
      "name": "AtomicVolatilityConsiderationWindowUpdated",
      "type": "event"
    },
    {
      "anonymous": false,
      "inputs": [
        {
          "indexed": false,
          "internalType": "bytes32",
          "name": "synthKey",
          "type": "bytes32"
        },
        {
          "indexed": false,
          "internalType": "uint256",
          "name": "newVolatilityUpdateThreshold",
          "type": "uint256"
        }
      ],
      "name": "AtomicVolatilityUpdateThresholdUpdated",
      "type": "event"
    },
    {
      "anonymous": false,
      "inputs": [
        {
          "indexed": false,
          "internalType": "bytes32",
          "name": "name",
          "type": "bytes32"
        },
        {
          "indexed": false,
          "internalType": "address",
          "name": "destination",
          "type": "address"
        }
      ],
      "name": "CacheUpdated",
      "type": "event"
    },
    {
      "anonymous": false,
      "inputs": [
        {
          "indexed": false,
          "internalType": "enum MixinSystemSettings.CrossDomainMessageGasLimits",
          "name": "gasLimitType",
          "type": "uint8"
        },
        {
          "indexed": false,
          "internalType": "uint256",
          "name": "newLimit",
          "type": "uint256"
        }
      ],
      "name": "CrossDomainMessageGasLimitChanged",
      "type": "event"
    },
    {
      "anonymous": false,
      "inputs": [
        {
          "indexed": false,
          "internalType": "uint256",
          "name": "debtSnapshotStaleTime",
          "type": "uint256"
        }
      ],
      "name": "DebtSnapshotStaleTimeUpdated",
      "type": "event"
    },
    {
      "anonymous": false,
      "inputs": [
        {
          "indexed": false,
          "internalType": "uint256",
          "name": "rate",
          "type": "uint256"
        }
      ],
      "name": "EtherWrapperBurnFeeRateUpdated",
      "type": "event"
    },
    {
      "anonymous": false,
      "inputs": [
        {
          "indexed": false,
          "internalType": "uint256",
          "name": "maxETH",
          "type": "uint256"
        }
      ],
      "name": "EtherWrapperMaxETHUpdated",
      "type": "event"
    },
    {
      "anonymous": false,
      "inputs": [
        {
          "indexed": false,
          "internalType": "uint256",
          "name": "rate",
          "type": "uint256"
        }
      ],
      "name": "EtherWrapperMintFeeRateUpdated",
      "type": "event"
    },
    {
      "anonymous": false,
      "inputs": [
        {
          "indexed": false,
          "internalType": "bytes32",
          "name": "synthKey",
          "type": "bytes32"
        },
        {
          "indexed": false,
          "internalType": "uint256",
          "name": "newExchangeFeeRate",
          "type": "uint256"
        }
      ],
      "name": "ExchangeFeeUpdated",
      "type": "event"
    },
    {
      "anonymous": false,
      "inputs": [
        {
          "indexed": false,
          "internalType": "uint256",
          "name": "newFeePeriodDuration",
          "type": "uint256"
        }
      ],
      "name": "FeePeriodDurationUpdated",
      "type": "event"
    },
    {
      "anonymous": false,
      "inputs": [
        {
          "indexed": false,
          "internalType": "uint256",
          "name": "newRatio",
          "type": "uint256"
        }
      ],
      "name": "IssuanceRatioUpdated",
      "type": "event"
    },
    {
      "anonymous": false,
      "inputs": [
        {
          "indexed": false,
          "internalType": "uint256",
          "name": "newDelay",
          "type": "uint256"
        }
      ],
      "name": "LiquidationDelayUpdated",
      "type": "event"
    },
    {
      "anonymous": false,
      "inputs": [
        {
          "indexed": false,
          "internalType": "uint256",
          "name": "newPenalty",
          "type": "uint256"
        }
      ],
      "name": "LiquidationPenaltyUpdated",
      "type": "event"
    },
    {
      "anonymous": false,
      "inputs": [
        {
          "indexed": false,
          "internalType": "uint256",
          "name": "newRatio",
          "type": "uint256"
        }
      ],
      "name": "LiquidationRatioUpdated",
      "type": "event"
    },
    {
      "anonymous": false,
      "inputs": [
        {
          "indexed": false,
          "internalType": "uint256",
          "name": "minimumStakeTime",
          "type": "uint256"
        }
      ],
      "name": "MinimumStakeTimeUpdated",
      "type": "event"
    },
    {
      "anonymous": false,
      "inputs": [
        {
          "indexed": false,
          "internalType": "address",
          "name": "oldOwner",
          "type": "address"
        },
        {
          "indexed": false,
          "internalType": "address",
          "name": "newOwner",
          "type": "address"
        }
      ],
      "name": "OwnerChanged",
      "type": "event"
    },
    {
      "anonymous": false,
      "inputs": [
        {
          "indexed": false,
          "internalType": "address",
          "name": "newOwner",
          "type": "address"
        }
      ],
      "name": "OwnerNominated",
      "type": "event"
    },
    {
      "anonymous": false,
      "inputs": [
        {
          "indexed": false,
          "internalType": "uint256",
          "name": "threshold",
          "type": "uint256"
        }
      ],
      "name": "PriceDeviationThresholdUpdated",
      "type": "event"
    },
    {
      "anonymous": false,
      "inputs": [
        {
          "indexed": false,
          "internalType": "uint256",
          "name": "rateStalePeriod",
          "type": "uint256"
        }
      ],
      "name": "RateStalePeriodUpdated",
      "type": "event"
    },
    {
      "anonymous": false,
      "inputs": [
        {
          "indexed": false,
          "internalType": "uint256",
          "name": "newTargetThreshold",
          "type": "uint256"
        }
      ],
      "name": "TargetThresholdUpdated",
      "type": "event"
    },
    {
      "anonymous": false,
      "inputs": [
        {
          "indexed": false,
          "internalType": "bool",
          "name": "enabled",
          "type": "bool"
        }
      ],
      "name": "TradingRewardsEnabled",
      "type": "event"
    },
    {
      "anonymous": false,
      "inputs": [
        {
          "indexed": false,
          "internalType": "uint256",
          "name": "waitingPeriodSecs",
          "type": "uint256"
        }
      ],
      "name": "WaitingPeriodSecsUpdated",
      "type": "event"
    },
    {
      "constant": true,
      "inputs": [],
      "name": "MAX_ATOMIC_TWAP_WINDOW",
      "outputs": [
        {
          "internalType": "uint256",
          "name": "",
          "type": "uint256"
        }
      ],
      "payable": false,
      "stateMutability": "view",
      "type": "function"
    },
    {
      "constant": true,
      "inputs": [],
      "name": "MAX_ATOMIC_VOLATILITY_CONSIDERATION_WINDOW",
      "outputs": [
        {
          "internalType": "uint256",
          "name": "",
          "type": "uint256"
        }
      ],
      "payable": false,
      "stateMutability": "view",
      "type": "function"
    },
    {
      "constant": true,
      "inputs": [],
      "name": "MAX_ATOMIC_VOLUME_PER_BLOCK",
      "outputs": [
        {
          "internalType": "uint256",
          "name": "",
          "type": "uint256"
        }
      ],
      "payable": false,
      "stateMutability": "view",
      "type": "function"
    },
    {
      "constant": true,
      "inputs": [],
      "name": "MAX_CROSS_DOMAIN_GAS_LIMIT",
      "outputs": [
        {
          "internalType": "uint256",
          "name": "",
          "type": "uint256"
        }
      ],
      "payable": false,
      "stateMutability": "view",
      "type": "function"
    },
    {
      "constant": true,
      "inputs": [],
      "name": "MAX_ETHER_WRAPPER_BURN_FEE_RATE",
      "outputs": [
        {
          "internalType": "uint256",
          "name": "",
          "type": "uint256"
        }
      ],
      "payable": false,
      "stateMutability": "view",
      "type": "function"
    },
    {
      "constant": true,
      "inputs": [],
      "name": "MAX_ETHER_WRAPPER_MINT_FEE_RATE",
      "outputs": [
        {
          "internalType": "uint256",
          "name": "",
          "type": "uint256"
        }
      ],
      "payable": false,
      "stateMutability": "view",
      "type": "function"
    },
    {
      "constant": true,
      "inputs": [],
      "name": "MAX_EXCHANGE_FEE_RATE",
      "outputs": [
        {
          "internalType": "uint256",
          "name": "",
          "type": "uint256"
        }
      ],
      "payable": false,
      "stateMutability": "view",
      "type": "function"
    },
    {
      "constant": true,
      "inputs": [],
      "name": "MAX_FEE_PERIOD_DURATION",
      "outputs": [
        {
          "internalType": "uint256",
          "name": "",
          "type": "uint256"
        }
      ],
      "payable": false,
      "stateMutability": "view",
      "type": "function"
    },
    {
      "constant": true,
      "inputs": [],
      "name": "MAX_ISSUANCE_RATIO",
      "outputs": [
        {
          "internalType": "uint256",
          "name": "",
          "type": "uint256"
        }
      ],
      "payable": false,
      "stateMutability": "view",
      "type": "function"
    },
    {
      "constant": true,
      "inputs": [],
      "name": "MAX_LIQUIDATION_DELAY",
      "outputs": [
        {
          "internalType": "uint256",
          "name": "",
          "type": "uint256"
        }
      ],
      "payable": false,
      "stateMutability": "view",
      "type": "function"
    },
    {
      "constant": true,
      "inputs": [],
      "name": "MAX_LIQUIDATION_PENALTY",
      "outputs": [
        {
          "internalType": "uint256",
          "name": "",
          "type": "uint256"
        }
      ],
      "payable": false,
      "stateMutability": "view",
      "type": "function"
    },
    {
      "constant": true,
      "inputs": [],
      "name": "MAX_LIQUIDATION_RATIO",
      "outputs": [
        {
          "internalType": "uint256",
          "name": "",
          "type": "uint256"
        }
      ],
      "payable": false,
      "stateMutability": "view",
      "type": "function"
    },
    {
      "constant": true,
      "inputs": [],
      "name": "MAX_MINIMUM_STAKE_TIME",
      "outputs": [
        {
          "internalType": "uint256",
          "name": "",
          "type": "uint256"
        }
      ],
      "payable": false,
      "stateMutability": "view",
      "type": "function"
    },
    {
      "constant": true,
      "inputs": [],
      "name": "MAX_TARGET_THRESHOLD",
      "outputs": [
        {
          "internalType": "uint256",
          "name": "",
          "type": "uint256"
        }
      ],
      "payable": false,
      "stateMutability": "view",
      "type": "function"
    },
    {
      "constant": true,
      "inputs": [],
      "name": "MIN_ATOMIC_TWAP_WINDOW",
      "outputs": [
        {
          "internalType": "uint256",
          "name": "",
          "type": "uint256"
        }
      ],
      "payable": false,
      "stateMutability": "view",
      "type": "function"
    },
    {
      "constant": true,
      "inputs": [],
      "name": "MIN_ATOMIC_VOLATILITY_CONSIDERATION_WINDOW",
      "outputs": [
        {
          "internalType": "uint256",
          "name": "",
          "type": "uint256"
        }
      ],
      "payable": false,
      "stateMutability": "view",
      "type": "function"
    },
    {
      "constant": true,
      "inputs": [],
      "name": "MIN_CROSS_DOMAIN_GAS_LIMIT",
      "outputs": [
        {
          "internalType": "uint256",
          "name": "",
          "type": "uint256"
        }
      ],
      "payable": false,
      "stateMutability": "view",
      "type": "function"
    },
    {
      "constant": true,
      "inputs": [],
      "name": "MIN_FEE_PERIOD_DURATION",
      "outputs": [
        {
          "internalType": "uint256",
          "name": "",
          "type": "uint256"
        }
      ],
      "payable": false,
      "stateMutability": "view",
      "type": "function"
    },
    {
      "constant": true,
      "inputs": [],
      "name": "MIN_LIQUIDATION_DELAY",
      "outputs": [
        {
          "internalType": "uint256",
          "name": "",
          "type": "uint256"
        }
      ],
      "payable": false,
      "stateMutability": "view",
      "type": "function"
    },
    {
      "constant": true,
      "inputs": [],
      "name": "RATIO_FROM_TARGET_BUFFER",
      "outputs": [
        {
          "internalType": "uint256",
          "name": "",
          "type": "uint256"
        }
      ],
      "payable": false,
      "stateMutability": "view",
      "type": "function"
    },
    {
      "constant": false,
      "inputs": [],
      "name": "acceptOwnership",
      "outputs": [],
      "payable": false,
      "stateMutability": "nonpayable",
      "type": "function"
    },
    {
      "constant": true,
      "inputs": [],
      "name": "aggregatorWarningFlags",
      "outputs": [
        {
          "internalType": "address",
          "name": "",
          "type": "address"
        }
      ],
      "payable": false,
      "stateMutability": "view",
      "type": "function"
    },
    {
      "constant": true,
      "inputs": [
        {
          "internalType": "bytes32",
          "name": "currencyKey",
          "type": "bytes32"
        }
      ],
      "name": "atomicEquivalentForDexPricing",
      "outputs": [
        {
          "internalType": "address",
          "name": "",
          "type": "address"
        }
      ],
      "payable": false,
      "stateMutability": "view",
      "type": "function"
    },
    {
      "constant": true,
      "inputs": [
        {
          "internalType": "bytes32",
          "name": "currencyKey",
          "type": "bytes32"
        }
      ],
      "name": "atomicExchangeFeeRate",
      "outputs": [
        {
          "internalType": "uint256",
          "name": "",
          "type": "uint256"
        }
      ],
      "payable": false,
      "stateMutability": "view",
      "type": "function"
    },
    {
      "constant": true,
      "inputs": [],
      "name": "atomicMaxVolumePerBlock",
      "outputs": [
        {
          "internalType": "uint256",
          "name": "",
          "type": "uint256"
        }
      ],
      "payable": false,
      "stateMutability": "view",
      "type": "function"
    },
    {
      "constant": true,
      "inputs": [
        {
          "internalType": "bytes32",
          "name": "currencyKey",
          "type": "bytes32"
        }
      ],
      "name": "atomicPriceBuffer",
      "outputs": [
        {
          "internalType": "uint256",
          "name": "",
          "type": "uint256"
        }
      ],
      "payable": false,
      "stateMutability": "view",
      "type": "function"
    },
    {
      "constant": true,
      "inputs": [],
      "name": "atomicTwapWindow",
      "outputs": [
        {
          "internalType": "uint256",
          "name": "",
          "type": "uint256"
        }
      ],
      "payable": false,
      "stateMutability": "view",
      "type": "function"
    },
    {
      "constant": true,
      "inputs": [
        {
          "internalType": "bytes32",
          "name": "currencyKey",
          "type": "bytes32"
        }
      ],
      "name": "atomicVolatilityConsiderationWindow",
      "outputs": [
        {
          "internalType": "uint256",
          "name": "",
          "type": "uint256"
        }
      ],
      "payable": false,
      "stateMutability": "view",
      "type": "function"
    },
    {
      "constant": true,
      "inputs": [
        {
          "internalType": "bytes32",
          "name": "currencyKey",
          "type": "bytes32"
        }
      ],
      "name": "atomicVolatilityUpdateThreshold",
      "outputs": [
        {
          "internalType": "uint256",
          "name": "",
          "type": "uint256"
        }
      ],
      "payable": false,
      "stateMutability": "view",
      "type": "function"
    },
    {
      "constant": true,
      "inputs": [
        {
          "internalType": "enum MixinSystemSettings.CrossDomainMessageGasLimits",
          "name": "gasLimitType",
          "type": "uint8"
        }
      ],
      "name": "crossDomainMessageGasLimit",
      "outputs": [
        {
          "internalType": "uint256",
          "name": "",
          "type": "uint256"
        }
      ],
      "payable": false,
      "stateMutability": "view",
      "type": "function"
    },
    {
      "constant": true,
      "inputs": [],
      "name": "debtSnapshotStaleTime",
      "outputs": [
        {
          "internalType": "uint256",
          "name": "",
          "type": "uint256"
        }
      ],
      "payable": false,
      "stateMutability": "view",
      "type": "function"
    },
    {
      "constant": true,
      "inputs": [],
      "name": "etherWrapperBurnFeeRate",
      "outputs": [
        {
          "internalType": "uint256",
          "name": "",
          "type": "uint256"
        }
      ],
      "payable": false,
      "stateMutability": "view",
      "type": "function"
    },
    {
      "constant": true,
      "inputs": [],
      "name": "etherWrapperMaxETH",
      "outputs": [
        {
          "internalType": "uint256",
          "name": "",
          "type": "uint256"
        }
      ],
      "payable": false,
      "stateMutability": "view",
      "type": "function"
    },
    {
      "constant": true,
      "inputs": [],
      "name": "etherWrapperMintFeeRate",
      "outputs": [
        {
          "internalType": "uint256",
          "name": "",
          "type": "uint256"
        }
      ],
      "payable": false,
      "stateMutability": "view",
      "type": "function"
    },
    {
      "constant": true,
      "inputs": [
        {
          "internalType": "bytes32",
          "name": "currencyKey",
          "type": "bytes32"
        }
      ],
      "name": "exchangeFeeRate",
      "outputs": [
        {
          "internalType": "uint256",
          "name": "",
          "type": "uint256"
        }
      ],
      "payable": false,
      "stateMutability": "view",
      "type": "function"
    },
    {
      "constant": true,
      "inputs": [],
      "name": "feePeriodDuration",
      "outputs": [
        {
          "internalType": "uint256",
          "name": "",
          "type": "uint256"
        }
      ],
      "payable": false,
      "stateMutability": "view",
      "type": "function"
    },
    {
      "constant": true,
      "inputs": [],
      "name": "isResolverCached",
      "outputs": [
        {
          "internalType": "bool",
          "name": "",
          "type": "bool"
        }
      ],
      "payable": false,
      "stateMutability": "view",
      "type": "function"
    },
    {
      "constant": true,
      "inputs": [],
      "name": "issuanceRatio",
      "outputs": [
        {
          "internalType": "uint256",
          "name": "",
          "type": "uint256"
        }
      ],
      "payable": false,
      "stateMutability": "view",
      "type": "function"
    },
    {
      "constant": true,
      "inputs": [],
      "name": "liquidationDelay",
      "outputs": [
        {
          "internalType": "uint256",
          "name": "",
          "type": "uint256"
        }
      ],
      "payable": false,
      "stateMutability": "view",
      "type": "function"
    },
    {
      "constant": true,
      "inputs": [],
      "name": "liquidationPenalty",
      "outputs": [
        {
          "internalType": "uint256",
          "name": "",
          "type": "uint256"
        }
      ],
      "payable": false,
      "stateMutability": "view",
      "type": "function"
    },
    {
      "constant": true,
      "inputs": [],
      "name": "liquidationRatio",
      "outputs": [
        {
          "internalType": "uint256",
          "name": "",
          "type": "uint256"
        }
      ],
      "payable": false,
      "stateMutability": "view",
      "type": "function"
    },
    {
      "constant": true,
      "inputs": [],
      "name": "minimumStakeTime",
      "outputs": [
        {
          "internalType": "uint256",
          "name": "",
          "type": "uint256"
        }
      ],
      "payable": false,
      "stateMutability": "view",
      "type": "function"
    },
    {
      "constant": false,
      "inputs": [
        {
          "internalType": "address",
          "name": "_owner",
          "type": "address"
        }
      ],
      "name": "nominateNewOwner",
      "outputs": [],
      "payable": false,
      "stateMutability": "nonpayable",
      "type": "function"
    },
    {
      "constant": true,
      "inputs": [],
      "name": "nominatedOwner",
      "outputs": [
        {
          "internalType": "address",
          "name": "",
          "type": "address"
        }
      ],
      "payable": false,
      "stateMutability": "view",
      "type": "function"
    },
    {
      "constant": true,
      "inputs": [],
      "name": "owner",
      "outputs": [
        {
          "internalType": "address",
          "name": "",
          "type": "address"
        }
      ],
      "payable": false,
      "stateMutability": "view",
      "type": "function"
    },
    {
      "constant": true,
      "inputs": [],
      "name": "priceDeviationThresholdFactor",
      "outputs": [
        {
          "internalType": "uint256",
          "name": "",
          "type": "uint256"
        }
      ],
      "payable": false,
      "stateMutability": "view",
      "type": "function"
    },
    {
      "constant": true,
      "inputs": [],
      "name": "rateStalePeriod",
      "outputs": [
        {
          "internalType": "uint256",
          "name": "",
          "type": "uint256"
        }
      ],
      "payable": false,
      "stateMutability": "view",
      "type": "function"
    },
    {
      "constant": false,
      "inputs": [],
      "name": "rebuildCache",
      "outputs": [],
      "payable": false,
      "stateMutability": "nonpayable",
      "type": "function"
    },
    {
      "constant": true,
      "inputs": [],
      "name": "resolver",
      "outputs": [
        {
          "internalType": "contract AddressResolver",
          "name": "",
          "type": "address"
        }
      ],
      "payable": false,
      "stateMutability": "view",
      "type": "function"
    },
    {
      "constant": true,
      "inputs": [],
      "name": "resolverAddressesRequired",
      "outputs": [
        {
          "internalType": "bytes32[]",
          "name": "addresses",
          "type": "bytes32[]"
        }
      ],
      "payable": false,
      "stateMutability": "view",
      "type": "function"
    },
    {
      "constant": false,
      "inputs": [
        {
          "internalType": "address",
          "name": "_flags",
          "type": "address"
        }
      ],
      "name": "setAggregatorWarningFlags",
      "outputs": [],
      "payable": false,
      "stateMutability": "nonpayable",
      "type": "function"
    },
    {
      "constant": false,
      "inputs": [
        {
          "internalType": "bytes32",
          "name": "_currencyKey",
          "type": "bytes32"
        },
        {
          "internalType": "address",
          "name": "_equivalent",
          "type": "address"
        }
      ],
      "name": "setAtomicEquivalentForDexPricing",
      "outputs": [],
      "payable": false,
      "stateMutability": "nonpayable",
      "type": "function"
    },
    {
      "constant": false,
      "inputs": [
        {
          "internalType": "bytes32",
          "name": "_currencyKey",
          "type": "bytes32"
        },
        {
          "internalType": "uint256",
          "name": "_exchangeFeeRate",
          "type": "uint256"
        }
      ],
      "name": "setAtomicExchangeFeeRate",
      "outputs": [],
      "payable": false,
      "stateMutability": "nonpayable",
      "type": "function"
    },
    {
      "constant": false,
      "inputs": [
        {
          "internalType": "uint256",
          "name": "_maxVolume",
          "type": "uint256"
        }
      ],
      "name": "setAtomicMaxVolumePerBlock",
      "outputs": [],
      "payable": false,
      "stateMutability": "nonpayable",
      "type": "function"
    },
    {
      "constant": false,
      "inputs": [
        {
          "internalType": "bytes32",
          "name": "_currencyKey",
          "type": "bytes32"
        },
        {
          "internalType": "uint256",
          "name": "_buffer",
          "type": "uint256"
        }
      ],
      "name": "setAtomicPriceBuffer",
      "outputs": [],
      "payable": false,
      "stateMutability": "nonpayable",
      "type": "function"
    },
    {
      "constant": false,
      "inputs": [
        {
          "internalType": "uint256",
          "name": "_window",
          "type": "uint256"
        }
      ],
      "name": "setAtomicTwapWindow",
      "outputs": [],
      "payable": false,
      "stateMutability": "nonpayable",
      "type": "function"
    },
    {
      "constant": false,
      "inputs": [
        {
          "internalType": "bytes32",
          "name": "_currencyKey",
          "type": "bytes32"
        },
        {
          "internalType": "uint256",
          "name": "_window",
          "type": "uint256"
        }
      ],
      "name": "setAtomicVolatilityConsiderationWindow",
      "outputs": [],
      "payable": false,
      "stateMutability": "nonpayable",
      "type": "function"
    },
    {
      "constant": false,
      "inputs": [
        {
          "internalType": "bytes32",
          "name": "_currencyKey",
          "type": "bytes32"
        },
        {
          "internalType": "uint256",
          "name": "_threshold",
          "type": "uint256"
        }
      ],
      "name": "setAtomicVolatilityUpdateThreshold",
      "outputs": [],
      "payable": false,
      "stateMutability": "nonpayable",
      "type": "function"
    },
    {
      "constant": false,
      "inputs": [
        {
          "internalType": "enum MixinSystemSettings.CrossDomainMessageGasLimits",
          "name": "_gasLimitType",
          "type": "uint8"
        },
        {
          "internalType": "uint256",
          "name": "_crossDomainMessageGasLimit",
          "type": "uint256"
        }
      ],
      "name": "setCrossDomainMessageGasLimit",
      "outputs": [],
      "payable": false,
      "stateMutability": "nonpayable",
      "type": "function"
    },
    {
      "constant": false,
      "inputs": [
        {
          "internalType": "uint256",
          "name": "_seconds",
          "type": "uint256"
        }
      ],
      "name": "setDebtSnapshotStaleTime",
      "outputs": [],
      "payable": false,
      "stateMutability": "nonpayable",
      "type": "function"
    },
    {
      "constant": false,
      "inputs": [
        {
          "internalType": "uint256",
          "name": "_rate",
          "type": "uint256"
        }
      ],
      "name": "setEtherWrapperBurnFeeRate",
      "outputs": [],
      "payable": false,
      "stateMutability": "nonpayable",
      "type": "function"
    },
    {
      "constant": false,
      "inputs": [
        {
          "internalType": "uint256",
          "name": "_maxETH",
          "type": "uint256"
        }
      ],
      "name": "setEtherWrapperMaxETH",
      "outputs": [],
      "payable": false,
      "stateMutability": "nonpayable",
      "type": "function"
    },
    {
      "constant": false,
      "inputs": [
        {
          "internalType": "uint256",
          "name": "_rate",
          "type": "uint256"
        }
      ],
      "name": "setEtherWrapperMintFeeRate",
      "outputs": [],
      "payable": false,
      "stateMutability": "nonpayable",
      "type": "function"
    },
    {
      "constant": false,
      "inputs": [
        {
          "internalType": "bytes32[]",
          "name": "synthKeys",
          "type": "bytes32[]"
        },
        {
          "internalType": "uint256[]",
          "name": "exchangeFeeRates",
          "type": "uint256[]"
        }
      ],
      "name": "setExchangeFeeRateForSynths",
      "outputs": [],
      "payable": false,
      "stateMutability": "nonpayable",
      "type": "function"
    },
    {
      "constant": false,
      "inputs": [
        {
          "internalType": "uint256",
          "name": "_feePeriodDuration",
          "type": "uint256"
        }
      ],
      "name": "setFeePeriodDuration",
      "outputs": [],
      "payable": false,
      "stateMutability": "nonpayable",
      "type": "function"
    },
    {
      "constant": false,
      "inputs": [
        {
          "internalType": "uint256",
          "name": "_issuanceRatio",
          "type": "uint256"
        }
      ],
      "name": "setIssuanceRatio",
      "outputs": [],
      "payable": false,
      "stateMutability": "nonpayable",
      "type": "function"
    },
    {
      "constant": false,
      "inputs": [
        {
          "internalType": "uint256",
          "name": "time",
          "type": "uint256"
        }
      ],
      "name": "setLiquidationDelay",
      "outputs": [],
      "payable": false,
      "stateMutability": "nonpayable",
      "type": "function"
    },
    {
      "constant": false,
      "inputs": [
        {
          "internalType": "uint256",
          "name": "penalty",
          "type": "uint256"
        }
      ],
      "name": "setLiquidationPenalty",
      "outputs": [],
      "payable": false,
      "stateMutability": "nonpayable",
      "type": "function"
    },
    {
      "constant": false,
      "inputs": [
        {
          "internalType": "uint256",
          "name": "_liquidationRatio",
          "type": "uint256"
        }
      ],
      "name": "setLiquidationRatio",
      "outputs": [],
      "payable": false,
      "stateMutability": "nonpayable",
      "type": "function"
    },
    {
      "constant": false,
      "inputs": [
        {
          "internalType": "uint256",
          "name": "_seconds",
          "type": "uint256"
        }
      ],
      "name": "setMinimumStakeTime",
      "outputs": [],
      "payable": false,
      "stateMutability": "nonpayable",
      "type": "function"
    },
    {
      "constant": false,
      "inputs": [
        {
          "internalType": "uint256",
          "name": "_priceDeviationThresholdFactor",
          "type": "uint256"
        }
      ],
      "name": "setPriceDeviationThresholdFactor",
      "outputs": [],
      "payable": false,
      "stateMutability": "nonpayable",
      "type": "function"
    },
    {
      "constant": false,
      "inputs": [
        {
          "internalType": "uint256",
          "name": "period",
          "type": "uint256"
        }
      ],
      "name": "setRateStalePeriod",
      "outputs": [],
      "payable": false,
      "stateMutability": "nonpayable",
      "type": "function"
    },
    {
      "constant": false,
      "inputs": [
        {
          "internalType": "uint256",
          "name": "_percent",
          "type": "uint256"
        }
      ],
      "name": "setTargetThreshold",
      "outputs": [],
      "payable": false,
      "stateMutability": "nonpayable",
      "type": "function"
    },
    {
      "constant": false,
      "inputs": [
        {
          "internalType": "bool",
          "name": "_tradingRewardsEnabled",
          "type": "bool"
        }
      ],
      "name": "setTradingRewardsEnabled",
      "outputs": [],
      "payable": false,
      "stateMutability": "nonpayable",
      "type": "function"
    },
    {
      "constant": false,
      "inputs": [
        {
          "internalType": "uint256",
          "name": "_waitingPeriodSecs",
          "type": "uint256"
        }
      ],
      "name": "setWaitingPeriodSecs",
      "outputs": [],
      "payable": false,
      "stateMutability": "nonpayable",
      "type": "function"
    },
    {
      "constant": true,
      "inputs": [],
      "name": "targetThreshold",
      "outputs": [
        {
          "internalType": "uint256",
          "name": "",
          "type": "uint256"
        }
      ],
      "payable": false,
      "stateMutability": "view",
      "type": "function"
    },
    {
      "constant": true,
      "inputs": [],
      "name": "tradingRewardsEnabled",
      "outputs": [
        {
          "internalType": "bool",
          "name": "",
          "type": "bool"
        }
      ],
      "payable": false,
      "stateMutability": "view",
      "type": "function"
    },
    {
      "constant": true,
      "inputs": [],
      "name": "waitingPeriodSecs",
      "outputs": [
        {
          "internalType": "uint256",
          "name": "",
          "type": "uint256"
        }
      ],
      "payable": false,
      "stateMutability": "view",
      "type": "function"
    }
  ],
  "evm": {
    "bytecode": {
      "linkReferences": {
        "SystemSettings.sol": {
          "SafeDecimalMath": [
            {
              "length": 20,
              "start": 6175
            },
            {
              "length": 20,
              "start": 10147
            }
          ]
        }
      },
      "object": "60806040523480156200001157600080fd5b506040516200450038038062004500833981810160405260408110156200003757600080fd5b5080516020909101518080836001600160a01b0381166200009f576040805162461bcd60e51b815260206004820152601960248201527f4f776e657220616464726573732063616e6e6f74206265203000000000000000604482015290519081900360640190fd5b600080546001600160a01b0319166001600160a01b038316908117825560408051928352602083019190915280517fb532073b38c83145e3e5135377a08bf9aab55bc0fd7c1179cd4fb995d2a5159c9281900390910190a150600280546001600160a01b039092166001600160a01b03199092169190911790555050506143d4806200012c6000396000f3fe608060405234801561001057600080fd5b506004361061046a5760003560e01c80637d708a461161024c578063b2ea705411610146578063dc8f4a1b116100c3578063f081da8511610087578063f081da8514610a84578063f1076b2514610aa7578063f216310714610aaf578063f344da6714610acc578063fb1b4c7e14610ad45761046a565b8063dc8f4a1b14610a14578063e0e6393d14610a3a578063e7894da114610a42578063e78e6bb914610a5f578063e942204614610a675761046a565b8063c52f35fe1161010a578063c52f35fe146109c3578063c58c9ae4146109ef578063cc754a4c146109f7578063d62ae39914610941578063dafd2daf146107705761046a565b8063b2ea705414610770578063b410a0341461098e578063b7ab13f214610996578063bcf7eeac146109b3578063c193f0d8146109bb5761046a565b806398be8e3f116101d4578063a777155611610198578063a777155614610961578063aad2373914610941578063add0989d14610941578063af5355d81461097e578063af8bc660146109865761046a565b806398be8e3f146109415780639f91787d146108e2578063a0cf745114610949578063a4bca13114610951578063a4ce5b71146109595761046a565b8063922fef081161021b578063922fef08146108da57806394286a1e146108e2578063946ce8cd146108ea578063967706e91461090757806397a4aca0146109245761046a565b80637d708a46146108555780638925711714610872578063899ffef41461087a5780638da5cb5b146108d25761046a565b80632cce0e5411610368578063635a3872116102e5578063767da3dc116102a9578063767da3dc146107df57806379ba50971461080257806379cb657a1461080a5780637bf82305146108275780637ce2cc7f1461084d5761046a565b8063635a387214610795578063657c6dc7146107705780636a2b9151146107b257806374185360146107ba57806375aca321146107c25761046a565b8063580a975c1161032c578063580a975c1461072e5780635d14928f146107365780635e0117d6146107535780636022aac5146107705780636190dd7a146107785761046a565b80632cce0e54146106da578063372a395a146106f75780634641ab66146106ff5780634c36b8371461071e57806353a47bb7146107265761046a565b80631627540c116103f6578063242df9e1116103ba578063242df9e1146105ba57806325539dd2146105c25780632806a743146105df57806328a1170d146105fc5780632af64bd3146106be5761046a565b80631627540c1461055f5780631775765f146105855780631e6e21901461058d57806322425fa4146105aa57806323f5589a146105b25761046a565b8063085f95cd1161043d578063085f95cd146105015780630ee4951b146105095780630f27b78814610511578063105570201461051957806313d825b21461053c5761046a565b8063038e47fe1461046f57806304c49f2c146104a157806304f3bcec146104c0578063054be0b7146104e4575b600080fd5b61048f6004803603602081101561048557600080fd5b503560ff16610adc565b60408051918252519081900360200190f35b6104be600480360360208110156104b757600080fd5b5035610aef565b005b6104c8610c75565b604080516001600160a01b039092168252519081900360200190f35b6104be600480360360208110156104fa57600080fd5b5035610c84565b61048f610d9d565b61048f610da9565b61048f610db9565b6104be6004803603604081101561052f57600080fd5b5080359060200135610dc3565b6104be6004803603604081101561055257600080fd5b5080359060200135610f63565b6104be6004803603602081101561057557600080fd5b50356001600160a01b03166110d0565b61048f61112c565b6104be600480360360208110156105a357600080fd5b5035611136565b61048f611218565b61048f611222565b61048f61122c565b61048f600480360360208110156105d857600080fd5b5035611236565b6104be600480360360208110156105f557600080fd5b5035611241565b6104be6004803603604081101561061257600080fd5b81019060208101813564010000000081111561062d57600080fd5b82018360208201111561063f57600080fd5b8035906020019184602083028401116401000000008311171561066157600080fd5b91939092909160208101903564010000000081111561067f57600080fd5b82018360208201111561069157600080fd5b803590602001918460208302840111640100000000831117156106b357600080fd5b50909250905061135f565b6106c661158a565b604080519115158252519081900360200190f35b6104be600480360360208110156106f057600080fd5b5035611694565b61048f611849565b6104be6004803603602081101561071557600080fd5b50351515611853565b6104c8611932565b6104c861193c565b61048f61194b565b6104be6004803603602081101561074c57600080fd5b5035611952565b6104be6004803603602081101561076957600080fd5b5035611a74565b61048f611bf9565b6104be6004803603602081101561078e57600080fd5b5035611c05565b6104be600480360360208110156107ab57600080fd5b5035611cdf565b61048f611db5565b6104be611dbf565b6104be600480360360208110156107d857600080fd5b5035611f87565b6104be600480360360408110156107f557600080fd5b50803590602001356120aa565b6104be6121b6565b6104be6004803603602081101561082057600080fd5b5035612272565b6104be6004803603602081101561083d57600080fd5b50356001600160a01b0316612346565b61048f612488565b6104be6004803603602081101561086b57600080fd5b503561248f565b61048f6125e6565b6108826125f0565b60408051602080825283518183015283519192839290830191858101910280838360005b838110156108be5781810151838201526020016108a6565b505050509050019250505060405180910390f35b6104c8612641565b61048f612650565b61048f61265a565b6104be6004803603602081101561090057600080fd5b503561265f565b61048f6004803603602081101561091d57600080fd5b5035612875565b61048f6004803603602081101561093a57600080fd5b5035612880565b61048f61288b565b61048f612892565b61048f61289c565b61048f6128a6565b61048f6004803603602081101561097757600080fd5b50356128b2565b61048f6128bd565b61048f6128c7565b61048f6128cc565b61048f600480360360208110156109ac57600080fd5b50356128d6565b61048f6128e1565b6106c66128eb565b6104be600480360360408110156109d957600080fd5b50803590602001356001600160a01b03166128f5565b61048f612a11565b6104be60048036036020811015610a0d57600080fd5b5035612a18565b6104be60048036036040811015610a2a57600080fd5b5060ff8135169060200135612aef565b61048f612c3a565b6104be60048036036020811015610a5857600080fd5b5035612c44565b61048f612d67565b6104be60048036036020811015610a7d57600080fd5b5035612d72565b6104be60048036036040811015610a9a57600080fd5b5080359060200135612e9f565b61048f612fb2565b6104c860048036036020811015610ac557600080fd5b5035612fb9565b61048f612fc4565b61048f612fcb565b6000610ae782612fd7565b90505b919050565b610af7613074565b62015180811015610b4f576040805162461bcd60e51b815260206004820152601f60248201527f76616c7565203c204d494e5f4645455f504552494f445f4455524154494f4e00604482015290519081900360640190fd5b624f1a00811115610ba7576040805162461bcd60e51b815260206004820152601f60248201527f76616c7565203e204d41585f4645455f504552494f445f4455524154494f4e00604482015290519081900360640190fd5b610baf6130bf565b6001600160a01b0316631d5b277f6000805160206142c3833981519152703332b2a832b934b7b2223ab930ba34b7b760791b846040518463ffffffff1660e01b8152600401808481526020018381526020018281526020019350505050600060405180830381600087803b158015610c2657600080fd5b505af1158015610c3a573d6000803e3d6000fd5b50506040805184815290517f791bd58dd9719b5eb5ccdd6ec4d5c459b0ab8efcf59b723cf477693c0889eacd9350908190036020019150a150565b6002546001600160a01b031681565b610c8c613074565b670de0b6b3a7640000811115610cd35760405162461bcd60e51b81526004018080602001828103825260338152602001806142e36033913960400191505060405180910390fd5b610cdb6130bf565b6001600160a01b0316631d5b277f6000805160206142c38339815191526c69737375616e6365526174696f60981b846040518463ffffffff1660e01b8152600401808481526020018381526020018281526020019350505050600060405180830381600087803b158015610d4e57600080fd5b505af1158015610d62573d6000803e3d6000fd5b50506040805184815290517f63b22e09cc3a33e847c063e35f887bd4ea96bc8c0f93f1f8c311e4fa6d8854529350908190036020019150a150565b6703782dace9d9000081565b6000610db36130dc565b90505b90565b6000610db3613182565b610dcb613074565b8015610e5357603c811015610e115760405162461bcd60e51b815260040180806020018281038252603a81526020018061423d603a913960400191505060405180910390fd5b62015180811115610e535760405162461bcd60e51b815260040180806020018281038252603b815260200180614365603b913960400191505060405180910390fd5b610e5b6130bf565b6001600160a01b0316631d5b277f6000805160206142c38339815191527f61746f6d6963566f6c436f6e73696465726174696f6e57696e646f770000000085604051602001808381526020018281526020019250505060405160208183030381529060405280519060200120846040518463ffffffff1660e01b8152600401808481526020018381526020018281526020019350505050600060405180830381600087803b158015610f0c57600080fd5b505af1158015610f20573d6000803e3d6000fd5b5050604080518581526020810185905281517f98698e41d9ebb66410ec490ae1224f1b8d1766696d7217fa96e067de3ef5332a9450908190039091019150a15050565b610f6b613074565b67016345785d8a0000811115610fc8576040805162461bcd60e51b815260206004820152601e60248201527f4d41585f45584348414e47455f4645455f524154452065786365656465640000604482015290519081900360640190fd5b610fd06130bf565b6001600160a01b0316631d5b277f6000805160206142c38339815191527461746f6d696345786368616e67654665655261746560581b85604051602001808381526020018281526020019250505060405160208183030381529060405280519060200120846040518463ffffffff1660e01b8152600401808481526020018381526020018281526020019350505050600060405180830381600087803b15801561107957600080fd5b505af115801561108d573d6000803e3d6000fd5b5050604080518581526020810185905281517f84023d924a8ccb4a028f052967ed7e1e642279c24150e018962f0779021fce4c9450908190039091019150a15050565b6110d8613074565b600180546001600160a01b0383166001600160a01b0319909116811790915560408051918252517f906a1c6bd7e3091ea86693dd029a831c19049ce77f1dce2ce0bab1cacbabce229181900360200190a150565b6000610db36131ff565b61113e613074565b6111466130bf565b6001600160a01b0316631d5b277f6000805160206142c38339815191527f7072696365446576696174696f6e5468726573686f6c64466163746f72000000846040518463ffffffff1660e01b8152600401808481526020018381526020018281526020019350505050600060405180830381600087803b1580156111c957600080fd5b505af11580156111dd573d6000803e3d6000fd5b50506040805184815290517f6e65c7d32a9129ebc4e4e6d755e2a9668753c046f4b128ac8aeb4f3e5446a1e59350908190036020019150a150565b6000610db3613275565b6000610db36132ec565b6000610db3613364565b6000610ae7826133da565b611249613074565b6703782dace9d900008111156112905760405162461bcd60e51b81526004018080602001828103825260218152602001806141116021913960400191505060405180910390fd5b6112986130bf565b6001600160a01b0316631d5b277f6000805160206142c3833981519152716c69717569646174696f6e50656e616c747960701b846040518463ffffffff1660e01b8152600401808481526020018381526020018281526020019350505050600060405180830381600087803b15801561131057600080fd5b505af1158015611324573d6000803e3d6000fd5b50506040805184815290517fbfb22c07314f4682bba789860ceb851eb8cea2d867920332b2a42cf56be5b2e99350908190036020019150a150565b611367613074565b8281146113bb576040805162461bcd60e51b815260206004820152601860248201527f4172726179206c656e6774687320646f6e74206d617463680000000000000000604482015290519081900360640190fd5b60005b838110156115835767016345785d8a00008383838181106113db57fe5b905060200201351115611435576040805162461bcd60e51b815260206004820152601e60248201527f4d41585f45584348414e47455f4645455f524154452065786365656465640000604482015290519081900360640190fd5b61143d6130bf565b6001600160a01b0316631d5b277f6000805160206142c38339815191526e65786368616e67654665655261746560881b88888681811061147957fe5b905060200201356040516020018083815260200182815260200192505050604051602081830303815290604052805190602001208686868181106114b957fe5b905060200201356040518463ffffffff1660e01b8152600401808481526020018381526020018281526020019350505050600060405180830381600087803b15801561150457600080fd5b505af1158015611518573d6000803e3d6000fd5b505050507fbbdab54f0da6d720d21f53e4d6f5bbe83e5a2f74c1354175140ea74f8e90c77e85858381811061154957fe5b9050602002013584848481811061155c57fe5b604080519485526020918202939093013590840152508051918290030190a16001016113be565b5050505050565b600060606115966125f0565b905060005b815181101561168b5760008282815181106115b257fe5b6020908102919091018101516000818152600383526040908190205460025482516321f8a72160e01b81526004810185905292519395506001600160a01b03918216949116926321f8a721926024808201939291829003018186803b15801561161a57600080fd5b505afa15801561162e573d6000803e3d6000fd5b505050506040513d602081101561164457600080fd5b50516001600160a01b031614158061167157506000818152600360205260409020546001600160a01b0316155b156116825760009350505050610db6565b5060010161159b565b50600191505090565b61169c613074565b60328111156116e7576040805162461bcd60e51b81526020600482015260126024820152710a8d0e4cae6d0ded8c840e8dede40d0d2ced60731b604482015290519081900360640190fd5b600061177a606461176e73__$097ed3f4c0ba5795cc943bc8e15177373c$__63907af6c06040518163ffffffff1660e01b815260040160206040518083038186803b15801561173557600080fd5b505af4158015611749573d6000803e3d6000fd5b505050506040513d602081101561175f57600080fd5b5051859063ffffffff61348316565b9063ffffffff6134e516565b90506117846130bf565b6001600160a01b0316631d5b277f6000805160206142c38339815191526e1d185c99d95d151a1c995cda1bdb19608a1b846040518463ffffffff1660e01b8152600401808481526020018381526020018281526020019350505050600060405180830381600087803b1580156117f957600080fd5b505af115801561180d573d6000803e3d6000fd5b50506040805184815290517fb2b3a840c101d8e7f0cf8d80d3868976968714347038fe89b36c5031f94dab129350908190036020019150a15050565b6000610db361354f565b61185b613074565b6118636130bf565b60408051630fca29bf60e21b81526000805160206142c38339815191526004820152741d1c98591a5b99d4995dd85c991cd15b98589b1959605a1b6024820152831515604482015290516001600160a01b039290921691633f28a6fc9160648082019260009290919082900301818387803b1580156118e157600080fd5b505af11580156118f5573d6000803e3d6000fd5b505060408051841515815290517fe11c1893b6f97decd3ac13637137734a4b75d159e899e5a8abb48470ab0bc4fd9350908190036020019150a150565b6000610db36135d2565b6001546001600160a01b031681565b62093a8081565b61195a613074565b6001600160c01b038111156119a05760405162461bcd60e51b815260040180806020018281038252602881526020018061419f6028913960400191505060405180910390fd5b6119a86130bf565b6001600160a01b0316631d5b277f6000805160206142c38339815191527661746f6d69634d6178566f6c756d65506572426c6f636b60481b846040518463ffffffff1660e01b8152600401808481526020018381526020018281526020019350505050600060405180830381600087803b158015611a2557600080fd5b505af1158015611a39573d6000803e3d6000fd5b50506040805184815290517ff96e059cb3386bb65fd1d80017c7ce524f813b012d7dc97a1252f9cd4f4c99f39350908190036020019150a150565b611a7c613074565b62278d00811115611ad4576040805162461bcd60e51b815260206004820152601960248201527f4d757374206265206c657373207468616e203330206461797300000000000000604482015290519081900360640190fd5b62015180811015611b2c576040805162461bcd60e51b815260206004820152601a60248201527f4d7573742062652067726561746572207468616e203120646179000000000000604482015290519081900360640190fd5b611b346130bf565b6001600160a01b0316631d5b277f6000805160206142c38339815191526f6c69717569646174696f6e44656c617960801b846040518463ffffffff1660e01b8152600401808481526020018381526020018281526020019350505050600060405180830381600087803b158015611baa57600080fd5b505af1158015611bbe573d6000803e3d6000fd5b50506040805184815290517f9917e32433edcb65f8982c1b2c26c3469468308456f93cf34b98c1b0459c53989350908190036020019150a150565b670de0b6b3a764000081565b611c0d613074565b611c156130bf565b6001600160a01b0316631d5b277f6000805160206142c38339815191527464656274536e617073686f745374616c6554696d6560581b846040518463ffffffff1660e01b8152600401808481526020018381526020018281526020019350505050600060405180830381600087803b158015611c9057600080fd5b505af1158015611ca4573d6000803e3d6000fd5b50506040805184815290517f9795be9f1478ed09e9e47e67318b8aa7a0c0213170403191099bf7dd435fb4d79350908190036020019150a150565b611ce7613074565b611cef6130bf565b6001600160a01b0316631d5b277f6000805160206142c38339815191527077616974696e67506572696f645365637360781b846040518463ffffffff1660e01b8152600401808481526020018381526020018281526020019350505050600060405180830381600087803b158015611d6657600080fd5b505af1158015611d7a573d6000803e3d6000fd5b50506040805184815290517fc32c92cac11e29883e0fb2d9e38230cc510e3bda48abc270b780de60bb8465f89350908190036020019150a150565b6000610db361364e565b6060611dc96125f0565b905060005b8151811015611f83576000828281518110611de557fe5b602090810291909101810151600254604080517f5265736f6c766572206d697373696e67207461726765743a2000000000000000818601526039808201859052825180830390910181526059820180845263dacb2d0160e01b9052605d8201858152607d83019384528151609d84015281519597506000966001600160a01b039095169563dacb2d01958995939492939260bd0191908501908083838c5b83811015611e9b578181015183820152602001611e83565b50505050905090810190601f168015611ec85780820380516001836020036101000a031916815260200191505b50935050505060206040518083038186803b158015611ee657600080fd5b505afa158015611efa573d6000803e3d6000fd5b505050506040513d6020811015611f1057600080fd5b505160008381526003602090815260409182902080546001600160a01b0319166001600160a01b03851690811790915582518681529182015281519293507f88a93678a3692f6789d9546fc621bf7234b101ddb7d4fe479455112831b8aa68929081900390910190a15050600101611dce565b5050565b611f8f613074565b670de0b6b3a7640000811115611fd65760405162461bcd60e51b81526004018080602001828103825260268152602001806141f66026913960400191505060405180910390fd5b611fde6130bf565b6001600160a01b0316631d5b277f6000805160206142c3833981519152766574686572577261707065724d696e744665655261746560481b846040518463ffffffff1660e01b8152600401808481526020018381526020018281526020019350505050600060405180830381600087803b15801561205b57600080fd5b505af115801561206f573d6000803e3d6000fd5b50506040805184815290517f19ef86e0422ac5c02afdc7b9f91f468ccc5e9b785bf7c158e01357e8503a819b9350908190036020019150a150565b6120b2613074565b6120ba6130bf565b6001600160a01b0316631d5b277f6000805160206142c38339815191527030ba37b6b4b1a83934b1b2a13ab33332b960791b85604051602001808381526020018281526020019250505060405160208183030381529060405280519060200120846040518463ffffffff1660e01b8152600401808481526020018381526020018281526020019350505050600060405180830381600087803b15801561215f57600080fd5b505af1158015612173573d6000803e3d6000fd5b5050604080518581526020810185905281517f222824a1a314ba34555e60e4757e25a2d17b32d89f53bcfcac36a996e99c29d29450908190039091019150a15050565b6001546001600160a01b031633146121ff5760405162461bcd60e51b81526004018080602001828103825260358152602001806141326035913960400191505060405180910390fd5b600054600154604080516001600160a01b03938416815292909116602083015280517fb532073b38c83145e3e5135377a08bf9aab55bc0fd7c1179cd4fb995d2a5159c9281900390910190a160018054600080546001600160a01b03199081166001600160a01b03841617909155169055565b61227a613074565b6122826130bf565b6001600160a01b0316631d5b277f6000805160206142c38339815191526e1c985d1954dd185b1954195c9a5bd9608a1b846040518463ffffffff1660e01b8152600401808481526020018381526020018281526020019350505050600060405180830381600087803b1580156122f757600080fd5b505af115801561230b573d6000803e3d6000fd5b50506040805184815290517f16529d8c407b08938da67de7fa4319199baffce4f5d1971f812cc770b0237e669350908190036020019150a150565b61234e613074565b6001600160a01b0381166123a9576040805162461bcd60e51b815260206004820152601b60248201527f56616c69642061646472657373206d75737420626520676976656e0000000000604482015290519081900360640190fd5b6123b16130bf565b604080516309b9412f60e31b81526000805160206142c383398151915260048201527561676772656761746f725761726e696e67466c61677360501b60248201526001600160a01b03848116604483015291519290911691634dca09789160648082019260009290919082900301818387803b15801561243057600080fd5b505af1158015612444573d6000803e3d6000fd5b5050604080516001600160a01b038516815290517f0f4cbdee769ea02d5757b91905563555cc648fe42fc3ef201e28d97d2bbde9659350908190036020019150a150565b622dc6c081565b612497613074565b603c8110156124d75760405162461bcd60e51b815260040180806020018281038252602681526020018061429d6026913960400191505060405180910390fd5b620151808111156125195760405162461bcd60e51b815260040180806020018281038252602781526020018061433e6027913960400191505060405180910390fd5b6125216130bf565b6001600160a01b0316631d5b277f6000805160206142c38339815191526f61746f6d69635477617057696e646f7760801b846040518463ffffffff1660e01b8152600401808481526020018381526020018281526020019350505050600060405180830381600087803b15801561259757600080fd5b505af11580156125ab573d6000803e3d6000fd5b50506040805184815290517f61ee2076e20b46130ce31de66f08321493e96f79de0837fb0296b7feca92285b9350908190036020019150a150565b6000610db36136c4565b604080516001808252818301909252606091602080830190803883390190505090506e466c657869626c6553746f7261676560881b8160008151811061263257fe5b60200260200101818152505090565b6000546001600160a01b031681565b6000610db361373b565b603c81565b612667613074565b6127066126f16126756132ec565b73__$097ed3f4c0ba5795cc943bc8e15177373c$__63907af6c06040518163ffffffff1660e01b815260040160206040518083038186803b1580156126b957600080fd5b505af41580156126cd573d6000803e3d6000fd5b505050506040513d60208110156126e357600080fd5b50519063ffffffff6137b816565b670de0b6b3a76400009063ffffffff61381216565b8111156127445760405162461bcd60e51b81526004018080602001828103825260388152602001806141676038913960400191505060405180910390fd5b6000612766671bc16d674ec8000061275a613830565b9063ffffffff6138a316565b9050808210156127a75760405162461bcd60e51b81526004018080602001828103825260288152602001806143166028913960400191505060405180910390fd5b6127af6130bf565b6001600160a01b0316631d5b277f6000805160206142c38339815191526f6c69717569646174696f6e526174696f60801b856040518463ffffffff1660e01b8152600401808481526020018381526020018281526020019350505050600060405180830381600087803b15801561282557600080fd5b505af1158015612839573d6000803e3d6000fd5b50506040805185815290517f5568be83e5cf7405adf8fb39305e2cdf49c43336606d23c3e0d3fe54e205150a9350908190036020019150a15050565b6000610ae7826138cd565b6000610ae782613970565b6201518081565b6000610db3613a1c565b6000610db3613a92565b671bc16d674ec8000081565b6000610ae782613b0f565b6000610db3613bc0565b603281565b6000610db3613830565b6000610ae782613c3b565b6000610db3613ce0565b6000610db3613d58565b6128fd613074565b6129056130bf565b604080517f61746f6d69634571756976616c656e74466f7244657850726963696e6700000060208083019190915281830186905282518083038401815260608301808552815191909201206309b9412f60e31b9091526000805160206142c3833981519152606483015260848201526001600160a01b0384811660a483015291519290911691634dca09789160c48082019260009290919082900301818387803b1580156129b257600080fd5b505af11580156129c6573d6000803e3d6000fd5b5050604080518581526001600160a01b038516602082015281517fc7cff0a6f47777500050f9a29aac5206e15b25b782d1834a176f3b3b134d4f3a9450908190039091019150a15050565b627a120081565b612a20613074565b612a286130bf565b6001600160a01b0316631d5b277f6000805160206142c3833981519152710cae8d0cae4aee4c2e0e0cae49ac2f08aa8960731b846040518463ffffffff1660e01b8152600401808481526020018381526020018281526020019350505050600060405180830381600087803b158015612aa057600080fd5b505af1158015612ab4573d6000803e3d6000fd5b50506040805184815290517f8086de8bfec0a6cd9a9213caef7ee137a59e4d8da145de163dc3f244dacddc689350908190036020019150a150565b612af7613074565b622dc6c08110158015612b0d5750627a12008111155b612b5e576040805162461bcd60e51b815260206004820152601d60248201527f4f7574206f662072616e67652078446f6d61696e206761734c696d6974000000604482015290519081900360640190fd5b612b666130bf565b6001600160a01b0316631d5b277f6000805160206142c3833981519152612b8c85613dd3565b846040518463ffffffff1660e01b8152600401808481526020018381526020018281526020019350505050600060405180830381600087803b158015612bd157600080fd5b505af1158015612be5573d6000803e3d6000fd5b505050507fbf62a396f632016f0e0cffedb18ee9be41a161c79cee3b64736b0c97a924554a828260405180836003811115612c1c57fe5b60ff1681526020018281526020019250505060405180910390a15050565b6000610db3613f06565b612c4c613074565b670de0b6b3a7640000811115612c935760405162461bcd60e51b81526004018080602001828103825260268152602001806142776026913960400191505060405180910390fd5b612c9b6130bf565b6001600160a01b0316631d5b277f6000805160206142c3833981519152766574686572577261707065724275726e4665655261746560481b846040518463ffffffff1660e01b8152600401808481526020018381526020018281526020019350505050600060405180830381600087803b158015612d1857600080fd5b505af1158015612d2c573d6000803e3d6000fd5b50506040805184815290517f1c97c2e8b44aa487062d3e92ce52ac814b35191f4799fd2d5a3f36c67f1d9d4a9350908190036020019150a150565b6001600160c01b0381565b612d7a613074565b62093a80811115612dd2576040805162461bcd60e51b815260206004820181905260248201527f7374616b652074696d6520657863656564206d6178696d756d2031207765656b604482015290519081900360640190fd5b612dda6130bf565b6001600160a01b0316631d5b277f6000805160206142c38339815191526f6d696e696d756d5374616b6554696d6560801b846040518463ffffffff1660e01b8152600401808481526020018381526020018281526020019350505050600060405180830381600087803b158015612e5057600080fd5b505af1158015612e64573d6000803e3d6000fd5b50506040805184815290517f2b0fa66d155c9598699cb6569577f27b95729bbf580268eed39db6bc4e8144779350908190036020019150a150565b612ea7613074565b612eaf6130bf565b6001600160a01b0316631d5b277f6000805160206142c383398151915277185d1bdb5a58d59bdb155c19185d19551a1c995cda1bdb1960421b85604051602001808381526020018281526020019250505060405160208183030381529060405280519060200120846040518463ffffffff1660e01b8152600401808481526020018381526020018281526020019350505050600060405180830381600087803b158015612f5b57600080fd5b505af1158015612f6f573d6000803e3d6000fd5b5050604080518581526020810185905281517f460476cc6f40e86f19053ba74c9baf4c2cef96452bb2722a454d66db953a7b3d9450908190039091019150a15050565b62278d0081565b6000610ae782613f7b565b624f1a0081565b67016345785d8a000081565b6000612fe16130bf565b6001600160a01b03166323257c2b6000805160206142c383398151915261300785613dd3565b6040518363ffffffff1660e01b8152600401808381526020018281526020019250505060206040518083038186803b15801561304257600080fd5b505afa158015613056573d6000803e3d6000fd5b505050506040513d602081101561306c57600080fd5b505192915050565b6000546001600160a01b031633146130bd5760405162461bcd60e51b815260040180806020018281038252602f8152602001806141c7602f913960400191505060405180910390fd5b565b6000610db36e466c657869626c6553746f7261676560881b61402c565b60006130e66130bf565b6001600160a01b03166323257c2b6000805160206142c38339815191526e1c985d1954dd185b1954195c9a5bd9608a1b6040518363ffffffff1660e01b8152600401808381526020018281526020019250505060206040518083038186803b15801561315157600080fd5b505afa158015613165573d6000803e3d6000fd5b505050506040513d602081101561317b57600080fd5b5051905090565b600061318c6130bf565b6001600160a01b03166323257c2b6000805160206142c3833981519152766574686572577261707065724d696e744665655261746560481b6040518363ffffffff1660e01b8152600401808381526020018281526020019250505060206040518083038186803b15801561315157600080fd5b60006132096130bf565b6001600160a01b03166323257c2b6000805160206142c38339815191526f6c69717569646174696f6e526174696f60801b6040518363ffffffff1660e01b8152600401808381526020018281526020019250505060206040518083038186803b15801561315157600080fd5b600061327f6130bf565b6001600160a01b03166323257c2b6000805160206142c3833981519152703332b2a832b934b7b2223ab930ba34b7b760791b6040518363ffffffff1660e01b8152600401808381526020018281526020019250505060206040518083038186803b15801561315157600080fd5b60006132f66130bf565b6001600160a01b03166323257c2b6000805160206142c3833981519152716c69717569646174696f6e50656e616c747960701b6040518363ffffffff1660e01b8152600401808381526020018281526020019250505060206040518083038186803b15801561315157600080fd5b600061336e6130bf565b6001600160a01b03166323257c2b6000805160206142c38339815191526f6d696e696d756d5374616b6554696d6560801b6040518363ffffffff1660e01b8152600401808381526020018281526020019250505060206040518083038186803b15801561315157600080fd5b60006133e46130bf565b6001600160a01b03166323257c2b6000805160206142c38339815191527461746f6d696345786368616e67654665655261746560581b856040516020018083815260200182815260200192505050604051602081830303815290604052805190602001206040518363ffffffff1660e01b8152600401808381526020018281526020019250505060206040518083038186803b15801561304257600080fd5b600082613492575060006134df565b8282028284828161349f57fe5b04146134dc5760405162461bcd60e51b815260040180806020018281038252602181526020018061421c6021913960400191505060405180910390fd5b90505b92915050565b600080821161353b576040805162461bcd60e51b815260206004820152601a60248201527f536166654d6174683a206469766973696f6e206279207a65726f000000000000604482015290519081900360640190fd5b600082848161354657fe5b04949350505050565b60006135596130bf565b6001600160a01b03166323257c2b6000805160206142c38339815191527f7072696365446576696174696f6e5468726573686f6c64466163746f720000006040518363ffffffff1660e01b8152600401808381526020018281526020019250505060206040518083038186803b15801561315157600080fd5b60006135dc6130bf565b6001600160a01b0316639ee5955a6000805160206142c38339815191527561676772656761746f725761726e696e67466c61677360501b6040518363ffffffff1660e01b8152600401808381526020018281526020019250505060206040518083038186803b15801561315157600080fd5b60006136586130bf565b6001600160a01b03166323257c2b6000805160206142c38339815191526f61746f6d69635477617057696e646f7760801b6040518363ffffffff1660e01b8152600401808381526020018281526020019250505060206040518083038186803b15801561315157600080fd5b60006136ce6130bf565b6001600160a01b03166323257c2b6000805160206142c38339815191527077616974696e67506572696f645365637360781b6040518363ffffffff1660e01b8152600401808381526020018281526020019250505060206040518083038186803b15801561315157600080fd5b60006137456130bf565b6001600160a01b03166323257c2b6000805160206142c3833981519152766574686572577261707065724275726e4665655261746560481b6040518363ffffffff1660e01b8152600401808381526020018281526020019250505060206040518083038186803b15801561315157600080fd5b6000828201838110156134dc576040805162461bcd60e51b815260206004820152601b60248201527f536166654d6174683a206164646974696f6e206f766572666c6f770000000000604482015290519081900360640190fd5b60006134dc8261176e85670de0b6b3a764000063ffffffff61348316565b600061383a6130bf565b6001600160a01b03166323257c2b6000805160206142c38339815191526c69737375616e6365526174696f60981b6040518363ffffffff1660e01b8152600401808381526020018281526020019250505060206040518083038186803b15801561315157600080fd5b6000670de0b6b3a76400006138be848463ffffffff61348316565b816138c557fe5b049392505050565b60006138d76130bf565b6001600160a01b03166323257c2b6000805160206142c38339815191526e65786368616e67654665655261746560881b856040516020018083815260200182815260200192505050604051602081830303815290604052805190602001206040518363ffffffff1660e01b8152600401808381526020018281526020019250505060206040518083038186803b15801561304257600080fd5b600061397a6130bf565b6001600160a01b03166323257c2b6000805160206142c383398151915277185d1bdb5a58d59bdb155c19185d19551a1c995cda1bdb1960421b856040516020018083815260200182815260200192505050604051602081830303815290604052805190602001206040518363ffffffff1660e01b8152600401808381526020018281526020019250505060206040518083038186803b15801561304257600080fd5b6000613a266130bf565b6001600160a01b03166323257c2b6000805160206142c38339815191526f6c69717569646174696f6e44656c617960801b6040518363ffffffff1660e01b8152600401808381526020018281526020019250505060206040518083038186803b15801561315157600080fd5b6000613a9c6130bf565b6001600160a01b03166323257c2b6000805160206142c38339815191527661746f6d69634d6178566f6c756d65506572426c6f636b60481b6040518363ffffffff1660e01b8152600401808381526020018281526020019250505060206040518083038186803b15801561315157600080fd5b6000613b196130bf565b6001600160a01b03166323257c2b6000805160206142c38339815191527f61746f6d6963566f6c436f6e73696465726174696f6e57696e646f7700000000856040516020018083815260200182815260200192505050604051602081830303815290604052805190602001206040518363ffffffff1660e01b8152600401808381526020018281526020019250505060206040518083038186803b15801561304257600080fd5b6000613bca6130bf565b6001600160a01b03166323257c2b6000805160206142c38339815191527464656274536e617073686f745374616c6554696d6560581b6040518363ffffffff1660e01b8152600401808381526020018281526020019250505060206040518083038186803b15801561315157600080fd5b6000613c456130bf565b6001600160a01b03166323257c2b6000805160206142c38339815191527030ba37b6b4b1a83934b1b2a13ab33332b960791b856040516020018083815260200182815260200192505050604051602081830303815290604052805190602001206040518363ffffffff1660e01b8152600401808381526020018281526020019250505060206040518083038186803b15801561304257600080fd5b6000613cea6130bf565b6001600160a01b03166323257c2b6000805160206142c3833981519152710cae8d0cae4aee4c2e0e0cae49ac2f08aa8960731b6040518363ffffffff1660e01b8152600401808381526020018281526020019250505060206040518083038186803b15801561315157600080fd5b6000613d626130bf565b6001600160a01b031663d994502d6000805160206142c3833981519152741d1c98591a5b99d4995dd85c991cd15b98589b1959605a1b6040518363ffffffff1660e01b8152600401808381526020018281526020019250505060206040518083038186803b15801561315157600080fd5b600080826003811115613de257fe5b1415613e0f57507f63726f7373446f6d61696e4465706f7369744761734c696d6974000000000000610aea565b6001826003811115613e1d57fe5b1415613e4a57507f63726f7373446f6d61696e457363726f774761734c696d697400000000000000610aea565b6002826003811115613e5857fe5b1415613e8557507f63726f7373446f6d61696e5265776172644761734c696d697400000000000000610aea565b6003826003811115613e9357fe5b1415613ec057507f63726f7373446f6d61696e5769746864726177616c4761734c696d6974000000610aea565b6040805162461bcd60e51b8152602060048201526016602482015275556e6b6e6f776e20676173206c696d6974207479706560501b604482015290519081900360640190fd5b6000613f106130bf565b6001600160a01b03166323257c2b6000805160206142c38339815191526e1d185c99d95d151a1c995cda1bdb19608a1b6040518363ffffffff1660e01b8152600401808381526020018281526020019250505060206040518083038186803b15801561315157600080fd5b6000613f856130bf565b6001600160a01b0316639ee5955a6000805160206142c38339815191527f61746f6d69634571756976616c656e74466f7244657850726963696e67000000856040516020018083815260200182815260200192505050604051602081830303815290604052805190602001206040518363ffffffff1660e01b8152600401808381526020018281526020019250505060206040518083038186803b15801561304257600080fd5b600081815260036020908152604080832054815170026b4b9b9b4b7339030b2323932b9b99d1607d1b9381019390935260318084018690528251808503909101815260519093019091526001600160a01b031690816141095760405162461bcd60e51b81526004018080602001828103825283818151815260200191508051906020019080838360005b838110156140ce5781810151838201526020016140b6565b50505050905090810190601f1680156140fb5780820380516001836020036101000a031916815260200191505b509250505060405180910390fd5b509291505056fe70656e616c7479203e204d41585f4c49515549444154494f4e5f50454e414c5459596f75206d757374206265206e6f6d696e61746564206265666f726520796f752063616e20616363657074206f776e6572736869706c69717569646174696f6e526174696f203e204d41585f4c49515549444154494f4e5f524154494f202f202831202b2070656e616c74792941746f6d6963206d617820766f6c756d6520657863656564206d6178696d756d2075696e743139324f6e6c792074686520636f6e7472616374206f776e6572206d617920706572666f726d207468697320616374696f6e72617465203e204d41585f45544845525f575241505045525f4d494e545f4645455f52415445536166654d6174683a206d756c7469706c69636174696f6e206f766572666c6f7741746f6d696320766f6c6174696c69747920636f6e73696465726174696f6e2077696e646f7720756e646572206d696e696d756d2031206d696e72617465203e204d41585f45544845525f575241505045525f4255524e5f4645455f5241544541746f6d696320747761702077696e646f7720756e646572206d696e696d756d2031206d696e53797374656d53657474696e67730000000000000000000000000000000000004e65772069737375616e636520726174696f2063616e6e6f7420657863656564204d41585f49535355414e43455f524154494f6c69717569646174696f6e526174696f203c204d494e5f4c49515549444154494f4e5f524154494f41746f6d696320747761702077696e646f7720657863656564206d6178696d756d20312064617941746f6d696320766f6c6174696c69747920636f6e73696465726174696f6e2077696e646f7720657863656564206d6178696d756d203120646179a265627a7a7231582042fb36f2a5907b6260a89c3007290220b540846d0bda6901dfca72bf95932ffb64736f6c63430005100032",
      "opcodes": "PUSH1 0x80 PUSH1 0x40 MSTORE CALLVALUE DUP1 ISZERO PUSH3 0x11 JUMPI PUSH1 0x0 DUP1 REVERT JUMPDEST POP PUSH1 0x40 MLOAD PUSH3 0x4500 CODESIZE SUB DUP1 PUSH3 0x4500 DUP4 CODECOPY DUP2 DUP2 ADD PUSH1 0x40 MSTORE PUSH1 0x40 DUP2 LT ISZERO PUSH3 0x37 JUMPI PUSH1 0x0 DUP1 REVERT JUMPDEST POP DUP1 MLOAD PUSH1 0x20 SWAP1 SWAP2 ADD MLOAD DUP1 DUP1 DUP4 PUSH1 0x1 PUSH1 0x1 PUSH1 0xA0 SHL SUB DUP2 AND PUSH3 0x9F JUMPI PUSH1 0x40 DUP1 MLOAD PUSH3 0x461BCD PUSH1 0xE5 SHL DUP2 MSTORE PUSH1 0x20 PUSH1 0x4 DUP3 ADD MSTORE PUSH1 0x19 PUSH1 0x24 DUP3 ADD MSTORE PUSH32 0x4F776E657220616464726573732063616E6E6F74206265203000000000000000 PUSH1 0x44 DUP3 ADD MSTORE SWAP1 MLOAD SWAP1 DUP2 SWAP1 SUB PUSH1 0x64 ADD SWAP1 REVERT JUMPDEST PUSH1 0x0 DUP1 SLOAD PUSH1 0x1 PUSH1 0x1 PUSH1 0xA0 SHL SUB NOT AND PUSH1 0x1 PUSH1 0x1 PUSH1 0xA0 SHL SUB DUP4 AND SWAP1 DUP2 OR DUP3 SSTORE PUSH1 0x40 DUP1 MLOAD SWAP3 DUP4 MSTORE PUSH1 0x20 DUP4 ADD SWAP2 SWAP1 SWAP2 MSTORE DUP1 MLOAD PUSH32 0xB532073B38C83145E3E5135377A08BF9AAB55BC0FD7C1179CD4FB995D2A5159C SWAP3 DUP2 SWAP1 SUB SWAP1 SWAP2 ADD SWAP1 LOG1 POP PUSH1 0x2 DUP1 SLOAD PUSH1 0x1 PUSH1 0x1 PUSH1 0xA0 SHL SUB SWAP1 SWAP3 AND PUSH1 0x1 PUSH1 0x1 PUSH1 0xA0 SHL SUB NOT SWAP1 SWAP3 AND SWAP2 SWAP1 SWAP2 OR SWAP1 SSTORE POP POP POP PUSH2 0x43D4 DUP1 PUSH3 0x12C PUSH1 0x0 CODECOPY PUSH1 0x0 RETURN INVALID PUSH1 0x80 PUSH1 0x40 MSTORE CALLVALUE DUP1 ISZERO PUSH2 0x10 JUMPI PUSH1 0x0 DUP1 REVERT JUMPDEST POP PUSH1 0x4 CALLDATASIZE LT PUSH2 0x46A JUMPI PUSH1 0x0 CALLDATALOAD PUSH1 0xE0 SHR DUP1 PUSH4 0x7D708A46 GT PUSH2 0x24C JUMPI DUP1 PUSH4 0xB2EA7054 GT PUSH2 0x146 JUMPI DUP1 PUSH4 0xDC8F4A1B GT PUSH2 0xC3 JUMPI DUP1 PUSH4 0xF081DA85 GT PUSH2 0x87 JUMPI DUP1 PUSH4 0xF081DA85 EQ PUSH2 0xA84 JUMPI DUP1 PUSH4 0xF1076B25 EQ PUSH2 0xAA7 JUMPI DUP1 PUSH4 0xF2163107 EQ PUSH2 0xAAF JUMPI DUP1 PUSH4 0xF344DA67 EQ PUSH2 0xACC JUMPI DUP1 PUSH4 0xFB1B4C7E EQ PUSH2 0xAD4 JUMPI PUSH2 0x46A JUMP JUMPDEST DUP1 PUSH4 0xDC8F4A1B EQ PUSH2 0xA14 JUMPI DUP1 PUSH4 0xE0E6393D EQ PUSH2 0xA3A JUMPI DUP1 PUSH4 0xE7894DA1 EQ PUSH2 0xA42 JUMPI DUP1 PUSH4 0xE78E6BB9 EQ PUSH2 0xA5F JUMPI DUP1 PUSH4 0xE9422046 EQ PUSH2 0xA67 JUMPI PUSH2 0x46A JUMP JUMPDEST DUP1 PUSH4 0xC52F35FE GT PUSH2 0x10A JUMPI DUP1 PUSH4 0xC52F35FE EQ PUSH2 0x9C3 JUMPI DUP1 PUSH4 0xC58C9AE4 EQ PUSH2 0x9EF JUMPI DUP1 PUSH4 0xCC754A4C EQ PUSH2 0x9F7 JUMPI DUP1 PUSH4 0xD62AE399 EQ PUSH2 0x941 JUMPI DUP1 PUSH4 0xDAFD2DAF EQ PUSH2 0x770 JUMPI PUSH2 0x46A JUMP JUMPDEST DUP1 PUSH4 0xB2EA7054 EQ PUSH2 0x770 JUMPI DUP1 PUSH4 0xB410A034 EQ PUSH2 0x98E JUMPI DUP1 PUSH4 0xB7AB13F2 EQ PUSH2 0x996 JUMPI DUP1 PUSH4 0xBCF7EEAC EQ PUSH2 0x9B3 JUMPI DUP1 PUSH4 0xC193F0D8 EQ PUSH2 0x9BB JUMPI PUSH2 0x46A JUMP JUMPDEST DUP1 PUSH4 0x98BE8E3F GT PUSH2 0x1D4 JUMPI DUP1 PUSH4 0xA7771556 GT PUSH2 0x198 JUMPI DUP1 PUSH4 0xA7771556 EQ PUSH2 0x961 JUMPI DUP1 PUSH4 0xAAD23739 EQ PUSH2 0x941 JUMPI DUP1 PUSH4 0xADD0989D EQ PUSH2 0x941 JUMPI DUP1 PUSH4 0xAF5355D8 EQ PUSH2 0x97E JUMPI DUP1 PUSH4 0xAF8BC660 EQ PUSH2 0x986 JUMPI PUSH2 0x46A JUMP JUMPDEST DUP1 PUSH4 0x98BE8E3F EQ PUSH2 0x941 JUMPI DUP1 PUSH4 0x9F91787D EQ PUSH2 0x8E2 JUMPI DUP1 PUSH4 0xA0CF7451 EQ PUSH2 0x949 JUMPI DUP1 PUSH4 0xA4BCA131 EQ PUSH2 0x951 JUMPI DUP1 PUSH4 0xA4CE5B71 EQ PUSH2 0x959 JUMPI PUSH2 0x46A JUMP JUMPDEST DUP1 PUSH4 0x922FEF08 GT PUSH2 0x21B JUMPI DUP1 PUSH4 0x922FEF08 EQ PUSH2 0x8DA JUMPI DUP1 PUSH4 0x94286A1E EQ PUSH2 0x8E2 JUMPI DUP1 PUSH4 0x946CE8CD EQ PUSH2 0x8EA JUMPI DUP1 PUSH4 0x967706E9 EQ PUSH2 0x907 JUMPI DUP1 PUSH4 0x97A4ACA0 EQ PUSH2 0x924 JUMPI PUSH2 0x46A JUMP JUMPDEST DUP1 PUSH4 0x7D708A46 EQ PUSH2 0x855 JUMPI DUP1 PUSH4 0x89257117 EQ PUSH2 0x872 JUMPI DUP1 PUSH4 0x899FFEF4 EQ PUSH2 0x87A JUMPI DUP1 PUSH4 0x8DA5CB5B EQ PUSH2 0x8D2 JUMPI PUSH2 0x46A JUMP JUMPDEST DUP1 PUSH4 0x2CCE0E54 GT PUSH2 0x368 JUMPI DUP1 PUSH4 0x635A3872 GT PUSH2 0x2E5 JUMPI DUP1 PUSH4 0x767DA3DC GT PUSH2 0x2A9 JUMPI DUP1 PUSH4 0x767DA3DC EQ PUSH2 0x7DF JUMPI DUP1 PUSH4 0x79BA5097 EQ PUSH2 0x802 JUMPI DUP1 PUSH4 0x79CB657A EQ PUSH2 0x80A JUMPI DUP1 PUSH4 0x7BF82305 EQ PUSH2 0x827 JUMPI DUP1 PUSH4 0x7CE2CC7F EQ PUSH2 0x84D JUMPI PUSH2 0x46A JUMP JUMPDEST DUP1 PUSH4 0x635A3872 EQ PUSH2 0x795 JUMPI DUP1 PUSH4 0x657C6DC7 EQ PUSH2 0x770 JUMPI DUP1 PUSH4 0x6A2B9151 EQ PUSH2 0x7B2 JUMPI DUP1 PUSH4 0x74185360 EQ PUSH2 0x7BA JUMPI DUP1 PUSH4 0x75ACA321 EQ PUSH2 0x7C2 JUMPI PUSH2 0x46A JUMP JUMPDEST DUP1 PUSH4 0x580A975C GT PUSH2 0x32C JUMPI DUP1 PUSH4 0x580A975C EQ PUSH2 0x72E JUMPI DUP1 PUSH4 0x5D14928F EQ PUSH2 0x736 JUMPI DUP1 PUSH4 0x5E0117D6 EQ PUSH2 0x753 JUMPI DUP1 PUSH4 0x6022AAC5 EQ PUSH2 0x770 JUMPI DUP1 PUSH4 0x6190DD7A EQ PUSH2 0x778 JUMPI PUSH2 0x46A JUMP JUMPDEST DUP1 PUSH4 0x2CCE0E54 EQ PUSH2 0x6DA JUMPI DUP1 PUSH4 0x372A395A EQ PUSH2 0x6F7 JUMPI DUP1 PUSH4 0x4641AB66 EQ PUSH2 0x6FF JUMPI DUP1 PUSH4 0x4C36B837 EQ PUSH2 0x71E JUMPI DUP1 PUSH4 0x53A47BB7 EQ PUSH2 0x726 JUMPI PUSH2 0x46A JUMP JUMPDEST DUP1 PUSH4 0x1627540C GT PUSH2 0x3F6 JUMPI DUP1 PUSH4 0x242DF9E1 GT PUSH2 0x3BA JUMPI DUP1 PUSH4 0x242DF9E1 EQ PUSH2 0x5BA JUMPI DUP1 PUSH4 0x25539DD2 EQ PUSH2 0x5C2 JUMPI DUP1 PUSH4 0x2806A743 EQ PUSH2 0x5DF JUMPI DUP1 PUSH4 0x28A1170D EQ PUSH2 0x5FC JUMPI DUP1 PUSH4 0x2AF64BD3 EQ PUSH2 0x6BE JUMPI PUSH2 0x46A JUMP JUMPDEST DUP1 PUSH4 0x1627540C EQ PUSH2 0x55F JUMPI DUP1 PUSH4 0x1775765F EQ PUSH2 0x585 JUMPI DUP1 PUSH4 0x1E6E2190 EQ PUSH2 0x58D JUMPI DUP1 PUSH4 0x22425FA4 EQ PUSH2 0x5AA JUMPI DUP1 PUSH4 0x23F5589A EQ PUSH2 0x5B2 JUMPI PUSH2 0x46A JUMP JUMPDEST DUP1 PUSH4 0x85F95CD GT PUSH2 0x43D JUMPI DUP1 PUSH4 0x85F95CD EQ PUSH2 0x501 JUMPI DUP1 PUSH4 0xEE4951B EQ PUSH2 0x509 JUMPI DUP1 PUSH4 0xF27B788 EQ PUSH2 0x511 JUMPI DUP1 PUSH4 0x10557020 EQ PUSH2 0x519 JUMPI DUP1 PUSH4 0x13D825B2 EQ PUSH2 0x53C JUMPI PUSH2 0x46A JUMP JUMPDEST DUP1 PUSH4 0x38E47FE EQ PUSH2 0x46F JUMPI DUP1 PUSH4 0x4C49F2C EQ PUSH2 0x4A1 JUMPI DUP1 PUSH4 0x4F3BCEC EQ PUSH2 0x4C0 JUMPI DUP1 PUSH4 0x54BE0B7 EQ PUSH2 0x4E4 JUMPI JUMPDEST PUSH1 0x0 DUP1 REVERT JUMPDEST PUSH2 0x48F PUSH1 0x4 DUP1 CALLDATASIZE SUB PUSH1 0x20 DUP2 LT ISZERO PUSH2 0x485 JUMPI PUSH1 0x0 DUP1 REVERT JUMPDEST POP CALLDATALOAD PUSH1 0xFF AND PUSH2 0xADC JUMP JUMPDEST PUSH1 0x40 DUP1 MLOAD SWAP2 DUP3 MSTORE MLOAD SWAP1 DUP2 SWAP1 SUB PUSH1 0x20 ADD SWAP1 RETURN JUMPDEST PUSH2 0x4BE PUSH1 0x4 DUP1 CALLDATASIZE SUB PUSH1 0x20 DUP2 LT ISZERO PUSH2 0x4B7 JUMPI PUSH1 0x0 DUP1 REVERT JUMPDEST POP CALLDATALOAD PUSH2 0xAEF JUMP JUMPDEST STOP JUMPDEST PUSH2 0x4C8 PUSH2 0xC75 JUMP JUMPDEST PUSH1 0x40 DUP1 MLOAD PUSH1 0x1 PUSH1 0x1 PUSH1 0xA0 SHL SUB SWAP1 SWAP3 AND DUP3 MSTORE MLOAD SWAP1 DUP2 SWAP1 SUB PUSH1 0x20 ADD SWAP1 RETURN JUMPDEST PUSH2 0x4BE PUSH1 0x4 DUP1 CALLDATASIZE SUB PUSH1 0x20 DUP2 LT ISZERO PUSH2 0x4FA JUMPI PUSH1 0x0 DUP1 REVERT JUMPDEST POP CALLDATALOAD PUSH2 0xC84 JUMP JUMPDEST PUSH2 0x48F PUSH2 0xD9D JUMP JUMPDEST PUSH2 0x48F PUSH2 0xDA9 JUMP JUMPDEST PUSH2 0x48F PUSH2 0xDB9 JUMP JUMPDEST PUSH2 0x4BE PUSH1 0x4 DUP1 CALLDATASIZE SUB PUSH1 0x40 DUP2 LT ISZERO PUSH2 0x52F JUMPI PUSH1 0x0 DUP1 REVERT JUMPDEST POP DUP1 CALLDATALOAD SWAP1 PUSH1 0x20 ADD CALLDATALOAD PUSH2 0xDC3 JUMP JUMPDEST PUSH2 0x4BE PUSH1 0x4 DUP1 CALLDATASIZE SUB PUSH1 0x40 DUP2 LT ISZERO PUSH2 0x552 JUMPI PUSH1 0x0 DUP1 REVERT JUMPDEST POP DUP1 CALLDATALOAD SWAP1 PUSH1 0x20 ADD CALLDATALOAD PUSH2 0xF63 JUMP JUMPDEST PUSH2 0x4BE PUSH1 0x4 DUP1 CALLDATASIZE SUB PUSH1 0x20 DUP2 LT ISZERO PUSH2 0x575 JUMPI PUSH1 0x0 DUP1 REVERT JUMPDEST POP CALLDATALOAD PUSH1 0x1 PUSH1 0x1 PUSH1 0xA0 SHL SUB AND PUSH2 0x10D0 JUMP JUMPDEST PUSH2 0x48F PUSH2 0x112C JUMP JUMPDEST PUSH2 0x4BE PUSH1 0x4 DUP1 CALLDATASIZE SUB PUSH1 0x20 DUP2 LT ISZERO PUSH2 0x5A3 JUMPI PUSH1 0x0 DUP1 REVERT JUMPDEST POP CALLDATALOAD PUSH2 0x1136 JUMP JUMPDEST PUSH2 0x48F PUSH2 0x1218 JUMP JUMPDEST PUSH2 0x48F PUSH2 0x1222 JUMP JUMPDEST PUSH2 0x48F PUSH2 0x122C JUMP JUMPDEST PUSH2 0x48F PUSH1 0x4 DUP1 CALLDATASIZE SUB PUSH1 0x20 DUP2 LT ISZERO PUSH2 0x5D8 JUMPI PUSH1 0x0 DUP1 REVERT JUMPDEST POP CALLDATALOAD PUSH2 0x1236 JUMP JUMPDEST PUSH2 0x4BE PUSH1 0x4 DUP1 CALLDATASIZE SUB PUSH1 0x20 DUP2 LT ISZERO PUSH2 0x5F5 JUMPI PUSH1 0x0 DUP1 REVERT JUMPDEST POP CALLDATALOAD PUSH2 0x1241 JUMP JUMPDEST PUSH2 0x4BE PUSH1 0x4 DUP1 CALLDATASIZE SUB PUSH1 0x40 DUP2 LT ISZERO PUSH2 0x612 JUMPI PUSH1 0x0 DUP1 REVERT JUMPDEST DUP2 ADD SWAP1 PUSH1 0x20 DUP2 ADD DUP2 CALLDATALOAD PUSH5 0x100000000 DUP2 GT ISZERO PUSH2 0x62D JUMPI PUSH1 0x0 DUP1 REVERT JUMPDEST DUP3 ADD DUP4 PUSH1 0x20 DUP3 ADD GT ISZERO PUSH2 0x63F JUMPI PUSH1 0x0 DUP1 REVERT JUMPDEST DUP1 CALLDATALOAD SWAP1 PUSH1 0x20 ADD SWAP2 DUP5 PUSH1 0x20 DUP4 MUL DUP5 ADD GT PUSH5 0x100000000 DUP4 GT OR ISZERO PUSH2 0x661 JUMPI PUSH1 0x0 DUP1 REVERT JUMPDEST SWAP2 SWAP4 SWAP1 SWAP3 SWAP1 SWAP2 PUSH1 0x20 DUP2 ADD SWAP1 CALLDATALOAD PUSH5 0x100000000 DUP2 GT ISZERO PUSH2 0x67F JUMPI PUSH1 0x0 DUP1 REVERT JUMPDEST DUP3 ADD DUP4 PUSH1 0x20 DUP3 ADD GT ISZERO PUSH2 0x691 JUMPI PUSH1 0x0 DUP1 REVERT JUMPDEST DUP1 CALLDATALOAD SWAP1 PUSH1 0x20 ADD SWAP2 DUP5 PUSH1 0x20 DUP4 MUL DUP5 ADD GT PUSH5 0x100000000 DUP4 GT OR ISZERO PUSH2 0x6B3 JUMPI PUSH1 0x0 DUP1 REVERT JUMPDEST POP SWAP1 SWAP3 POP SWAP1 POP PUSH2 0x135F JUMP JUMPDEST PUSH2 0x6C6 PUSH2 0x158A JUMP JUMPDEST PUSH1 0x40 DUP1 MLOAD SWAP2 ISZERO ISZERO DUP3 MSTORE MLOAD SWAP1 DUP2 SWAP1 SUB PUSH1 0x20 ADD SWAP1 RETURN JUMPDEST PUSH2 0x4BE PUSH1 0x4 DUP1 CALLDATASIZE SUB PUSH1 0x20 DUP2 LT ISZERO PUSH2 0x6F0 JUMPI PUSH1 0x0 DUP1 REVERT JUMPDEST POP CALLDATALOAD PUSH2 0x1694 JUMP JUMPDEST PUSH2 0x48F PUSH2 0x1849 JUMP JUMPDEST PUSH2 0x4BE PUSH1 0x4 DUP1 CALLDATASIZE SUB PUSH1 0x20 DUP2 LT ISZERO PUSH2 0x715 JUMPI PUSH1 0x0 DUP1 REVERT JUMPDEST POP CALLDATALOAD ISZERO ISZERO PUSH2 0x1853 JUMP JUMPDEST PUSH2 0x4C8 PUSH2 0x1932 JUMP JUMPDEST PUSH2 0x4C8 PUSH2 0x193C JUMP JUMPDEST PUSH2 0x48F PUSH2 0x194B JUMP JUMPDEST PUSH2 0x4BE PUSH1 0x4 DUP1 CALLDATASIZE SUB PUSH1 0x20 DUP2 LT ISZERO PUSH2 0x74C JUMPI PUSH1 0x0 DUP1 REVERT JUMPDEST POP CALLDATALOAD PUSH2 0x1952 JUMP JUMPDEST PUSH2 0x4BE PUSH1 0x4 DUP1 CALLDATASIZE SUB PUSH1 0x20 DUP2 LT ISZERO PUSH2 0x769 JUMPI PUSH1 0x0 DUP1 REVERT JUMPDEST POP CALLDATALOAD PUSH2 0x1A74 JUMP JUMPDEST PUSH2 0x48F PUSH2 0x1BF9 JUMP JUMPDEST PUSH2 0x4BE PUSH1 0x4 DUP1 CALLDATASIZE SUB PUSH1 0x20 DUP2 LT ISZERO PUSH2 0x78E JUMPI PUSH1 0x0 DUP1 REVERT JUMPDEST POP CALLDATALOAD PUSH2 0x1C05 JUMP JUMPDEST PUSH2 0x4BE PUSH1 0x4 DUP1 CALLDATASIZE SUB PUSH1 0x20 DUP2 LT ISZERO PUSH2 0x7AB JUMPI PUSH1 0x0 DUP1 REVERT JUMPDEST POP CALLDATALOAD PUSH2 0x1CDF JUMP JUMPDEST PUSH2 0x48F PUSH2 0x1DB5 JUMP JUMPDEST PUSH2 0x4BE PUSH2 0x1DBF JUMP JUMPDEST PUSH2 0x4BE PUSH1 0x4 DUP1 CALLDATASIZE SUB PUSH1 0x20 DUP2 LT ISZERO PUSH2 0x7D8 JUMPI PUSH1 0x0 DUP1 REVERT JUMPDEST POP CALLDATALOAD PUSH2 0x1F87 JUMP JUMPDEST PUSH2 0x4BE PUSH1 0x4 DUP1 CALLDATASIZE SUB PUSH1 0x40 DUP2 LT ISZERO PUSH2 0x7F5 JUMPI PUSH1 0x0 DUP1 REVERT JUMPDEST POP DUP1 CALLDATALOAD SWAP1 PUSH1 0x20 ADD CALLDATALOAD PUSH2 0x20AA JUMP JUMPDEST PUSH2 0x4BE PUSH2 0x21B6 JUMP JUMPDEST PUSH2 0x4BE PUSH1 0x4 DUP1 CALLDATASIZE SUB PUSH1 0x20 DUP2 LT ISZERO PUSH2 0x820 JUMPI PUSH1 0x0 DUP1 REVERT JUMPDEST POP CALLDATALOAD PUSH2 0x2272 JUMP JUMPDEST PUSH2 0x4BE PUSH1 0x4 DUP1 CALLDATASIZE SUB PUSH1 0x20 DUP2 LT ISZERO PUSH2 0x83D JUMPI PUSH1 0x0 DUP1 REVERT JUMPDEST POP CALLDATALOAD PUSH1 0x1 PUSH1 0x1 PUSH1 0xA0 SHL SUB AND PUSH2 0x2346 JUMP JUMPDEST PUSH2 0x48F PUSH2 0x2488 JUMP JUMPDEST PUSH2 0x4BE PUSH1 0x4 DUP1 CALLDATASIZE SUB PUSH1 0x20 DUP2 LT ISZERO PUSH2 0x86B JUMPI PUSH1 0x0 DUP1 REVERT JUMPDEST POP CALLDATALOAD PUSH2 0x248F JUMP JUMPDEST PUSH2 0x48F PUSH2 0x25E6 JUMP JUMPDEST PUSH2 0x882 PUSH2 0x25F0 JUMP JUMPDEST PUSH1 0x40 DUP1 MLOAD PUSH1 0x20 DUP1 DUP3 MSTORE DUP4 MLOAD DUP2 DUP4 ADD MSTORE DUP4 MLOAD SWAP2 SWAP3 DUP4 SWAP3 SWAP1 DUP4 ADD SWAP2 DUP6 DUP2 ADD SWAP2 MUL DUP1 DUP4 DUP4 PUSH1 0x0 JUMPDEST DUP4 DUP2 LT ISZERO PUSH2 0x8BE JUMPI DUP2 DUP2 ADD MLOAD DUP4 DUP3 ADD MSTORE PUSH1 0x20 ADD PUSH2 0x8A6 JUMP JUMPDEST POP POP POP POP SWAP1 POP ADD SWAP3 POP POP POP PUSH1 0x40 MLOAD DUP1 SWAP2 SUB SWAP1 RETURN JUMPDEST PUSH2 0x4C8 PUSH2 0x2641 JUMP JUMPDEST PUSH2 0x48F PUSH2 0x2650 JUMP JUMPDEST PUSH2 0x48F PUSH2 0x265A JUMP JUMPDEST PUSH2 0x4BE PUSH1 0x4 DUP1 CALLDATASIZE SUB PUSH1 0x20 DUP2 LT ISZERO PUSH2 0x900 JUMPI PUSH1 0x0 DUP1 REVERT JUMPDEST POP CALLDATALOAD PUSH2 0x265F JUMP JUMPDEST PUSH2 0x48F PUSH1 0x4 DUP1 CALLDATASIZE SUB PUSH1 0x20 DUP2 LT ISZERO PUSH2 0x91D JUMPI PUSH1 0x0 DUP1 REVERT JUMPDEST POP CALLDATALOAD PUSH2 0x2875 JUMP JUMPDEST PUSH2 0x48F PUSH1 0x4 DUP1 CALLDATASIZE SUB PUSH1 0x20 DUP2 LT ISZERO PUSH2 0x93A JUMPI PUSH1 0x0 DUP1 REVERT JUMPDEST POP CALLDATALOAD PUSH2 0x2880 JUMP JUMPDEST PUSH2 0x48F PUSH2 0x288B JUMP JUMPDEST PUSH2 0x48F PUSH2 0x2892 JUMP JUMPDEST PUSH2 0x48F PUSH2 0x289C JUMP JUMPDEST PUSH2 0x48F PUSH2 0x28A6 JUMP JUMPDEST PUSH2 0x48F PUSH1 0x4 DUP1 CALLDATASIZE SUB PUSH1 0x20 DUP2 LT ISZERO PUSH2 0x977 JUMPI PUSH1 0x0 DUP1 REVERT JUMPDEST POP CALLDATALOAD PUSH2 0x28B2 JUMP JUMPDEST PUSH2 0x48F PUSH2 0x28BD JUMP JUMPDEST PUSH2 0x48F PUSH2 0x28C7 JUMP JUMPDEST PUSH2 0x48F PUSH2 0x28CC JUMP JUMPDEST PUSH2 0x48F PUSH1 0x4 DUP1 CALLDATASIZE SUB PUSH1 0x20 DUP2 LT ISZERO PUSH2 0x9AC JUMPI PUSH1 0x0 DUP1 REVERT JUMPDEST POP CALLDATALOAD PUSH2 0x28D6 JUMP JUMPDEST PUSH2 0x48F PUSH2 0x28E1 JUMP JUMPDEST PUSH2 0x6C6 PUSH2 0x28EB JUMP JUMPDEST PUSH2 0x4BE PUSH1 0x4 DUP1 CALLDATASIZE SUB PUSH1 0x40 DUP2 LT ISZERO PUSH2 0x9D9 JUMPI PUSH1 0x0 DUP1 REVERT JUMPDEST POP DUP1 CALLDATALOAD SWAP1 PUSH1 0x20 ADD CALLDATALOAD PUSH1 0x1 PUSH1 0x1 PUSH1 0xA0 SHL SUB AND PUSH2 0x28F5 JUMP JUMPDEST PUSH2 0x48F PUSH2 0x2A11 JUMP JUMPDEST PUSH2 0x4BE PUSH1 0x4 DUP1 CALLDATASIZE SUB PUSH1 0x20 DUP2 LT ISZERO PUSH2 0xA0D JUMPI PUSH1 0x0 DUP1 REVERT JUMPDEST POP CALLDATALOAD PUSH2 0x2A18 JUMP JUMPDEST PUSH2 0x4BE PUSH1 0x4 DUP1 CALLDATASIZE SUB PUSH1 0x40 DUP2 LT ISZERO PUSH2 0xA2A JUMPI PUSH1 0x0 DUP1 REVERT JUMPDEST POP PUSH1 0xFF DUP2 CALLDATALOAD AND SWAP1 PUSH1 0x20 ADD CALLDATALOAD PUSH2 0x2AEF JUMP JUMPDEST PUSH2 0x48F PUSH2 0x2C3A JUMP JUMPDEST PUSH2 0x4BE PUSH1 0x4 DUP1 CALLDATASIZE SUB PUSH1 0x20 DUP2 LT ISZERO PUSH2 0xA58 JUMPI PUSH1 0x0 DUP1 REVERT JUMPDEST POP CALLDATALOAD PUSH2 0x2C44 JUMP JUMPDEST PUSH2 0x48F PUSH2 0x2D67 JUMP JUMPDEST PUSH2 0x4BE PUSH1 0x4 DUP1 CALLDATASIZE SUB PUSH1 0x20 DUP2 LT ISZERO PUSH2 0xA7D JUMPI PUSH1 0x0 DUP1 REVERT JUMPDEST POP CALLDATALOAD PUSH2 0x2D72 JUMP JUMPDEST PUSH2 0x4BE PUSH1 0x4 DUP1 CALLDATASIZE SUB PUSH1 0x40 DUP2 LT ISZERO PUSH2 0xA9A JUMPI PUSH1 0x0 DUP1 REVERT JUMPDEST POP DUP1 CALLDATALOAD SWAP1 PUSH1 0x20 ADD CALLDATALOAD PUSH2 0x2E9F JUMP JUMPDEST PUSH2 0x48F PUSH2 0x2FB2 JUMP JUMPDEST PUSH2 0x4C8 PUSH1 0x4 DUP1 CALLDATASIZE SUB PUSH1 0x20 DUP2 LT ISZERO PUSH2 0xAC5 JUMPI PUSH1 0x0 DUP1 REVERT JUMPDEST POP CALLDATALOAD PUSH2 0x2FB9 JUMP JUMPDEST PUSH2 0x48F PUSH2 0x2FC4 JUMP JUMPDEST PUSH2 0x48F PUSH2 0x2FCB JUMP JUMPDEST PUSH1 0x0 PUSH2 0xAE7 DUP3 PUSH2 0x2FD7 JUMP JUMPDEST SWAP1 POP JUMPDEST SWAP2 SWAP1 POP JUMP JUMPDEST PUSH2 0xAF7 PUSH2 0x3074 JUMP JUMPDEST PUSH3 0x15180 DUP2 LT ISZERO PUSH2 0xB4F JUMPI PUSH1 0x40 DUP1 MLOAD PUSH3 0x461BCD PUSH1 0xE5 SHL DUP2 MSTORE PUSH1 0x20 PUSH1 0x4 DUP3 ADD MSTORE PUSH1 0x1F PUSH1 0x24 DUP3 ADD MSTORE PUSH32 0x76616C7565203C204D494E5F4645455F504552494F445F4455524154494F4E00 PUSH1 0x44 DUP3 ADD MSTORE SWAP1 MLOAD SWAP1 DUP2 SWAP1 SUB PUSH1 0x64 ADD SWAP1 REVERT JUMPDEST PUSH3 0x4F1A00 DUP2 GT ISZERO PUSH2 0xBA7 JUMPI PUSH1 0x40 DUP1 MLOAD PUSH3 0x461BCD PUSH1 0xE5 SHL DUP2 MSTORE PUSH1 0x20 PUSH1 0x4 DUP3 ADD MSTORE PUSH1 0x1F PUSH1 0x24 DUP3 ADD MSTORE PUSH32 0x76616C7565203E204D41585F4645455F504552494F445F4455524154494F4E00 PUSH1 0x44 DUP3 ADD MSTORE SWAP1 MLOAD SWAP1 DUP2 SWAP1 SUB PUSH1 0x64 ADD SWAP1 REVERT JUMPDEST PUSH2 0xBAF PUSH2 0x30BF JUMP JUMPDEST PUSH1 0x1 PUSH1 0x1 PUSH1 0xA0 SHL SUB AND PUSH4 0x1D5B277F PUSH1 0x0 DUP1 MLOAD PUSH1 0x20 PUSH2 0x42C3 DUP4 CODECOPY DUP2 MLOAD SWAP2 MSTORE PUSH17 0x3332B2A832B934B7B2223AB930BA34B7B7 PUSH1 0x79 SHL DUP5 PUSH1 0x40 MLOAD DUP5 PUSH4 0xFFFFFFFF AND PUSH1 0xE0 SHL DUP2 MSTORE PUSH1 0x4 ADD DUP1 DUP5 DUP2 MSTORE PUSH1 0x20 ADD DUP4 DUP2 MSTORE PUSH1 0x20 ADD DUP3 DUP2 MSTORE PUSH1 0x20 ADD SWAP4 POP POP POP POP PUSH1 0x0 PUSH1 0x40 MLOAD DUP1 DUP4 SUB DUP2 PUSH1 0x0 DUP8 DUP1 EXTCODESIZE ISZERO DUP1 ISZERO PUSH2 0xC26 JUMPI PUSH1 0x0 DUP1 REVERT JUMPDEST POP GAS CALL ISZERO DUP1 ISZERO PUSH2 0xC3A JUMPI RETURNDATASIZE PUSH1 0x0 DUP1 RETURNDATACOPY RETURNDATASIZE PUSH1 0x0 REVERT JUMPDEST POP POP PUSH1 0x40 DUP1 MLOAD DUP5 DUP2 MSTORE SWAP1 MLOAD PUSH32 0x791BD58DD9719B5EB5CCDD6EC4D5C459B0AB8EFCF59B723CF477693C0889EACD SWAP4 POP SWAP1 DUP2 SWAP1 SUB PUSH1 0x20 ADD SWAP2 POP LOG1 POP JUMP JUMPDEST PUSH1 0x2 SLOAD PUSH1 0x1 PUSH1 0x1 PUSH1 0xA0 SHL SUB AND DUP2 JUMP JUMPDEST PUSH2 0xC8C PUSH2 0x3074 JUMP JUMPDEST PUSH8 0xDE0B6B3A7640000 DUP2 GT ISZERO PUSH2 0xCD3 JUMPI PUSH1 0x40 MLOAD PUSH3 0x461BCD PUSH1 0xE5 SHL DUP2 MSTORE PUSH1 0x4 ADD DUP1 DUP1 PUSH1 0x20 ADD DUP3 DUP2 SUB DUP3 MSTORE PUSH1 0x33 DUP2 MSTORE PUSH1 0x20 ADD DUP1 PUSH2 0x42E3 PUSH1 0x33 SWAP2 CODECOPY PUSH1 0x40 ADD SWAP2 POP POP PUSH1 0x40 MLOAD DUP1 SWAP2 SUB SWAP1 REVERT JUMPDEST PUSH2 0xCDB PUSH2 0x30BF JUMP JUMPDEST PUSH1 0x1 PUSH1 0x1 PUSH1 0xA0 SHL SUB AND PUSH4 0x1D5B277F PUSH1 0x0 DUP1 MLOAD PUSH1 0x20 PUSH2 0x42C3 DUP4 CODECOPY DUP2 MLOAD SWAP2 MSTORE PUSH13 0x69737375616E6365526174696F PUSH1 0x98 SHL DUP5 PUSH1 0x40 MLOAD DUP5 PUSH4 0xFFFFFFFF AND PUSH1 0xE0 SHL DUP2 MSTORE PUSH1 0x4 ADD DUP1 DUP5 DUP2 MSTORE PUSH1 0x20 ADD DUP4 DUP2 MSTORE PUSH1 0x20 ADD DUP3 DUP2 MSTORE PUSH1 0x20 ADD SWAP4 POP POP POP POP PUSH1 0x0 PUSH1 0x40 MLOAD DUP1 DUP4 SUB DUP2 PUSH1 0x0 DUP8 DUP1 EXTCODESIZE ISZERO DUP1 ISZERO PUSH2 0xD4E JUMPI PUSH1 0x0 DUP1 REVERT JUMPDEST POP GAS CALL ISZERO DUP1 ISZERO PUSH2 0xD62 JUMPI RETURNDATASIZE PUSH1 0x0 DUP1 RETURNDATACOPY RETURNDATASIZE PUSH1 0x0 REVERT JUMPDEST POP POP PUSH1 0x40 DUP1 MLOAD DUP5 DUP2 MSTORE SWAP1 MLOAD PUSH32 0x63B22E09CC3A33E847C063E35F887BD4EA96BC8C0F93F1F8C311E4FA6D885452 SWAP4 POP SWAP1 DUP2 SWAP1 SUB PUSH1 0x20 ADD SWAP2 POP LOG1 POP JUMP JUMPDEST PUSH8 0x3782DACE9D90000 DUP2 JUMP JUMPDEST PUSH1 0x0 PUSH2 0xDB3 PUSH2 0x30DC JUMP JUMPDEST SWAP1 POP JUMPDEST SWAP1 JUMP JUMPDEST PUSH1 0x0 PUSH2 0xDB3 PUSH2 0x3182 JUMP JUMPDEST PUSH2 0xDCB PUSH2 0x3074 JUMP JUMPDEST DUP1 ISZERO PUSH2 0xE53 JUMPI PUSH1 0x3C DUP2 LT ISZERO PUSH2 0xE11 JUMPI PUSH1 0x40 MLOAD PUSH3 0x461BCD PUSH1 0xE5 SHL DUP2 MSTORE PUSH1 0x4 ADD DUP1 DUP1 PUSH1 0x20 ADD DUP3 DUP2 SUB DUP3 MSTORE PUSH1 0x3A DUP2 MSTORE PUSH1 0x20 ADD DUP1 PUSH2 0x423D PUSH1 0x3A SWAP2 CODECOPY PUSH1 0x40 ADD SWAP2 POP POP PUSH1 0x40 MLOAD DUP1 SWAP2 SUB SWAP1 REVERT JUMPDEST PUSH3 0x15180 DUP2 GT ISZERO PUSH2 0xE53 JUMPI PUSH1 0x40 MLOAD PUSH3 0x461BCD PUSH1 0xE5 SHL DUP2 MSTORE PUSH1 0x4 ADD DUP1 DUP1 PUSH1 0x20 ADD DUP3 DUP2 SUB DUP3 MSTORE PUSH1 0x3B DUP2 MSTORE PUSH1 0x20 ADD DUP1 PUSH2 0x4365 PUSH1 0x3B SWAP2 CODECOPY PUSH1 0x40 ADD SWAP2 POP POP PUSH1 0x40 MLOAD DUP1 SWAP2 SUB SWAP1 REVERT JUMPDEST PUSH2 0xE5B PUSH2 0x30BF JUMP JUMPDEST PUSH1 0x1 PUSH1 0x1 PUSH1 0xA0 SHL SUB AND PUSH4 0x1D5B277F PUSH1 0x0 DUP1 MLOAD PUSH1 0x20 PUSH2 0x42C3 DUP4 CODECOPY DUP2 MLOAD SWAP2 MSTORE PUSH32 0x61746F6D6963566F6C436F6E73696465726174696F6E57696E646F7700000000 DUP6 PUSH1 0x40 MLOAD PUSH1 0x20 ADD DUP1 DUP4 DUP2 MSTORE PUSH1 0x20 ADD DUP3 DUP2 MSTORE PUSH1 0x20 ADD SWAP3 POP POP POP PUSH1 0x40 MLOAD PUSH1 0x20 DUP2 DUP4 SUB SUB DUP2 MSTORE SWAP1 PUSH1 0x40 MSTORE DUP1 MLOAD SWAP1 PUSH1 0x20 ADD KECCAK256 DUP5 PUSH1 0x40 MLOAD DUP5 PUSH4 0xFFFFFFFF AND PUSH1 0xE0 SHL DUP2 MSTORE PUSH1 0x4 ADD DUP1 DUP5 DUP2 MSTORE PUSH1 0x20 ADD DUP4 DUP2 MSTORE PUSH1 0x20 ADD DUP3 DUP2 MSTORE PUSH1 0x20 ADD SWAP4 POP POP POP POP PUSH1 0x0 PUSH1 0x40 MLOAD DUP1 DUP4 SUB DUP2 PUSH1 0x0 DUP8 DUP1 EXTCODESIZE ISZERO DUP1 ISZERO PUSH2 0xF0C JUMPI PUSH1 0x0 DUP1 REVERT JUMPDEST POP GAS CALL ISZERO DUP1 ISZERO PUSH2 0xF20 JUMPI RETURNDATASIZE PUSH1 0x0 DUP1 RETURNDATACOPY RETURNDATASIZE PUSH1 0x0 REVERT JUMPDEST POP POP PUSH1 0x40 DUP1 MLOAD DUP6 DUP2 MSTORE PUSH1 0x20 DUP2 ADD DUP6 SWAP1 MSTORE DUP2 MLOAD PUSH32 0x98698E41D9EBB66410EC490AE1224F1B8D1766696D7217FA96E067DE3EF5332A SWAP5 POP SWAP1 DUP2 SWAP1 SUB SWAP1 SWAP2 ADD SWAP2 POP LOG1 POP POP JUMP JUMPDEST PUSH2 0xF6B PUSH2 0x3074 JUMP JUMPDEST PUSH8 0x16345785D8A0000 DUP2 GT ISZERO PUSH2 0xFC8 JUMPI PUSH1 0x40 DUP1 MLOAD PUSH3 0x461BCD PUSH1 0xE5 SHL DUP2 MSTORE PUSH1 0x20 PUSH1 0x4 DUP3 ADD MSTORE PUSH1 0x1E PUSH1 0x24 DUP3 ADD MSTORE PUSH32 0x4D41585F45584348414E47455F4645455F524154452065786365656465640000 PUSH1 0x44 DUP3 ADD MSTORE SWAP1 MLOAD SWAP1 DUP2 SWAP1 SUB PUSH1 0x64 ADD SWAP1 REVERT JUMPDEST PUSH2 0xFD0 PUSH2 0x30BF JUMP JUMPDEST PUSH1 0x1 PUSH1 0x1 PUSH1 0xA0 SHL SUB AND PUSH4 0x1D5B277F PUSH1 0x0 DUP1 MLOAD PUSH1 0x20 PUSH2 0x42C3 DUP4 CODECOPY DUP2 MLOAD SWAP2 MSTORE PUSH21 0x61746F6D696345786368616E676546656552617465 PUSH1 0x58 SHL DUP6 PUSH1 0x40 MLOAD PUSH1 0x20 ADD DUP1 DUP4 DUP2 MSTORE PUSH1 0x20 ADD DUP3 DUP2 MSTORE PUSH1 0x20 ADD SWAP3 POP POP POP PUSH1 0x40 MLOAD PUSH1 0x20 DUP2 DUP4 SUB SUB DUP2 MSTORE SWAP1 PUSH1 0x40 MSTORE DUP1 MLOAD SWAP1 PUSH1 0x20 ADD KECCAK256 DUP5 PUSH1 0x40 MLOAD DUP5 PUSH4 0xFFFFFFFF AND PUSH1 0xE0 SHL DUP2 MSTORE PUSH1 0x4 ADD DUP1 DUP5 DUP2 MSTORE PUSH1 0x20 ADD DUP4 DUP2 MSTORE PUSH1 0x20 ADD DUP3 DUP2 MSTORE PUSH1 0x20 ADD SWAP4 POP POP POP POP PUSH1 0x0 PUSH1 0x40 MLOAD DUP1 DUP4 SUB DUP2 PUSH1 0x0 DUP8 DUP1 EXTCODESIZE ISZERO DUP1 ISZERO PUSH2 0x1079 JUMPI PUSH1 0x0 DUP1 REVERT JUMPDEST POP GAS CALL ISZERO DUP1 ISZERO PUSH2 0x108D JUMPI RETURNDATASIZE PUSH1 0x0 DUP1 RETURNDATACOPY RETURNDATASIZE PUSH1 0x0 REVERT JUMPDEST POP POP PUSH1 0x40 DUP1 MLOAD DUP6 DUP2 MSTORE PUSH1 0x20 DUP2 ADD DUP6 SWAP1 MSTORE DUP2 MLOAD PUSH32 0x84023D924A8CCB4A028F052967ED7E1E642279C24150E018962F0779021FCE4C SWAP5 POP SWAP1 DUP2 SWAP1 SUB SWAP1 SWAP2 ADD SWAP2 POP LOG1 POP POP JUMP JUMPDEST PUSH2 0x10D8 PUSH2 0x3074 JUMP JUMPDEST PUSH1 0x1 DUP1 SLOAD PUSH1 0x1 PUSH1 0x1 PUSH1 0xA0 SHL SUB DUP4 AND PUSH1 0x1 PUSH1 0x1 PUSH1 0xA0 SHL SUB NOT SWAP1 SWAP2 AND DUP2 OR SWAP1 SWAP2 SSTORE PUSH1 0x40 DUP1 MLOAD SWAP2 DUP3 MSTORE MLOAD PUSH32 0x906A1C6BD7E3091EA86693DD029A831C19049CE77F1DCE2CE0BAB1CACBABCE22 SWAP2 DUP2 SWAP1 SUB PUSH1 0x20 ADD SWAP1 LOG1 POP JUMP JUMPDEST PUSH1 0x0 PUSH2 0xDB3 PUSH2 0x31FF JUMP JUMPDEST PUSH2 0x113E PUSH2 0x3074 JUMP JUMPDEST PUSH2 0x1146 PUSH2 0x30BF JUMP JUMPDEST PUSH1 0x1 PUSH1 0x1 PUSH1 0xA0 SHL SUB AND PUSH4 0x1D5B277F PUSH1 0x0 DUP1 MLOAD PUSH1 0x20 PUSH2 0x42C3 DUP4 CODECOPY DUP2 MLOAD SWAP2 MSTORE PUSH32 0x7072696365446576696174696F6E5468726573686F6C64466163746F72000000 DUP5 PUSH1 0x40 MLOAD DUP5 PUSH4 0xFFFFFFFF AND PUSH1 0xE0 SHL DUP2 MSTORE PUSH1 0x4 ADD DUP1 DUP5 DUP2 MSTORE PUSH1 0x20 ADD DUP4 DUP2 MSTORE PUSH1 0x20 ADD DUP3 DUP2 MSTORE PUSH1 0x20 ADD SWAP4 POP POP POP POP PUSH1 0x0 PUSH1 0x40 MLOAD DUP1 DUP4 SUB DUP2 PUSH1 0x0 DUP8 DUP1 EXTCODESIZE ISZERO DUP1 ISZERO PUSH2 0x11C9 JUMPI PUSH1 0x0 DUP1 REVERT JUMPDEST POP GAS CALL ISZERO DUP1 ISZERO PUSH2 0x11DD JUMPI RETURNDATASIZE PUSH1 0x0 DUP1 RETURNDATACOPY RETURNDATASIZE PUSH1 0x0 REVERT JUMPDEST POP POP PUSH1 0x40 DUP1 MLOAD DUP5 DUP2 MSTORE SWAP1 MLOAD PUSH32 0x6E65C7D32A9129EBC4E4E6D755E2A9668753C046F4B128AC8AEB4F3E5446A1E5 SWAP4 POP SWAP1 DUP2 SWAP1 SUB PUSH1 0x20 ADD SWAP2 POP LOG1 POP JUMP JUMPDEST PUSH1 0x0 PUSH2 0xDB3 PUSH2 0x3275 JUMP JUMPDEST PUSH1 0x0 PUSH2 0xDB3 PUSH2 0x32EC JUMP JUMPDEST PUSH1 0x0 PUSH2 0xDB3 PUSH2 0x3364 JUMP JUMPDEST PUSH1 0x0 PUSH2 0xAE7 DUP3 PUSH2 0x33DA JUMP JUMPDEST PUSH2 0x1249 PUSH2 0x3074 JUMP JUMPDEST PUSH8 0x3782DACE9D90000 DUP2 GT ISZERO PUSH2 0x1290 JUMPI PUSH1 0x40 MLOAD PUSH3 0x461BCD PUSH1 0xE5 SHL DUP2 MSTORE PUSH1 0x4 ADD DUP1 DUP1 PUSH1 0x20 ADD DUP3 DUP2 SUB DUP3 MSTORE PUSH1 0x21 DUP2 MSTORE PUSH1 0x20 ADD DUP1 PUSH2 0x4111 PUSH1 0x21 SWAP2 CODECOPY PUSH1 0x40 ADD SWAP2 POP POP PUSH1 0x40 MLOAD DUP1 SWAP2 SUB SWAP1 REVERT JUMPDEST PUSH2 0x1298 PUSH2 0x30BF JUMP JUMPDEST PUSH1 0x1 PUSH1 0x1 PUSH1 0xA0 SHL SUB AND PUSH4 0x1D5B277F PUSH1 0x0 DUP1 MLOAD PUSH1 0x20 PUSH2 0x42C3 DUP4 CODECOPY DUP2 MLOAD SWAP2 MSTORE PUSH18 0x6C69717569646174696F6E50656E616C7479 PUSH1 0x70 SHL DUP5 PUSH1 0x40 MLOAD DUP5 PUSH4 0xFFFFFFFF AND PUSH1 0xE0 SHL DUP2 MSTORE PUSH1 0x4 ADD DUP1 DUP5 DUP2 MSTORE PUSH1 0x20 ADD DUP4 DUP2 MSTORE PUSH1 0x20 ADD DUP3 DUP2 MSTORE PUSH1 0x20 ADD SWAP4 POP POP POP POP PUSH1 0x0 PUSH1 0x40 MLOAD DUP1 DUP4 SUB DUP2 PUSH1 0x0 DUP8 DUP1 EXTCODESIZE ISZERO DUP1 ISZERO PUSH2 0x1310 JUMPI PUSH1 0x0 DUP1 REVERT JUMPDEST POP GAS CALL ISZERO DUP1 ISZERO PUSH2 0x1324 JUMPI RETURNDATASIZE PUSH1 0x0 DUP1 RETURNDATACOPY RETURNDATASIZE PUSH1 0x0 REVERT JUMPDEST POP POP PUSH1 0x40 DUP1 MLOAD DUP5 DUP2 MSTORE SWAP1 MLOAD PUSH32 0xBFB22C07314F4682BBA789860CEB851EB8CEA2D867920332B2A42CF56BE5B2E9 SWAP4 POP SWAP1 DUP2 SWAP1 SUB PUSH1 0x20 ADD SWAP2 POP LOG1 POP JUMP JUMPDEST PUSH2 0x1367 PUSH2 0x3074 JUMP JUMPDEST DUP3 DUP2 EQ PUSH2 0x13BB JUMPI PUSH1 0x40 DUP1 MLOAD PUSH3 0x461BCD PUSH1 0xE5 SHL DUP2 MSTORE PUSH1 0x20 PUSH1 0x4 DUP3 ADD MSTORE PUSH1 0x18 PUSH1 0x24 DUP3 ADD MSTORE PUSH32 0x4172726179206C656E6774687320646F6E74206D617463680000000000000000 PUSH1 0x44 DUP3 ADD MSTORE SWAP1 MLOAD SWAP1 DUP2 SWAP1 SUB PUSH1 0x64 ADD SWAP1 REVERT JUMPDEST PUSH1 0x0 JUMPDEST DUP4 DUP2 LT ISZERO PUSH2 0x1583 JUMPI PUSH8 0x16345785D8A0000 DUP4 DUP4 DUP4 DUP2 DUP2 LT PUSH2 0x13DB JUMPI INVALID JUMPDEST SWAP1 POP PUSH1 0x20 MUL ADD CALLDATALOAD GT ISZERO PUSH2 0x1435 JUMPI PUSH1 0x40 DUP1 MLOAD PUSH3 0x461BCD PUSH1 0xE5 SHL DUP2 MSTORE PUSH1 0x20 PUSH1 0x4 DUP3 ADD MSTORE PUSH1 0x1E PUSH1 0x24 DUP3 ADD MSTORE PUSH32 0x4D41585F45584348414E47455F4645455F524154452065786365656465640000 PUSH1 0x44 DUP3 ADD MSTORE SWAP1 MLOAD SWAP1 DUP2 SWAP1 SUB PUSH1 0x64 ADD SWAP1 REVERT JUMPDEST PUSH2 0x143D PUSH2 0x30BF JUMP JUMPDEST PUSH1 0x1 PUSH1 0x1 PUSH1 0xA0 SHL SUB AND PUSH4 0x1D5B277F PUSH1 0x0 DUP1 MLOAD PUSH1 0x20 PUSH2 0x42C3 DUP4 CODECOPY DUP2 MLOAD SWAP2 MSTORE PUSH15 0x65786368616E676546656552617465 PUSH1 0x88 SHL DUP9 DUP9 DUP7 DUP2 DUP2 LT PUSH2 0x1479 JUMPI INVALID JUMPDEST SWAP1 POP PUSH1 0x20 MUL ADD CALLDATALOAD PUSH1 0x40 MLOAD PUSH1 0x20 ADD DUP1 DUP4 DUP2 MSTORE PUSH1 0x20 ADD DUP3 DUP2 MSTORE PUSH1 0x20 ADD SWAP3 POP POP POP PUSH1 0x40 MLOAD PUSH1 0x20 DUP2 DUP4 SUB SUB DUP2 MSTORE SWAP1 PUSH1 0x40 MSTORE DUP1 MLOAD SWAP1 PUSH1 0x20 ADD KECCAK256 DUP7 DUP7 DUP7 DUP2 DUP2 LT PUSH2 0x14B9 JUMPI INVALID JUMPDEST SWAP1 POP PUSH1 0x20 MUL ADD CALLDATALOAD PUSH1 0x40 MLOAD DUP5 PUSH4 0xFFFFFFFF AND PUSH1 0xE0 SHL DUP2 MSTORE PUSH1 0x4 ADD DUP1 DUP5 DUP2 MSTORE PUSH1 0x20 ADD DUP4 DUP2 MSTORE PUSH1 0x20 ADD DUP3 DUP2 MSTORE PUSH1 0x20 ADD SWAP4 POP POP POP POP PUSH1 0x0 PUSH1 0x40 MLOAD DUP1 DUP4 SUB DUP2 PUSH1 0x0 DUP8 DUP1 EXTCODESIZE ISZERO DUP1 ISZERO PUSH2 0x1504 JUMPI PUSH1 0x0 DUP1 REVERT JUMPDEST POP GAS CALL ISZERO DUP1 ISZERO PUSH2 0x1518 JUMPI RETURNDATASIZE PUSH1 0x0 DUP1 RETURNDATACOPY RETURNDATASIZE PUSH1 0x0 REVERT JUMPDEST POP POP POP POP PUSH32 0xBBDAB54F0DA6D720D21F53E4D6F5BBE83E5A2F74C1354175140EA74F8E90C77E DUP6 DUP6 DUP4 DUP2 DUP2 LT PUSH2 0x1549 JUMPI INVALID JUMPDEST SWAP1 POP PUSH1 0x20 MUL ADD CALLDATALOAD DUP5 DUP5 DUP5 DUP2 DUP2 LT PUSH2 0x155C JUMPI INVALID JUMPDEST PUSH1 0x40 DUP1 MLOAD SWAP5 DUP6 MSTORE PUSH1 0x20 SWAP2 DUP3 MUL SWAP4 SWAP1 SWAP4 ADD CALLDATALOAD SWAP1 DUP5 ADD MSTORE POP DUP1 MLOAD SWAP2 DUP3 SWAP1 SUB ADD SWAP1 LOG1 PUSH1 0x1 ADD PUSH2 0x13BE JUMP JUMPDEST POP POP POP POP POP JUMP JUMPDEST PUSH1 0x0 PUSH1 0x60 PUSH2 0x1596 PUSH2 0x25F0 JUMP JUMPDEST SWAP1 POP PUSH1 0x0 JUMPDEST DUP2 MLOAD DUP2 LT ISZERO PUSH2 0x168B JUMPI PUSH1 0x0 DUP3 DUP3 DUP2 MLOAD DUP2 LT PUSH2 0x15B2 JUMPI INVALID JUMPDEST PUSH1 0x20 SWAP1 DUP2 MUL SWAP2 SWAP1 SWAP2 ADD DUP2 ADD MLOAD PUSH1 0x0 DUP2 DUP2 MSTORE PUSH1 0x3 DUP4 MSTORE PUSH1 0x40 SWAP1 DUP2 SWAP1 KECCAK256 SLOAD PUSH1 0x2 SLOAD DUP3 MLOAD PUSH4 0x21F8A721 PUSH1 0xE0 SHL DUP2 MSTORE PUSH1 0x4 DUP2 ADD DUP6 SWAP1 MSTORE SWAP3 MLOAD SWAP4 SWAP6 POP PUSH1 0x1 PUSH1 0x1 PUSH1 0xA0 SHL SUB SWAP2 DUP3 AND SWAP5 SWAP2 AND SWAP3 PUSH4 0x21F8A721 SWAP3 PUSH1 0x24 DUP1 DUP3 ADD SWAP4 SWAP3 SWAP2 DUP3 SWAP1 SUB ADD DUP2 DUP7 DUP1 EXTCODESIZE ISZERO DUP1 ISZERO PUSH2 0x161A JUMPI PUSH1 0x0 DUP1 REVERT JUMPDEST POP GAS STATICCALL ISZERO DUP1 ISZERO PUSH2 0x162E JUMPI RETURNDATASIZE PUSH1 0x0 DUP1 RETURNDATACOPY RETURNDATASIZE PUSH1 0x0 REVERT JUMPDEST POP POP POP POP PUSH1 0x40 MLOAD RETURNDATASIZE PUSH1 0x20 DUP2 LT ISZERO PUSH2 0x1644 JUMPI PUSH1 0x0 DUP1 REVERT JUMPDEST POP MLOAD PUSH1 0x1 PUSH1 0x1 PUSH1 0xA0 SHL SUB AND EQ ISZERO DUP1 PUSH2 0x1671 JUMPI POP PUSH1 0x0 DUP2 DUP2 MSTORE PUSH1 0x3 PUSH1 0x20 MSTORE PUSH1 0x40 SWAP1 KECCAK256 SLOAD PUSH1 0x1 PUSH1 0x1 PUSH1 0xA0 SHL SUB AND ISZERO JUMPDEST ISZERO PUSH2 0x1682 JUMPI PUSH1 0x0 SWAP4 POP POP POP POP PUSH2 0xDB6 JUMP JUMPDEST POP PUSH1 0x1 ADD PUSH2 0x159B JUMP JUMPDEST POP PUSH1 0x1 SWAP2 POP POP SWAP1 JUMP JUMPDEST PUSH2 0x169C PUSH2 0x3074 JUMP JUMPDEST PUSH1 0x32 DUP2 GT ISZERO PUSH2 0x16E7 JUMPI PUSH1 0x40 DUP1 MLOAD PUSH3 0x461BCD PUSH1 0xE5 SHL DUP2 MSTORE PUSH1 0x20 PUSH1 0x4 DUP3 ADD MSTORE PUSH1 0x12 PUSH1 0x24 DUP3 ADD MSTORE PUSH18 0xA8D0E4CAE6D0DED8C840E8DEDE40D0D2CED PUSH1 0x73 SHL PUSH1 0x44 DUP3 ADD MSTORE SWAP1 MLOAD SWAP1 DUP2 SWAP1 SUB PUSH1 0x64 ADD SWAP1 REVERT JUMPDEST PUSH1 0x0 PUSH2 0x177A PUSH1 0x64 PUSH2 0x176E PUSH20 0x0 PUSH4 0x907AF6C0 PUSH1 0x40 MLOAD DUP2 PUSH4 0xFFFFFFFF AND PUSH1 0xE0 SHL DUP2 MSTORE PUSH1 0x4 ADD PUSH1 0x20 PUSH1 0x40 MLOAD DUP1 DUP4 SUB DUP2 DUP7 DUP1 EXTCODESIZE ISZERO DUP1 ISZERO PUSH2 0x1735 JUMPI PUSH1 0x0 DUP1 REVERT JUMPDEST POP GAS DELEGATECALL ISZERO DUP1 ISZERO PUSH2 0x1749 JUMPI RETURNDATASIZE PUSH1 0x0 DUP1 RETURNDATACOPY RETURNDATASIZE PUSH1 0x0 REVERT JUMPDEST POP POP POP POP PUSH1 0x40 MLOAD RETURNDATASIZE PUSH1 0x20 DUP2 LT ISZERO PUSH2 0x175F JUMPI PUSH1 0x0 DUP1 REVERT JUMPDEST POP MLOAD DUP6 SWAP1 PUSH4 0xFFFFFFFF PUSH2 0x3483 AND JUMP JUMPDEST SWAP1 PUSH4 0xFFFFFFFF PUSH2 0x34E5 AND JUMP JUMPDEST SWAP1 POP PUSH2 0x1784 PUSH2 0x30BF JUMP JUMPDEST PUSH1 0x1 PUSH1 0x1 PUSH1 0xA0 SHL SUB AND PUSH4 0x1D5B277F PUSH1 0x0 DUP1 MLOAD PUSH1 0x20 PUSH2 0x42C3 DUP4 CODECOPY DUP2 MLOAD SWAP2 MSTORE PUSH15 0x1D185C99D95D151A1C995CDA1BDB19 PUSH1 0x8A SHL DUP5 PUSH1 0x40 MLOAD DUP5 PUSH4 0xFFFFFFFF AND PUSH1 0xE0 SHL DUP2 MSTORE PUSH1 0x4 ADD DUP1 DUP5 DUP2 MSTORE PUSH1 0x20 ADD DUP4 DUP2 MSTORE PUSH1 0x20 ADD DUP3 DUP2 MSTORE PUSH1 0x20 ADD SWAP4 POP POP POP POP PUSH1 0x0 PUSH1 0x40 MLOAD DUP1 DUP4 SUB DUP2 PUSH1 0x0 DUP8 DUP1 EXTCODESIZE ISZERO DUP1 ISZERO PUSH2 0x17F9 JUMPI PUSH1 0x0 DUP1 REVERT JUMPDEST POP GAS CALL ISZERO DUP1 ISZERO PUSH2 0x180D JUMPI RETURNDATASIZE PUSH1 0x0 DUP1 RETURNDATACOPY RETURNDATASIZE PUSH1 0x0 REVERT JUMPDEST POP POP PUSH1 0x40 DUP1 MLOAD DUP5 DUP2 MSTORE SWAP1 MLOAD PUSH32 0xB2B3A840C101D8E7F0CF8D80D3868976968714347038FE89B36C5031F94DAB12 SWAP4 POP SWAP1 DUP2 SWAP1 SUB PUSH1 0x20 ADD SWAP2 POP LOG1 POP POP JUMP JUMPDEST PUSH1 0x0 PUSH2 0xDB3 PUSH2 0x354F JUMP JUMPDEST PUSH2 0x185B PUSH2 0x3074 JUMP JUMPDEST PUSH2 0x1863 PUSH2 0x30BF JUMP JUMPDEST PUSH1 0x40 DUP1 MLOAD PUSH4 0xFCA29BF PUSH1 0xE2 SHL DUP2 MSTORE PUSH1 0x0 DUP1 MLOAD PUSH1 0x20 PUSH2 0x42C3 DUP4 CODECOPY DUP2 MLOAD SWAP2 MSTORE PUSH1 0x4 DUP3 ADD MSTORE PUSH21 0x1D1C98591A5B99D4995DD85C991CD15B98589B1959 PUSH1 0x5A SHL PUSH1 0x24 DUP3 ADD MSTORE DUP4 ISZERO ISZERO PUSH1 0x44 DUP3 ADD MSTORE SWAP1 MLOAD PUSH1 0x1 PUSH1 0x1 PUSH1 0xA0 SHL SUB SWAP3 SWAP1 SWAP3 AND SWAP2 PUSH4 0x3F28A6FC SWAP2 PUSH1 0x64 DUP1 DUP3 ADD SWAP3 PUSH1 0x0 SWAP3 SWAP1 SWAP2 SWAP1 DUP3 SWAP1 SUB ADD DUP2 DUP4 DUP8 DUP1 EXTCODESIZE ISZERO DUP1 ISZERO PUSH2 0x18E1 JUMPI PUSH1 0x0 DUP1 REVERT JUMPDEST POP GAS CALL ISZERO DUP1 ISZERO PUSH2 0x18F5 JUMPI RETURNDATASIZE PUSH1 0x0 DUP1 RETURNDATACOPY RETURNDATASIZE PUSH1 0x0 REVERT JUMPDEST POP POP PUSH1 0x40 DUP1 MLOAD DUP5 ISZERO ISZERO DUP2 MSTORE SWAP1 MLOAD PUSH32 0xE11C1893B6F97DECD3AC13637137734A4B75D159E899E5A8ABB48470AB0BC4FD SWAP4 POP SWAP1 DUP2 SWAP1 SUB PUSH1 0x20 ADD SWAP2 POP LOG1 POP JUMP JUMPDEST PUSH1 0x0 PUSH2 0xDB3 PUSH2 0x35D2 JUMP JUMPDEST PUSH1 0x1 SLOAD PUSH1 0x1 PUSH1 0x1 PUSH1 0xA0 SHL SUB AND DUP2 JUMP JUMPDEST PUSH3 0x93A80 DUP2 JUMP JUMPDEST PUSH2 0x195A PUSH2 0x3074 JUMP JUMPDEST PUSH1 0x1 PUSH1 0x1 PUSH1 0xC0 SHL SUB DUP2 GT ISZERO PUSH2 0x19A0 JUMPI PUSH1 0x40 MLOAD PUSH3 0x461BCD PUSH1 0xE5 SHL DUP2 MSTORE PUSH1 0x4 ADD DUP1 DUP1 PUSH1 0x20 ADD DUP3 DUP2 SUB DUP3 MSTORE PUSH1 0x28 DUP2 MSTORE PUSH1 0x20 ADD DUP1 PUSH2 0x419F PUSH1 0x28 SWAP2 CODECOPY PUSH1 0x40 ADD SWAP2 POP POP PUSH1 0x40 MLOAD DUP1 SWAP2 SUB SWAP1 REVERT JUMPDEST PUSH2 0x19A8 PUSH2 0x30BF JUMP JUMPDEST PUSH1 0x1 PUSH1 0x1 PUSH1 0xA0 SHL SUB AND PUSH4 0x1D5B277F PUSH1 0x0 DUP1 MLOAD PUSH1 0x20 PUSH2 0x42C3 DUP4 CODECOPY DUP2 MLOAD SWAP2 MSTORE PUSH23 0x61746F6D69634D6178566F6C756D65506572426C6F636B PUSH1 0x48 SHL DUP5 PUSH1 0x40 MLOAD DUP5 PUSH4 0xFFFFFFFF AND PUSH1 0xE0 SHL DUP2 MSTORE PUSH1 0x4 ADD DUP1 DUP5 DUP2 MSTORE PUSH1 0x20 ADD DUP4 DUP2 MSTORE PUSH1 0x20 ADD DUP3 DUP2 MSTORE PUSH1 0x20 ADD SWAP4 POP POP POP POP PUSH1 0x0 PUSH1 0x40 MLOAD DUP1 DUP4 SUB DUP2 PUSH1 0x0 DUP8 DUP1 EXTCODESIZE ISZERO DUP1 ISZERO PUSH2 0x1A25 JUMPI PUSH1 0x0 DUP1 REVERT JUMPDEST POP GAS CALL ISZERO DUP1 ISZERO PUSH2 0x1A39 JUMPI RETURNDATASIZE PUSH1 0x0 DUP1 RETURNDATACOPY RETURNDATASIZE PUSH1 0x0 REVERT JUMPDEST POP POP PUSH1 0x40 DUP1 MLOAD DUP5 DUP2 MSTORE SWAP1 MLOAD PUSH32 0xF96E059CB3386BB65FD1D80017C7CE524F813B012D7DC97A1252F9CD4F4C99F3 SWAP4 POP SWAP1 DUP2 SWAP1 SUB PUSH1 0x20 ADD SWAP2 POP LOG1 POP JUMP JUMPDEST PUSH2 0x1A7C PUSH2 0x3074 JUMP JUMPDEST PUSH3 0x278D00 DUP2 GT ISZERO PUSH2 0x1AD4 JUMPI PUSH1 0x40 DUP1 MLOAD PUSH3 0x461BCD PUSH1 0xE5 SHL DUP2 MSTORE PUSH1 0x20 PUSH1 0x4 DUP3 ADD MSTORE PUSH1 0x19 PUSH1 0x24 DUP3 ADD MSTORE PUSH32 0x4D757374206265206C657373207468616E203330206461797300000000000000 PUSH1 0x44 DUP3 ADD MSTORE SWAP1 MLOAD SWAP1 DUP2 SWAP1 SUB PUSH1 0x64 ADD SWAP1 REVERT JUMPDEST PUSH3 0x15180 DUP2 LT ISZERO PUSH2 0x1B2C JUMPI PUSH1 0x40 DUP1 MLOAD PUSH3 0x461BCD PUSH1 0xE5 SHL DUP2 MSTORE PUSH1 0x20 PUSH1 0x4 DUP3 ADD MSTORE PUSH1 0x1A PUSH1 0x24 DUP3 ADD MSTORE PUSH32 0x4D7573742062652067726561746572207468616E203120646179000000000000 PUSH1 0x44 DUP3 ADD MSTORE SWAP1 MLOAD SWAP1 DUP2 SWAP1 SUB PUSH1 0x64 ADD SWAP1 REVERT JUMPDEST PUSH2 0x1B34 PUSH2 0x30BF JUMP JUMPDEST PUSH1 0x1 PUSH1 0x1 PUSH1 0xA0 SHL SUB AND PUSH4 0x1D5B277F PUSH1 0x0 DUP1 MLOAD PUSH1 0x20 PUSH2 0x42C3 DUP4 CODECOPY DUP2 MLOAD SWAP2 MSTORE PUSH16 0x6C69717569646174696F6E44656C6179 PUSH1 0x80 SHL DUP5 PUSH1 0x40 MLOAD DUP5 PUSH4 0xFFFFFFFF AND PUSH1 0xE0 SHL DUP2 MSTORE PUSH1 0x4 ADD DUP1 DUP5 DUP2 MSTORE PUSH1 0x20 ADD DUP4 DUP2 MSTORE PUSH1 0x20 ADD DUP3 DUP2 MSTORE PUSH1 0x20 ADD SWAP4 POP POP POP POP PUSH1 0x0 PUSH1 0x40 MLOAD DUP1 DUP4 SUB DUP2 PUSH1 0x0 DUP8 DUP1 EXTCODESIZE ISZERO DUP1 ISZERO PUSH2 0x1BAA JUMPI PUSH1 0x0 DUP1 REVERT JUMPDEST POP GAS CALL ISZERO DUP1 ISZERO PUSH2 0x1BBE JUMPI RETURNDATASIZE PUSH1 0x0 DUP1 RETURNDATACOPY RETURNDATASIZE PUSH1 0x0 REVERT JUMPDEST POP POP PUSH1 0x40 DUP1 MLOAD DUP5 DUP2 MSTORE SWAP1 MLOAD PUSH32 0x9917E32433EDCB65F8982C1B2C26C3469468308456F93CF34B98C1B0459C5398 SWAP4 POP SWAP1 DUP2 SWAP1 SUB PUSH1 0x20 ADD SWAP2 POP LOG1 POP JUMP JUMPDEST PUSH8 0xDE0B6B3A7640000 DUP2 JUMP JUMPDEST PUSH2 0x1C0D PUSH2 0x3074 JUMP JUMPDEST PUSH2 0x1C15 PUSH2 0x30BF JUMP JUMPDEST PUSH1 0x1 PUSH1 0x1 PUSH1 0xA0 SHL SUB AND PUSH4 0x1D5B277F PUSH1 0x0 DUP1 MLOAD PUSH1 0x20 PUSH2 0x42C3 DUP4 CODECOPY DUP2 MLOAD SWAP2 MSTORE PUSH21 0x64656274536E617073686F745374616C6554696D65 PUSH1 0x58 SHL DUP5 PUSH1 0x40 MLOAD DUP5 PUSH4 0xFFFFFFFF AND PUSH1 0xE0 SHL DUP2 MSTORE PUSH1 0x4 ADD DUP1 DUP5 DUP2 MSTORE PUSH1 0x20 ADD DUP4 DUP2 MSTORE PUSH1 0x20 ADD DUP3 DUP2 MSTORE PUSH1 0x20 ADD SWAP4 POP POP POP POP PUSH1 0x0 PUSH1 0x40 MLOAD DUP1 DUP4 SUB DUP2 PUSH1 0x0 DUP8 DUP1 EXTCODESIZE ISZERO DUP1 ISZERO PUSH2 0x1C90 JUMPI PUSH1 0x0 DUP1 REVERT JUMPDEST POP GAS CALL ISZERO DUP1 ISZERO PUSH2 0x1CA4 JUMPI RETURNDATASIZE PUSH1 0x0 DUP1 RETURNDATACOPY RETURNDATASIZE PUSH1 0x0 REVERT JUMPDEST POP POP PUSH1 0x40 DUP1 MLOAD DUP5 DUP2 MSTORE SWAP1 MLOAD PUSH32 0x9795BE9F1478ED09E9E47E67318B8AA7A0C0213170403191099BF7DD435FB4D7 SWAP4 POP SWAP1 DUP2 SWAP1 SUB PUSH1 0x20 ADD SWAP2 POP LOG1 POP JUMP JUMPDEST PUSH2 0x1CE7 PUSH2 0x3074 JUMP JUMPDEST PUSH2 0x1CEF PUSH2 0x30BF JUMP JUMPDEST PUSH1 0x1 PUSH1 0x1 PUSH1 0xA0 SHL SUB AND PUSH4 0x1D5B277F PUSH1 0x0 DUP1 MLOAD PUSH1 0x20 PUSH2 0x42C3 DUP4 CODECOPY DUP2 MLOAD SWAP2 MSTORE PUSH17 0x77616974696E67506572696F6453656373 PUSH1 0x78 SHL DUP5 PUSH1 0x40 MLOAD DUP5 PUSH4 0xFFFFFFFF AND PUSH1 0xE0 SHL DUP2 MSTORE PUSH1 0x4 ADD DUP1 DUP5 DUP2 MSTORE PUSH1 0x20 ADD DUP4 DUP2 MSTORE PUSH1 0x20 ADD DUP3 DUP2 MSTORE PUSH1 0x20 ADD SWAP4 POP POP POP POP PUSH1 0x0 PUSH1 0x40 MLOAD DUP1 DUP4 SUB DUP2 PUSH1 0x0 DUP8 DUP1 EXTCODESIZE ISZERO DUP1 ISZERO PUSH2 0x1D66 JUMPI PUSH1 0x0 DUP1 REVERT JUMPDEST POP GAS CALL ISZERO DUP1 ISZERO PUSH2 0x1D7A JUMPI RETURNDATASIZE PUSH1 0x0 DUP1 RETURNDATACOPY RETURNDATASIZE PUSH1 0x0 REVERT JUMPDEST POP POP PUSH1 0x40 DUP1 MLOAD DUP5 DUP2 MSTORE SWAP1 MLOAD PUSH32 0xC32C92CAC11E29883E0FB2D9E38230CC510E3BDA48ABC270B780DE60BB8465F8 SWAP4 POP SWAP1 DUP2 SWAP1 SUB PUSH1 0x20 ADD SWAP2 POP LOG1 POP JUMP JUMPDEST PUSH1 0x0 PUSH2 0xDB3 PUSH2 0x364E JUMP JUMPDEST PUSH1 0x60 PUSH2 0x1DC9 PUSH2 0x25F0 JUMP JUMPDEST SWAP1 POP PUSH1 0x0 JUMPDEST DUP2 MLOAD DUP2 LT ISZERO PUSH2 0x1F83 JUMPI PUSH1 0x0 DUP3 DUP3 DUP2 MLOAD DUP2 LT PUSH2 0x1DE5 JUMPI INVALID JUMPDEST PUSH1 0x20 SWAP1 DUP2 MUL SWAP2 SWAP1 SWAP2 ADD DUP2 ADD MLOAD PUSH1 0x2 SLOAD PUSH1 0x40 DUP1 MLOAD PUSH32 0x5265736F6C766572206D697373696E67207461726765743A2000000000000000 DUP2 DUP7 ADD MSTORE PUSH1 0x39 DUP1 DUP3 ADD DUP6 SWAP1 MSTORE DUP3 MLOAD DUP1 DUP4 SUB SWAP1 SWAP2 ADD DUP2 MSTORE PUSH1 0x59 DUP3 ADD DUP1 DUP5 MSTORE PUSH4 0xDACB2D01 PUSH1 0xE0 SHL SWAP1 MSTORE PUSH1 0x5D DUP3 ADD DUP6 DUP2 MSTORE PUSH1 0x7D DUP4 ADD SWAP4 DUP5 MSTORE DUP2 MLOAD PUSH1 0x9D DUP5 ADD MSTORE DUP2 MLOAD SWAP6 SWAP8 POP PUSH1 0x0 SWAP7 PUSH1 0x1 PUSH1 0x1 PUSH1 0xA0 SHL SUB SWAP1 SWAP6 AND SWAP6 PUSH4 0xDACB2D01 SWAP6 DUP10 SWAP6 SWAP4 SWAP5 SWAP3 SWAP4 SWAP3 PUSH1 0xBD ADD SWAP2 SWAP1 DUP6 ADD SWAP1 DUP1 DUP4 DUP4 DUP13 JUMPDEST DUP4 DUP2 LT ISZERO PUSH2 0x1E9B JUMPI DUP2 DUP2 ADD MLOAD DUP4 DUP3 ADD MSTORE PUSH1 0x20 ADD PUSH2 0x1E83 JUMP JUMPDEST POP POP POP POP SWAP1 POP SWAP1 DUP2 ADD SWAP1 PUSH1 0x1F AND DUP1 ISZERO PUSH2 0x1EC8 JUMPI DUP1 DUP3 SUB DUP1 MLOAD PUSH1 0x1 DUP4 PUSH1 0x20 SUB PUSH2 0x100 EXP SUB NOT AND DUP2 MSTORE PUSH1 0x20 ADD SWAP2 POP JUMPDEST POP SWAP4 POP POP POP POP PUSH1 0x20 PUSH1 0x40 MLOAD DUP1 DUP4 SUB DUP2 DUP7 DUP1 EXTCODESIZE ISZERO DUP1 ISZERO PUSH2 0x1EE6 JUMPI PUSH1 0x0 DUP1 REVERT JUMPDEST POP GAS STATICCALL ISZERO DUP1 ISZERO PUSH2 0x1EFA JUMPI RETURNDATASIZE PUSH1 0x0 DUP1 RETURNDATACOPY RETURNDATASIZE PUSH1 0x0 REVERT JUMPDEST POP POP POP POP PUSH1 0x40 MLOAD RETURNDATASIZE PUSH1 0x20 DUP2 LT ISZERO PUSH2 0x1F10 JUMPI PUSH1 0x0 DUP1 REVERT JUMPDEST POP MLOAD PUSH1 0x0 DUP4 DUP2 MSTORE PUSH1 0x3 PUSH1 0x20 SWAP1 DUP2 MSTORE PUSH1 0x40 SWAP2 DUP3 SWAP1 KECCAK256 DUP1 SLOAD PUSH1 0x1 PUSH1 0x1 PUSH1 0xA0 SHL SUB NOT AND PUSH1 0x1 PUSH1 0x1 PUSH1 0xA0 SHL SUB DUP6 AND SWAP1 DUP2 OR SWAP1 SWAP2 SSTORE DUP3 MLOAD DUP7 DUP2 MSTORE SWAP2 DUP3 ADD MSTORE DUP2 MLOAD SWAP3 SWAP4 POP PUSH32 0x88A93678A3692F6789D9546FC621BF7234B101DDB7D4FE479455112831B8AA68 SWAP3 SWAP1 DUP2 SWAP1 SUB SWAP1 SWAP2 ADD SWAP1 LOG1 POP POP PUSH1 0x1 ADD PUSH2 0x1DCE JUMP JUMPDEST POP POP JUMP JUMPDEST PUSH2 0x1F8F PUSH2 0x3074 JUMP JUMPDEST PUSH8 0xDE0B6B3A7640000 DUP2 GT ISZERO PUSH2 0x1FD6 JUMPI PUSH1 0x40 MLOAD PUSH3 0x461BCD PUSH1 0xE5 SHL DUP2 MSTORE PUSH1 0x4 ADD DUP1 DUP1 PUSH1 0x20 ADD DUP3 DUP2 SUB DUP3 MSTORE PUSH1 0x26 DUP2 MSTORE PUSH1 0x20 ADD DUP1 PUSH2 0x41F6 PUSH1 0x26 SWAP2 CODECOPY PUSH1 0x40 ADD SWAP2 POP POP PUSH1 0x40 MLOAD DUP1 SWAP2 SUB SWAP1 REVERT JUMPDEST PUSH2 0x1FDE PUSH2 0x30BF JUMP JUMPDEST PUSH1 0x1 PUSH1 0x1 PUSH1 0xA0 SHL SUB AND PUSH4 0x1D5B277F PUSH1 0x0 DUP1 MLOAD PUSH1 0x20 PUSH2 0x42C3 DUP4 CODECOPY DUP2 MLOAD SWAP2 MSTORE PUSH23 0x6574686572577261707065724D696E7446656552617465 PUSH1 0x48 SHL DUP5 PUSH1 0x40 MLOAD DUP5 PUSH4 0xFFFFFFFF AND PUSH1 0xE0 SHL DUP2 MSTORE PUSH1 0x4 ADD DUP1 DUP5 DUP2 MSTORE PUSH1 0x20 ADD DUP4 DUP2 MSTORE PUSH1 0x20 ADD DUP3 DUP2 MSTORE PUSH1 0x20 ADD SWAP4 POP POP POP POP PUSH1 0x0 PUSH1 0x40 MLOAD DUP1 DUP4 SUB DUP2 PUSH1 0x0 DUP8 DUP1 EXTCODESIZE ISZERO DUP1 ISZERO PUSH2 0x205B JUMPI PUSH1 0x0 DUP1 REVERT JUMPDEST POP GAS CALL ISZERO DUP1 ISZERO PUSH2 0x206F JUMPI RETURNDATASIZE PUSH1 0x0 DUP1 RETURNDATACOPY RETURNDATASIZE PUSH1 0x0 REVERT JUMPDEST POP POP PUSH1 0x40 DUP1 MLOAD DUP5 DUP2 MSTORE SWAP1 MLOAD PUSH32 0x19EF86E0422AC5C02AFDC7B9F91F468CCC5E9B785BF7C158E01357E8503A819B SWAP4 POP SWAP1 DUP2 SWAP1 SUB PUSH1 0x20 ADD SWAP2 POP LOG1 POP JUMP JUMPDEST PUSH2 0x20B2 PUSH2 0x3074 JUMP JUMPDEST PUSH2 0x20BA PUSH2 0x30BF JUMP JUMPDEST PUSH1 0x1 PUSH1 0x1 PUSH1 0xA0 SHL SUB AND PUSH4 0x1D5B277F PUSH1 0x0 DUP1 MLOAD PUSH1 0x20 PUSH2 0x42C3 DUP4 CODECOPY DUP2 MLOAD SWAP2 MSTORE PUSH17 0x30BA37B6B4B1A83934B1B2A13AB33332B9 PUSH1 0x79 SHL DUP6 PUSH1 0x40 MLOAD PUSH1 0x20 ADD DUP1 DUP4 DUP2 MSTORE PUSH1 0x20 ADD DUP3 DUP2 MSTORE PUSH1 0x20 ADD SWAP3 POP POP POP PUSH1 0x40 MLOAD PUSH1 0x20 DUP2 DUP4 SUB SUB DUP2 MSTORE SWAP1 PUSH1 0x40 MSTORE DUP1 MLOAD SWAP1 PUSH1 0x20 ADD KECCAK256 DUP5 PUSH1 0x40 MLOAD DUP5 PUSH4 0xFFFFFFFF AND PUSH1 0xE0 SHL DUP2 MSTORE PUSH1 0x4 ADD DUP1 DUP5 DUP2 MSTORE PUSH1 0x20 ADD DUP4 DUP2 MSTORE PUSH1 0x20 ADD DUP3 DUP2 MSTORE PUSH1 0x20 ADD SWAP4 POP POP POP POP PUSH1 0x0 PUSH1 0x40 MLOAD DUP1 DUP4 SUB DUP2 PUSH1 0x0 DUP8 DUP1 EXTCODESIZE ISZERO DUP1 ISZERO PUSH2 0x215F JUMPI PUSH1 0x0 DUP1 REVERT JUMPDEST POP GAS CALL ISZERO DUP1 ISZERO PUSH2 0x2173 JUMPI RETURNDATASIZE PUSH1 0x0 DUP1 RETURNDATACOPY RETURNDATASIZE PUSH1 0x0 REVERT JUMPDEST POP POP PUSH1 0x40 DUP1 MLOAD DUP6 DUP2 MSTORE PUSH1 0x20 DUP2 ADD DUP6 SWAP1 MSTORE DUP2 MLOAD PUSH32 0x222824A1A314BA34555E60E4757E25A2D17B32D89F53BCFCAC36A996E99C29D2 SWAP5 POP SWAP1 DUP2 SWAP1 SUB SWAP1 SWAP2 ADD SWAP2 POP LOG1 POP POP JUMP JUMPDEST PUSH1 0x1 SLOAD PUSH1 0x1 PUSH1 0x1 PUSH1 0xA0 SHL SUB AND CALLER EQ PUSH2 0x21FF JUMPI PUSH1 0x40 MLOAD PUSH3 0x461BCD PUSH1 0xE5 SHL DUP2 MSTORE PUSH1 0x4 ADD DUP1 DUP1 PUSH1 0x20 ADD DUP3 DUP2 SUB DUP3 MSTORE PUSH1 0x35 DUP2 MSTORE PUSH1 0x20 ADD DUP1 PUSH2 0x4132 PUSH1 0x35 SWAP2 CODECOPY PUSH1 0x40 ADD SWAP2 POP POP PUSH1 0x40 MLOAD DUP1 SWAP2 SUB SWAP1 REVERT JUMPDEST PUSH1 0x0 SLOAD PUSH1 0x1 SLOAD PUSH1 0x40 DUP1 MLOAD PUSH1 0x1 PUSH1 0x1 PUSH1 0xA0 SHL SUB SWAP4 DUP5 AND DUP2 MSTORE SWAP3 SWAP1 SWAP2 AND PUSH1 0x20 DUP4 ADD MSTORE DUP1 MLOAD PUSH32 0xB532073B38C83145E3E5135377A08BF9AAB55BC0FD7C1179CD4FB995D2A5159C SWAP3 DUP2 SWAP1 SUB SWAP1 SWAP2 ADD SWAP1 LOG1 PUSH1 0x1 DUP1 SLOAD PUSH1 0x0 DUP1 SLOAD PUSH1 0x1 PUSH1 0x1 PUSH1 0xA0 SHL SUB NOT SWAP1 DUP2 AND PUSH1 0x1 PUSH1 0x1 PUSH1 0xA0 SHL SUB DUP5 AND OR SWAP1 SWAP2 SSTORE AND SWAP1 SSTORE JUMP JUMPDEST PUSH2 0x227A PUSH2 0x3074 JUMP JUMPDEST PUSH2 0x2282 PUSH2 0x30BF JUMP JUMPDEST PUSH1 0x1 PUSH1 0x1 PUSH1 0xA0 SHL SUB AND PUSH4 0x1D5B277F PUSH1 0x0 DUP1 MLOAD PUSH1 0x20 PUSH2 0x42C3 DUP4 CODECOPY DUP2 MLOAD SWAP2 MSTORE PUSH15 0x1C985D1954DD185B1954195C9A5BD9 PUSH1 0x8A SHL DUP5 PUSH1 0x40 MLOAD DUP5 PUSH4 0xFFFFFFFF AND PUSH1 0xE0 SHL DUP2 MSTORE PUSH1 0x4 ADD DUP1 DUP5 DUP2 MSTORE PUSH1 0x20 ADD DUP4 DUP2 MSTORE PUSH1 0x20 ADD DUP3 DUP2 MSTORE PUSH1 0x20 ADD SWAP4 POP POP POP POP PUSH1 0x0 PUSH1 0x40 MLOAD DUP1 DUP4 SUB DUP2 PUSH1 0x0 DUP8 DUP1 EXTCODESIZE ISZERO DUP1 ISZERO PUSH2 0x22F7 JUMPI PUSH1 0x0 DUP1 REVERT JUMPDEST POP GAS CALL ISZERO DUP1 ISZERO PUSH2 0x230B JUMPI RETURNDATASIZE PUSH1 0x0 DUP1 RETURNDATACOPY RETURNDATASIZE PUSH1 0x0 REVERT JUMPDEST POP POP PUSH1 0x40 DUP1 MLOAD DUP5 DUP2 MSTORE SWAP1 MLOAD PUSH32 0x16529D8C407B08938DA67DE7FA4319199BAFFCE4F5D1971F812CC770B0237E66 SWAP4 POP SWAP1 DUP2 SWAP1 SUB PUSH1 0x20 ADD SWAP2 POP LOG1 POP JUMP JUMPDEST PUSH2 0x234E PUSH2 0x3074 JUMP JUMPDEST PUSH1 0x1 PUSH1 0x1 PUSH1 0xA0 SHL SUB DUP2 AND PUSH2 0x23A9 JUMPI PUSH1 0x40 DUP1 MLOAD PUSH3 0x461BCD PUSH1 0xE5 SHL DUP2 MSTORE PUSH1 0x20 PUSH1 0x4 DUP3 ADD MSTORE PUSH1 0x1B PUSH1 0x24 DUP3 ADD MSTORE PUSH32 0x56616C69642061646472657373206D75737420626520676976656E0000000000 PUSH1 0x44 DUP3 ADD MSTORE SWAP1 MLOAD SWAP1 DUP2 SWAP1 SUB PUSH1 0x64 ADD SWAP1 REVERT JUMPDEST PUSH2 0x23B1 PUSH2 0x30BF JUMP JUMPDEST PUSH1 0x40 DUP1 MLOAD PUSH4 0x9B9412F PUSH1 0xE3 SHL DUP2 MSTORE PUSH1 0x0 DUP1 MLOAD PUSH1 0x20 PUSH2 0x42C3 DUP4 CODECOPY DUP2 MLOAD SWAP2 MSTORE PUSH1 0x4 DUP3 ADD MSTORE PUSH22 0x61676772656761746F725761726E696E67466C616773 PUSH1 0x50 SHL PUSH1 0x24 DUP3 ADD MSTORE PUSH1 0x1 PUSH1 0x1 PUSH1 0xA0 SHL SUB DUP5 DUP2 AND PUSH1 0x44 DUP4 ADD MSTORE SWAP2 MLOAD SWAP3 SWAP1 SWAP2 AND SWAP2 PUSH4 0x4DCA0978 SWAP2 PUSH1 0x64 DUP1 DUP3 ADD SWAP3 PUSH1 0x0 SWAP3 SWAP1 SWAP2 SWAP1 DUP3 SWAP1 SUB ADD DUP2 DUP4 DUP8 DUP1 EXTCODESIZE ISZERO DUP1 ISZERO PUSH2 0x2430 JUMPI PUSH1 0x0 DUP1 REVERT JUMPDEST POP GAS CALL ISZERO DUP1 ISZERO PUSH2 0x2444 JUMPI RETURNDATASIZE PUSH1 0x0 DUP1 RETURNDATACOPY RETURNDATASIZE PUSH1 0x0 REVERT JUMPDEST POP POP PUSH1 0x40 DUP1 MLOAD PUSH1 0x1 PUSH1 0x1 PUSH1 0xA0 SHL SUB DUP6 AND DUP2 MSTORE SWAP1 MLOAD PUSH32 0xF4CBDEE769EA02D5757B91905563555CC648FE42FC3EF201E28D97D2BBDE965 SWAP4 POP SWAP1 DUP2 SWAP1 SUB PUSH1 0x20 ADD SWAP2 POP LOG1 POP JUMP JUMPDEST PUSH3 0x2DC6C0 DUP2 JUMP JUMPDEST PUSH2 0x2497 PUSH2 0x3074 JUMP JUMPDEST PUSH1 0x3C DUP2 LT ISZERO PUSH2 0x24D7 JUMPI PUSH1 0x40 MLOAD PUSH3 0x461BCD PUSH1 0xE5 SHL DUP2 MSTORE PUSH1 0x4 ADD DUP1 DUP1 PUSH1 0x20 ADD DUP3 DUP2 SUB DUP3 MSTORE PUSH1 0x26 DUP2 MSTORE PUSH1 0x20 ADD DUP1 PUSH2 0x429D PUSH1 0x26 SWAP2 CODECOPY PUSH1 0x40 ADD SWAP2 POP POP PUSH1 0x40 MLOAD DUP1 SWAP2 SUB SWAP1 REVERT JUMPDEST PUSH3 0x15180 DUP2 GT ISZERO PUSH2 0x2519 JUMPI PUSH1 0x40 MLOAD PUSH3 0x461BCD PUSH1 0xE5 SHL DUP2 MSTORE PUSH1 0x4 ADD DUP1 DUP1 PUSH1 0x20 ADD DUP3 DUP2 SUB DUP3 MSTORE PUSH1 0x27 DUP2 MSTORE PUSH1 0x20 ADD DUP1 PUSH2 0x433E PUSH1 0x27 SWAP2 CODECOPY PUSH1 0x40 ADD SWAP2 POP POP PUSH1 0x40 MLOAD DUP1 SWAP2 SUB SWAP1 REVERT JUMPDEST PUSH2 0x2521 PUSH2 0x30BF JUMP JUMPDEST PUSH1 0x1 PUSH1 0x1 PUSH1 0xA0 SHL SUB AND PUSH4 0x1D5B277F PUSH1 0x0 DUP1 MLOAD PUSH1 0x20 PUSH2 0x42C3 DUP4 CODECOPY DUP2 MLOAD SWAP2 MSTORE PUSH16 0x61746F6D69635477617057696E646F77 PUSH1 0x80 SHL DUP5 PUSH1 0x40 MLOAD DUP5 PUSH4 0xFFFFFFFF AND PUSH1 0xE0 SHL DUP2 MSTORE PUSH1 0x4 ADD DUP1 DUP5 DUP2 MSTORE PUSH1 0x20 ADD DUP4 DUP2 MSTORE PUSH1 0x20 ADD DUP3 DUP2 MSTORE PUSH1 0x20 ADD SWAP4 POP POP POP POP PUSH1 0x0 PUSH1 0x40 MLOAD DUP1 DUP4 SUB DUP2 PUSH1 0x0 DUP8 DUP1 EXTCODESIZE ISZERO DUP1 ISZERO PUSH2 0x2597 JUMPI PUSH1 0x0 DUP1 REVERT JUMPDEST POP GAS CALL ISZERO DUP1 ISZERO PUSH2 0x25AB JUMPI RETURNDATASIZE PUSH1 0x0 DUP1 RETURNDATACOPY RETURNDATASIZE PUSH1 0x0 REVERT JUMPDEST POP POP PUSH1 0x40 DUP1 MLOAD DUP5 DUP2 MSTORE SWAP1 MLOAD PUSH32 0x61EE2076E20B46130CE31DE66F08321493E96F79DE0837FB0296B7FECA92285B SWAP4 POP SWAP1 DUP2 SWAP1 SUB PUSH1 0x20 ADD SWAP2 POP LOG1 POP JUMP JUMPDEST PUSH1 0x0 PUSH2 0xDB3 PUSH2 0x36C4 JUMP JUMPDEST PUSH1 0x40 DUP1 MLOAD PUSH1 0x1 DUP1 DUP3 MSTORE DUP2 DUP4 ADD SWAP1 SWAP3 MSTORE PUSH1 0x60 SWAP2 PUSH1 0x20 DUP1 DUP4 ADD SWAP1 DUP1 CODESIZE DUP4 CODECOPY ADD SWAP1 POP POP SWAP1 POP PUSH15 0x466C657869626C6553746F72616765 PUSH1 0x88 SHL DUP2 PUSH1 0x0 DUP2 MLOAD DUP2 LT PUSH2 0x2632 JUMPI INVALID JUMPDEST PUSH1 0x20 MUL PUSH1 0x20 ADD ADD DUP2 DUP2 MSTORE POP POP SWAP1 JUMP JUMPDEST PUSH1 0x0 SLOAD PUSH1 0x1 PUSH1 0x1 PUSH1 0xA0 SHL SUB AND DUP2 JUMP JUMPDEST PUSH1 0x0 PUSH2 0xDB3 PUSH2 0x373B JUMP JUMPDEST PUSH1 0x3C DUP2 JUMP JUMPDEST PUSH2 0x2667 PUSH2 0x3074 JUMP JUMPDEST PUSH2 0x2706 PUSH2 0x26F1 PUSH2 0x2675 PUSH2 0x32EC JUMP JUMPDEST PUSH20 0x0 PUSH4 0x907AF6C0 PUSH1 0x40 MLOAD DUP2 PUSH4 0xFFFFFFFF AND PUSH1 0xE0 SHL DUP2 MSTORE PUSH1 0x4 ADD PUSH1 0x20 PUSH1 0x40 MLOAD DUP1 DUP4 SUB DUP2 DUP7 DUP1 EXTCODESIZE ISZERO DUP1 ISZERO PUSH2 0x26B9 JUMPI PUSH1 0x0 DUP1 REVERT JUMPDEST POP GAS DELEGATECALL ISZERO DUP1 ISZERO PUSH2 0x26CD JUMPI RETURNDATASIZE PUSH1 0x0 DUP1 RETURNDATACOPY RETURNDATASIZE PUSH1 0x0 REVERT JUMPDEST POP POP POP POP PUSH1 0x40 MLOAD RETURNDATASIZE PUSH1 0x20 DUP2 LT ISZERO PUSH2 0x26E3 JUMPI PUSH1 0x0 DUP1 REVERT JUMPDEST POP MLOAD SWAP1 PUSH4 0xFFFFFFFF PUSH2 0x37B8 AND JUMP JUMPDEST PUSH8 0xDE0B6B3A7640000 SWAP1 PUSH4 0xFFFFFFFF PUSH2 0x3812 AND JUMP JUMPDEST DUP2 GT ISZERO PUSH2 0x2744 JUMPI PUSH1 0x40 MLOAD PUSH3 0x461BCD PUSH1 0xE5 SHL DUP2 MSTORE PUSH1 0x4 ADD DUP1 DUP1 PUSH1 0x20 ADD DUP3 DUP2 SUB DUP3 MSTORE PUSH1 0x38 DUP2 MSTORE PUSH1 0x20 ADD DUP1 PUSH2 0x4167 PUSH1 0x38 SWAP2 CODECOPY PUSH1 0x40 ADD SWAP2 POP POP PUSH1 0x40 MLOAD DUP1 SWAP2 SUB SWAP1 REVERT JUMPDEST PUSH1 0x0 PUSH2 0x2766 PUSH8 0x1BC16D674EC80000 PUSH2 0x275A PUSH2 0x3830 JUMP JUMPDEST SWAP1 PUSH4 0xFFFFFFFF PUSH2 0x38A3 AND JUMP JUMPDEST SWAP1 POP DUP1 DUP3 LT ISZERO PUSH2 0x27A7 JUMPI PUSH1 0x40 MLOAD PUSH3 0x461BCD PUSH1 0xE5 SHL DUP2 MSTORE PUSH1 0x4 ADD DUP1 DUP1 PUSH1 0x20 ADD DUP3 DUP2 SUB DUP3 MSTORE PUSH1 0x28 DUP2 MSTORE PUSH1 0x20 ADD DUP1 PUSH2 0x4316 PUSH1 0x28 SWAP2 CODECOPY PUSH1 0x40 ADD SWAP2 POP POP PUSH1 0x40 MLOAD DUP1 SWAP2 SUB SWAP1 REVERT JUMPDEST PUSH2 0x27AF PUSH2 0x30BF JUMP JUMPDEST PUSH1 0x1 PUSH1 0x1 PUSH1 0xA0 SHL SUB AND PUSH4 0x1D5B277F PUSH1 0x0 DUP1 MLOAD PUSH1 0x20 PUSH2 0x42C3 DUP4 CODECOPY DUP2 MLOAD SWAP2 MSTORE PUSH16 0x6C69717569646174696F6E526174696F PUSH1 0x80 SHL DUP6 PUSH1 0x40 MLOAD DUP5 PUSH4 0xFFFFFFFF AND PUSH1 0xE0 SHL DUP2 MSTORE PUSH1 0x4 ADD DUP1 DUP5 DUP2 MSTORE PUSH1 0x20 ADD DUP4 DUP2 MSTORE PUSH1 0x20 ADD DUP3 DUP2 MSTORE PUSH1 0x20 ADD SWAP4 POP POP POP POP PUSH1 0x0 PUSH1 0x40 MLOAD DUP1 DUP4 SUB DUP2 PUSH1 0x0 DUP8 DUP1 EXTCODESIZE ISZERO DUP1 ISZERO PUSH2 0x2825 JUMPI PUSH1 0x0 DUP1 REVERT JUMPDEST POP GAS CALL ISZERO DUP1 ISZERO PUSH2 0x2839 JUMPI RETURNDATASIZE PUSH1 0x0 DUP1 RETURNDATACOPY RETURNDATASIZE PUSH1 0x0 REVERT JUMPDEST POP POP PUSH1 0x40 DUP1 MLOAD DUP6 DUP2 MSTORE SWAP1 MLOAD PUSH32 0x5568BE83E5CF7405ADF8FB39305E2CDF49C43336606D23C3E0D3FE54E205150A SWAP4 POP SWAP1 DUP2 SWAP1 SUB PUSH1 0x20 ADD SWAP2 POP LOG1 POP POP JUMP JUMPDEST PUSH1 0x0 PUSH2 0xAE7 DUP3 PUSH2 0x38CD JUMP JUMPDEST PUSH1 0x0 PUSH2 0xAE7 DUP3 PUSH2 0x3970 JUMP JUMPDEST PUSH3 0x15180 DUP2 JUMP JUMPDEST PUSH1 0x0 PUSH2 0xDB3 PUSH2 0x3A1C JUMP JUMPDEST PUSH1 0x0 PUSH2 0xDB3 PUSH2 0x3A92 JUMP JUMPDEST PUSH8 0x1BC16D674EC80000 DUP2 JUMP JUMPDEST PUSH1 0x0 PUSH2 0xAE7 DUP3 PUSH2 0x3B0F JUMP JUMPDEST PUSH1 0x0 PUSH2 0xDB3 PUSH2 0x3BC0 JUMP JUMPDEST PUSH1 0x32 DUP2 JUMP JUMPDEST PUSH1 0x0 PUSH2 0xDB3 PUSH2 0x3830 JUMP JUMPDEST PUSH1 0x0 PUSH2 0xAE7 DUP3 PUSH2 0x3C3B JUMP JUMPDEST PUSH1 0x0 PUSH2 0xDB3 PUSH2 0x3CE0 JUMP JUMPDEST PUSH1 0x0 PUSH2 0xDB3 PUSH2 0x3D58 JUMP JUMPDEST PUSH2 0x28FD PUSH2 0x3074 JUMP JUMPDEST PUSH2 0x2905 PUSH2 0x30BF JUMP JUMPDEST PUSH1 0x40 DUP1 MLOAD PUSH32 0x61746F6D69634571756976616C656E74466F7244657850726963696E67000000 PUSH1 0x20 DUP1 DUP4 ADD SWAP2 SWAP1 SWAP2 MSTORE DUP2 DUP4 ADD DUP7 SWAP1 MSTORE DUP3 MLOAD DUP1 DUP4 SUB DUP5 ADD DUP2 MSTORE PUSH1 0x60 DUP4 ADD DUP1 DUP6 MSTORE DUP2 MLOAD SWAP2 SWAP1 SWAP3 ADD KECCAK256 PUSH4 0x9B9412F PUSH1 0xE3 SHL SWAP1 SWAP2 MSTORE PUSH1 0x0 DUP1 MLOAD PUSH1 0x20 PUSH2 0x42C3 DUP4 CODECOPY DUP2 MLOAD SWAP2 MSTORE PUSH1 0x64 DUP4 ADD MSTORE PUSH1 0x84 DUP3 ADD MSTORE PUSH1 0x1 PUSH1 0x1 PUSH1 0xA0 SHL SUB DUP5 DUP2 AND PUSH1 0xA4 DUP4 ADD MSTORE SWAP2 MLOAD SWAP3 SWAP1 SWAP2 AND SWAP2 PUSH4 0x4DCA0978 SWAP2 PUSH1 0xC4 DUP1 DUP3 ADD SWAP3 PUSH1 0x0 SWAP3 SWAP1 SWAP2 SWAP1 DUP3 SWAP1 SUB ADD DUP2 DUP4 DUP8 DUP1 EXTCODESIZE ISZERO DUP1 ISZERO PUSH2 0x29B2 JUMPI PUSH1 0x0 DUP1 REVERT JUMPDEST POP GAS CALL ISZERO DUP1 ISZERO PUSH2 0x29C6 JUMPI RETURNDATASIZE PUSH1 0x0 DUP1 RETURNDATACOPY RETURNDATASIZE PUSH1 0x0 REVERT JUMPDEST POP POP PUSH1 0x40 DUP1 MLOAD DUP6 DUP2 MSTORE PUSH1 0x1 PUSH1 0x1 PUSH1 0xA0 SHL SUB DUP6 AND PUSH1 0x20 DUP3 ADD MSTORE DUP2 MLOAD PUSH32 0xC7CFF0A6F47777500050F9A29AAC5206E15B25B782D1834A176F3B3B134D4F3A SWAP5 POP SWAP1 DUP2 SWAP1 SUB SWAP1 SWAP2 ADD SWAP2 POP LOG1 POP POP JUMP JUMPDEST PUSH3 0x7A1200 DUP2 JUMP JUMPDEST PUSH2 0x2A20 PUSH2 0x3074 JUMP JUMPDEST PUSH2 0x2A28 PUSH2 0x30BF JUMP JUMPDEST PUSH1 0x1 PUSH1 0x1 PUSH1 0xA0 SHL SUB AND PUSH4 0x1D5B277F PUSH1 0x0 DUP1 MLOAD PUSH1 0x20 PUSH2 0x42C3 DUP4 CODECOPY DUP2 MLOAD SWAP2 MSTORE PUSH18 0xCAE8D0CAE4AEE4C2E0E0CAE49AC2F08AA89 PUSH1 0x73 SHL DUP5 PUSH1 0x40 MLOAD DUP5 PUSH4 0xFFFFFFFF AND PUSH1 0xE0 SHL DUP2 MSTORE PUSH1 0x4 ADD DUP1 DUP5 DUP2 MSTORE PUSH1 0x20 ADD DUP4 DUP2 MSTORE PUSH1 0x20 ADD DUP3 DUP2 MSTORE PUSH1 0x20 ADD SWAP4 POP POP POP POP PUSH1 0x0 PUSH1 0x40 MLOAD DUP1 DUP4 SUB DUP2 PUSH1 0x0 DUP8 DUP1 EXTCODESIZE ISZERO DUP1 ISZERO PUSH2 0x2AA0 JUMPI PUSH1 0x0 DUP1 REVERT JUMPDEST POP GAS CALL ISZERO DUP1 ISZERO PUSH2 0x2AB4 JUMPI RETURNDATASIZE PUSH1 0x0 DUP1 RETURNDATACOPY RETURNDATASIZE PUSH1 0x0 REVERT JUMPDEST POP POP PUSH1 0x40 DUP1 MLOAD DUP5 DUP2 MSTORE SWAP1 MLOAD PUSH32 0x8086DE8BFEC0A6CD9A9213CAEF7EE137A59E4D8DA145DE163DC3F244DACDDC68 SWAP4 POP SWAP1 DUP2 SWAP1 SUB PUSH1 0x20 ADD SWAP2 POP LOG1 POP JUMP JUMPDEST PUSH2 0x2AF7 PUSH2 0x3074 JUMP JUMPDEST PUSH3 0x2DC6C0 DUP2 LT ISZERO DUP1 ISZERO PUSH2 0x2B0D JUMPI POP PUSH3 0x7A1200 DUP2 GT ISZERO JUMPDEST PUSH2 0x2B5E JUMPI PUSH1 0x40 DUP1 MLOAD PUSH3 0x461BCD PUSH1 0xE5 SHL DUP2 MSTORE PUSH1 0x20 PUSH1 0x4 DUP3 ADD MSTORE PUSH1 0x1D PUSH1 0x24 DUP3 ADD MSTORE PUSH32 0x4F7574206F662072616E67652078446F6D61696E206761734C696D6974000000 PUSH1 0x44 DUP3 ADD MSTORE SWAP1 MLOAD SWAP1 DUP2 SWAP1 SUB PUSH1 0x64 ADD SWAP1 REVERT JUMPDEST PUSH2 0x2B66 PUSH2 0x30BF JUMP JUMPDEST PUSH1 0x1 PUSH1 0x1 PUSH1 0xA0 SHL SUB AND PUSH4 0x1D5B277F PUSH1 0x0 DUP1 MLOAD PUSH1 0x20 PUSH2 0x42C3 DUP4 CODECOPY DUP2 MLOAD SWAP2 MSTORE PUSH2 0x2B8C DUP6 PUSH2 0x3DD3 JUMP JUMPDEST DUP5 PUSH1 0x40 MLOAD DUP5 PUSH4 0xFFFFFFFF AND PUSH1 0xE0 SHL DUP2 MSTORE PUSH1 0x4 ADD DUP1 DUP5 DUP2 MSTORE PUSH1 0x20 ADD DUP4 DUP2 MSTORE PUSH1 0x20 ADD DUP3 DUP2 MSTORE PUSH1 0x20 ADD SWAP4 POP POP POP POP PUSH1 0x0 PUSH1 0x40 MLOAD DUP1 DUP4 SUB DUP2 PUSH1 0x0 DUP8 DUP1 EXTCODESIZE ISZERO DUP1 ISZERO PUSH2 0x2BD1 JUMPI PUSH1 0x0 DUP1 REVERT JUMPDEST POP GAS CALL ISZERO DUP1 ISZERO PUSH2 0x2BE5 JUMPI RETURNDATASIZE PUSH1 0x0 DUP1 RETURNDATACOPY RETURNDATASIZE PUSH1 0x0 REVERT JUMPDEST POP POP POP POP PUSH32 0xBF62A396F632016F0E0CFFEDB18EE9BE41A161C79CEE3B64736B0C97A924554A DUP3 DUP3 PUSH1 0x40 MLOAD DUP1 DUP4 PUSH1 0x3 DUP2 GT ISZERO PUSH2 0x2C1C JUMPI INVALID JUMPDEST PUSH1 0xFF AND DUP2 MSTORE PUSH1 0x20 ADD DUP3 DUP2 MSTORE PUSH1 0x20 ADD SWAP3 POP POP POP PUSH1 0x40 MLOAD DUP1 SWAP2 SUB SWAP1 LOG1 POP POP JUMP JUMPDEST PUSH1 0x0 PUSH2 0xDB3 PUSH2 0x3F06 JUMP JUMPDEST PUSH2 0x2C4C PUSH2 0x3074 JUMP JUMPDEST PUSH8 0xDE0B6B3A7640000 DUP2 GT ISZERO PUSH2 0x2C93 JUMPI PUSH1 0x40 MLOAD PUSH3 0x461BCD PUSH1 0xE5 SHL DUP2 MSTORE PUSH1 0x4 ADD DUP1 DUP1 PUSH1 0x20 ADD DUP3 DUP2 SUB DUP3 MSTORE PUSH1 0x26 DUP2 MSTORE PUSH1 0x20 ADD DUP1 PUSH2 0x4277 PUSH1 0x26 SWAP2 CODECOPY PUSH1 0x40 ADD SWAP2 POP POP PUSH1 0x40 MLOAD DUP1 SWAP2 SUB SWAP1 REVERT JUMPDEST PUSH2 0x2C9B PUSH2 0x30BF JUMP JUMPDEST PUSH1 0x1 PUSH1 0x1 PUSH1 0xA0 SHL SUB AND PUSH4 0x1D5B277F PUSH1 0x0 DUP1 MLOAD PUSH1 0x20 PUSH2 0x42C3 DUP4 CODECOPY DUP2 MLOAD SWAP2 MSTORE PUSH23 0x6574686572577261707065724275726E46656552617465 PUSH1 0x48 SHL DUP5 PUSH1 0x40 MLOAD DUP5 PUSH4 0xFFFFFFFF AND PUSH1 0xE0 SHL DUP2 MSTORE PUSH1 0x4 ADD DUP1 DUP5 DUP2 MSTORE PUSH1 0x20 ADD DUP4 DUP2 MSTORE PUSH1 0x20 ADD DUP3 DUP2 MSTORE PUSH1 0x20 ADD SWAP4 POP POP POP POP PUSH1 0x0 PUSH1 0x40 MLOAD DUP1 DUP4 SUB DUP2 PUSH1 0x0 DUP8 DUP1 EXTCODESIZE ISZERO DUP1 ISZERO PUSH2 0x2D18 JUMPI PUSH1 0x0 DUP1 REVERT JUMPDEST POP GAS CALL ISZERO DUP1 ISZERO PUSH2 0x2D2C JUMPI RETURNDATASIZE PUSH1 0x0 DUP1 RETURNDATACOPY RETURNDATASIZE PUSH1 0x0 REVERT JUMPDEST POP POP PUSH1 0x40 DUP1 MLOAD DUP5 DUP2 MSTORE SWAP1 MLOAD PUSH32 0x1C97C2E8B44AA487062D3E92CE52AC814B35191F4799FD2D5A3F36C67F1D9D4A SWAP4 POP SWAP1 DUP2 SWAP1 SUB PUSH1 0x20 ADD SWAP2 POP LOG1 POP JUMP JUMPDEST PUSH1 0x1 PUSH1 0x1 PUSH1 0xC0 SHL SUB DUP2 JUMP JUMPDEST PUSH2 0x2D7A PUSH2 0x3074 JUMP JUMPDEST PUSH3 0x93A80 DUP2 GT ISZERO PUSH2 0x2DD2 JUMPI PUSH1 0x40 DUP1 MLOAD PUSH3 0x461BCD PUSH1 0xE5 SHL DUP2 MSTORE PUSH1 0x20 PUSH1 0x4 DUP3 ADD DUP2 SWAP1 MSTORE PUSH1 0x24 DUP3 ADD MSTORE PUSH32 0x7374616B652074696D6520657863656564206D6178696D756D2031207765656B PUSH1 0x44 DUP3 ADD MSTORE SWAP1 MLOAD SWAP1 DUP2 SWAP1 SUB PUSH1 0x64 ADD SWAP1 REVERT JUMPDEST PUSH2 0x2DDA PUSH2 0x30BF JUMP JUMPDEST PUSH1 0x1 PUSH1 0x1 PUSH1 0xA0 SHL SUB AND PUSH4 0x1D5B277F PUSH1 0x0 DUP1 MLOAD PUSH1 0x20 PUSH2 0x42C3 DUP4 CODECOPY DUP2 MLOAD SWAP2 MSTORE PUSH16 0x6D696E696D756D5374616B6554696D65 PUSH1 0x80 SHL DUP5 PUSH1 0x40 MLOAD DUP5 PUSH4 0xFFFFFFFF AND PUSH1 0xE0 SHL DUP2 MSTORE PUSH1 0x4 ADD DUP1 DUP5 DUP2 MSTORE PUSH1 0x20 ADD DUP4 DUP2 MSTORE PUSH1 0x20 ADD DUP3 DUP2 MSTORE PUSH1 0x20 ADD SWAP4 POP POP POP POP PUSH1 0x0 PUSH1 0x40 MLOAD DUP1 DUP4 SUB DUP2 PUSH1 0x0 DUP8 DUP1 EXTCODESIZE ISZERO DUP1 ISZERO PUSH2 0x2E50 JUMPI PUSH1 0x0 DUP1 REVERT JUMPDEST POP GAS CALL ISZERO DUP1 ISZERO PUSH2 0x2E64 JUMPI RETURNDATASIZE PUSH1 0x0 DUP1 RETURNDATACOPY RETURNDATASIZE PUSH1 0x0 REVERT JUMPDEST POP POP PUSH1 0x40 DUP1 MLOAD DUP5 DUP2 MSTORE SWAP1 MLOAD PUSH32 0x2B0FA66D155C9598699CB6569577F27B95729BBF580268EED39DB6BC4E814477 SWAP4 POP SWAP1 DUP2 SWAP1 SUB PUSH1 0x20 ADD SWAP2 POP LOG1 POP JUMP JUMPDEST PUSH2 0x2EA7 PUSH2 0x3074 JUMP JUMPDEST PUSH2 0x2EAF PUSH2 0x30BF JUMP JUMPDEST PUSH1 0x1 PUSH1 0x1 PUSH1 0xA0 SHL SUB AND PUSH4 0x1D5B277F PUSH1 0x0 DUP1 MLOAD PUSH1 0x20 PUSH2 0x42C3 DUP4 CODECOPY DUP2 MLOAD SWAP2 MSTORE PUSH24 0x185D1BDB5A58D59BDB155C19185D19551A1C995CDA1BDB19 PUSH1 0x42 SHL DUP6 PUSH1 0x40 MLOAD PUSH1 0x20 ADD DUP1 DUP4 DUP2 MSTORE PUSH1 0x20 ADD DUP3 DUP2 MSTORE PUSH1 0x20 ADD SWAP3 POP POP POP PUSH1 0x40 MLOAD PUSH1 0x20 DUP2 DUP4 SUB SUB DUP2 MSTORE SWAP1 PUSH1 0x40 MSTORE DUP1 MLOAD SWAP1 PUSH1 0x20 ADD KECCAK256 DUP5 PUSH1 0x40 MLOAD DUP5 PUSH4 0xFFFFFFFF AND PUSH1 0xE0 SHL DUP2 MSTORE PUSH1 0x4 ADD DUP1 DUP5 DUP2 MSTORE PUSH1 0x20 ADD DUP4 DUP2 MSTORE PUSH1 0x20 ADD DUP3 DUP2 MSTORE PUSH1 0x20 ADD SWAP4 POP POP POP POP PUSH1 0x0 PUSH1 0x40 MLOAD DUP1 DUP4 SUB DUP2 PUSH1 0x0 DUP8 DUP1 EXTCODESIZE ISZERO DUP1 ISZERO PUSH2 0x2F5B JUMPI PUSH1 0x0 DUP1 REVERT JUMPDEST POP GAS CALL ISZERO DUP1 ISZERO PUSH2 0x2F6F JUMPI RETURNDATASIZE PUSH1 0x0 DUP1 RETURNDATACOPY RETURNDATASIZE PUSH1 0x0 REVERT JUMPDEST POP POP PUSH1 0x40 DUP1 MLOAD DUP6 DUP2 MSTORE PUSH1 0x20 DUP2 ADD DUP6 SWAP1 MSTORE DUP2 MLOAD PUSH32 0x460476CC6F40E86F19053BA74C9BAF4C2CEF96452BB2722A454D66DB953A7B3D SWAP5 POP SWAP1 DUP2 SWAP1 SUB SWAP1 SWAP2 ADD SWAP2 POP LOG1 POP POP JUMP JUMPDEST PUSH3 0x278D00 DUP2 JUMP JUMPDEST PUSH1 0x0 PUSH2 0xAE7 DUP3 PUSH2 0x3F7B JUMP JUMPDEST PUSH3 0x4F1A00 DUP2 JUMP JUMPDEST PUSH8 0x16345785D8A0000 DUP2 JUMP JUMPDEST PUSH1 0x0 PUSH2 0x2FE1 PUSH2 0x30BF JUMP JUMPDEST PUSH1 0x1 PUSH1 0x1 PUSH1 0xA0 SHL SUB AND PUSH4 0x23257C2B PUSH1 0x0 DUP1 MLOAD PUSH1 0x20 PUSH2 0x42C3 DUP4 CODECOPY DUP2 MLOAD SWAP2 MSTORE PUSH2 0x3007 DUP6 PUSH2 0x3DD3 JUMP JUMPDEST PUSH1 0x40 MLOAD DUP4 PUSH4 0xFFFFFFFF AND PUSH1 0xE0 SHL DUP2 MSTORE PUSH1 0x4 ADD DUP1 DUP4 DUP2 MSTORE PUSH1 0x20 ADD DUP3 DUP2 MSTORE PUSH1 0x20 ADD SWAP3 POP POP POP PUSH1 0x20 PUSH1 0x40 MLOAD DUP1 DUP4 SUB DUP2 DUP7 DUP1 EXTCODESIZE ISZERO DUP1 ISZERO PUSH2 0x3042 JUMPI PUSH1 0x0 DUP1 REVERT JUMPDEST POP GAS STATICCALL ISZERO DUP1 ISZERO PUSH2 0x3056 JUMPI RETURNDATASIZE PUSH1 0x0 DUP1 RETURNDATACOPY RETURNDATASIZE PUSH1 0x0 REVERT JUMPDEST POP POP POP POP PUSH1 0x40 MLOAD RETURNDATASIZE PUSH1 0x20 DUP2 LT ISZERO PUSH2 0x306C JUMPI PUSH1 0x0 DUP1 REVERT JUMPDEST POP MLOAD SWAP3 SWAP2 POP POP JUMP JUMPDEST PUSH1 0x0 SLOAD PUSH1 0x1 PUSH1 0x1 PUSH1 0xA0 SHL SUB AND CALLER EQ PUSH2 0x30BD JUMPI PUSH1 0x40 MLOAD PUSH3 0x461BCD PUSH1 0xE5 SHL DUP2 MSTORE PUSH1 0x4 ADD DUP1 DUP1 PUSH1 0x20 ADD DUP3 DUP2 SUB DUP3 MSTORE PUSH1 0x2F DUP2 MSTORE PUSH1 0x20 ADD DUP1 PUSH2 0x41C7 PUSH1 0x2F SWAP2 CODECOPY PUSH1 0x40 ADD SWAP2 POP POP PUSH1 0x40 MLOAD DUP1 SWAP2 SUB SWAP1 REVERT JUMPDEST JUMP JUMPDEST PUSH1 0x0 PUSH2 0xDB3 PUSH15 0x466C657869626C6553746F72616765 PUSH1 0x88 SHL PUSH2 0x402C JUMP JUMPDEST PUSH1 0x0 PUSH2 0x30E6 PUSH2 0x30BF JUMP JUMPDEST PUSH1 0x1 PUSH1 0x1 PUSH1 0xA0 SHL SUB AND PUSH4 0x23257C2B PUSH1 0x0 DUP1 MLOAD PUSH1 0x20 PUSH2 0x42C3 DUP4 CODECOPY DUP2 MLOAD SWAP2 MSTORE PUSH15 0x1C985D1954DD185B1954195C9A5BD9 PUSH1 0x8A SHL PUSH1 0x40 MLOAD DUP4 PUSH4 0xFFFFFFFF AND PUSH1 0xE0 SHL DUP2 MSTORE PUSH1 0x4 ADD DUP1 DUP4 DUP2 MSTORE PUSH1 0x20 ADD DUP3 DUP2 MSTORE PUSH1 0x20 ADD SWAP3 POP POP POP PUSH1 0x20 PUSH1 0x40 MLOAD DUP1 DUP4 SUB DUP2 DUP7 DUP1 EXTCODESIZE ISZERO DUP1 ISZERO PUSH2 0x3151 JUMPI PUSH1 0x0 DUP1 REVERT JUMPDEST POP GAS STATICCALL ISZERO DUP1 ISZERO PUSH2 0x3165 JUMPI RETURNDATASIZE PUSH1 0x0 DUP1 RETURNDATACOPY RETURNDATASIZE PUSH1 0x0 REVERT JUMPDEST POP POP POP POP PUSH1 0x40 MLOAD RETURNDATASIZE PUSH1 0x20 DUP2 LT ISZERO PUSH2 0x317B JUMPI PUSH1 0x0 DUP1 REVERT JUMPDEST POP MLOAD SWAP1 POP SWAP1 JUMP JUMPDEST PUSH1 0x0 PUSH2 0x318C PUSH2 0x30BF JUMP JUMPDEST PUSH1 0x1 PUSH1 0x1 PUSH1 0xA0 SHL SUB AND PUSH4 0x23257C2B PUSH1 0x0 DUP1 MLOAD PUSH1 0x20 PUSH2 0x42C3 DUP4 CODECOPY DUP2 MLOAD SWAP2 MSTORE PUSH23 0x6574686572577261707065724D696E7446656552617465 PUSH1 0x48 SHL PUSH1 0x40 MLOAD DUP4 PUSH4 0xFFFFFFFF AND PUSH1 0xE0 SHL DUP2 MSTORE PUSH1 0x4 ADD DUP1 DUP4 DUP2 MSTORE PUSH1 0x20 ADD DUP3 DUP2 MSTORE PUSH1 0x20 ADD SWAP3 POP POP POP PUSH1 0x20 PUSH1 0x40 MLOAD DUP1 DUP4 SUB DUP2 DUP7 DUP1 EXTCODESIZE ISZERO DUP1 ISZERO PUSH2 0x3151 JUMPI PUSH1 0x0 DUP1 REVERT JUMPDEST PUSH1 0x0 PUSH2 0x3209 PUSH2 0x30BF JUMP JUMPDEST PUSH1 0x1 PUSH1 0x1 PUSH1 0xA0 SHL SUB AND PUSH4 0x23257C2B PUSH1 0x0 DUP1 MLOAD PUSH1 0x20 PUSH2 0x42C3 DUP4 CODECOPY DUP2 MLOAD SWAP2 MSTORE PUSH16 0x6C69717569646174696F6E526174696F PUSH1 0x80 SHL PUSH1 0x40 MLOAD DUP4 PUSH4 0xFFFFFFFF AND PUSH1 0xE0 SHL DUP2 MSTORE PUSH1 0x4 ADD DUP1 DUP4 DUP2 MSTORE PUSH1 0x20 ADD DUP3 DUP2 MSTORE PUSH1 0x20 ADD SWAP3 POP POP POP PUSH1 0x20 PUSH1 0x40 MLOAD DUP1 DUP4 SUB DUP2 DUP7 DUP1 EXTCODESIZE ISZERO DUP1 ISZERO PUSH2 0x3151 JUMPI PUSH1 0x0 DUP1 REVERT JUMPDEST PUSH1 0x0 PUSH2 0x327F PUSH2 0x30BF JUMP JUMPDEST PUSH1 0x1 PUSH1 0x1 PUSH1 0xA0 SHL SUB AND PUSH4 0x23257C2B PUSH1 0x0 DUP1 MLOAD PUSH1 0x20 PUSH2 0x42C3 DUP4 CODECOPY DUP2 MLOAD SWAP2 MSTORE PUSH17 0x3332B2A832B934B7B2223AB930BA34B7B7 PUSH1 0x79 SHL PUSH1 0x40 MLOAD DUP4 PUSH4 0xFFFFFFFF AND PUSH1 0xE0 SHL DUP2 MSTORE PUSH1 0x4 ADD DUP1 DUP4 DUP2 MSTORE PUSH1 0x20 ADD DUP3 DUP2 MSTORE PUSH1 0x20 ADD SWAP3 POP POP POP PUSH1 0x20 PUSH1 0x40 MLOAD DUP1 DUP4 SUB DUP2 DUP7 DUP1 EXTCODESIZE ISZERO DUP1 ISZERO PUSH2 0x3151 JUMPI PUSH1 0x0 DUP1 REVERT JUMPDEST PUSH1 0x0 PUSH2 0x32F6 PUSH2 0x30BF JUMP JUMPDEST PUSH1 0x1 PUSH1 0x1 PUSH1 0xA0 SHL SUB AND PUSH4 0x23257C2B PUSH1 0x0 DUP1 MLOAD PUSH1 0x20 PUSH2 0x42C3 DUP4 CODECOPY DUP2 MLOAD SWAP2 MSTORE PUSH18 0x6C69717569646174696F6E50656E616C7479 PUSH1 0x70 SHL PUSH1 0x40 MLOAD DUP4 PUSH4 0xFFFFFFFF AND PUSH1 0xE0 SHL DUP2 MSTORE PUSH1 0x4 ADD DUP1 DUP4 DUP2 MSTORE PUSH1 0x20 ADD DUP3 DUP2 MSTORE PUSH1 0x20 ADD SWAP3 POP POP POP PUSH1 0x20 PUSH1 0x40 MLOAD DUP1 DUP4 SUB DUP2 DUP7 DUP1 EXTCODESIZE ISZERO DUP1 ISZERO PUSH2 0x3151 JUMPI PUSH1 0x0 DUP1 REVERT JUMPDEST PUSH1 0x0 PUSH2 0x336E PUSH2 0x30BF JUMP JUMPDEST PUSH1 0x1 PUSH1 0x1 PUSH1 0xA0 SHL SUB AND PUSH4 0x23257C2B PUSH1 0x0 DUP1 MLOAD PUSH1 0x20 PUSH2 0x42C3 DUP4 CODECOPY DUP2 MLOAD SWAP2 MSTORE PUSH16 0x6D696E696D756D5374616B6554696D65 PUSH1 0x80 SHL PUSH1 0x40 MLOAD DUP4 PUSH4 0xFFFFFFFF AND PUSH1 0xE0 SHL DUP2 MSTORE PUSH1 0x4 ADD DUP1 DUP4 DUP2 MSTORE PUSH1 0x20 ADD DUP3 DUP2 MSTORE PUSH1 0x20 ADD SWAP3 POP POP POP PUSH1 0x20 PUSH1 0x40 MLOAD DUP1 DUP4 SUB DUP2 DUP7 DUP1 EXTCODESIZE ISZERO DUP1 ISZERO PUSH2 0x3151 JUMPI PUSH1 0x0 DUP1 REVERT JUMPDEST PUSH1 0x0 PUSH2 0x33E4 PUSH2 0x30BF JUMP JUMPDEST PUSH1 0x1 PUSH1 0x1 PUSH1 0xA0 SHL SUB AND PUSH4 0x23257C2B PUSH1 0x0 DUP1 MLOAD PUSH1 0x20 PUSH2 0x42C3 DUP4 CODECOPY DUP2 MLOAD SWAP2 MSTORE PUSH21 0x61746F6D696345786368616E676546656552617465 PUSH1 0x58 SHL DUP6 PUSH1 0x40 MLOAD PUSH1 0x20 ADD DUP1 DUP4 DUP2 MSTORE PUSH1 0x20 ADD DUP3 DUP2 MSTORE PUSH1 0x20 ADD SWAP3 POP POP POP PUSH1 0x40 MLOAD PUSH1 0x20 DUP2 DUP4 SUB SUB DUP2 MSTORE SWAP1 PUSH1 0x40 MSTORE DUP1 MLOAD SWAP1 PUSH1 0x20 ADD KECCAK256 PUSH1 0x40 MLOAD DUP4 PUSH4 0xFFFFFFFF AND PUSH1 0xE0 SHL DUP2 MSTORE PUSH1 0x4 ADD DUP1 DUP4 DUP2 MSTORE PUSH1 0x20 ADD DUP3 DUP2 MSTORE PUSH1 0x20 ADD SWAP3 POP POP POP PUSH1 0x20 PUSH1 0x40 MLOAD DUP1 DUP4 SUB DUP2 DUP7 DUP1 EXTCODESIZE ISZERO DUP1 ISZERO PUSH2 0x3042 JUMPI PUSH1 0x0 DUP1 REVERT JUMPDEST PUSH1 0x0 DUP3 PUSH2 0x3492 JUMPI POP PUSH1 0x0 PUSH2 0x34DF JUMP JUMPDEST DUP3 DUP3 MUL DUP3 DUP5 DUP3 DUP2 PUSH2 0x349F JUMPI INVALID JUMPDEST DIV EQ PUSH2 0x34DC JUMPI PUSH1 0x40 MLOAD PUSH3 0x461BCD PUSH1 0xE5 SHL DUP2 MSTORE PUSH1 0x4 ADD DUP1 DUP1 PUSH1 0x20 ADD DUP3 DUP2 SUB DUP3 MSTORE PUSH1 0x21 DUP2 MSTORE PUSH1 0x20 ADD DUP1 PUSH2 0x421C PUSH1 0x21 SWAP2 CODECOPY PUSH1 0x40 ADD SWAP2 POP POP PUSH1 0x40 MLOAD DUP1 SWAP2 SUB SWAP1 REVERT JUMPDEST SWAP1 POP JUMPDEST SWAP3 SWAP2 POP POP JUMP JUMPDEST PUSH1 0x0 DUP1 DUP3 GT PUSH2 0x353B JUMPI PUSH1 0x40 DUP1 MLOAD PUSH3 0x461BCD PUSH1 0xE5 SHL DUP2 MSTORE PUSH1 0x20 PUSH1 0x4 DUP3 ADD MSTORE PUSH1 0x1A PUSH1 0x24 DUP3 ADD MSTORE PUSH32 0x536166654D6174683A206469766973696F6E206279207A65726F000000000000 PUSH1 0x44 DUP3 ADD MSTORE SWAP1 MLOAD SWAP1 DUP2 SWAP1 SUB PUSH1 0x64 ADD SWAP1 REVERT JUMPDEST PUSH1 0x0 DUP3 DUP5 DUP2 PUSH2 0x3546 JUMPI INVALID JUMPDEST DIV SWAP5 SWAP4 POP POP POP POP JUMP JUMPDEST PUSH1 0x0 PUSH2 0x3559 PUSH2 0x30BF JUMP JUMPDEST PUSH1 0x1 PUSH1 0x1 PUSH1 0xA0 SHL SUB AND PUSH4 0x23257C2B PUSH1 0x0 DUP1 MLOAD PUSH1 0x20 PUSH2 0x42C3 DUP4 CODECOPY DUP2 MLOAD SWAP2 MSTORE PUSH32 0x7072696365446576696174696F6E5468726573686F6C64466163746F72000000 PUSH1 0x40 MLOAD DUP4 PUSH4 0xFFFFFFFF AND PUSH1 0xE0 SHL DUP2 MSTORE PUSH1 0x4 ADD DUP1 DUP4 DUP2 MSTORE PUSH1 0x20 ADD DUP3 DUP2 MSTORE PUSH1 0x20 ADD SWAP3 POP POP POP PUSH1 0x20 PUSH1 0x40 MLOAD DUP1 DUP4 SUB DUP2 DUP7 DUP1 EXTCODESIZE ISZERO DUP1 ISZERO PUSH2 0x3151 JUMPI PUSH1 0x0 DUP1 REVERT JUMPDEST PUSH1 0x0 PUSH2 0x35DC PUSH2 0x30BF JUMP JUMPDEST PUSH1 0x1 PUSH1 0x1 PUSH1 0xA0 SHL SUB AND PUSH4 0x9EE5955A PUSH1 0x0 DUP1 MLOAD PUSH1 0x20 PUSH2 0x42C3 DUP4 CODECOPY DUP2 MLOAD SWAP2 MSTORE PUSH22 0x61676772656761746F725761726E696E67466C616773 PUSH1 0x50 SHL PUSH1 0x40 MLOAD DUP4 PUSH4 0xFFFFFFFF AND PUSH1 0xE0 SHL DUP2 MSTORE PUSH1 0x4 ADD DUP1 DUP4 DUP2 MSTORE PUSH1 0x20 ADD DUP3 DUP2 MSTORE PUSH1 0x20 ADD SWAP3 POP POP POP PUSH1 0x20 PUSH1 0x40 MLOAD DUP1 DUP4 SUB DUP2 DUP7 DUP1 EXTCODESIZE ISZERO DUP1 ISZERO PUSH2 0x3151 JUMPI PUSH1 0x0 DUP1 REVERT JUMPDEST PUSH1 0x0 PUSH2 0x3658 PUSH2 0x30BF JUMP JUMPDEST PUSH1 0x1 PUSH1 0x1 PUSH1 0xA0 SHL SUB AND PUSH4 0x23257C2B PUSH1 0x0 DUP1 MLOAD PUSH1 0x20 PUSH2 0x42C3 DUP4 CODECOPY DUP2 MLOAD SWAP2 MSTORE PUSH16 0x61746F6D69635477617057696E646F77 PUSH1 0x80 SHL PUSH1 0x40 MLOAD DUP4 PUSH4 0xFFFFFFFF AND PUSH1 0xE0 SHL DUP2 MSTORE PUSH1 0x4 ADD DUP1 DUP4 DUP2 MSTORE PUSH1 0x20 ADD DUP3 DUP2 MSTORE PUSH1 0x20 ADD SWAP3 POP POP POP PUSH1 0x20 PUSH1 0x40 MLOAD DUP1 DUP4 SUB DUP2 DUP7 DUP1 EXTCODESIZE ISZERO DUP1 ISZERO PUSH2 0x3151 JUMPI PUSH1 0x0 DUP1 REVERT JUMPDEST PUSH1 0x0 PUSH2 0x36CE PUSH2 0x30BF JUMP JUMPDEST PUSH1 0x1 PUSH1 0x1 PUSH1 0xA0 SHL SUB AND PUSH4 0x23257C2B PUSH1 0x0 DUP1 MLOAD PUSH1 0x20 PUSH2 0x42C3 DUP4 CODECOPY DUP2 MLOAD SWAP2 MSTORE PUSH17 0x77616974696E67506572696F6453656373 PUSH1 0x78 SHL PUSH1 0x40 MLOAD DUP4 PUSH4 0xFFFFFFFF AND PUSH1 0xE0 SHL DUP2 MSTORE PUSH1 0x4 ADD DUP1 DUP4 DUP2 MSTORE PUSH1 0x20 ADD DUP3 DUP2 MSTORE PUSH1 0x20 ADD SWAP3 POP POP POP PUSH1 0x20 PUSH1 0x40 MLOAD DUP1 DUP4 SUB DUP2 DUP7 DUP1 EXTCODESIZE ISZERO DUP1 ISZERO PUSH2 0x3151 JUMPI PUSH1 0x0 DUP1 REVERT JUMPDEST PUSH1 0x0 PUSH2 0x3745 PUSH2 0x30BF JUMP JUMPDEST PUSH1 0x1 PUSH1 0x1 PUSH1 0xA0 SHL SUB AND PUSH4 0x23257C2B PUSH1 0x0 DUP1 MLOAD PUSH1 0x20 PUSH2 0x42C3 DUP4 CODECOPY DUP2 MLOAD SWAP2 MSTORE PUSH23 0x6574686572577261707065724275726E46656552617465 PUSH1 0x48 SHL PUSH1 0x40 MLOAD DUP4 PUSH4 0xFFFFFFFF AND PUSH1 0xE0 SHL DUP2 MSTORE PUSH1 0x4 ADD DUP1 DUP4 DUP2 MSTORE PUSH1 0x20 ADD DUP3 DUP2 MSTORE PUSH1 0x20 ADD SWAP3 POP POP POP PUSH1 0x20 PUSH1 0x40 MLOAD DUP1 DUP4 SUB DUP2 DUP7 DUP1 EXTCODESIZE ISZERO DUP1 ISZERO PUSH2 0x3151 JUMPI PUSH1 0x0 DUP1 REVERT JUMPDEST PUSH1 0x0 DUP3 DUP3 ADD DUP4 DUP2 LT ISZERO PUSH2 0x34DC JUMPI PUSH1 0x40 DUP1 MLOAD PUSH3 0x461BCD PUSH1 0xE5 SHL DUP2 MSTORE PUSH1 0x20 PUSH1 0x4 DUP3 ADD MSTORE PUSH1 0x1B PUSH1 0x24 DUP3 ADD MSTORE PUSH32 0x536166654D6174683A206164646974696F6E206F766572666C6F770000000000 PUSH1 0x44 DUP3 ADD MSTORE SWAP1 MLOAD SWAP1 DUP2 SWAP1 SUB PUSH1 0x64 ADD SWAP1 REVERT JUMPDEST PUSH1 0x0 PUSH2 0x34DC DUP3 PUSH2 0x176E DUP6 PUSH8 0xDE0B6B3A7640000 PUSH4 0xFFFFFFFF PUSH2 0x3483 AND JUMP JUMPDEST PUSH1 0x0 PUSH2 0x383A PUSH2 0x30BF JUMP JUMPDEST PUSH1 0x1 PUSH1 0x1 PUSH1 0xA0 SHL SUB AND PUSH4 0x23257C2B PUSH1 0x0 DUP1 MLOAD PUSH1 0x20 PUSH2 0x42C3 DUP4 CODECOPY DUP2 MLOAD SWAP2 MSTORE PUSH13 0x69737375616E6365526174696F PUSH1 0x98 SHL PUSH1 0x40 MLOAD DUP4 PUSH4 0xFFFFFFFF AND PUSH1 0xE0 SHL DUP2 MSTORE PUSH1 0x4 ADD DUP1 DUP4 DUP2 MSTORE PUSH1 0x20 ADD DUP3 DUP2 MSTORE PUSH1 0x20 ADD SWAP3 POP POP POP PUSH1 0x20 PUSH1 0x40 MLOAD DUP1 DUP4 SUB DUP2 DUP7 DUP1 EXTCODESIZE ISZERO DUP1 ISZERO PUSH2 0x3151 JUMPI PUSH1 0x0 DUP1 REVERT JUMPDEST PUSH1 0x0 PUSH8 0xDE0B6B3A7640000 PUSH2 0x38BE DUP5 DUP5 PUSH4 0xFFFFFFFF PUSH2 0x3483 AND JUMP JUMPDEST DUP2 PUSH2 0x38C5 JUMPI INVALID JUMPDEST DIV SWAP4 SWAP3 POP POP POP JUMP JUMPDEST PUSH1 0x0 PUSH2 0x38D7 PUSH2 0x30BF JUMP JUMPDEST PUSH1 0x1 PUSH1 0x1 PUSH1 0xA0 SHL SUB AND PUSH4 0x23257C2B PUSH1 0x0 DUP1 MLOAD PUSH1 0x20 PUSH2 0x42C3 DUP4 CODECOPY DUP2 MLOAD SWAP2 MSTORE PUSH15 0x65786368616E676546656552617465 PUSH1 0x88 SHL DUP6 PUSH1 0x40 MLOAD PUSH1 0x20 ADD DUP1 DUP4 DUP2 MSTORE PUSH1 0x20 ADD DUP3 DUP2 MSTORE PUSH1 0x20 ADD SWAP3 POP POP POP PUSH1 0x40 MLOAD PUSH1 0x20 DUP2 DUP4 SUB SUB DUP2 MSTORE SWAP1 PUSH1 0x40 MSTORE DUP1 MLOAD SWAP1 PUSH1 0x20 ADD KECCAK256 PUSH1 0x40 MLOAD DUP4 PUSH4 0xFFFFFFFF AND PUSH1 0xE0 SHL DUP2 MSTORE PUSH1 0x4 ADD DUP1 DUP4 DUP2 MSTORE PUSH1 0x20 ADD DUP3 DUP2 MSTORE PUSH1 0x20 ADD SWAP3 POP POP POP PUSH1 0x20 PUSH1 0x40 MLOAD DUP1 DUP4 SUB DUP2 DUP7 DUP1 EXTCODESIZE ISZERO DUP1 ISZERO PUSH2 0x3042 JUMPI PUSH1 0x0 DUP1 REVERT JUMPDEST PUSH1 0x0 PUSH2 0x397A PUSH2 0x30BF JUMP JUMPDEST PUSH1 0x1 PUSH1 0x1 PUSH1 0xA0 SHL SUB AND PUSH4 0x23257C2B PUSH1 0x0 DUP1 MLOAD PUSH1 0x20 PUSH2 0x42C3 DUP4 CODECOPY DUP2 MLOAD SWAP2 MSTORE PUSH24 0x185D1BDB5A58D59BDB155C19185D19551A1C995CDA1BDB19 PUSH1 0x42 SHL DUP6 PUSH1 0x40 MLOAD PUSH1 0x20 ADD DUP1 DUP4 DUP2 MSTORE PUSH1 0x20 ADD DUP3 DUP2 MSTORE PUSH1 0x20 ADD SWAP3 POP POP POP PUSH1 0x40 MLOAD PUSH1 0x20 DUP2 DUP4 SUB SUB DUP2 MSTORE SWAP1 PUSH1 0x40 MSTORE DUP1 MLOAD SWAP1 PUSH1 0x20 ADD KECCAK256 PUSH1 0x40 MLOAD DUP4 PUSH4 0xFFFFFFFF AND PUSH1 0xE0 SHL DUP2 MSTORE PUSH1 0x4 ADD DUP1 DUP4 DUP2 MSTORE PUSH1 0x20 ADD DUP3 DUP2 MSTORE PUSH1 0x20 ADD SWAP3 POP POP POP PUSH1 0x20 PUSH1 0x40 MLOAD DUP1 DUP4 SUB DUP2 DUP7 DUP1 EXTCODESIZE ISZERO DUP1 ISZERO PUSH2 0x3042 JUMPI PUSH1 0x0 DUP1 REVERT JUMPDEST PUSH1 0x0 PUSH2 0x3A26 PUSH2 0x30BF JUMP JUMPDEST PUSH1 0x1 PUSH1 0x1 PUSH1 0xA0 SHL SUB AND PUSH4 0x23257C2B PUSH1 0x0 DUP1 MLOAD PUSH1 0x20 PUSH2 0x42C3 DUP4 CODECOPY DUP2 MLOAD SWAP2 MSTORE PUSH16 0x6C69717569646174696F6E44656C6179 PUSH1 0x80 SHL PUSH1 0x40 MLOAD DUP4 PUSH4 0xFFFFFFFF AND PUSH1 0xE0 SHL DUP2 MSTORE PUSH1 0x4 ADD DUP1 DUP4 DUP2 MSTORE PUSH1 0x20 ADD DUP3 DUP2 MSTORE PUSH1 0x20 ADD SWAP3 POP POP POP PUSH1 0x20 PUSH1 0x40 MLOAD DUP1 DUP4 SUB DUP2 DUP7 DUP1 EXTCODESIZE ISZERO DUP1 ISZERO PUSH2 0x3151 JUMPI PUSH1 0x0 DUP1 REVERT JUMPDEST PUSH1 0x0 PUSH2 0x3A9C PUSH2 0x30BF JUMP JUMPDEST PUSH1 0x1 PUSH1 0x1 PUSH1 0xA0 SHL SUB AND PUSH4 0x23257C2B PUSH1 0x0 DUP1 MLOAD PUSH1 0x20 PUSH2 0x42C3 DUP4 CODECOPY DUP2 MLOAD SWAP2 MSTORE PUSH23 0x61746F6D69634D6178566F6C756D65506572426C6F636B PUSH1 0x48 SHL PUSH1 0x40 MLOAD DUP4 PUSH4 0xFFFFFFFF AND PUSH1 0xE0 SHL DUP2 MSTORE PUSH1 0x4 ADD DUP1 DUP4 DUP2 MSTORE PUSH1 0x20 ADD DUP3 DUP2 MSTORE PUSH1 0x20 ADD SWAP3 POP POP POP PUSH1 0x20 PUSH1 0x40 MLOAD DUP1 DUP4 SUB DUP2 DUP7 DUP1 EXTCODESIZE ISZERO DUP1 ISZERO PUSH2 0x3151 JUMPI PUSH1 0x0 DUP1 REVERT JUMPDEST PUSH1 0x0 PUSH2 0x3B19 PUSH2 0x30BF JUMP JUMPDEST PUSH1 0x1 PUSH1 0x1 PUSH1 0xA0 SHL SUB AND PUSH4 0x23257C2B PUSH1 0x0 DUP1 MLOAD PUSH1 0x20 PUSH2 0x42C3 DUP4 CODECOPY DUP2 MLOAD SWAP2 MSTORE PUSH32 0x61746F6D6963566F6C436F6E73696465726174696F6E57696E646F7700000000 DUP6 PUSH1 0x40 MLOAD PUSH1 0x20 ADD DUP1 DUP4 DUP2 MSTORE PUSH1 0x20 ADD DUP3 DUP2 MSTORE PUSH1 0x20 ADD SWAP3 POP POP POP PUSH1 0x40 MLOAD PUSH1 0x20 DUP2 DUP4 SUB SUB DUP2 MSTORE SWAP1 PUSH1 0x40 MSTORE DUP1 MLOAD SWAP1 PUSH1 0x20 ADD KECCAK256 PUSH1 0x40 MLOAD DUP4 PUSH4 0xFFFFFFFF AND PUSH1 0xE0 SHL DUP2 MSTORE PUSH1 0x4 ADD DUP1 DUP4 DUP2 MSTORE PUSH1 0x20 ADD DUP3 DUP2 MSTORE PUSH1 0x20 ADD SWAP3 POP POP POP PUSH1 0x20 PUSH1 0x40 MLOAD DUP1 DUP4 SUB DUP2 DUP7 DUP1 EXTCODESIZE ISZERO DUP1 ISZERO PUSH2 0x3042 JUMPI PUSH1 0x0 DUP1 REVERT JUMPDEST PUSH1 0x0 PUSH2 0x3BCA PUSH2 0x30BF JUMP JUMPDEST PUSH1 0x1 PUSH1 0x1 PUSH1 0xA0 SHL SUB AND PUSH4 0x23257C2B PUSH1 0x0 DUP1 MLOAD PUSH1 0x20 PUSH2 0x42C3 DUP4 CODECOPY DUP2 MLOAD SWAP2 MSTORE PUSH21 0x64656274536E617073686F745374616C6554696D65 PUSH1 0x58 SHL PUSH1 0x40 MLOAD DUP4 PUSH4 0xFFFFFFFF AND PUSH1 0xE0 SHL DUP2 MSTORE PUSH1 0x4 ADD DUP1 DUP4 DUP2 MSTORE PUSH1 0x20 ADD DUP3 DUP2 MSTORE PUSH1 0x20 ADD SWAP3 POP POP POP PUSH1 0x20 PUSH1 0x40 MLOAD DUP1 DUP4 SUB DUP2 DUP7 DUP1 EXTCODESIZE ISZERO DUP1 ISZERO PUSH2 0x3151 JUMPI PUSH1 0x0 DUP1 REVERT JUMPDEST PUSH1 0x0 PUSH2 0x3C45 PUSH2 0x30BF JUMP JUMPDEST PUSH1 0x1 PUSH1 0x1 PUSH1 0xA0 SHL SUB AND PUSH4 0x23257C2B PUSH1 0x0 DUP1 MLOAD PUSH1 0x20 PUSH2 0x42C3 DUP4 CODECOPY DUP2 MLOAD SWAP2 MSTORE PUSH17 0x30BA37B6B4B1A83934B1B2A13AB33332B9 PUSH1 0x79 SHL DUP6 PUSH1 0x40 MLOAD PUSH1 0x20 ADD DUP1 DUP4 DUP2 MSTORE PUSH1 0x20 ADD DUP3 DUP2 MSTORE PUSH1 0x20 ADD SWAP3 POP POP POP PUSH1 0x40 MLOAD PUSH1 0x20 DUP2 DUP4 SUB SUB DUP2 MSTORE SWAP1 PUSH1 0x40 MSTORE DUP1 MLOAD SWAP1 PUSH1 0x20 ADD KECCAK256 PUSH1 0x40 MLOAD DUP4 PUSH4 0xFFFFFFFF AND PUSH1 0xE0 SHL DUP2 MSTORE PUSH1 0x4 ADD DUP1 DUP4 DUP2 MSTORE PUSH1 0x20 ADD DUP3 DUP2 MSTORE PUSH1 0x20 ADD SWAP3 POP POP POP PUSH1 0x20 PUSH1 0x40 MLOAD DUP1 DUP4 SUB DUP2 DUP7 DUP1 EXTCODESIZE ISZERO DUP1 ISZERO PUSH2 0x3042 JUMPI PUSH1 0x0 DUP1 REVERT JUMPDEST PUSH1 0x0 PUSH2 0x3CEA PUSH2 0x30BF JUMP JUMPDEST PUSH1 0x1 PUSH1 0x1 PUSH1 0xA0 SHL SUB AND PUSH4 0x23257C2B PUSH1 0x0 DUP1 MLOAD PUSH1 0x20 PUSH2 0x42C3 DUP4 CODECOPY DUP2 MLOAD SWAP2 MSTORE PUSH18 0xCAE8D0CAE4AEE4C2E0E0CAE49AC2F08AA89 PUSH1 0x73 SHL PUSH1 0x40 MLOAD DUP4 PUSH4 0xFFFFFFFF AND PUSH1 0xE0 SHL DUP2 MSTORE PUSH1 0x4 ADD DUP1 DUP4 DUP2 MSTORE PUSH1 0x20 ADD DUP3 DUP2 MSTORE PUSH1 0x20 ADD SWAP3 POP POP POP PUSH1 0x20 PUSH1 0x40 MLOAD DUP1 DUP4 SUB DUP2 DUP7 DUP1 EXTCODESIZE ISZERO DUP1 ISZERO PUSH2 0x3151 JUMPI PUSH1 0x0 DUP1 REVERT JUMPDEST PUSH1 0x0 PUSH2 0x3D62 PUSH2 0x30BF JUMP JUMPDEST PUSH1 0x1 PUSH1 0x1 PUSH1 0xA0 SHL SUB AND PUSH4 0xD994502D PUSH1 0x0 DUP1 MLOAD PUSH1 0x20 PUSH2 0x42C3 DUP4 CODECOPY DUP2 MLOAD SWAP2 MSTORE PUSH21 0x1D1C98591A5B99D4995DD85C991CD15B98589B1959 PUSH1 0x5A SHL PUSH1 0x40 MLOAD DUP4 PUSH4 0xFFFFFFFF AND PUSH1 0xE0 SHL DUP2 MSTORE PUSH1 0x4 ADD DUP1 DUP4 DUP2 MSTORE PUSH1 0x20 ADD DUP3 DUP2 MSTORE PUSH1 0x20 ADD SWAP3 POP POP POP PUSH1 0x20 PUSH1 0x40 MLOAD DUP1 DUP4 SUB DUP2 DUP7 DUP1 EXTCODESIZE ISZERO DUP1 ISZERO PUSH2 0x3151 JUMPI PUSH1 0x0 DUP1 REVERT JUMPDEST PUSH1 0x0 DUP1 DUP3 PUSH1 0x3 DUP2 GT ISZERO PUSH2 0x3DE2 JUMPI INVALID JUMPDEST EQ ISZERO PUSH2 0x3E0F JUMPI POP PUSH32 0x63726F7373446F6D61696E4465706F7369744761734C696D6974000000000000 PUSH2 0xAEA JUMP JUMPDEST PUSH1 0x1 DUP3 PUSH1 0x3 DUP2 GT ISZERO PUSH2 0x3E1D JUMPI INVALID JUMPDEST EQ ISZERO PUSH2 0x3E4A JUMPI POP PUSH32 0x63726F7373446F6D61696E457363726F774761734C696D697400000000000000 PUSH2 0xAEA JUMP JUMPDEST PUSH1 0x2 DUP3 PUSH1 0x3 DUP2 GT ISZERO PUSH2 0x3E58 JUMPI INVALID JUMPDEST EQ ISZERO PUSH2 0x3E85 JUMPI POP PUSH32 0x63726F7373446F6D61696E5265776172644761734C696D697400000000000000 PUSH2 0xAEA JUMP JUMPDEST PUSH1 0x3 DUP3 PUSH1 0x3 DUP2 GT ISZERO PUSH2 0x3E93 JUMPI INVALID JUMPDEST EQ ISZERO PUSH2 0x3EC0 JUMPI POP PUSH32 0x63726F7373446F6D61696E5769746864726177616C4761734C696D6974000000 PUSH2 0xAEA JUMP JUMPDEST PUSH1 0x40 DUP1 MLOAD PUSH3 0x461BCD PUSH1 0xE5 SHL DUP2 MSTORE PUSH1 0x20 PUSH1 0x4 DUP3 ADD MSTORE PUSH1 0x16 PUSH1 0x24 DUP3 ADD MSTORE PUSH22 0x556E6B6E6F776E20676173206C696D69742074797065 PUSH1 0x50 SHL PUSH1 0x44 DUP3 ADD MSTORE SWAP1 MLOAD SWAP1 DUP2 SWAP1 SUB PUSH1 0x64 ADD SWAP1 REVERT JUMPDEST PUSH1 0x0 PUSH2 0x3F10 PUSH2 0x30BF JUMP JUMPDEST PUSH1 0x1 PUSH1 0x1 PUSH1 0xA0 SHL SUB AND PUSH4 0x23257C2B PUSH1 0x0 DUP1 MLOAD PUSH1 0x20 PUSH2 0x42C3 DUP4 CODECOPY DUP2 MLOAD SWAP2 MSTORE PUSH15 0x1D185C99D95D151A1C995CDA1BDB19 PUSH1 0x8A SHL PUSH1 0x40 MLOAD DUP4 PUSH4 0xFFFFFFFF AND PUSH1 0xE0 SHL DUP2 MSTORE PUSH1 0x4 ADD DUP1 DUP4 DUP2 MSTORE PUSH1 0x20 ADD DUP3 DUP2 MSTORE PUSH1 0x20 ADD SWAP3 POP POP POP PUSH1 0x20 PUSH1 0x40 MLOAD DUP1 DUP4 SUB DUP2 DUP7 DUP1 EXTCODESIZE ISZERO DUP1 ISZERO PUSH2 0x3151 JUMPI PUSH1 0x0 DUP1 REVERT JUMPDEST PUSH1 0x0 PUSH2 0x3F85 PUSH2 0x30BF JUMP JUMPDEST PUSH1 0x1 PUSH1 0x1 PUSH1 0xA0 SHL SUB AND PUSH4 0x9EE5955A PUSH1 0x0 DUP1 MLOAD PUSH1 0x20 PUSH2 0x42C3 DUP4 CODECOPY DUP2 MLOAD SWAP2 MSTORE PUSH32 0x61746F6D69634571756976616C656E74466F7244657850726963696E67000000 DUP6 PUSH1 0x40 MLOAD PUSH1 0x20 ADD DUP1 DUP4 DUP2 MSTORE PUSH1 0x20 ADD DUP3 DUP2 MSTORE PUSH1 0x20 ADD SWAP3 POP POP POP PUSH1 0x40 MLOAD PUSH1 0x20 DUP2 DUP4 SUB SUB DUP2 MSTORE SWAP1 PUSH1 0x40 MSTORE DUP1 MLOAD SWAP1 PUSH1 0x20 ADD KECCAK256 PUSH1 0x40 MLOAD DUP4 PUSH4 0xFFFFFFFF AND PUSH1 0xE0 SHL DUP2 MSTORE PUSH1 0x4 ADD DUP1 DUP4 DUP2 MSTORE PUSH1 0x20 ADD DUP3 DUP2 MSTORE PUSH1 0x20 ADD SWAP3 POP POP POP PUSH1 0x20 PUSH1 0x40 MLOAD DUP1 DUP4 SUB DUP2 DUP7 DUP1 EXTCODESIZE ISZERO DUP1 ISZERO PUSH2 0x3042 JUMPI PUSH1 0x0 DUP1 REVERT JUMPDEST PUSH1 0x0 DUP2 DUP2 MSTORE PUSH1 0x3 PUSH1 0x20 SWAP1 DUP2 MSTORE PUSH1 0x40 DUP1 DUP4 KECCAK256 SLOAD DUP2 MLOAD PUSH17 0x26B4B9B9B4B7339030B2323932B9B99D1 PUSH1 0x7D SHL SWAP4 DUP2 ADD SWAP4 SWAP1 SWAP4 MSTORE PUSH1 0x31 DUP1 DUP5 ADD DUP7 SWAP1 MSTORE DUP3 MLOAD DUP1 DUP6 SUB SWAP1 SWAP2 ADD DUP2 MSTORE PUSH1 0x51 SWAP1 SWAP4 ADD SWAP1 SWAP2 MSTORE PUSH1 0x1 PUSH1 0x1 PUSH1 0xA0 SHL SUB AND SWAP1 DUP2 PUSH2 0x4109 JUMPI PUSH1 0x40 MLOAD PUSH3 0x461BCD PUSH1 0xE5 SHL DUP2 MSTORE PUSH1 0x4 ADD DUP1 DUP1 PUSH1 0x20 ADD DUP3 DUP2 SUB DUP3 MSTORE DUP4 DUP2 DUP2 MLOAD DUP2 MSTORE PUSH1 0x20 ADD SWAP2 POP DUP1 MLOAD SWAP1 PUSH1 0x20 ADD SWAP1 DUP1 DUP4 DUP4 PUSH1 0x0 JUMPDEST DUP4 DUP2 LT ISZERO PUSH2 0x40CE JUMPI DUP2 DUP2 ADD MLOAD DUP4 DUP3 ADD MSTORE PUSH1 0x20 ADD PUSH2 0x40B6 JUMP JUMPDEST POP POP POP POP SWAP1 POP SWAP1 DUP2 ADD SWAP1 PUSH1 0x1F AND DUP1 ISZERO PUSH2 0x40FB JUMPI DUP1 DUP3 SUB DUP1 MLOAD PUSH1 0x1 DUP4 PUSH1 0x20 SUB PUSH2 0x100 EXP SUB NOT AND DUP2 MSTORE PUSH1 0x20 ADD SWAP2 POP JUMPDEST POP SWAP3 POP POP POP PUSH1 0x40 MLOAD DUP1 SWAP2 SUB SWAP1 REVERT JUMPDEST POP SWAP3 SWAP2 POP POP JUMP INVALID PUSH17 0x656E616C7479203E204D41585F4C495155 0x49 DIFFICULTY COINBASE SLOAD 0x49 0x4F 0x4E 0x5F POP GASLIMIT 0x4E COINBASE 0x4C SLOAD MSIZE MSIZE PUSH16 0x75206D757374206265206E6F6D696E61 PUSH21 0x6564206265666F726520796F752063616E20616363 PUSH6 0x7074206F776E PUSH6 0x72736869706C PUSH10 0x717569646174696F6E52 PUSH2 0x7469 PUSH16 0x203E204D41585F4C4951554944415449 0x4F 0x4E 0x5F MSTORE COINBASE SLOAD 0x49 0x4F KECCAK256 0x2F KECCAK256 0x28 BALANCE KECCAK256 0x2B KECCAK256 PUSH17 0x656E616C74792941746F6D6963206D6178 KECCAK256 PUSH23 0x6F6C756D6520657863656564206D6178696D756D207569 PUSH15 0x743139324F6E6C792074686520636F PUSH15 0x7472616374206F776E6572206D6179 KECCAK256 PUSH17 0x6572666F726D207468697320616374696F PUSH15 0x72617465203E204D41585F45544845 MSTORE 0x5F JUMPI MSTORE COINBASE POP POP GASLIMIT MSTORE 0x5F 0x4D 0x49 0x4E SLOAD 0x5F CHAINID GASLIMIT GASLIMIT 0x5F MSTORE COINBASE SLOAD GASLIMIT MSTORE8 PUSH2 0x6665 0x4D PUSH2 0x7468 GASPRICE KECCAK256 PUSH14 0x756C7469706C69636174696F6E20 PUSH16 0x766572666C6F7741746F6D696320766F PUSH13 0x6174696C69747920636F6E7369 PUSH5 0x6572617469 PUSH16 0x6E2077696E646F7720756E646572206D PUSH10 0x6E696D756D2031206D69 PUSH15 0x72617465203E204D41585F45544845 MSTORE 0x5F JUMPI MSTORE COINBASE POP POP GASLIMIT MSTORE 0x5F TIMESTAMP SSTORE MSTORE 0x4E 0x5F CHAINID GASLIMIT GASLIMIT 0x5F MSTORE COINBASE SLOAD GASLIMIT COINBASE PUSH21 0x6F6D696320747761702077696E646F7720756E6465 PUSH19 0x206D696E696D756D2031206D696E5379737465 PUSH14 0x53657474696E6773000000000000 STOP STOP STOP STOP STOP STOP STOP STOP STOP STOP STOP STOP 0x4E PUSH6 0x772069737375 PUSH2 0x6E63 PUSH6 0x20726174696F KECCAK256 PUSH4 0x616E6E6F PUSH21 0x20657863656564204D41585F49535355414E43455F MSTORE COINBASE SLOAD 0x49 0x4F PUSH13 0x69717569646174696F6E526174 PUSH10 0x6F203C204D494E5F4C49 MLOAD SSTORE 0x49 DIFFICULTY COINBASE SLOAD 0x49 0x4F 0x4E 0x5F MSTORE COINBASE SLOAD 0x49 0x4F COINBASE PUSH21 0x6F6D696320747761702077696E646F772065786365 PUSH6 0x64206D617869 PUSH14 0x756D20312064617941746F6D6963 KECCAK256 PUSH23 0x6F6C6174696C69747920636F6E73696465726174696F6E KECCAK256 PUSH24 0x696E646F7720657863656564206D6178696D756D20312064 PUSH2 0x79A2 PUSH6 0x627A7A723158 KECCAK256 TIMESTAMP 0xFB CALLDATASIZE CALLCODE 0xA5 SWAP1 PUSH28 0x6260A89C3007290220B540846D0BDA6901DFCA72BF95932FFB64736F PUSH13 0x63430005100032000000000000 "
    }
  }
}